{
  "_format": "hh-sol-artifact-1",
  "contractName": "TokenDesdeCero",
  "sourceName": "contracts/class09/TokenDesdeZero.sol",
  "abi": [
    {
      "anonymous": false,
      "inputs": [
        {
          "indexed": true,
          "internalType": "address",
          "name": "owner",
          "type": "address"
        },
        {
          "indexed": true,
          "internalType": "address",
          "name": "spender",
          "type": "address"
        },
        {
          "indexed": false,
          "internalType": "uint256",
          "name": "amount",
          "type": "uint256"
        }
      ],
      "name": "Approval",
      "type": "event"
    },
    {
      "anonymous": false,
      "inputs": [
        {
          "indexed": true,
          "internalType": "address",
          "name": "from",
          "type": "address"
        },
        {
          "indexed": true,
          "internalType": "address",
          "name": "to",
          "type": "address"
        },
        {
          "indexed": false,
          "internalType": "uint256",
          "name": "amount",
          "type": "uint256"
        }
      ],
      "name": "Transfer",
      "type": "event"
    },
    {
      "inputs": [
        {
          "internalType": "address",
          "name": "owner",
          "type": "address"
        },
        {
          "internalType": "address",
          "name": "spender",
          "type": "address"
        }
      ],
      "name": "allowance",
      "outputs": [
        {
          "internalType": "uint256",
          "name": "",
          "type": "uint256"
        }
      ],
      "stateMutability": "view",
      "type": "function"
    },
    {
      "inputs": [
        {
          "internalType": "address",
          "name": "spender",
          "type": "address"
        },
        {
          "internalType": "uint256",
          "name": "amount",
          "type": "uint256"
        }
      ],
      "name": "approve",
      "outputs": [],
      "stateMutability": "nonpayable",
      "type": "function"
    },
    {
      "inputs": [
        {
          "internalType": "address",
          "name": "account",
          "type": "address"
        }
      ],
      "name": "balanceOf",
      "outputs": [
        {
          "internalType": "uint256",
          "name": "",
          "type": "uint256"
        }
      ],
      "stateMutability": "view",
      "type": "function"
    },
    {
      "inputs": [
        {
          "internalType": "uint256",
          "name": "amount",
          "type": "uint256"
        }
      ],
      "name": "burn",
      "outputs": [],
      "stateMutability": "nonpayable",
      "type": "function"
    },
    {
      "inputs": [],
      "name": "decimals",
      "outputs": [
        {
          "internalType": "uint256",
          "name": "",
          "type": "uint256"
        }
      ],
      "stateMutability": "pure",
      "type": "function"
    },
    {
      "inputs": [
        {
          "internalType": "address",
          "name": "to",
          "type": "address"
        },
        {
          "internalType": "uint256",
          "name": "amount",
          "type": "uint256"
        }
      ],
      "name": "mint",
      "outputs": [],
      "stateMutability": "nonpayable",
      "type": "function"
    },
    {
      "inputs": [],
      "name": "name",
      "outputs": [
        {
          "internalType": "string",
          "name": "",
          "type": "string"
        }
      ],
      "stateMutability": "pure",
      "type": "function"
    },
    {
      "inputs": [],
      "name": "symbol",
      "outputs": [
        {
          "internalType": "string",
          "name": "",
          "type": "string"
        }
      ],
      "stateMutability": "pure",
      "type": "function"
    },
    {
      "inputs": [],
      "name": "totalSuppy",
      "outputs": [
        {
          "internalType": "uint256",
          "name": "",
          "type": "uint256"
        }
      ],
      "stateMutability": "view",
      "type": "function"
    },
    {
      "inputs": [
        {
          "internalType": "address",
          "name": "to",
          "type": "address"
        },
        {
          "internalType": "uint256",
          "name": "amount",
          "type": "uint256"
        }
      ],
      "name": "transfer",
      "outputs": [],
      "stateMutability": "nonpayable",
      "type": "function"
    },
    {
      "inputs": [
        {
          "internalType": "address",
          "name": "from",
          "type": "address"
        },
        {
          "internalType": "address",
          "name": "to",
          "type": "address"
        },
        {
          "internalType": "uint256",
          "name": "amount",
          "type": "uint256"
        }
      ],
      "name": "transferFrom",
      "outputs": [],
      "stateMutability": "nonpayable",
      "type": "function"
    }
  ],
  "bytecode": "0x608060405234801561001057600080fd5b50610f16806100206000396000f3fe608060405234801561001057600080fd5b50600436106100a95760003560e01c806342966c681161007157806342966c681461013e57806370a082311461015a57806395d89b411461018a578063a9059cbb146101a8578063d524ccbb146101c4578063dd62ed3e146101e2576100a9565b806306fdde03146100ae578063095ea7b3146100cc57806323b872dd146100e8578063313ce5671461010457806340c10f1914610122575b600080fd5b6100b6610212565b6040516100c39190610a87565b60405180910390f35b6100e660048036038101906100e19190610b42565b61024f565b005b61010260048036038101906100fd9190610b82565b610339565b005b61010c6104a1565b6040516101199190610be4565b60405180910390f35b61013c60048036038101906101379190610b42565b6104aa565b005b61015860048036038101906101539190610bff565b610582565b005b610174600480360381019061016f9190610c2c565b610659565b6040516101819190610be4565b60405180910390f35b6101926106a2565b60405161019f9190610a87565b60405180910390f35b6101c260048036038101906101bd9190610b42565b6106df565b005b6101cc6106ee565b6040516101d99190610be4565b60405180910390f35b6101fc60048036038101906101f79190610c59565b6106f4565b6040516102099190610be4565b60405180910390f35b60606040518060400160405280601281526020017f4c6565204d61727265726f7320546f6b656e0000000000000000000000000000815250905090565b80600260003373ffffffffffffffffffffffffffffffffffffffff1673ffffffffffffffffffffffffffffffffffffffff16815260200190815260200160002060008473ffffffffffffffffffffffffffffffffffffffff1673ffffffffffffffffffffffffffffffffffffffff168152602001908152602001600020819055508173ffffffffffffffffffffffffffffffffffffffff163373ffffffffffffffffffffffffffffffffffffffff167f8c5be1e5ebec7d5bd14f71427d1e84f3dd0314c0f7b2291e5b200ac8c7c3b9258360405161032d9190610be4565b60405180910390a35050565b6000600260008573ffffffffffffffffffffffffffffffffffffffff1673ffffffffffffffffffffffffffffffffffffffff16815260200190815260200160002060003373ffffffffffffffffffffffffffffffffffffffff1673ffffffffffffffffffffffffffffffffffffffff168152602001908152602001600020549050818110156103fd576040517f08c379a00000000000000000000000000000000000000000000000000000000081526004016103f490610ce5565b60405180910390fd5b81600260008673ffffffffffffffffffffffffffffffffffffffff1673ffffffffffffffffffffffffffffffffffffffff16815260200190815260200160002060003373ffffffffffffffffffffffffffffffffffffffff1673ffffffffffffffffffffffffffffffffffffffff16815260200190815260200160002060008282546104899190610d34565b9250508190555061049b84848461077b565b50505050565b60006012905090565b80600160008473ffffffffffffffffffffffffffffffffffffffff1673ffffffffffffffffffffffffffffffffffffffff16815260200190815260200160002060008282546104f99190610d68565b92505081905550806000808282546105119190610d68565b925050819055508173ffffffffffffffffffffffffffffffffffffffff16600073ffffffffffffffffffffffffffffffffffffffff167fddf252ad1be2c89b69c2b068fc378daa952ba7f163c4a11628f55a4df523b3ef836040516105769190610be4565b60405180910390a35050565b80600160003373ffffffffffffffffffffffffffffffffffffffff1673ffffffffffffffffffffffffffffffffffffffff16815260200190815260200160002060008282546105d19190610d34565b92505081905550806000808282546105e99190610d34565b92505081905550600073ffffffffffffffffffffffffffffffffffffffff163373ffffffffffffffffffffffffffffffffffffffff167fddf252ad1be2c89b69c2b068fc378daa952ba7f163c4a11628f55a4df523b3ef8360405161064e9190610be4565b60405180910390a350565b6000600160008373ffffffffffffffffffffffffffffffffffffffff1673ffffffffffffffffffffffffffffffffffffffff168152602001908152602001600020549050919050565b60606040518060400160405280600781526020017f4c4d5252544b4e00000000000000000000000000000000000000000000000000815250905090565b6106ea33838361077b565b5050565b60005481565b6000600260008473ffffffffffffffffffffffffffffffffffffffff1673ffffffffffffffffffffffffffffffffffffffff16815260200190815260200160002060008373ffffffffffffffffffffffffffffffffffffffff1673ffffffffffffffffffffffffffffffffffffffff16815260200190815260200160002054905092915050565b600073ffffffffffffffffffffffffffffffffffffffff168373ffffffffffffffffffffffffffffffffffffffff16036107ea576040517f08c379a00000000000000000000000000000000000000000000000000000000081526004016107e190610de8565b60405180910390fd5b600073ffffffffffffffffffffffffffffffffffffffff168273ffffffffffffffffffffffffffffffffffffffff1603610859576040517f08c379a000000000000000000000000000000000000000000000000000000000815260040161085090610e54565b60405180910390fd5b6000600160008573ffffffffffffffffffffffffffffffffffffffff1673ffffffffffffffffffffffffffffffffffffffff168152602001908152602001600020549050818110156108e0576040517f08c379a00000000000000000000000000000000000000000000000000000000081526004016108d790610ec0565b60405180910390fd5b81600160008673ffffffffffffffffffffffffffffffffffffffff1673ffffffffffffffffffffffffffffffffffffffff168152602001908152602001600020600082825461092f9190610d34565b9250508190555081600160008573ffffffffffffffffffffffffffffffffffffffff1673ffffffffffffffffffffffffffffffffffffffff16815260200190815260200160002060008282546109859190610d68565b925050819055508273ffffffffffffffffffffffffffffffffffffffff168473ffffffffffffffffffffffffffffffffffffffff167fddf252ad1be2c89b69c2b068fc378daa952ba7f163c4a11628f55a4df523b3ef846040516109e99190610be4565b60405180910390a350505050565b600081519050919050565b600082825260208201905092915050565b60005b83811015610a31578082015181840152602081019050610a16565b60008484015250505050565b6000601f19601f8301169050919050565b6000610a59826109f7565b610a638185610a02565b9350610a73818560208601610a13565b610a7c81610a3d565b840191505092915050565b60006020820190508181036000830152610aa18184610a4e565b905092915050565b600080fd5b600073ffffffffffffffffffffffffffffffffffffffff82169050919050565b6000610ad982610aae565b9050919050565b610ae981610ace565b8114610af457600080fd5b50565b600081359050610b0681610ae0565b92915050565b6000819050919050565b610b1f81610b0c565b8114610b2a57600080fd5b50565b600081359050610b3c81610b16565b92915050565b60008060408385031215610b5957610b58610aa9565b5b6000610b6785828601610af7565b9250506020610b7885828601610b2d565b9150509250929050565b600080600060608486031215610b9b57610b9a610aa9565b5b6000610ba986828701610af7565b9350506020610bba86828701610af7565b9250506040610bcb86828701610b2d565b9150509250925092565b610bde81610b0c565b82525050565b6000602082019050610bf96000830184610bd5565b92915050565b600060208284031215610c1557610c14610aa9565b5b6000610c2384828501610b2d565b91505092915050565b600060208284031215610c4257610c41610aa9565b5b6000610c5084828501610af7565b91505092915050565b60008060408385031215610c7057610c6f610aa9565b5b6000610c7e85828601610af7565b9250506020610c8f85828601610af7565b9150509250929050565b7f4e6f207469656e657320737566696369656e7465207065726d69736f00000000600082015250565b6000610ccf601c83610a02565b9150610cda82610c99565b602082019050919050565b60006020820190508181036000830152610cfe81610cc2565b9050919050565b7f4e487b7100000000000000000000000000000000000000000000000000000000600052601160045260246000fd5b6000610d3f82610b0c565b9150610d4a83610b0c565b9250828203905081811115610d6257610d61610d05565b5b92915050565b6000610d7382610b0c565b9150610d7e83610b0c565b9250828201905080821115610d9657610d95610d05565b5b92915050565b7f456e7669616e646f2064657364652041646472657373205a65726f0000000000600082015250565b6000610dd2601b83610a02565b9150610ddd82610d9c565b602082019050919050565b60006020820190508181036000830152610e0181610dc5565b9050919050565b7f456e7669616e646f20612041646472657373205a65726f000000000000000000600082015250565b6000610e3e601783610a02565b9150610e4982610e08565b602082019050919050565b60006020820190508181036000830152610e6d81610e31565b9050919050565b7f4e6f207469656e6520737566696369656e74652062616c616e63650000000000600082015250565b6000610eaa601b83610a02565b9150610eb582610e74565b602082019050919050565b60006020820190508181036000830152610ed981610e9d565b905091905056fea26469706673582212206d8e1cdd6fad369e46df34ef8a0ac1b0a6ba245f5e67dbedeea96b725b76868464736f6c63430008130033",
  "linkReferences": {},
  "deployedLinkReferences": {}
}