{
  "_format": "hh-sol-artifact-1",
  "contractName": "Desafio_3",
  "sourceName": "contracts/desafios/Desafio_3.sol",
  "abi": [
    {
      "inputs": [
        {
          "internalType": "uint256",
          "name": "_cantidad",
          "type": "uint256"
        }
      ],
      "name": "depositar",
      "outputs": [],
      "stateMutability": "nonpayable",
      "type": "function"
    },
    {
      "inputs": [
        {
          "internalType": "uint256",
          "name": "_cantidad",
          "type": "uint256"
        }
      ],
      "name": "retirar",
      "outputs": [],
      "stateMutability": "nonpayable",
      "type": "function"
    },
    {
      "inputs": [
        {
          "internalType": "address",
          "name": "_destinatario",
          "type": "address"
        },
        {
          "internalType": "uint256",
          "name": "_cantidad",
          "type": "uint256"
        }
      ],
      "name": "transferir",
      "outputs": [],
      "stateMutability": "nonpayable",
      "type": "function"
    }
  ],
  "bytecode": "0x608060405234801561001057600080fd5b506101e0806100206000396000f3fe608060405234801561001057600080fd5b50600436106100415760003560e01c806340847d2d14610046578063d5ca622814610062578063e8b1298f1461007e575b600080fd5b610060600480360381019061005b919061013d565b61009a565b005b61007c6004803603810190610077919061017d565b61009e565b005b6100986004803603810190610093919061017d565b6100a1565b005b5050565b50565b50565b600080fd5b600073ffffffffffffffffffffffffffffffffffffffff82169050919050565b60006100d4826100a9565b9050919050565b6100e4816100c9565b81146100ef57600080fd5b50565b600081359050610101816100db565b92915050565b6000819050919050565b61011a81610107565b811461012557600080fd5b50565b60008135905061013781610111565b92915050565b60008060408385031215610154576101536100a4565b5b6000610162858286016100f2565b925050602061017385828601610128565b9150509250929050565b600060208284031215610193576101926100a4565b5b60006101a184828501610128565b9150509291505056fea26469706673582212209d42acca2eba20d264813fa8463ec8cdadd82b1206468daeb3259591c6c7fb0a64736f6c63430008130033",
  "linkReferences": {},
  "deployedLinkReferences": {}
}