{
  "_format": "hh-sol-artifact-1",
  "contractName": "Desafio_4",
  "sourceName": "contracts/desafios/Desafio_4.sol",
  "abi": [
    {
      "inputs": [],
      "name": "CantidadIncorrectaEth",
      "type": "error"
    },
    {
      "inputs": [],
      "name": "FueraDeTiempo",
      "type": "error"
    },
    {
      "inputs": [],
      "name": "OfertaInvalida",
      "type": "error"
    },
    {
      "inputs": [],
      "name": "SubastaEnMarcha",
      "type": "error"
    },
    {
      "inputs": [],
      "name": "SubastaInexistente",
      "type": "error"
    },
    {
      "inputs": [],
      "name": "TiempoInvalido",
      "type": "error"
    },
    {
      "anonymous": false,
      "inputs": [
        {
          "indexed": true,
          "internalType": "address",
          "name": "_bidder",
          "type": "address"
        },
        {
          "indexed": false,
          "internalType": "uint256",
          "name": "_bid",
          "type": "uint256"
        }
      ],
      "name": "OfertaPropuesta",
      "type": "event"
    },
    {
      "anonymous": false,
      "inputs": [
        {
          "indexed": true,
          "internalType": "bytes32",
          "name": "_auctionId",
          "type": "bytes32"
        },
        {
          "indexed": true,
          "internalType": "address",
          "name": "_creator",
          "type": "address"
        }
      ],
      "name": "SubastaCreada",
      "type": "event"
    },
    {
      "anonymous": false,
      "inputs": [
        {
          "indexed": true,
          "internalType": "address",
          "name": "_winner",
          "type": "address"
        },
        {
          "indexed": false,
          "internalType": "uint256",
          "name": "_bid",
          "type": "uint256"
        }
      ],
      "name": "SubastaFinalizada",
      "type": "event"
    },
    {
      "inputs": [
        {
          "internalType": "uint256",
          "name": "_startTime",
          "type": "uint256"
        },
        {
          "internalType": "uint256",
          "name": "_endTime",
          "type": "uint256"
        }
      ],
      "name": "creaSubasta",
      "outputs": [],
      "stateMutability": "payable",
      "type": "function"
    },
    {
      "inputs": [
        {
          "internalType": "bytes32",
          "name": "_auctionId",
          "type": "bytes32"
        }
      ],
      "name": "finalizarSubasta",
      "outputs": [],
      "stateMutability": "nonpayable",
      "type": "function"
    },
    {
      "inputs": [
        {
          "internalType": "bytes32",
          "name": "_auctionId",
          "type": "bytes32"
        }
      ],
      "name": "proponerOferta",
      "outputs": [],
      "stateMutability": "payable",
      "type": "function"
    },
    {
      "inputs": [
        {
          "internalType": "bytes32",
          "name": "_auctionId",
          "type": "bytes32"
        }
      ],
      "name": "recuperarOferta",
      "outputs": [],
      "stateMutability": "nonpayable",
      "type": "function"
    },
    {
      "inputs": [],
      "name": "verSubastasActivas",
      "outputs": [
        {
          "internalType": "bytes32[]",
          "name": "",
          "type": "bytes32[]"
        }
      ],
      "stateMutability": "view",
      "type": "function"
    }
  ],
  "bytecode": "0x608060405234801561001057600080fd5b50610439806100206000396000f3fe60806040526004361061004a5760003560e01c80630a0934251461004f578063236cfff91461006b5780636d8a0fac14610094578063b169480f146100bd578063f2845dab146100e8575b600080fd5b61006960048036038101906100649190610197565b610104565b005b34801561007757600080fd5b50610092600480360381019061008d9190610197565b610107565b005b3480156100a057600080fd5b506100bb60048036038101906100b69190610197565b61010a565b005b3480156100c957600080fd5b506100d261010d565b6040516100df9190610282565b60405180910390f35b61010260048036038101906100fd91906102da565b610112565b005b50565b50565b50565b606090565b600061011e8383610125565b9050505050565b60008282334260405160200161013e94939291906103b5565b60405160208183030381529060405280519060200120905092915050565b600080fd5b6000819050919050565b61017481610161565b811461017f57600080fd5b50565b6000813590506101918161016b565b92915050565b6000602082840312156101ad576101ac61015c565b5b60006101bb84828501610182565b91505092915050565b600081519050919050565b600082825260208201905092915050565b6000819050602082019050919050565b6101f981610161565b82525050565b600061020b83836101f0565b60208301905092915050565b6000602082019050919050565b600061022f826101c4565b61023981856101cf565b9350610244836101e0565b8060005b8381101561027557815161025c88826101ff565b975061026783610217565b925050600181019050610248565b5085935050505092915050565b6000602082019050818103600083015261029c8184610224565b905092915050565b6000819050919050565b6102b7816102a4565b81146102c257600080fd5b50565b6000813590506102d4816102ae565b92915050565b600080604083850312156102f1576102f061015c565b5b60006102ff858286016102c5565b9250506020610310858286016102c5565b9150509250929050565b6000819050919050565b610335610330826102a4565b61031a565b82525050565b600073ffffffffffffffffffffffffffffffffffffffff82169050919050565b60006103668261033b565b9050919050565b60008160601b9050919050565b60006103858261036d565b9050919050565b60006103978261037a565b9050919050565b6103af6103aa8261035b565b61038c565b82525050565b60006103c18287610324565b6020820191506103d18286610324565b6020820191506103e1828561039e565b6014820191506103f18284610324565b6020820191508190509594505050505056fea264697066735822122064b68eb95ac7435cc47e30210665d881972789dd40237f70e4962097010b8ad464736f6c63430008130033",
  "linkReferences": {},
  "deployedLinkReferences": {}
}