{
  "_format": "hh-sol-artifact-1",
  "contractName": "MiPrimerNft",
  "sourceName": "contracts/class10/MiPrimerNFT.sol",
  "abi": [
    {
      "inputs": [
        {
          "internalType": "string",
          "name": "_collectionName",
          "type": "string"
        },
        {
          "internalType": "string",
          "name": "_collectionSymbol",
          "type": "string"
        }
      ],
      "stateMutability": "nonpayable",
      "type": "constructor"
    },
    {
      "anonymous": false,
      "inputs": [
        {
          "indexed": true,
          "internalType": "address",
          "name": "owner",
          "type": "address"
        },
        {
          "indexed": true,
          "internalType": "address",
          "name": "approved",
          "type": "address"
        },
        {
          "indexed": true,
          "internalType": "uint256",
          "name": "tokenId",
          "type": "uint256"
        }
      ],
      "name": "Approval",
      "type": "event"
    },
    {
      "anonymous": false,
      "inputs": [
        {
          "indexed": true,
          "internalType": "address",
          "name": "owner",
          "type": "address"
        },
        {
          "indexed": true,
          "internalType": "address",
          "name": "operator",
          "type": "address"
        },
        {
          "indexed": false,
          "internalType": "bool",
          "name": "approved",
          "type": "bool"
        }
      ],
      "name": "ApprovalForAll",
      "type": "event"
    },
    {
      "anonymous": false,
      "inputs": [
        {
          "indexed": false,
          "internalType": "address",
          "name": "account",
          "type": "address"
        }
      ],
      "name": "Paused",
      "type": "event"
    },
    {
      "anonymous": false,
      "inputs": [
        {
          "indexed": true,
          "internalType": "bytes32",
          "name": "role",
          "type": "bytes32"
        },
        {
          "indexed": true,
          "internalType": "bytes32",
          "name": "previousAdminRole",
          "type": "bytes32"
        },
        {
          "indexed": true,
          "internalType": "bytes32",
          "name": "newAdminRole",
          "type": "bytes32"
        }
      ],
      "name": "RoleAdminChanged",
      "type": "event"
    },
    {
      "anonymous": false,
      "inputs": [
        {
          "indexed": true,
          "internalType": "bytes32",
          "name": "role",
          "type": "bytes32"
        },
        {
          "indexed": true,
          "internalType": "address",
          "name": "account",
          "type": "address"
        },
        {
          "indexed": true,
          "internalType": "address",
          "name": "sender",
          "type": "address"
        }
      ],
      "name": "RoleGranted",
      "type": "event"
    },
    {
      "anonymous": false,
      "inputs": [
        {
          "indexed": true,
          "internalType": "bytes32",
          "name": "role",
          "type": "bytes32"
        },
        {
          "indexed": true,
          "internalType": "address",
          "name": "account",
          "type": "address"
        },
        {
          "indexed": true,
          "internalType": "address",
          "name": "sender",
          "type": "address"
        }
      ],
      "name": "RoleRevoked",
      "type": "event"
    },
    {
      "anonymous": false,
      "inputs": [
        {
          "indexed": true,
          "internalType": "address",
          "name": "from",
          "type": "address"
        },
        {
          "indexed": true,
          "internalType": "address",
          "name": "to",
          "type": "address"
        },
        {
          "indexed": true,
          "internalType": "uint256",
          "name": "tokenId",
          "type": "uint256"
        }
      ],
      "name": "Transfer",
      "type": "event"
    },
    {
      "anonymous": false,
      "inputs": [
        {
          "indexed": false,
          "internalType": "address",
          "name": "account",
          "type": "address"
        }
      ],
      "name": "Unpaused",
      "type": "event"
    },
    {
      "inputs": [],
      "name": "DEFAULT_ADMIN_ROLE",
      "outputs": [
        {
          "internalType": "bytes32",
          "name": "",
          "type": "bytes32"
        }
      ],
      "stateMutability": "view",
      "type": "function"
    },
    {
      "inputs": [],
      "name": "MINTER_ROLE",
      "outputs": [
        {
          "internalType": "bytes32",
          "name": "",
          "type": "bytes32"
        }
      ],
      "stateMutability": "view",
      "type": "function"
    },
    {
      "inputs": [],
      "name": "PAUSER_ROLE",
      "outputs": [
        {
          "internalType": "bytes32",
          "name": "",
          "type": "bytes32"
        }
      ],
      "stateMutability": "view",
      "type": "function"
    },
    {
      "inputs": [
        {
          "internalType": "address",
          "name": "to",
          "type": "address"
        },
        {
          "internalType": "uint256",
          "name": "tokenId",
          "type": "uint256"
        }
      ],
      "name": "approve",
      "outputs": [],
      "stateMutability": "nonpayable",
      "type": "function"
    },
    {
      "inputs": [
        {
          "internalType": "address",
          "name": "owner",
          "type": "address"
        }
      ],
      "name": "balanceOf",
      "outputs": [
        {
          "internalType": "uint256",
          "name": "",
          "type": "uint256"
        }
      ],
      "stateMutability": "view",
      "type": "function"
    },
    {
      "inputs": [
        {
          "internalType": "uint256",
          "name": "tokenId",
          "type": "uint256"
        }
      ],
      "name": "burn",
      "outputs": [],
      "stateMutability": "nonpayable",
      "type": "function"
    },
    {
      "inputs": [
        {
          "internalType": "uint256",
          "name": "tokenId",
          "type": "uint256"
        }
      ],
      "name": "getApproved",
      "outputs": [
        {
          "internalType": "address",
          "name": "",
          "type": "address"
        }
      ],
      "stateMutability": "view",
      "type": "function"
    },
    {
      "inputs": [
        {
          "internalType": "bytes32",
          "name": "role",
          "type": "bytes32"
        }
      ],
      "name": "getRoleAdmin",
      "outputs": [
        {
          "internalType": "bytes32",
          "name": "",
          "type": "bytes32"
        }
      ],
      "stateMutability": "view",
      "type": "function"
    },
    {
      "inputs": [
        {
          "internalType": "bytes32",
          "name": "role",
          "type": "bytes32"
        },
        {
          "internalType": "address",
          "name": "account",
          "type": "address"
        }
      ],
      "name": "grantRole",
      "outputs": [],
      "stateMutability": "nonpayable",
      "type": "function"
    },
    {
      "inputs": [
        {
          "internalType": "bytes32",
          "name": "role",
          "type": "bytes32"
        },
        {
          "internalType": "address",
          "name": "account",
          "type": "address"
        }
      ],
      "name": "hasRole",
      "outputs": [
        {
          "internalType": "bool",
          "name": "",
          "type": "bool"
        }
      ],
      "stateMutability": "view",
      "type": "function"
    },
    {
      "inputs": [
        {
          "internalType": "address",
          "name": "owner",
          "type": "address"
        },
        {
          "internalType": "address",
          "name": "operator",
          "type": "address"
        }
      ],
      "name": "isApprovedForAll",
      "outputs": [
        {
          "internalType": "bool",
          "name": "",
          "type": "bool"
        }
      ],
      "stateMutability": "view",
      "type": "function"
    },
    {
      "inputs": [],
      "name": "name",
      "outputs": [
        {
          "internalType": "string",
          "name": "",
          "type": "string"
        }
      ],
      "stateMutability": "view",
      "type": "function"
    },
    {
      "inputs": [
        {
          "internalType": "uint256",
          "name": "tokenId",
          "type": "uint256"
        }
      ],
      "name": "ownerOf",
      "outputs": [
        {
          "internalType": "address",
          "name": "",
          "type": "address"
        }
      ],
      "stateMutability": "view",
      "type": "function"
    },
    {
      "inputs": [],
      "name": "pause",
      "outputs": [],
      "stateMutability": "nonpayable",
      "type": "function"
    },
    {
      "inputs": [],
      "name": "paused",
      "outputs": [
        {
          "internalType": "bool",
          "name": "",
          "type": "bool"
        }
      ],
      "stateMutability": "view",
      "type": "function"
    },
    {
      "inputs": [
        {
          "internalType": "bytes32",
          "name": "role",
          "type": "bytes32"
        },
        {
          "internalType": "address",
          "name": "account",
          "type": "address"
        }
      ],
      "name": "renounceRole",
      "outputs": [],
      "stateMutability": "nonpayable",
      "type": "function"
    },
    {
      "inputs": [
        {
          "internalType": "bytes32",
          "name": "role",
          "type": "bytes32"
        },
        {
          "internalType": "address",
          "name": "account",
          "type": "address"
        }
      ],
      "name": "revokeRole",
      "outputs": [],
      "stateMutability": "nonpayable",
      "type": "function"
    },
    {
      "inputs": [
        {
          "internalType": "address",
          "name": "to",
          "type": "address"
        },
        {
          "internalType": "uint256",
          "name": "tokenId",
          "type": "uint256"
        }
      ],
      "name": "safeMint",
      "outputs": [],
      "stateMutability": "nonpayable",
      "type": "function"
    },
    {
      "inputs": [
        {
          "internalType": "address",
          "name": "to",
          "type": "address"
        }
      ],
      "name": "safeMintTo",
      "outputs": [],
      "stateMutability": "nonpayable",
      "type": "function"
    },
    {
      "inputs": [
        {
          "internalType": "address",
          "name": "from",
          "type": "address"
        },
        {
          "internalType": "address",
          "name": "to",
          "type": "address"
        },
        {
          "internalType": "uint256",
          "name": "tokenId",
          "type": "uint256"
        }
      ],
      "name": "safeTransferFrom",
      "outputs": [],
      "stateMutability": "nonpayable",
      "type": "function"
    },
    {
      "inputs": [
        {
          "internalType": "address",
          "name": "from",
          "type": "address"
        },
        {
          "internalType": "address",
          "name": "to",
          "type": "address"
        },
        {
          "internalType": "uint256",
          "name": "tokenId",
          "type": "uint256"
        },
        {
          "internalType": "bytes",
          "name": "data",
          "type": "bytes"
        }
      ],
      "name": "safeTransferFrom",
      "outputs": [],
      "stateMutability": "nonpayable",
      "type": "function"
    },
    {
      "inputs": [
        {
          "internalType": "address",
          "name": "operator",
          "type": "address"
        },
        {
          "internalType": "bool",
          "name": "approved",
          "type": "bool"
        }
      ],
      "name": "setApprovalForAll",
      "outputs": [],
      "stateMutability": "nonpayable",
      "type": "function"
    },
    {
      "inputs": [],
      "name": "soloMint",
      "outputs": [],
      "stateMutability": "nonpayable",
      "type": "function"
    },
    {
      "inputs": [
        {
          "internalType": "bytes4",
          "name": "interfaceId",
          "type": "bytes4"
        }
      ],
      "name": "supportsInterface",
      "outputs": [
        {
          "internalType": "bool",
          "name": "",
          "type": "bool"
        }
      ],
      "stateMutability": "view",
      "type": "function"
    },
    {
      "inputs": [],
      "name": "symbol",
      "outputs": [
        {
          "internalType": "string",
          "name": "",
          "type": "string"
        }
      ],
      "stateMutability": "view",
      "type": "function"
    },
    {
      "inputs": [
        {
          "internalType": "uint256",
          "name": "tokenId",
          "type": "uint256"
        }
      ],
      "name": "tokenURI",
      "outputs": [
        {
          "internalType": "string",
          "name": "",
          "type": "string"
        }
      ],
      "stateMutability": "view",
      "type": "function"
    },
    {
      "inputs": [
        {
          "internalType": "address",
          "name": "from",
          "type": "address"
        },
        {
          "internalType": "address",
          "name": "to",
          "type": "address"
        },
        {
          "internalType": "uint256",
          "name": "tokenId",
          "type": "uint256"
        }
      ],
      "name": "transferFrom",
      "outputs": [],
      "stateMutability": "nonpayable",
      "type": "function"
    },
    {
      "inputs": [],
      "name": "unpause",
      "outputs": [],
      "stateMutability": "nonpayable",
      "type": "function"
    }
  ],
  "bytecode": "0x60806040523480156200001157600080fd5b5060405162003fbb38038062003fbb8339818101604052810190620000379190620003f3565b818181600090816200004a9190620006c3565b5080600190816200005c9190620006c3565b5050506000600660006101000a81548160ff0219169083151502179055506200008f6000801b33620000fb60201b60201c565b620000c17f65d7a28e3265b37a6474929f336521b332c1681b933f6cb9f3376673440d862a33620000fb60201b60201c565b620000f37f9f2df0fed2c77648de5860a4cc508cd0818c85b8b8a1ab4ceeef8d981c8956a633620000fb60201b60201c565b5050620007aa565b6200010d8282620001ed60201b60201c565b620001e95760016007600084815260200190815260200160002060000160008373ffffffffffffffffffffffffffffffffffffffff1673ffffffffffffffffffffffffffffffffffffffff16815260200190815260200160002060006101000a81548160ff0219169083151502179055506200018e6200025860201b60201c565b73ffffffffffffffffffffffffffffffffffffffff168173ffffffffffffffffffffffffffffffffffffffff16837f2f8788117e7eff1d82e926ec794901d17c78024a50270940304540a733656f0d60405160405180910390a45b5050565b60006007600084815260200190815260200160002060000160008373ffffffffffffffffffffffffffffffffffffffff1673ffffffffffffffffffffffffffffffffffffffff16815260200190815260200160002060009054906101000a900460ff16905092915050565b600033905090565b6000604051905090565b600080fd5b600080fd5b600080fd5b600080fd5b6000601f19601f8301169050919050565b7f4e487b7100000000000000000000000000000000000000000000000000000000600052604160045260246000fd5b620002c9826200027e565b810181811067ffffffffffffffff82111715620002eb57620002ea6200028f565b5b80604052505050565b60006200030062000260565b90506200030e8282620002be565b919050565b600067ffffffffffffffff8211156200033157620003306200028f565b5b6200033c826200027e565b9050602081019050919050565b60005b83811015620003695780820151818401526020810190506200034c565b60008484015250505050565b60006200038c620003868462000313565b620002f4565b905082815260208101848484011115620003ab57620003aa62000279565b5b620003b884828562000349565b509392505050565b600082601f830112620003d857620003d762000274565b5b8151620003ea84826020860162000375565b91505092915050565b600080604083850312156200040d576200040c6200026a565b5b600083015167ffffffffffffffff8111156200042e576200042d6200026f565b5b6200043c85828601620003c0565b925050602083015167ffffffffffffffff81111562000460576200045f6200026f565b5b6200046e85828601620003c0565b9150509250929050565b600081519050919050565b7f4e487b7100000000000000000000000000000000000000000000000000000000600052602260045260246000fd5b60006002820490506001821680620004cb57607f821691505b602082108103620004e157620004e062000483565b5b50919050565b60008190508160005260206000209050919050565b60006020601f8301049050919050565b600082821b905092915050565b6000600883026200054b7fffffffffffffffffffffffffffffffffffffffffffffffffffffffffffffffff826200050c565b6200055786836200050c565b95508019841693508086168417925050509392505050565b6000819050919050565b6000819050919050565b6000620005a46200059e62000598846200056f565b62000579565b6200056f565b9050919050565b6000819050919050565b620005c08362000583565b620005d8620005cf82620005ab565b84845462000519565b825550505050565b600090565b620005ef620005e0565b620005fc818484620005b5565b505050565b5b81811015620006245762000618600082620005e5565b60018101905062000602565b5050565b601f82111562000673576200063d81620004e7565b6200064884620004fc565b8101602085101562000658578190505b620006706200066785620004fc565b83018262000601565b50505b505050565b600082821c905092915050565b6000620006986000198460080262000678565b1980831691505092915050565b6000620006b3838362000685565b9150826002028217905092915050565b620006ce8262000478565b67ffffffffffffffff811115620006ea57620006e96200028f565b5b620006f68254620004b2565b6200070382828562000628565b600060209050601f8311600181146200073b576000841562000726578287015190505b620007328582620006a5565b865550620007a2565b601f1984166200074b86620004e7565b60005b8281101562000775578489015182556001820191506020850194506020810190506200074e565b8683101562000795578489015162000791601f89168262000685565b8355505b6001600288020188555050505b505050505050565b61380180620007ba6000396000f3fe608060405234801561001057600080fd5b50600436106101c45760003560e01c806370a08231116100f9578063a22cb46511610097578063d539139311610071578063d5391393146104c7578063d547741f146104e5578063e63ab1e914610501578063e985e9c51461051f576101c4565b8063a22cb4651461045f578063b88d4fde1461047b578063c87b56dd14610497576101c4565b806395d89b41116100d357806395d89b41146103fd578063a12db8da1461041b578063a144819414610425578063a217fddf14610441576101c4565b806370a08231146103935780638456cb59146103c357806391d14854146103cd576101c4565b80632f2ff15d1161016657806342842e0e1161014057806342842e0e1461030d57806342966c68146103295780635c975abb146103455780636352211e14610363576101c4565b80632f2ff15d146102cb57806336568abe146102e75780633f4ba83a14610303576101c4565b8063095ea7b3116101a2578063095ea7b31461024757806321bae9e41461026357806323b872dd1461027f578063248a9ca31461029b576101c4565b806301ffc9a7146101c957806306fdde03146101f9578063081812fc14610217575b600080fd5b6101e360048036038101906101de91906125a1565b61054f565b6040516101f091906125e9565b60405180910390f35b610201610561565b60405161020e9190612694565b60405180910390f35b610231600480360381019061022c91906126ec565b6105f3565b60405161023e919061275a565b60405180910390f35b610261600480360381019061025c91906127a1565b610639565b005b61027d600480360381019061027891906127e1565b610750565b005b6102996004803603810190610294919061280e565b610786565b005b6102b560048036038101906102b09190612897565b6107e6565b6040516102c291906128d3565b60405180910390f35b6102e560048036038101906102e091906128ee565b610806565b005b61030160048036038101906102fc91906128ee565b610827565b005b61030b6108aa565b005b6103276004803603810190610322919061280e565b6108df565b005b610343600480360381019061033e91906126ec565b6108ff565b005b61034d61095b565b60405161035a91906125e9565b60405180910390f35b61037d600480360381019061037891906126ec565b610972565b60405161038a919061275a565b60405180910390f35b6103ad60048036038101906103a891906127e1565b6109f8565b6040516103ba919061293d565b60405180910390f35b6103cb610aaf565b005b6103e760048036038101906103e291906128ee565b610ae4565b6040516103f491906125e9565b60405180910390f35b610405610b4f565b6040516104129190612694565b60405180910390f35b610423610be1565b005b61043f600480360381019061043a91906127a1565b610c41565b005b610449610c98565b60405161045691906128d3565b60405180910390f35b61047960048036038101906104749190612984565b610c9f565b005b61049560048036038101906104909190612af9565b610cb5565b005b6104b160048036038101906104ac91906126ec565b610d17565b6040516104be9190612694565b60405180910390f35b6104cf610d7f565b6040516104dc91906128d3565b60405180910390f35b6104ff60048036038101906104fa91906128ee565b610da3565b005b610509610dc4565b60405161051691906128d3565b60405180910390f35b61053960048036038101906105349190612b7c565b610de8565b60405161054691906125e9565b60405180910390f35b600061055a82610e7c565b9050919050565b60606000805461057090612beb565b80601f016020809104026020016040519081016040528092919081815260200182805461059c90612beb565b80156105e95780601f106105be576101008083540402835291602001916105e9565b820191906000526020600020905b8154815290600101906020018083116105cc57829003601f168201915b5050505050905090565b60006105fe82610ef6565b6004600083815260200190815260200160002060009054906101000a900473ffffffffffffffffffffffffffffffffffffffff169050919050565b600061064482610972565b90508073ffffffffffffffffffffffffffffffffffffffff168373ffffffffffffffffffffffffffffffffffffffff16036106b4576040517f08c379a00000000000000000000000000000000000000000000000000000000081526004016106ab90612c8e565b60405180910390fd5b8073ffffffffffffffffffffffffffffffffffffffff166106d3610f41565b73ffffffffffffffffffffffffffffffffffffffff1614806107025750610701816106fc610f41565b610de8565b5b610741576040517f08c379a000000000000000000000000000000000000000000000000000000000815260040161073890612d20565b60405180910390fd5b61074b8383610f49565b505050565b61075c81600854611002565b601e6008541061076b57600080fd5b6008600081548092919061077e90612d6f565b919050555050565b610797610791610f41565b82611020565b6107d6576040517f08c379a00000000000000000000000000000000000000000000000000000000081526004016107cd90612e29565b60405180910390fd5b6107e18383836110b5565b505050565b600060076000838152602001908152602001600020600101549050919050565b61080f826107e6565b610818816113ae565b61082283836113c2565b505050565b61082f610f41565b73ffffffffffffffffffffffffffffffffffffffff168173ffffffffffffffffffffffffffffffffffffffff161461089c576040517f08c379a000000000000000000000000000000000000000000000000000000000815260040161089390612ebb565b60405180910390fd5b6108a682826114a3565b5050565b7f65d7a28e3265b37a6474929f336521b332c1681b933f6cb9f3376673440d862a6108d4816113ae565b6108dc611585565b50565b6108fa83838360405180602001604052806000815250610cb5565b505050565b61091061090a610f41565b82611020565b61094f576040517f08c379a000000000000000000000000000000000000000000000000000000000815260040161094690612e29565b60405180910390fd5b610958816115e8565b50565b6000600660009054906101000a900460ff16905090565b60008061097e83611736565b9050600073ffffffffffffffffffffffffffffffffffffffff168173ffffffffffffffffffffffffffffffffffffffff16036109ef576040517f08c379a00000000000000000000000000000000000000000000000000000000081526004016109e690612f27565b60405180910390fd5b80915050919050565b60008073ffffffffffffffffffffffffffffffffffffffff168273ffffffffffffffffffffffffffffffffffffffff1603610a68576040517f08c379a0000000000000000000000000000000000000000000000000000000008152600401610a5f90612fb9565b60405180910390fd5b600360008373ffffffffffffffffffffffffffffffffffffffff1673ffffffffffffffffffffffffffffffffffffffff168152602001908152602001600020549050919050565b7f65d7a28e3265b37a6474929f336521b332c1681b933f6cb9f3376673440d862a610ad9816113ae565b610ae1611773565b50565b60006007600084815260200190815260200160002060000160008373ffffffffffffffffffffffffffffffffffffffff1673ffffffffffffffffffffffffffffffffffffffff16815260200190815260200160002060009054906101000a900460ff16905092915050565b606060018054610b5e90612beb565b80601f0160208091040260200160405190810160405280929190818152602001828054610b8a90612beb565b8015610bd75780601f10610bac57610100808354040283529160200191610bd7565b820191906000526020600020905b815481529060010190602001808311610bba57829003601f168201915b5050505050905090565b7f9f2df0fed2c77648de5860a4cc508cd0818c85b8b8a1ab4ceeef8d981c8956a6610c0b816113ae565b610c1733600854611002565b601e60085410610c2657600080fd5b60086000815480929190610c3990612d6f565b919050555050565b610c4a816117d6565b15610c8a576040517f08c379a0000000000000000000000000000000000000000000000000000000008152600401610c8190613025565b60405180910390fd5b610c948282611002565b5050565b6000801b81565b610cb1610caa610f41565b8383611817565b5050565b610cc6610cc0610f41565b83611020565b610d05576040517f08c379a0000000000000000000000000000000000000000000000000000000008152600401610cfc90612e29565b60405180910390fd5b610d1184848484611983565b50505050565b6060610d2282610ef6565b6000610d2c6119df565b90506000815111610d4c5760405180602001604052806000815250610d77565b80610d56846119ff565b604051602001610d67929190613081565b6040516020818303038152906040525b915050919050565b7f9f2df0fed2c77648de5860a4cc508cd0818c85b8b8a1ab4ceeef8d981c8956a681565b610dac826107e6565b610db5816113ae565b610dbf83836114a3565b505050565b7f65d7a28e3265b37a6474929f336521b332c1681b933f6cb9f3376673440d862a81565b6000600560008473ffffffffffffffffffffffffffffffffffffffff1673ffffffffffffffffffffffffffffffffffffffff16815260200190815260200160002060008373ffffffffffffffffffffffffffffffffffffffff1673ffffffffffffffffffffffffffffffffffffffff16815260200190815260200160002060009054906101000a900460ff16905092915050565b60007f7965db0b000000000000000000000000000000000000000000000000000000007bffffffffffffffffffffffffffffffffffffffffffffffffffffffff1916827bffffffffffffffffffffffffffffffffffffffffffffffffffffffff19161480610eef5750610eee82611acd565b5b9050919050565b610eff816117d6565b610f3e576040517f08c379a0000000000000000000000000000000000000000000000000000000008152600401610f3590612f27565b60405180910390fd5b50565b600033905090565b816004600083815260200190815260200160002060006101000a81548173ffffffffffffffffffffffffffffffffffffffff021916908373ffffffffffffffffffffffffffffffffffffffff160217905550808273ffffffffffffffffffffffffffffffffffffffff16610fbc83610972565b73ffffffffffffffffffffffffffffffffffffffff167f8c5be1e5ebec7d5bd14f71427d1e84f3dd0314c0f7b2291e5b200ac8c7c3b92560405160405180910390a45050565b61101c828260405180602001604052806000815250611baf565b5050565b60008061102c83610972565b90508073ffffffffffffffffffffffffffffffffffffffff168473ffffffffffffffffffffffffffffffffffffffff16148061106e575061106d8185610de8565b5b806110ac57508373ffffffffffffffffffffffffffffffffffffffff16611094846105f3565b73ffffffffffffffffffffffffffffffffffffffff16145b91505092915050565b8273ffffffffffffffffffffffffffffffffffffffff166110d582610972565b73ffffffffffffffffffffffffffffffffffffffff161461112b576040517f08c379a000000000000000000000000000000000000000000000000000000000815260040161112290613117565b60405180910390fd5b600073ffffffffffffffffffffffffffffffffffffffff168273ffffffffffffffffffffffffffffffffffffffff160361119a576040517f08c379a0000000000000000000000000000000000000000000000000000000008152600401611191906131a9565b60405180910390fd5b6111a78383836001611c0a565b8273ffffffffffffffffffffffffffffffffffffffff166111c782610972565b73ffffffffffffffffffffffffffffffffffffffff161461121d576040517f08c379a000000000000000000000000000000000000000000000000000000000815260040161121490613117565b60405180910390fd5b6004600082815260200190815260200160002060006101000a81549073ffffffffffffffffffffffffffffffffffffffff02191690556001600360008573ffffffffffffffffffffffffffffffffffffffff1673ffffffffffffffffffffffffffffffffffffffff168152602001908152602001600020600082825403925050819055506001600360008473ffffffffffffffffffffffffffffffffffffffff1673ffffffffffffffffffffffffffffffffffffffff16815260200190815260200160002060008282540192505081905550816002600083815260200190815260200160002060006101000a81548173ffffffffffffffffffffffffffffffffffffffff021916908373ffffffffffffffffffffffffffffffffffffffff160217905550808273ffffffffffffffffffffffffffffffffffffffff168473ffffffffffffffffffffffffffffffffffffffff167fddf252ad1be2c89b69c2b068fc378daa952ba7f163c4a11628f55a4df523b3ef60405160405180910390a46113a98383836001611c24565b505050565b6113bf816113ba610f41565b611c2a565b50565b6113cc8282610ae4565b61149f5760016007600084815260200190815260200160002060000160008373ffffffffffffffffffffffffffffffffffffffff1673ffffffffffffffffffffffffffffffffffffffff16815260200190815260200160002060006101000a81548160ff021916908315150217905550611444610f41565b73ffffffffffffffffffffffffffffffffffffffff168173ffffffffffffffffffffffffffffffffffffffff16837f2f8788117e7eff1d82e926ec794901d17c78024a50270940304540a733656f0d60405160405180910390a45b5050565b6114ad8282610ae4565b156115815760006007600084815260200190815260200160002060000160008373ffffffffffffffffffffffffffffffffffffffff1673ffffffffffffffffffffffffffffffffffffffff16815260200190815260200160002060006101000a81548160ff021916908315150217905550611526610f41565b73ffffffffffffffffffffffffffffffffffffffff168173ffffffffffffffffffffffffffffffffffffffff16837ff6391f5c32d9c69d2a47ea670b442974b53935d1edc7fd64eb21e047a839171b60405160405180910390a45b5050565b61158d611caf565b6000600660006101000a81548160ff0219169083151502179055507f5db9ee0a495bf2e6ff9c91a7834c1ba4fdd244a5e8aa4e537bd38aeae4b073aa6115d1610f41565b6040516115de919061275a565b60405180910390a1565b60006115f382610972565b9050611603816000846001611c0a565b61160c82610972565b90506004600083815260200190815260200160002060006101000a81549073ffffffffffffffffffffffffffffffffffffffff02191690556001600360008373ffffffffffffffffffffffffffffffffffffffff1673ffffffffffffffffffffffffffffffffffffffff168152602001908152602001600020600082825403925050819055506002600083815260200190815260200160002060006101000a81549073ffffffffffffffffffffffffffffffffffffffff021916905581600073ffffffffffffffffffffffffffffffffffffffff168273ffffffffffffffffffffffffffffffffffffffff167fddf252ad1be2c89b69c2b068fc378daa952ba7f163c4a11628f55a4df523b3ef60405160405180910390a4611732816000846001611c24565b5050565b60006002600083815260200190815260200160002060009054906101000a900473ffffffffffffffffffffffffffffffffffffffff169050919050565b61177b611cf8565b6001600660006101000a81548160ff0219169083151502179055507f62e78cea01bee320cd4e420270b5ea74000d11b0c9f74754ebdbfc544b05a2586117bf610f41565b6040516117cc919061275a565b60405180910390a1565b60008073ffffffffffffffffffffffffffffffffffffffff166117f883611736565b73ffffffffffffffffffffffffffffffffffffffff1614159050919050565b8173ffffffffffffffffffffffffffffffffffffffff168373ffffffffffffffffffffffffffffffffffffffff1603611885576040517f08c379a000000000000000000000000000000000000000000000000000000000815260040161187c90613215565b60405180910390fd5b80600560008573ffffffffffffffffffffffffffffffffffffffff1673ffffffffffffffffffffffffffffffffffffffff16815260200190815260200160002060008473ffffffffffffffffffffffffffffffffffffffff1673ffffffffffffffffffffffffffffffffffffffff16815260200190815260200160002060006101000a81548160ff0219169083151502179055508173ffffffffffffffffffffffffffffffffffffffff168373ffffffffffffffffffffffffffffffffffffffff167f17307eab39ab6107e8899845ad3d59bd9653f200f220920489ca2b5937696c318360405161197691906125e9565b60405180910390a3505050565b61198e8484846110b5565b61199a84848484611d42565b6119d9576040517f08c379a00000000000000000000000000000000000000000000000000000000081526004016119d0906132a7565b60405180910390fd5b50505050565b606060405180606001604052806036815260200161379660369139905090565b606060006001611a0e84611ec9565b01905060008167ffffffffffffffff811115611a2d57611a2c6129ce565b5b6040519080825280601f01601f191660200182016040528015611a5f5781602001600182028036833780820191505090505b509050600082602001820190505b600115611ac2578080600190039150507f3031323334353637383961626364656600000000000000000000000000000000600a86061a8153600a8581611ab657611ab56132c7565b5b04945060008503611a6d575b819350505050919050565b60007f80ac58cd000000000000000000000000000000000000000000000000000000007bffffffffffffffffffffffffffffffffffffffffffffffffffffffff1916827bffffffffffffffffffffffffffffffffffffffffffffffffffffffff19161480611b9857507f5b5e139f000000000000000000000000000000000000000000000000000000007bffffffffffffffffffffffffffffffffffffffffffffffffffffffff1916827bffffffffffffffffffffffffffffffffffffffffffffffffffffffff1916145b80611ba85750611ba78261201c565b5b9050919050565b611bb98383612086565b611bc66000848484611d42565b611c05576040517f08c379a0000000000000000000000000000000000000000000000000000000008152600401611bfc906132a7565b60405180910390fd5b505050565b611c12611cf8565b611c1e848484846122a3565b50505050565b50505050565b611c348282610ae4565b611cab57611c41816122a9565b611c4f8360001c60206122d6565b604051602001611c6092919061338e565b6040516020818303038152906040526040517f08c379a0000000000000000000000000000000000000000000000000000000008152600401611ca29190612694565b60405180910390fd5b5050565b611cb761095b565b611cf6576040517f08c379a0000000000000000000000000000000000000000000000000000000008152600401611ced90613414565b60405180910390fd5b565b611d0061095b565b15611d40576040517f08c379a0000000000000000000000000000000000000000000000000000000008152600401611d3790613480565b60405180910390fd5b565b6000611d638473ffffffffffffffffffffffffffffffffffffffff16612512565b15611ebc578373ffffffffffffffffffffffffffffffffffffffff1663150b7a02611d8c610f41565b8786866040518563ffffffff1660e01b8152600401611dae94939291906134f5565b6020604051808303816000875af1925050508015611dea57506040513d601f19601f82011682018060405250810190611de79190613556565b60015b611e6c573d8060008114611e1a576040519150601f19603f3d011682016040523d82523d6000602084013e611e1f565b606091505b506000815103611e64576040517f08c379a0000000000000000000000000000000000000000000000000000000008152600401611e5b906132a7565b60405180910390fd5b805181602001fd5b63150b7a0260e01b7bffffffffffffffffffffffffffffffffffffffffffffffffffffffff1916817bffffffffffffffffffffffffffffffffffffffffffffffffffffffff191614915050611ec1565b600190505b949350505050565b600080600090507a184f03e93ff9f4daa797ed6e38ed64bf6a1f0100000000000000008310611f27577a184f03e93ff9f4daa797ed6e38ed64bf6a1f0100000000000000008381611f1d57611f1c6132c7565b5b0492506040810190505b6d04ee2d6d415b85acef81000000008310611f64576d04ee2d6d415b85acef81000000008381611f5a57611f596132c7565b5b0492506020810190505b662386f26fc100008310611f9357662386f26fc100008381611f8957611f886132c7565b5b0492506010810190505b6305f5e1008310611fbc576305f5e1008381611fb257611fb16132c7565b5b0492506008810190505b6127108310611fe1576127108381611fd757611fd66132c7565b5b0492506004810190505b606483106120045760648381611ffa57611ff96132c7565b5b0492506002810190505b600a8310612013576001810190505b80915050919050565b60007f01ffc9a7000000000000000000000000000000000000000000000000000000007bffffffffffffffffffffffffffffffffffffffffffffffffffffffff1916827bffffffffffffffffffffffffffffffffffffffffffffffffffffffff1916149050919050565b600073ffffffffffffffffffffffffffffffffffffffff168273ffffffffffffffffffffffffffffffffffffffff16036120f5576040517f08c379a00000000000000000000000000000000000000000000000000000000081526004016120ec906135cf565b60405180910390fd5b6120fe816117d6565b1561213e576040517f08c379a00000000000000000000000000000000000000000000000000000000081526004016121359061363b565b60405180910390fd5b61214c600083836001611c0a565b612155816117d6565b15612195576040517f08c379a000000000000000000000000000000000000000000000000000000000815260040161218c9061363b565b60405180910390fd5b6001600360008473ffffffffffffffffffffffffffffffffffffffff1673ffffffffffffffffffffffffffffffffffffffff16815260200190815260200160002060008282540192505081905550816002600083815260200190815260200160002060006101000a81548173ffffffffffffffffffffffffffffffffffffffff021916908373ffffffffffffffffffffffffffffffffffffffff160217905550808273ffffffffffffffffffffffffffffffffffffffff16600073ffffffffffffffffffffffffffffffffffffffff167fddf252ad1be2c89b69c2b068fc378daa952ba7f163c4a11628f55a4df523b3ef60405160405180910390a461229f600083836001611c24565b5050565b50505050565b60606122cf8273ffffffffffffffffffffffffffffffffffffffff16601460ff166122d6565b9050919050565b6060600060028360026122e9919061365b565b6122f3919061369d565b67ffffffffffffffff81111561230c5761230b6129ce565b5b6040519080825280601f01601f19166020018201604052801561233e5781602001600182028036833780820191505090505b5090507f300000000000000000000000000000000000000000000000000000000000000081600081518110612376576123756136d1565b5b60200101907effffffffffffffffffffffffffffffffffffffffffffffffffffffffffffff1916908160001a9053507f7800000000000000000000000000000000000000000000000000000000000000816001815181106123da576123d96136d1565b5b60200101907effffffffffffffffffffffffffffffffffffffffffffffffffffffffffffff1916908160001a9053506000600184600261241a919061365b565b612424919061369d565b90505b60018111156124c4577f3031323334353637383961626364656600000000000000000000000000000000600f861660108110612466576124656136d1565b5b1a60f81b82828151811061247d5761247c6136d1565b5b60200101907effffffffffffffffffffffffffffffffffffffffffffffffffffffffffffff1916908160001a905350600485901c9450806124bd90613700565b9050612427565b5060008414612508576040517f08c379a00000000000000000000000000000000000000000000000000000000081526004016124ff90613775565b60405180910390fd5b8091505092915050565b6000808273ffffffffffffffffffffffffffffffffffffffff163b119050919050565b6000604051905090565b600080fd5b600080fd5b60007fffffffff0000000000000000000000000000000000000000000000000000000082169050919050565b61257e81612549565b811461258957600080fd5b50565b60008135905061259b81612575565b92915050565b6000602082840312156125b7576125b661253f565b5b60006125c58482850161258c565b91505092915050565b60008115159050919050565b6125e3816125ce565b82525050565b60006020820190506125fe60008301846125da565b92915050565b600081519050919050565b600082825260208201905092915050565b60005b8381101561263e578082015181840152602081019050612623565b60008484015250505050565b6000601f19601f8301169050919050565b600061266682612604565b612670818561260f565b9350612680818560208601612620565b6126898161264a565b840191505092915050565b600060208201905081810360008301526126ae818461265b565b905092915050565b6000819050919050565b6126c9816126b6565b81146126d457600080fd5b50565b6000813590506126e6816126c0565b92915050565b6000602082840312156127025761270161253f565b5b6000612710848285016126d7565b91505092915050565b600073ffffffffffffffffffffffffffffffffffffffff82169050919050565b600061274482612719565b9050919050565b61275481612739565b82525050565b600060208201905061276f600083018461274b565b92915050565b61277e81612739565b811461278957600080fd5b50565b60008135905061279b81612775565b92915050565b600080604083850312156127b8576127b761253f565b5b60006127c68582860161278c565b92505060206127d7858286016126d7565b9150509250929050565b6000602082840312156127f7576127f661253f565b5b60006128058482850161278c565b91505092915050565b6000806000606084860312156128275761282661253f565b5b60006128358682870161278c565b93505060206128468682870161278c565b9250506040612857868287016126d7565b9150509250925092565b6000819050919050565b61287481612861565b811461287f57600080fd5b50565b6000813590506128918161286b565b92915050565b6000602082840312156128ad576128ac61253f565b5b60006128bb84828501612882565b91505092915050565b6128cd81612861565b82525050565b60006020820190506128e860008301846128c4565b92915050565b600080604083850312156129055761290461253f565b5b600061291385828601612882565b92505060206129248582860161278c565b9150509250929050565b612937816126b6565b82525050565b6000602082019050612952600083018461292e565b92915050565b612961816125ce565b811461296c57600080fd5b50565b60008135905061297e81612958565b92915050565b6000806040838503121561299b5761299a61253f565b5b60006129a98582860161278c565b92505060206129ba8582860161296f565b9150509250929050565b600080fd5b600080fd5b7f4e487b7100000000000000000000000000000000000000000000000000000000600052604160045260246000fd5b612a068261264a565b810181811067ffffffffffffffff82111715612a2557612a246129ce565b5b80604052505050565b6000612a38612535565b9050612a4482826129fd565b919050565b600067ffffffffffffffff821115612a6457612a636129ce565b5b612a6d8261264a565b9050602081019050919050565b82818337600083830152505050565b6000612a9c612a9784612a49565b612a2e565b905082815260208101848484011115612ab857612ab76129c9565b5b612ac3848285612a7a565b509392505050565b600082601f830112612ae057612adf6129c4565b5b8135612af0848260208601612a89565b91505092915050565b60008060008060808587031215612b1357612b1261253f565b5b6000612b218782880161278c565b9450506020612b328782880161278c565b9350506040612b43878288016126d7565b925050606085013567ffffffffffffffff811115612b6457612b63612544565b5b612b7087828801612acb565b91505092959194509250565b60008060408385031215612b9357612b9261253f565b5b6000612ba18582860161278c565b9250506020612bb28582860161278c565b9150509250929050565b7f4e487b7100000000000000000000000000000000000000000000000000000000600052602260045260246000fd5b60006002820490506001821680612c0357607f821691505b602082108103612c1657612c15612bbc565b5b50919050565b7f4552433732313a20617070726f76616c20746f2063757272656e74206f776e6560008201527f7200000000000000000000000000000000000000000000000000000000000000602082015250565b6000612c7860218361260f565b9150612c8382612c1c565b604082019050919050565b60006020820190508181036000830152612ca781612c6b565b9050919050565b7f4552433732313a20617070726f76652063616c6c6572206973206e6f7420746f60008201527f6b656e206f776e6572206f7220617070726f76656420666f7220616c6c000000602082015250565b6000612d0a603d8361260f565b9150612d1582612cae565b604082019050919050565b60006020820190508181036000830152612d3981612cfd565b9050919050565b7f4e487b7100000000000000000000000000000000000000000000000000000000600052601160045260246000fd5b6000612d7a826126b6565b91507fffffffffffffffffffffffffffffffffffffffffffffffffffffffffffffffff8203612dac57612dab612d40565b5b600182019050919050565b7f4552433732313a2063616c6c6572206973206e6f7420746f6b656e206f776e6560008201527f72206f7220617070726f76656400000000000000000000000000000000000000602082015250565b6000612e13602d8361260f565b9150612e1e82612db7565b604082019050919050565b60006020820190508181036000830152612e4281612e06565b9050919050565b7f416363657373436f6e74726f6c3a2063616e206f6e6c792072656e6f756e636560008201527f20726f6c657320666f722073656c660000000000000000000000000000000000602082015250565b6000612ea5602f8361260f565b9150612eb082612e49565b604082019050919050565b60006020820190508181036000830152612ed481612e98565b9050919050565b7f4552433732313a20696e76616c696420746f6b656e2049440000000000000000600082015250565b6000612f1160188361260f565b9150612f1c82612edb565b602082019050919050565b60006020820190508181036000830152612f4081612f04565b9050919050565b7f4552433732313a2061646472657373207a65726f206973206e6f74206120766160008201527f6c6964206f776e65720000000000000000000000000000000000000000000000602082015250565b6000612fa360298361260f565b9150612fae82612f47565b604082019050919050565b60006020820190508181036000830152612fd281612f96565b9050919050565b7f5961207469656e65206475656e696f0000000000000000000000000000000000600082015250565b600061300f600f8361260f565b915061301a82612fd9565b602082019050919050565b6000602082019050818103600083015261303e81613002565b9050919050565b600081905092915050565b600061305b82612604565b6130658185613045565b9350613075818560208601612620565b80840191505092915050565b600061308d8285613050565b91506130998284613050565b91508190509392505050565b7f4552433732313a207472616e736665722066726f6d20696e636f72726563742060008201527f6f776e6572000000000000000000000000000000000000000000000000000000602082015250565b600061310160258361260f565b915061310c826130a5565b604082019050919050565b60006020820190508181036000830152613130816130f4565b9050919050565b7f4552433732313a207472616e7366657220746f20746865207a65726f2061646460008201527f7265737300000000000000000000000000000000000000000000000000000000602082015250565b600061319360248361260f565b915061319e82613137565b604082019050919050565b600060208201905081810360008301526131c281613186565b9050919050565b7f4552433732313a20617070726f766520746f2063616c6c657200000000000000600082015250565b60006131ff60198361260f565b915061320a826131c9565b602082019050919050565b6000602082019050818103600083015261322e816131f2565b9050919050565b7f4552433732313a207472616e7366657220746f206e6f6e20455243373231526560008201527f63656976657220696d706c656d656e7465720000000000000000000000000000602082015250565b600061329160328361260f565b915061329c82613235565b604082019050919050565b600060208201905081810360008301526132c081613284565b9050919050565b7f4e487b7100000000000000000000000000000000000000000000000000000000600052601260045260246000fd5b7f416363657373436f6e74726f6c3a206163636f756e7420000000000000000000600082015250565b600061332c601783613045565b9150613337826132f6565b601782019050919050565b7f206973206d697373696e6720726f6c6520000000000000000000000000000000600082015250565b6000613378601183613045565b915061338382613342565b601182019050919050565b60006133998261331f565b91506133a58285613050565b91506133b08261336b565b91506133bc8284613050565b91508190509392505050565b7f5061757361626c653a206e6f7420706175736564000000000000000000000000600082015250565b60006133fe60148361260f565b9150613409826133c8565b602082019050919050565b6000602082019050818103600083015261342d816133f1565b9050919050565b7f5061757361626c653a2070617573656400000000000000000000000000000000600082015250565b600061346a60108361260f565b915061347582613434565b602082019050919050565b600060208201905081810360008301526134998161345d565b9050919050565b600081519050919050565b600082825260208201905092915050565b60006134c7826134a0565b6134d181856134ab565b93506134e1818560208601612620565b6134ea8161264a565b840191505092915050565b600060808201905061350a600083018761274b565b613517602083018661274b565b613524604083018561292e565b818103606083015261353681846134bc565b905095945050505050565b60008151905061355081612575565b92915050565b60006020828403121561356c5761356b61253f565b5b600061357a84828501613541565b91505092915050565b7f4552433732313a206d696e7420746f20746865207a65726f2061646472657373600082015250565b60006135b960208361260f565b91506135c482613583565b602082019050919050565b600060208201905081810360008301526135e8816135ac565b9050919050565b7f4552433732313a20746f6b656e20616c7265616479206d696e74656400000000600082015250565b6000613625601c8361260f565b9150613630826135ef565b602082019050919050565b6000602082019050818103600083015261365481613618565b9050919050565b6000613666826126b6565b9150613671836126b6565b925082820261367f816126b6565b9150828204841483151761369657613695612d40565b5b5092915050565b60006136a8826126b6565b91506136b3836126b6565b92508282019050808211156136cb576136ca612d40565b5b92915050565b7f4e487b7100000000000000000000000000000000000000000000000000000000600052603260045260246000fd5b600061370b826126b6565b91506000820361371e5761371d612d40565b5b600182039050919050565b7f537472696e67733a20686578206c656e67746820696e73756666696369656e74600082015250565b600061375f60208361260f565b915061376a82613729565b602082019050919050565b6000602082019050818103600083015261378e81613752565b905091905056fe697066733a2f2f516d61347336757956534361546f75584d384e38416b414c346a63313144353354736e316b5a50733443476436622fa2646970667358221220eefe5f5a0cdba77ac8eb2334a8a7174dca6600395bc6de96a183d3a66754245364736f6c63430008130033",
  "linkReferences": {},
  "deployedLinkReferences": {}
}