{
  "_format": "hh-sol-artifact-1",
  "contractName": "ContratoASerLlamado",
  "sourceName": "contracts/class12/DelegateCall.sol",
  "abi": [
    {
      "inputs": [
        {
          "internalType": "address",
          "name": "_account",
          "type": "address"
        }
      ],
      "name": "addToWhiteList",
      "outputs": [],
      "stateMutability": "nonpayable",
      "type": "function"
    },
    {
      "inputs": [
        {
          "internalType": "address",
          "name": "",
          "type": "address"
        }
      ],
      "name": "listaBlanca",
      "outputs": [
        {
          "internalType": "bool",
          "name": "",
          "type": "bool"
        }
      ],
      "stateMutability": "view",
      "type": "function"
    }
  ],
  "bytecode": "0x608060405234801561001057600080fd5b506101fd806100206000396000f3fe608060405234801561001057600080fd5b50600436106100365760003560e01c806347ee03941461003b57806391a8a9bb14610057575b600080fd5b61005560048036038101906100509190610164565b610087565b005b610071600480360381019061006c9190610164565b6100e1565b60405161007e91906101ac565b60405180910390f35b60016000808373ffffffffffffffffffffffffffffffffffffffff1673ffffffffffffffffffffffffffffffffffffffff16815260200190815260200160002060006101000a81548160ff02191690831515021790555050565b60006020528060005260406000206000915054906101000a900460ff1681565b600080fd5b600073ffffffffffffffffffffffffffffffffffffffff82169050919050565b600061013182610106565b9050919050565b61014181610126565b811461014c57600080fd5b50565b60008135905061015e81610138565b92915050565b60006020828403121561017a57610179610101565b5b60006101888482850161014f565b91505092915050565b60008115159050919050565b6101a681610191565b82525050565b60006020820190506101c1600083018461019d565b9291505056fea26469706673582212205b124daf56af4d93195a5919025ccdccb8213b26433629b1e7882caf97c9889964736f6c63430008130033",
  "linkReferences": {},
  "deployedLinkReferences": {}
}