{
  "_format": "hh-sol-artifact-1",
  "contractName": "ContratoQueVaALlamar",
  "sourceName": "contracts/class12/DelegateCall.sol",
  "abi": [
    {
      "inputs": [
        {
          "internalType": "address",
          "name": "_sc",
          "type": "address"
        },
        {
          "internalType": "address",
          "name": "_account",
          "type": "address"
        }
      ],
      "name": "addToWhiteListOtroContrato",
      "outputs": [],
      "stateMutability": "nonpayable",
      "type": "function"
    },
    {
      "inputs": [
        {
          "internalType": "uint256",
          "name": "_slotInicial",
          "type": "uint256"
        },
        {
          "internalType": "address",
          "name": "_key",
          "type": "address"
        }
      ],
      "name": "obtenerCasilleroParaMapping",
      "outputs": [
        {
          "internalType": "uint256",
          "name": "",
          "type": "uint256"
        }
      ],
      "stateMutability": "pure",
      "type": "function"
    },
    {
      "inputs": [
        {
          "internalType": "uint256",
          "name": "_posCasillero",
          "type": "uint256"
        }
      ],
      "name": "obtenerValorDeCasillero",
      "outputs": [
        {
          "internalType": "uint256",
          "name": "",
          "type": "uint256"
        }
      ],
      "stateMutability": "view",
      "type": "function"
    }
  ],
  "bytecode": "0x608060405234801561001057600080fd5b50610490806100206000396000f3fe608060405234801561001057600080fd5b50600436106100415760003560e01c80635f1fb0b114610046578063afe1bc2914610076578063b28ab51914610092575b600080fd5b610060600480360381019061005b919061024a565b6100c2565b60405161006d9190610286565b60405180910390f35b610090600480360381019061008b91906102ff565b6100d2565b005b6100ac60048036038101906100a7919061033f565b6101d9565b6040516100b99190610286565b60405180910390f35b6000808254905080915050919050565b60008273ffffffffffffffffffffffffffffffffffffffff16826040516024016100fc919061038e565b6040516020818303038152906040527f47ee0394000000000000000000000000000000000000000000000000000000007bffffffffffffffffffffffffffffffffffffffffffffffffffffffff19166020820180517bffffffffffffffffffffffffffffffffffffffffffffffffffffffff8381831617835250505050604051610186919061041a565b600060405180830381855af49150503d80600081146101c1576040519150601f19603f3d011682016040523d82523d6000602084013e6101c6565b606091505b50509050806101d457600080fd5b505050565b600081836040516020016101ee929190610431565b6040516020818303038152906040528051906020012060001c905092915050565b600080fd5b6000819050919050565b61022781610214565b811461023257600080fd5b50565b6000813590506102448161021e565b92915050565b6000602082840312156102605761025f61020f565b5b600061026e84828501610235565b91505092915050565b61028081610214565b82525050565b600060208201905061029b6000830184610277565b92915050565b600073ffffffffffffffffffffffffffffffffffffffff82169050919050565b60006102cc826102a1565b9050919050565b6102dc816102c1565b81146102e757600080fd5b50565b6000813590506102f9816102d3565b92915050565b600080604083850312156103165761031561020f565b5b6000610324858286016102ea565b9250506020610335858286016102ea565b9150509250929050565b600080604083850312156103565761035561020f565b5b600061036485828601610235565b9250506020610375858286016102ea565b9150509250929050565b610388816102c1565b82525050565b60006020820190506103a3600083018461037f565b92915050565b600081519050919050565b600081905092915050565b60005b838110156103dd5780820151818401526020810190506103c2565b60008484015250505050565b60006103f4826103a9565b6103fe81856103b4565b935061040e8185602086016103bf565b80840191505092915050565b600061042682846103e9565b915081905092915050565b6000604082019050610446600083018561037f565b6104536020830184610277565b939250505056fea2646970667358221220a40ea4245993a4a0414ccb44aa26eb776f2ad90235559bea3d4fe54bcade0c1f64736f6c63430008130033",
  "linkReferences": {},
  "deployedLinkReferences": {}
}