{
  "_format": "hh-sol-artifact-1",
  "contractName": "MemoryCalldataStorage",
  "sourceName": "contracts/class04/MemoryCallData.sol",
  "abi": [
    {
      "inputs": [
        {
          "internalType": "string",
          "name": "_nombre",
          "type": "string"
        }
      ],
      "name": "setName",
      "outputs": [],
      "stateMutability": "nonpayable",
      "type": "function"
    },
    {
      "inputs": [
        {
          "internalType": "string",
          "name": "_nombre",
          "type": "string"
        }
      ],
      "name": "setNameCalldata",
      "outputs": [],
      "stateMutability": "nonpayable",
      "type": "function"
    }
  ],
  "bytecode": "0x608060405234801561001057600080fd5b506107d6806100206000396000f3fe608060405234801561001057600080fd5b50600436106100365760003560e01c80639f0f985e1461003b578063c47f002714610057575b600080fd5b61005560048036038101906100509190610149565b610073565b005b610071600480360381019061006c91906102d7565b610089565b005b818160009182610084929190610541565b505050565b8060009081610098919061061c565b50806040516020016100aa919061077a565b604051602081830303815290604052905060405180602001604052806000815250905050565b6000604051905090565b600080fd5b600080fd5b600080fd5b600080fd5b600080fd5b60008083601f840112610109576101086100e4565b5b8235905067ffffffffffffffff811115610126576101256100e9565b5b602083019150836001820283011115610142576101416100ee565b5b9250929050565b600080602083850312156101605761015f6100da565b5b600083013567ffffffffffffffff81111561017e5761017d6100df565b5b61018a858286016100f3565b92509250509250929050565b600080fd5b6000601f19601f8301169050919050565b7f4e487b7100000000000000000000000000000000000000000000000000000000600052604160045260246000fd5b6101e48261019b565b810181811067ffffffffffffffff82111715610203576102026101ac565b5b80604052505050565b60006102166100d0565b905061022282826101db565b919050565b600067ffffffffffffffff821115610242576102416101ac565b5b61024b8261019b565b9050602081019050919050565b82818337600083830152505050565b600061027a61027584610227565b61020c565b90508281526020810184848401111561029657610295610196565b5b6102a1848285610258565b509392505050565b600082601f8301126102be576102bd6100e4565b5b81356102ce848260208601610267565b91505092915050565b6000602082840312156102ed576102ec6100da565b5b600082013567ffffffffffffffff81111561030b5761030a6100df565b5b610317848285016102a9565b91505092915050565b600082905092915050565b7f4e487b7100000000000000000000000000000000000000000000000000000000600052602260045260246000fd5b6000600282049050600182168061037257607f821691505b6020821081036103855761038461032b565b5b50919050565b60008190508160005260206000209050919050565b60006020601f8301049050919050565b600082821b905092915050565b6000600883026103ed7fffffffffffffffffffffffffffffffffffffffffffffffffffffffffffffffff826103b0565b6103f786836103b0565b95508019841693508086168417925050509392505050565b6000819050919050565b6000819050919050565b600061043e6104396104348461040f565b610419565b61040f565b9050919050565b6000819050919050565b61045883610423565b61046c61046482610445565b8484546103bd565b825550505050565b600090565b610481610474565b61048c81848461044f565b505050565b5b818110156104b0576104a5600082610479565b600181019050610492565b5050565b601f8211156104f5576104c68161038b565b6104cf846103a0565b810160208510156104de578190505b6104f26104ea856103a0565b830182610491565b50505b505050565b600082821c905092915050565b6000610518600019846008026104fa565b1980831691505092915050565b60006105318383610507565b9150826002028217905092915050565b61054b8383610320565b67ffffffffffffffff811115610564576105636101ac565b5b61056e825461035a565b6105798282856104b4565b6000601f8311600181146105a85760008415610596578287013590505b6105a08582610525565b865550610608565b601f1984166105b68661038b565b60005b828110156105de578489013582556001820191506020850194506020810190506105b9565b868310156105fb57848901356105f7601f891682610507565b8355505b6001600288020188555050505b50505050505050565b600081519050919050565b61062582610611565b67ffffffffffffffff81111561063e5761063d6101ac565b5b610648825461035a565b6106538282856104b4565b600060209050601f8311600181146106865760008415610674578287015190505b61067e8582610525565b8655506106e6565b601f1984166106948661038b565b60005b828110156106bc57848901518255600182019150602085019450602081019050610697565b868310156106d957848901516106d5601f891682610507565b8355505b6001600288020188555050505b505050505050565b600081905092915050565b60005b838110156107175780820151818401526020810190506106fc565b60008484015250505050565b600061072e82610611565b61073881856106ee565b93506107488185602086016106f9565b80840191505092915050565b7f4d61727265726f73000000000000000000000000000000000000000000000000815250565b60006107868284610723565b915061079182610754565b6008820191508190509291505056fea2646970667358221220628061bc4b73bf34d3a079267f949c09785c3c7b4890f5d80943cac1576d4d2064736f6c63430008130033",
  "linkReferences": {},
  "deployedLinkReferences": {}
}