{
  "_format": "hh-sol-artifact-1",
  "contractName": "DoubleMapping",
  "sourceName": "contracts/class03/DoubleMapping.sol",
  "abi": [
    {
      "inputs": [
        {
          "internalType": "address",
          "name": "alumno",
          "type": "address"
        },
        {
          "internalType": "string",
          "name": "materia",
          "type": "string"
        },
        {
          "internalType": "uint256",
          "name": "nota",
          "type": "uint256"
        }
      ],
      "name": "guardarNotaParaAlumno",
      "outputs": [],
      "stateMutability": "nonpayable",
      "type": "function"
    },
    {
      "inputs": [
        {
          "internalType": "address",
          "name": "alumno",
          "type": "address"
        },
        {
          "internalType": "string",
          "name": "materia",
          "type": "string"
        }
      ],
      "name": "leerNotaDeUnaMateriaDelAlumno",
      "outputs": [
        {
          "internalType": "uint256",
          "name": "nota",
          "type": "uint256"
        }
      ],
      "stateMutability": "view",
      "type": "function"
    },
    {
      "inputs": [
        {
          "internalType": "address",
          "name": "alumno",
          "type": "address"
        },
        {
          "internalType": "string",
          "name": "materia",
          "type": "string"
        }
      ],
      "name": "limpiarNotaDeUnAlumno",
      "outputs": [],
      "stateMutability": "nonpayable",
      "type": "function"
    },
    {
      "inputs": [
        {
          "internalType": "address",
          "name": "alumno",
          "type": "address"
        },
        {
          "internalType": "uint256",
          "name": "nota",
          "type": "uint256"
        }
      ],
      "name": "limpiarTodasMateriasDeUnAlumno",
      "outputs": [],
      "stateMutability": "nonpayable",
      "type": "function"
    }
  ],
  "bytecode": "0x608060405234801561001057600080fd5b506106e6806100206000396000f3fe608060405234801561001057600080fd5b506004361061004c5760003560e01c806303a378f3146100515780631a4e20031461006d57806329e393de14610089578063685d286a146100b9575b600080fd5b61006b600480360381019061006691906102de565b6100d5565b005b61008760048036038101906100829190610374565b61013a565b005b6100a3600480360381019061009e91906104f5565b61013e565b6040516100b09190610560565b60405180910390f35b6100d360048036038101906100ce919061057b565b6101a3565b005b6000808473ffffffffffffffffffffffffffffffffffffffff1673ffffffffffffffffffffffffffffffffffffffff168152602001908152602001600020828260405161012392919061061a565b908152602001604051809103902060009055505050565b5050565b60008060008473ffffffffffffffffffffffffffffffffffffffff1673ffffffffffffffffffffffffffffffffffffffff1681526020019081526020016000208260405161018c9190610699565b908152602001604051809103902054905092915050565b806000808573ffffffffffffffffffffffffffffffffffffffff1673ffffffffffffffffffffffffffffffffffffffff168152602001908152602001600020836040516101f09190610699565b908152602001604051809103902081905550505050565b6000604051905090565b600080fd5b600080fd5b600073ffffffffffffffffffffffffffffffffffffffff82169050919050565b60006102468261021b565b9050919050565b6102568161023b565b811461026157600080fd5b50565b6000813590506102738161024d565b92915050565b600080fd5b600080fd5b600080fd5b60008083601f84011261029e5761029d610279565b5b8235905067ffffffffffffffff8111156102bb576102ba61027e565b5b6020830191508360018202830111156102d7576102d6610283565b5b9250929050565b6000806000604084860312156102f7576102f6610211565b5b600061030586828701610264565b935050602084013567ffffffffffffffff81111561032657610325610216565b5b61033286828701610288565b92509250509250925092565b6000819050919050565b6103518161033e565b811461035c57600080fd5b50565b60008135905061036e81610348565b92915050565b6000806040838503121561038b5761038a610211565b5b600061039985828601610264565b92505060206103aa8582860161035f565b9150509250929050565b600080fd5b6000601f19601f8301169050919050565b7f4e487b7100000000000000000000000000000000000000000000000000000000600052604160045260246000fd5b610402826103b9565b810181811067ffffffffffffffff82111715610421576104206103ca565b5b80604052505050565b6000610434610207565b905061044082826103f9565b919050565b600067ffffffffffffffff8211156104605761045f6103ca565b5b610469826103b9565b9050602081019050919050565b82818337600083830152505050565b600061049861049384610445565b61042a565b9050828152602081018484840111156104b4576104b36103b4565b5b6104bf848285610476565b509392505050565b600082601f8301126104dc576104db610279565b5b81356104ec848260208601610485565b91505092915050565b6000806040838503121561050c5761050b610211565b5b600061051a85828601610264565b925050602083013567ffffffffffffffff81111561053b5761053a610216565b5b610547858286016104c7565b9150509250929050565b61055a8161033e565b82525050565b60006020820190506105756000830184610551565b92915050565b60008060006060848603121561059457610593610211565b5b60006105a286828701610264565b935050602084013567ffffffffffffffff8111156105c3576105c2610216565b5b6105cf868287016104c7565b92505060406105e08682870161035f565b9150509250925092565b600081905092915050565b600061060183856105ea565b935061060e838584610476565b82840190509392505050565b60006106278284866105f5565b91508190509392505050565b600081519050919050565b60005b8381101561065c578082015181840152602081019050610641565b60008484015250505050565b600061067382610633565b61067d81856105ea565b935061068d81856020860161063e565b80840191505092915050565b60006106a58284610668565b91508190509291505056fea2646970667358221220b247cf09b66e7b0b897ca41ad6670e2c4da2f8d8fb3d3e4e6ce31a29f10ea0a764736f6c63430008130033",
  "linkReferences": {},
  "deployedLinkReferences": {}
}