{
  "_format": "hh-sol-artifact-1",
  "contractName": "Mapping",
  "sourceName": "contracts/class03/Mapping.sol",
  "abi": [
    {
      "inputs": [
        {
          "internalType": "address",
          "name": "account",
          "type": "address"
        },
        {
          "internalType": "uint256",
          "name": "edad",
          "type": "uint256"
        }
      ],
      "name": "actualizarLista",
      "outputs": [],
      "stateMutability": "nonpayable",
      "type": "function"
    },
    {
      "inputs": [
        {
          "internalType": "address",
          "name": "account",
          "type": "address"
        }
      ],
      "name": "leerEdad",
      "outputs": [
        {
          "internalType": "uint256",
          "name": "",
          "type": "uint256"
        }
      ],
      "stateMutability": "view",
      "type": "function"
    },
    {
      "inputs": [
        {
          "internalType": "address",
          "name": "account",
          "type": "address"
        }
      ],
      "name": "limpiarFilaEnTable",
      "outputs": [],
      "stateMutability": "nonpayable",
      "type": "function"
    }
  ],
  "bytecode": "0x608060405234801561001057600080fd5b5061034b806100206000396000f3fe608060405234801561001057600080fd5b50600436106100415760003560e01c80631cd90d2214610046578063760af63114610062578063a9c3a2e91461007e575b600080fd5b610060600480360381019061005b9190610248565b6100ae565b005b61007c600480360381019061007791906102ab565b6100f3565b005b61009860048036038101906100939190610248565b61019d565b6040516100a591906102fa565b60405180910390f35b6000808273ffffffffffffffffffffffffffffffffffffffff1673ffffffffffffffffffffffffffffffffffffffff1681526020019081526020016000206000905550565b806000808473ffffffffffffffffffffffffffffffffffffffff1673ffffffffffffffffffffffffffffffffffffffff168152602001908152602001600020819055506001829080600181540180825580915050600190039060005260206000200160009091909190916101000a81548173ffffffffffffffffffffffffffffffffffffffff021916908373ffffffffffffffffffffffffffffffffffffffff1602179055505050565b60008060008373ffffffffffffffffffffffffffffffffffffffff1673ffffffffffffffffffffffffffffffffffffffff168152602001908152602001600020549050919050565b600080fd5b600073ffffffffffffffffffffffffffffffffffffffff82169050919050565b6000610215826101ea565b9050919050565b6102258161020a565b811461023057600080fd5b50565b6000813590506102428161021c565b92915050565b60006020828403121561025e5761025d6101e5565b5b600061026c84828501610233565b91505092915050565b6000819050919050565b61028881610275565b811461029357600080fd5b50565b6000813590506102a58161027f565b92915050565b600080604083850312156102c2576102c16101e5565b5b60006102d085828601610233565b92505060206102e185828601610296565b9150509250929050565b6102f481610275565b82525050565b600060208201905061030f60008301846102eb565b9291505056fea26469706673582212201c83e2fe3f608dacf11373414c1ed1eb1e5fdf771dff0ed7b691358636bc66ab64736f6c63430008130033",
  "linkReferences": {},
  "deployedLinkReferences": {}
}