{
  "_format": "hh-sol-artifact-1",
  "contractName": "Swapper",
  "sourceName": "contracts/class14/Swapper.sol",
  "abi": [
    {
      "anonymous": false,
      "inputs": [
        {
          "indexed": false,
          "internalType": "uint256[]",
          "name": "amounts",
          "type": "uint256[]"
        }
      ],
      "name": "SwapAmounts",
      "type": "event"
    },
    {
      "inputs": [
        {
          "internalType": "uint256",
          "name": "amountIn",
          "type": "uint256"
        },
        {
          "internalType": "uint256",
          "name": "amountOutMin",
          "type": "uint256"
        },
        {
          "internalType": "address[]",
          "name": "path",
          "type": "address[]"
        },
        {
          "internalType": "address",
          "name": "to",
          "type": "address"
        },
        {
          "internalType": "uint256",
          "name": "deadline",
          "type": "uint256"
        }
      ],
      "name": "swapExactTokensForTokens",
      "outputs": [],
      "stateMutability": "nonpayable",
      "type": "function"
    },
    {
      "inputs": [
        {
          "internalType": "uint256",
          "name": "amountOut",
          "type": "uint256"
        },
        {
          "internalType": "uint256",
          "name": "amountInMax",
          "type": "uint256"
        },
        {
          "internalType": "address[]",
          "name": "path",
          "type": "address[]"
        },
        {
          "internalType": "address",
          "name": "to",
          "type": "address"
        },
        {
          "internalType": "uint256",
          "name": "deadline",
          "type": "uint256"
        }
      ],
      "name": "swapTokensForExactTokens",
      "outputs": [],
      "stateMutability": "nonpayable",
      "type": "function"
    }
  ],
  "bytecode": "0x6080604052737a250d5630b4cf539739df2c5dacb4c659f2488d6000806101000a81548173ffffffffffffffffffffffffffffffffffffffff021916908373ffffffffffffffffffffffffffffffffffffffff16021790555060008054906101000a900473ffffffffffffffffffffffffffffffffffffffff16600160006101000a81548173ffffffffffffffffffffffffffffffffffffffff021916908373ffffffffffffffffffffffffffffffffffffffff1602179055503480156100c557600080fd5b50610a80806100d56000396000f3fe608060405234801561001057600080fd5b50600436106100365760003560e01c806338ed17391461003b5780638803dbee14610057575b600080fd5b610055600480360381019061005091906104fc565b610073565b005b610071600480360381019061006c91906104fc565b610231565b005b60008484600081811061008957610088610596565b5b905060200201602081019061009e91906105c5565b90508073ffffffffffffffffffffffffffffffffffffffff1663095ea7b360008054906101000a900473ffffffffffffffffffffffffffffffffffffffff16896040518363ffffffff1660e01b81526004016100fb929190610610565b6020604051808303816000875af115801561011a573d6000803e3d6000fd5b505050506040513d601f19601f8201168201806040525081019061013e9190610671565b506000600160009054906101000a900473ffffffffffffffffffffffffffffffffffffffff1673ffffffffffffffffffffffffffffffffffffffff166338ed17398989898989896040518763ffffffff1660e01b81526004016101a696959493929190610761565b6000604051808303816000875af11580156101c5573d6000803e3d6000fd5b505050506040513d6000823e3d601f19601f820116820180604052508101906101ee9190610921565b90507f772dbe3f9af9535701a53982c8d36fdd220401840115afe4d719d715db6658d88160405161021f9190610a28565b60405180910390a15050505050505050565b60008484600081811061024757610246610596565b5b905060200201602081019061025c91906105c5565b90508073ffffffffffffffffffffffffffffffffffffffff1663095ea7b360008054906101000a900473ffffffffffffffffffffffffffffffffffffffff16886040518363ffffffff1660e01b81526004016102b9929190610610565b6020604051808303816000875af11580156102d8573d6000803e3d6000fd5b505050506040513d601f19601f820116820180604052508101906102fc9190610671565b506000600160009054906101000a900473ffffffffffffffffffffffffffffffffffffffff1673ffffffffffffffffffffffffffffffffffffffff16638803dbee8989898989896040518763ffffffff1660e01b815260040161036496959493929190610761565b6000604051808303816000875af1158015610383573d6000803e3d6000fd5b505050506040513d6000823e3d601f19601f820116820180604052508101906103ac9190610921565b90507f772dbe3f9af9535701a53982c8d36fdd220401840115afe4d719d715db6658d8816040516103dd9190610a28565b60405180910390a15050505050505050565b6000604051905090565b600080fd5b600080fd5b6000819050919050565b61041681610403565b811461042157600080fd5b50565b6000813590506104338161040d565b92915050565b600080fd5b600080fd5b600080fd5b60008083601f84011261045e5761045d610439565b5b8235905067ffffffffffffffff81111561047b5761047a61043e565b5b60208301915083602082028301111561049757610496610443565b5b9250929050565b600073ffffffffffffffffffffffffffffffffffffffff82169050919050565b60006104c98261049e565b9050919050565b6104d9816104be565b81146104e457600080fd5b50565b6000813590506104f6816104d0565b92915050565b60008060008060008060a08789031215610519576105186103f9565b5b600061052789828a01610424565b965050602061053889828a01610424565b955050604087013567ffffffffffffffff811115610559576105586103fe565b5b61056589828a01610448565b9450945050606061057889828a016104e7565b925050608061058989828a01610424565b9150509295509295509295565b7f4e487b7100000000000000000000000000000000000000000000000000000000600052603260045260246000fd5b6000602082840312156105db576105da6103f9565b5b60006105e9848285016104e7565b91505092915050565b6105fb816104be565b82525050565b61060a81610403565b82525050565b600060408201905061062560008301856105f2565b6106326020830184610601565b9392505050565b60008115159050919050565b61064e81610639565b811461065957600080fd5b50565b60008151905061066b81610645565b92915050565b600060208284031215610687576106866103f9565b5b60006106958482850161065c565b91505092915050565b600082825260208201905092915050565b6000819050919050565b6106c2816104be565b82525050565b60006106d483836106b9565b60208301905092915050565b60006106ef60208401846104e7565b905092915050565b6000602082019050919050565b6000610710838561069e565b935061071b826106af565b8060005b858110156107545761073182846106e0565b61073b88826106c8565b9750610746836106f7565b92505060018101905061071f565b5085925050509392505050565b600060a0820190506107766000830189610601565b6107836020830188610601565b8181036040830152610796818688610704565b90506107a560608301856105f2565b6107b26080830184610601565b979650505050505050565b6000601f19601f8301169050919050565b7f4e487b7100000000000000000000000000000000000000000000000000000000600052604160045260246000fd5b610806826107bd565b810181811067ffffffffffffffff82111715610825576108246107ce565b5b80604052505050565b60006108386103ef565b905061084482826107fd565b919050565b600067ffffffffffffffff821115610864576108636107ce565b5b602082029050602081019050919050565b6000815190506108848161040d565b92915050565b600061089d61089884610849565b61082e565b905080838252602082019050602084028301858111156108c0576108bf610443565b5b835b818110156108e957806108d58882610875565b8452602084019350506020810190506108c2565b5050509392505050565b600082601f83011261090857610907610439565b5b815161091884826020860161088a565b91505092915050565b600060208284031215610937576109366103f9565b5b600082015167ffffffffffffffff811115610955576109546103fe565b5b610961848285016108f3565b91505092915050565b600081519050919050565b600082825260208201905092915050565b6000819050602082019050919050565b61099f81610403565b82525050565b60006109b18383610996565b60208301905092915050565b6000602082019050919050565b60006109d58261096a565b6109df8185610975565b93506109ea83610986565b8060005b83811015610a1b578151610a0288826109a5565b9750610a0d836109bd565b9250506001810190506109ee565b5085935050505092915050565b60006020820190508181036000830152610a4281846109ca565b90509291505056fea2646970667358221220c622073a62fb843c9f5eb058bee88982b7261d590fb215d352efb6d095295ae464736f6c63430008130033",
  "linkReferences": {},
  "deployedLinkReferences": {}
}