{
  "_format": "hh-sol-artifact-1",
  "contractName": "ArrayEnMemory",
  "sourceName": "contracts/class05/ArrayEnMemory.sol",
  "abi": [
    {
      "inputs": [
        {
          "internalType": "uint256",
          "name": "n",
          "type": "uint256"
        }
      ],
      "name": "crearArrayEnMemoryDinamico",
      "outputs": [
        {
          "internalType": "uint256[]",
          "name": "",
          "type": "uint256[]"
        }
      ],
      "stateMutability": "pure",
      "type": "function"
    },
    {
      "inputs": [],
      "name": "crearArrayEnMemoryFijo",
      "outputs": [
        {
          "internalType": "uint256[10]",
          "name": "",
          "type": "uint256[10]"
        }
      ],
      "stateMutability": "pure",
      "type": "function"
    }
  ],
  "bytecode": "0x608060405234801561001057600080fd5b506104b1806100206000396000f3fe608060405234801561001057600080fd5b50600436106100365760003560e01c80635e0a6adf1461003b578063fa32be0a14610059575b600080fd5b610043610089565b6040516100509190610273565b60405180910390f35b610073600480360381019061006e91906102c0565b6100dd565b6040516100809190610384565b60405180910390f35b61009161019b565b61009961019b565b60005b600a8110156100d557808282600a81106100b9576100b86103a6565b5b60200201818152505080806100cd90610404565b91505061009c565b508091505090565b606060008267ffffffffffffffff8111156100fb576100fa61044c565b5b6040519080825280602002602001820160405280156101295781602001602082028036833780820191505090505b509050600181600081518110610142576101416103a6565b5b602002602001018181525050600281600181518110610164576101636103a6565b5b602002602001018181525050600381600281518110610186576101856103a6565b5b60200260200101818152505080915050919050565b604051806101400160405280600a90602082028036833780820191505090505090565b6000600a9050919050565b600081905092915050565b6000819050919050565b6000819050919050565b6101f1816101de565b82525050565b600061020383836101e8565b60208301905092915050565b6000602082019050919050565b610225816101be565b61022f81846101c9565b925061023a826101d4565b8060005b8381101561026b57815161025287826101f7565b965061025d8361020f565b92505060018101905061023e565b505050505050565b600061014082019050610289600083018461021c565b92915050565b600080fd5b61029d816101de565b81146102a857600080fd5b50565b6000813590506102ba81610294565b92915050565b6000602082840312156102d6576102d561028f565b5b60006102e4848285016102ab565b91505092915050565b600081519050919050565b600082825260208201905092915050565b6000819050602082019050919050565b6000602082019050919050565b6000610331826102ed565b61033b81856102f8565b935061034683610309565b8060005b8381101561037757815161035e88826101f7565b975061036983610319565b92505060018101905061034a565b5085935050505092915050565b6000602082019050818103600083015261039e8184610326565b905092915050565b7f4e487b7100000000000000000000000000000000000000000000000000000000600052603260045260246000fd5b7f4e487b7100000000000000000000000000000000000000000000000000000000600052601160045260246000fd5b600061040f826101de565b91507fffffffffffffffffffffffffffffffffffffffffffffffffffffffffffffffff8203610441576104406103d5565b5b600182019050919050565b7f4e487b7100000000000000000000000000000000000000000000000000000000600052604160045260246000fdfea2646970667358221220ea66ee95d95c4a0d82d9803be441ac9b13864b897849db0e61c7fa2d0be9b24e64736f6c63430008130033",
  "linkReferences": {},
  "deployedLinkReferences": {}
}