{
  "_format": "hh-sol-artifact-1",
  "contractName": "RecibeEther",
  "sourceName": "contracts/class06/EnviarEther.sol",
  "abi": [
    {
      "inputs": [],
      "stateMutability": "payable",
      "type": "constructor"
    },
    {
      "anonymous": false,
      "inputs": [],
      "name": "Fallback",
      "type": "event"
    },
    {
      "anonymous": false,
      "inputs": [],
      "name": "Receive",
      "type": "event"
    },
    {
      "stateMutability": "payable",
      "type": "fallback"
    },
    {
      "inputs": [],
      "name": "balanceEther",
      "outputs": [
        {
          "internalType": "uint256",
          "name": "",
          "type": "uint256"
        }
      ],
      "stateMutability": "view",
      "type": "function"
    },
    {
      "inputs": [],
      "name": "consultarBalanceEtherContrato",
      "outputs": [
        {
          "internalType": "uint256",
          "name": "",
          "type": "uint256"
        }
      ],
      "stateMutability": "view",
      "type": "function"
    },
    {
      "inputs": [],
      "name": "functionQueNoRecibeEther",
      "outputs": [],
      "stateMutability": "nonpayable",
      "type": "function"
    },
    {
      "inputs": [],
      "name": "functionQueRecibeEther",
      "outputs": [],
      "stateMutability": "payable",
      "type": "function"
    },
    {
      "stateMutability": "payable",
      "type": "receive"
    }
  ],
  "bytecode": "0x6080604052610211806100136000396000f3fe6080604052600436106100435760003560e01c80631ea32812146100bb578063323bde92146100e65780634d933ab714610111578063b9759a841461012857610076565b36610076577f9f1b3bad61172afd7ac57ee5c5873e1c8fad6c4b8e0fe408853ffbd909aaa83060405160405180910390a1005b7f52b4643cca14f009d3eef2bb2517ebc5918c9152c5038af8258985bdd6ca258060405160405180910390a1346000808282546100b3919061017d565b925050819055005b3480156100c757600080fd5b506100d0610132565b6040516100dd91906101c0565b60405180910390f35b3480156100f257600080fd5b506100fb61013a565b60405161010891906101c0565b60405180910390f35b34801561011d57600080fd5b50610126610140565b005b610130610142565b005b600047905090565b60005481565b565b565b6000819050919050565b7f4e487b7100000000000000000000000000000000000000000000000000000000600052601160045260246000fd5b600061018882610144565b915061019383610144565b92508282019050808211156101ab576101aa61014e565b5b92915050565b6101ba81610144565b82525050565b60006020820190506101d560008301846101b1565b9291505056fea2646970667358221220b3e0e5454d3620249319377d1df8143c3d0a18856e54af98a45001bfcdd113e764736f6c63430008130033",
  "linkReferences": {},
  "deployedLinkReferences": {}
}