{
  "_format": "hh-sol-artifact-1",
  "contractName": "SelfDestruct",
  "sourceName": "contracts/class06/EnviarEther.sol",
  "abi": [
    {
      "inputs": [],
      "stateMutability": "payable",
      "type": "constructor"
    },
    {
      "inputs": [
        {
          "internalType": "address payable",
          "name": "_destino",
          "type": "address"
        }
      ],
      "name": "destruir",
      "outputs": [],
      "stateMutability": "nonpayable",
      "type": "function"
    }
  ],
  "bytecode": "0x6080604052610118806100136000396000f3fe6080604052348015600f57600080fd5b506004361060285760003560e01c80633270020f14602d575b600080fd5b60436004803603810190603f919060ba565b6045565b005b8073ffffffffffffffffffffffffffffffffffffffff16ff5b600080fd5b600073ffffffffffffffffffffffffffffffffffffffff82169050919050565b6000608c826063565b9050919050565b609a816083565b811460a457600080fd5b50565b60008135905060b4816093565b92915050565b60006020828403121560cd5760cc605e565b5b600060d98482850160a7565b9150509291505056fea2646970667358221220eeaf3ec44d791dd1471d06c0a314a5fdbf9a889bc9db8b3640cd72eac4c061fc64736f6c63430008130033",
  "linkReferences": {},
  "deployedLinkReferences": {}
}