{
  "_format": "hh-sol-artifact-1",
  "contractName": "RudyGomezToken",
  "sourceName": "contracts/laboratorios/PRGMTKNUpgredeable.sol",
  "abi": [
    {
      "inputs": [],
      "stateMutability": "nonpayable",
      "type": "constructor"
    },
    {
      "anonymous": false,
      "inputs": [
        {
          "indexed": false,
          "internalType": "address",
          "name": "previousAdmin",
          "type": "address"
        },
        {
          "indexed": false,
          "internalType": "address",
          "name": "newAdmin",
          "type": "address"
        }
      ],
      "name": "AdminChanged",
      "type": "event"
    },
    {
      "anonymous": false,
      "inputs": [
        {
          "indexed": true,
          "internalType": "address",
          "name": "owner",
          "type": "address"
        },
        {
          "indexed": true,
          "internalType": "address",
          "name": "spender",
          "type": "address"
        },
        {
          "indexed": false,
          "internalType": "uint256",
          "name": "value",
          "type": "uint256"
        }
      ],
      "name": "Approval",
      "type": "event"
    },
    {
      "anonymous": false,
      "inputs": [
        {
          "indexed": true,
          "internalType": "address",
          "name": "beacon",
          "type": "address"
        }
      ],
      "name": "BeaconUpgraded",
      "type": "event"
    },
    {
      "anonymous": false,
      "inputs": [
        {
          "indexed": false,
          "internalType": "uint8",
          "name": "version",
          "type": "uint8"
        }
      ],
      "name": "Initialized",
      "type": "event"
    },
    {
      "anonymous": false,
      "inputs": [
        {
          "indexed": false,
          "internalType": "address",
          "name": "account",
          "type": "address"
        }
      ],
      "name": "Paused",
      "type": "event"
    },
    {
      "anonymous": false,
      "inputs": [
        {
          "indexed": true,
          "internalType": "bytes32",
          "name": "role",
          "type": "bytes32"
        },
        {
          "indexed": true,
          "internalType": "bytes32",
          "name": "previousAdminRole",
          "type": "bytes32"
        },
        {
          "indexed": true,
          "internalType": "bytes32",
          "name": "newAdminRole",
          "type": "bytes32"
        }
      ],
      "name": "RoleAdminChanged",
      "type": "event"
    },
    {
      "anonymous": false,
      "inputs": [
        {
          "indexed": true,
          "internalType": "bytes32",
          "name": "role",
          "type": "bytes32"
        },
        {
          "indexed": true,
          "internalType": "address",
          "name": "account",
          "type": "address"
        },
        {
          "indexed": true,
          "internalType": "address",
          "name": "sender",
          "type": "address"
        }
      ],
      "name": "RoleGranted",
      "type": "event"
    },
    {
      "anonymous": false,
      "inputs": [
        {
          "indexed": true,
          "internalType": "bytes32",
          "name": "role",
          "type": "bytes32"
        },
        {
          "indexed": true,
          "internalType": "address",
          "name": "account",
          "type": "address"
        },
        {
          "indexed": true,
          "internalType": "address",
          "name": "sender",
          "type": "address"
        }
      ],
      "name": "RoleRevoked",
      "type": "event"
    },
    {
      "anonymous": false,
      "inputs": [
        {
          "indexed": true,
          "internalType": "address",
          "name": "from",
          "type": "address"
        },
        {
          "indexed": true,
          "internalType": "address",
          "name": "to",
          "type": "address"
        },
        {
          "indexed": false,
          "internalType": "uint256",
          "name": "value",
          "type": "uint256"
        }
      ],
      "name": "Transfer",
      "type": "event"
    },
    {
      "anonymous": false,
      "inputs": [
        {
          "indexed": false,
          "internalType": "address",
          "name": "account",
          "type": "address"
        }
      ],
      "name": "Unpaused",
      "type": "event"
    },
    {
      "anonymous": false,
      "inputs": [
        {
          "indexed": true,
          "internalType": "address",
          "name": "implementation",
          "type": "address"
        }
      ],
      "name": "Upgraded",
      "type": "event"
    },
    {
      "inputs": [],
      "name": "DEFAULT_ADMIN_ROLE",
      "outputs": [
        {
          "internalType": "bytes32",
          "name": "",
          "type": "bytes32"
        }
      ],
      "stateMutability": "view",
      "type": "function"
    },
    {
      "inputs": [],
      "name": "MINTER_ROLE",
      "outputs": [
        {
          "internalType": "bytes32",
          "name": "",
          "type": "bytes32"
        }
      ],
      "stateMutability": "view",
      "type": "function"
    },
    {
      "inputs": [],
      "name": "PAUSER_ROLE",
      "outputs": [
        {
          "internalType": "bytes32",
          "name": "",
          "type": "bytes32"
        }
      ],
      "stateMutability": "view",
      "type": "function"
    },
    {
      "inputs": [],
      "name": "UPGRADER_ROLE",
      "outputs": [
        {
          "internalType": "bytes32",
          "name": "",
          "type": "bytes32"
        }
      ],
      "stateMutability": "view",
      "type": "function"
    },
    {
      "inputs": [
        {
          "internalType": "address",
          "name": "owner",
          "type": "address"
        },
        {
          "internalType": "address",
          "name": "spender",
          "type": "address"
        }
      ],
      "name": "allowance",
      "outputs": [
        {
          "internalType": "uint256",
          "name": "",
          "type": "uint256"
        }
      ],
      "stateMutability": "view",
      "type": "function"
    },
    {
      "inputs": [
        {
          "internalType": "address",
          "name": "spender",
          "type": "address"
        },
        {
          "internalType": "uint256",
          "name": "amount",
          "type": "uint256"
        }
      ],
      "name": "approve",
      "outputs": [
        {
          "internalType": "bool",
          "name": "",
          "type": "bool"
        }
      ],
      "stateMutability": "nonpayable",
      "type": "function"
    },
    {
      "inputs": [
        {
          "internalType": "address",
          "name": "account",
          "type": "address"
        }
      ],
      "name": "balanceOf",
      "outputs": [
        {
          "internalType": "uint256",
          "name": "",
          "type": "uint256"
        }
      ],
      "stateMutability": "view",
      "type": "function"
    },
    {
      "inputs": [],
      "name": "decimals",
      "outputs": [
        {
          "internalType": "uint8",
          "name": "",
          "type": "uint8"
        }
      ],
      "stateMutability": "view",
      "type": "function"
    },
    {
      "inputs": [
        {
          "internalType": "address",
          "name": "spender",
          "type": "address"
        },
        {
          "internalType": "uint256",
          "name": "subtractedValue",
          "type": "uint256"
        }
      ],
      "name": "decreaseAllowance",
      "outputs": [
        {
          "internalType": "bool",
          "name": "",
          "type": "bool"
        }
      ],
      "stateMutability": "nonpayable",
      "type": "function"
    },
    {
      "inputs": [
        {
          "internalType": "bytes32",
          "name": "role",
          "type": "bytes32"
        }
      ],
      "name": "getRoleAdmin",
      "outputs": [
        {
          "internalType": "bytes32",
          "name": "",
          "type": "bytes32"
        }
      ],
      "stateMutability": "view",
      "type": "function"
    },
    {
      "inputs": [
        {
          "internalType": "bytes32",
          "name": "role",
          "type": "bytes32"
        },
        {
          "internalType": "address",
          "name": "account",
          "type": "address"
        }
      ],
      "name": "grantRole",
      "outputs": [],
      "stateMutability": "nonpayable",
      "type": "function"
    },
    {
      "inputs": [
        {
          "internalType": "bytes32",
          "name": "role",
          "type": "bytes32"
        },
        {
          "internalType": "address",
          "name": "account",
          "type": "address"
        }
      ],
      "name": "hasRole",
      "outputs": [
        {
          "internalType": "bool",
          "name": "",
          "type": "bool"
        }
      ],
      "stateMutability": "view",
      "type": "function"
    },
    {
      "inputs": [
        {
          "internalType": "address",
          "name": "spender",
          "type": "address"
        },
        {
          "internalType": "uint256",
          "name": "addedValue",
          "type": "uint256"
        }
      ],
      "name": "increaseAllowance",
      "outputs": [
        {
          "internalType": "bool",
          "name": "",
          "type": "bool"
        }
      ],
      "stateMutability": "nonpayable",
      "type": "function"
    },
    {
      "inputs": [],
      "name": "initialize",
      "outputs": [],
      "stateMutability": "nonpayable",
      "type": "function"
    },
    {
      "inputs": [
        {
          "internalType": "address",
          "name": "to",
          "type": "address"
        },
        {
          "internalType": "uint256",
          "name": "amount",
          "type": "uint256"
        }
      ],
      "name": "mint",
      "outputs": [],
      "stateMutability": "nonpayable",
      "type": "function"
    },
    {
      "inputs": [
        {
          "internalType": "uint256",
          "name": "amount",
          "type": "uint256"
        }
      ],
      "name": "mint",
      "outputs": [],
      "stateMutability": "nonpayable",
      "type": "function"
    },
    {
      "inputs": [],
      "name": "mint100",
      "outputs": [],
      "stateMutability": "nonpayable",
      "type": "function"
    },
    {
      "inputs": [],
      "name": "name",
      "outputs": [
        {
          "internalType": "string",
          "name": "",
          "type": "string"
        }
      ],
      "stateMutability": "view",
      "type": "function"
    },
    {
      "inputs": [],
      "name": "pause",
      "outputs": [],
      "stateMutability": "nonpayable",
      "type": "function"
    },
    {
      "inputs": [],
      "name": "paused",
      "outputs": [
        {
          "internalType": "bool",
          "name": "",
          "type": "bool"
        }
      ],
      "stateMutability": "view",
      "type": "function"
    },
    {
      "inputs": [],
      "name": "proxiableUUID",
      "outputs": [
        {
          "internalType": "bytes32",
          "name": "",
          "type": "bytes32"
        }
      ],
      "stateMutability": "view",
      "type": "function"
    },
    {
      "inputs": [
        {
          "internalType": "bytes32",
          "name": "role",
          "type": "bytes32"
        },
        {
          "internalType": "address",
          "name": "account",
          "type": "address"
        }
      ],
      "name": "renounceRole",
      "outputs": [],
      "stateMutability": "nonpayable",
      "type": "function"
    },
    {
      "inputs": [
        {
          "internalType": "bytes32",
          "name": "role",
          "type": "bytes32"
        },
        {
          "internalType": "address",
          "name": "account",
          "type": "address"
        }
      ],
      "name": "revokeRole",
      "outputs": [],
      "stateMutability": "nonpayable",
      "type": "function"
    },
    {
      "inputs": [
        {
          "internalType": "bytes4",
          "name": "interfaceId",
          "type": "bytes4"
        }
      ],
      "name": "supportsInterface",
      "outputs": [
        {
          "internalType": "bool",
          "name": "",
          "type": "bool"
        }
      ],
      "stateMutability": "view",
      "type": "function"
    },
    {
      "inputs": [],
      "name": "symbol",
      "outputs": [
        {
          "internalType": "string",
          "name": "",
          "type": "string"
        }
      ],
      "stateMutability": "view",
      "type": "function"
    },
    {
      "inputs": [],
      "name": "totalSupply",
      "outputs": [
        {
          "internalType": "uint256",
          "name": "",
          "type": "uint256"
        }
      ],
      "stateMutability": "view",
      "type": "function"
    },
    {
      "inputs": [
        {
          "internalType": "address",
          "name": "to",
          "type": "address"
        },
        {
          "internalType": "uint256",
          "name": "amount",
          "type": "uint256"
        }
      ],
      "name": "transfer",
      "outputs": [
        {
          "internalType": "bool",
          "name": "",
          "type": "bool"
        }
      ],
      "stateMutability": "nonpayable",
      "type": "function"
    },
    {
      "inputs": [
        {
          "internalType": "address",
          "name": "from",
          "type": "address"
        },
        {
          "internalType": "address",
          "name": "to",
          "type": "address"
        },
        {
          "internalType": "uint256",
          "name": "amount",
          "type": "uint256"
        }
      ],
      "name": "transferFrom",
      "outputs": [
        {
          "internalType": "bool",
          "name": "",
          "type": "bool"
        }
      ],
      "stateMutability": "nonpayable",
      "type": "function"
    },
    {
      "inputs": [],
      "name": "unpause",
      "outputs": [],
      "stateMutability": "nonpayable",
      "type": "function"
    },
    {
      "inputs": [
        {
          "internalType": "address",
          "name": "newImplementation",
          "type": "address"
        }
      ],
      "name": "upgradeTo",
      "outputs": [],
      "stateMutability": "nonpayable",
      "type": "function"
    },
    {
      "inputs": [
        {
          "internalType": "address",
          "name": "newImplementation",
          "type": "address"
        },
        {
          "internalType": "bytes",
          "name": "data",
          "type": "bytes"
        }
      ],
      "name": "upgradeToAndCall",
      "outputs": [],
      "stateMutability": "payable",
      "type": "function"
    },
    {
      "inputs": [],
      "name": "version",
      "outputs": [
        {
          "internalType": "uint256",
          "name": "",
          "type": "uint256"
        }
      ],
      "stateMutability": "pure",
      "type": "function"
    }
  ],
  "bytecode": "0x60a06040523073ffffffffffffffffffffffffffffffffffffffff1660809073ffffffffffffffffffffffffffffffffffffffff168152503480156200004457600080fd5b50620000556200005b60201b60201c565b62000205565b600060019054906101000a900460ff1615620000ae576040517f08c379a0000000000000000000000000000000000000000000000000000000008152600401620000a590620001a8565b60405180910390fd5b60ff801660008054906101000a900460ff1660ff16146200011f5760ff6000806101000a81548160ff021916908360ff1602179055507f7f26b83ff96e1f2b6a682f133852f6798a09c465da95921460cefb384740249860ff604051620001169190620001e8565b60405180910390a15b565b600082825260208201905092915050565b7f496e697469616c697a61626c653a20636f6e747261637420697320696e69746960008201527f616c697a696e6700000000000000000000000000000000000000000000000000602082015250565b60006200019060278362000121565b91506200019d8262000132565b604082019050919050565b60006020820190508181036000830152620001c38162000181565b9050919050565b600060ff82169050919050565b620001e281620001ca565b82525050565b6000602082019050620001ff6000830184620001d7565b92915050565b608051613f086200023d600039600081816109c801528181610a5601528181610bf501528181610c830152610d330152613f086000f3fe6080604052600436106101e35760003560e01c80635c975abb11610102578063a217fddf11610095578063d547741f11610064578063d547741f146106d5578063dd62ed3e146106fe578063e63ab1e91461073b578063f72c0d8b14610766576101e3565b8063a217fddf14610605578063a457c2d714610630578063a9059cbb1461066d578063d5391393146106aa576101e3565b80638456cb59116100d15780638456cb591461055d57806391d148541461057457806395d89b41146105b1578063a0712d68146105dc576101e3565b80635c975abb146104c757806370a08231146104f257806375f4539c1461052f5780638129fc1c14610546576101e3565b806336568abe1161017a57806340c10f191161014957806340c10f191461042c5780634f1ef2861461045557806352d1902d1461047157806354fd4d501461049c576101e3565b806336568abe146103865780633659cfe6146103af57806339509351146103d85780633f4ba83a14610415576101e3565b806323b872dd116101b657806323b872dd146102b8578063248a9ca3146102f55780632f2ff15d14610332578063313ce5671461035b576101e3565b806301ffc9a7146101e857806306fdde0314610225578063095ea7b31461025057806318160ddd1461028d575b600080fd5b3480156101f457600080fd5b5061020f600480360381019061020a91906127f7565b610791565b60405161021c919061283f565b60405180910390f35b34801561023157600080fd5b5061023a61080b565b60405161024791906128ea565b60405180910390f35b34801561025c57600080fd5b50610277600480360381019061027291906129a0565b61089d565b604051610284919061283f565b60405180910390f35b34801561029957600080fd5b506102a26108c0565b6040516102af91906129ef565b60405180910390f35b3480156102c457600080fd5b506102df60048036038101906102da9190612a0a565b6108ca565b6040516102ec919061283f565b60405180910390f35b34801561030157600080fd5b5061031c60048036038101906103179190612a93565b6108f9565b6040516103299190612acf565b60405180910390f35b34801561033e57600080fd5b5061035960048036038101906103549190612aea565b610919565b005b34801561036757600080fd5b5061037061093a565b60405161037d9190612b46565b60405180910390f35b34801561039257600080fd5b506103ad60048036038101906103a89190612aea565b610943565b005b3480156103bb57600080fd5b506103d660048036038101906103d19190612b61565b6109c6565b005b3480156103e457600080fd5b506103ff60048036038101906103fa91906129a0565b610b4e565b60405161040c919061283f565b60405180910390f35b34801561042157600080fd5b5061042a610b85565b005b34801561043857600080fd5b50610453600480360381019061044e91906129a0565b610bba565b005b61046f600480360381019061046a9190612cc3565b610bf3565b005b34801561047d57600080fd5b50610486610d2f565b6040516104939190612acf565b60405180910390f35b3480156104a857600080fd5b506104b1610de8565b6040516104be91906129ef565b60405180910390f35b3480156104d357600080fd5b506104dc610df1565b6040516104e9919061283f565b60405180910390f35b3480156104fe57600080fd5b5061051960048036038101906105149190612b61565b610e08565b60405161052691906129ef565b60405180910390f35b34801561053b57600080fd5b50610544610e51565b005b34801561055257600080fd5b5061055b610e66565b005b34801561056957600080fd5b506105726110b3565b005b34801561058057600080fd5b5061059b60048036038101906105969190612aea565b6110e8565b6040516105a8919061283f565b60405180910390f35b3480156105bd57600080fd5b506105c6611153565b6040516105d391906128ea565b60405180910390f35b3480156105e857600080fd5b5061060360048036038101906105fe9190612d1f565b6111e5565b005b34801561061157600080fd5b5061061a6111f2565b6040516106279190612acf565b60405180910390f35b34801561063c57600080fd5b50610657600480360381019061065291906129a0565b6111f9565b604051610664919061283f565b60405180910390f35b34801561067957600080fd5b50610694600480360381019061068f91906129a0565b611270565b6040516106a1919061283f565b60405180910390f35b3480156106b657600080fd5b506106bf611293565b6040516106cc9190612acf565b60405180910390f35b3480156106e157600080fd5b506106fc60048036038101906106f79190612aea565b6112b7565b005b34801561070a57600080fd5b5061072560048036038101906107209190612d4c565b6112d8565b60405161073291906129ef565b60405180910390f35b34801561074757600080fd5b5061075061135f565b60405161075d9190612acf565b60405180910390f35b34801561077257600080fd5b5061077b611383565b6040516107889190612acf565b60405180910390f35b60007f7965db0b000000000000000000000000000000000000000000000000000000007bffffffffffffffffffffffffffffffffffffffffffffffffffffffff1916827bffffffffffffffffffffffffffffffffffffffffffffffffffffffff191614806108045750610803826113a7565b5b9050919050565b60606036805461081a90612dbb565b80601f016020809104026020016040519081016040528092919081815260200182805461084690612dbb565b80156108935780601f1061086857610100808354040283529160200191610893565b820191906000526020600020905b81548152906001019060200180831161087657829003601f168201915b5050505050905090565b6000806108a8611411565b90506108b5818585611419565b600191505092915050565b6000603554905090565b6000806108d5611411565b90506108e28582856115e2565b6108ed85858561166e565b60019150509392505050565b600060c96000838152602001908152602001600020600101549050919050565b610922826108f9565b61092b816118e7565b61093583836118fb565b505050565b60006012905090565b61094b611411565b73ffffffffffffffffffffffffffffffffffffffff168173ffffffffffffffffffffffffffffffffffffffff16146109b8576040517f08c379a00000000000000000000000000000000000000000000000000000000081526004016109af90612e5e565b60405180910390fd5b6109c282826119dc565b5050565b7f000000000000000000000000000000000000000000000000000000000000000073ffffffffffffffffffffffffffffffffffffffff163073ffffffffffffffffffffffffffffffffffffffff1603610a54576040517f08c379a0000000000000000000000000000000000000000000000000000000008152600401610a4b90612ef0565b60405180910390fd5b7f000000000000000000000000000000000000000000000000000000000000000073ffffffffffffffffffffffffffffffffffffffff16610a93611abe565b73ffffffffffffffffffffffffffffffffffffffff1614610ae9576040517f08c379a0000000000000000000000000000000000000000000000000000000008152600401610ae090612f82565b60405180910390fd5b610af281611b15565b610b4b81600067ffffffffffffffff811115610b1157610b10612b98565b5b6040519080825280601f01601f191660200182016040528015610b435781602001600182028036833780820191505090505b506000611b43565b50565b600080610b59611411565b9050610b7a818585610b6b85896112d8565b610b759190612fd1565b611419565b600191505092915050565b7f65d7a28e3265b37a6474929f336521b332c1681b933f6cb9f3376673440d862a610baf816118e7565b610bb7611cb1565b50565b7f9f2df0fed2c77648de5860a4cc508cd0818c85b8b8a1ab4ceeef8d981c8956a6610be4816118e7565b610bee8383611d14565b505050565b7f000000000000000000000000000000000000000000000000000000000000000073ffffffffffffffffffffffffffffffffffffffff163073ffffffffffffffffffffffffffffffffffffffff1603610c81576040517f08c379a0000000000000000000000000000000000000000000000000000000008152600401610c7890612ef0565b60405180910390fd5b7f000000000000000000000000000000000000000000000000000000000000000073ffffffffffffffffffffffffffffffffffffffff16610cc0611abe565b73ffffffffffffffffffffffffffffffffffffffff1614610d16576040517f08c379a0000000000000000000000000000000000000000000000000000000008152600401610d0d90612f82565b60405180910390fd5b610d1f82611b15565b610d2b82826001611b43565b5050565b60007f000000000000000000000000000000000000000000000000000000000000000073ffffffffffffffffffffffffffffffffffffffff163073ffffffffffffffffffffffffffffffffffffffff1614610dbf576040517f08c379a0000000000000000000000000000000000000000000000000000000008152600401610db690613077565b60405180910390fd5b7f360894a13ba1a3210667c828492db98dca3e2076cc3735a920a3ca505d382bbc60001b905090565b60006020905090565b6000606560009054906101000a900460ff16905090565b6000603360008373ffffffffffffffffffffffffffffffffffffffff1673ffffffffffffffffffffffffffffffffffffffff168152602001908152602001600020549050919050565b610e643368056bc75e2d63100000611d14565b565b60008060019054906101000a900460ff16159050808015610e975750600160008054906101000a900460ff1660ff16105b80610ec45750610ea630611e6b565b158015610ec35750600160008054906101000a900460ff1660ff16145b5b610f03576040517f08c379a0000000000000000000000000000000000000000000000000000000008152600401610efa90613109565b60405180910390fd5b60016000806101000a81548160ff021916908360ff1602179055508015610f40576001600060016101000a81548160ff0219169083151502179055505b610fb46040518060400160405280601081526020017f5275647920476f6d657a20546f6b656e000000000000000000000000000000008152506040518060400160405280600781526020017f5052474d544b4e00000000000000000000000000000000000000000000000000815250611e8e565b610fbc611eeb565b610fc4611f44565b610fcc611f95565b610fd96000801b336118fb565b6110037f65d7a28e3265b37a6474929f336521b332c1681b933f6cb9f3376673440d862a336118fb565b61102d7f9f2df0fed2c77648de5860a4cc508cd0818c85b8b8a1ab4ceeef8d981c8956a6336118fb565b6110577f189ab7a9244df0848122154315af71fe140f3db0fe014031783b0946b8c9d2e3336118fb565b80156110b05760008060016101000a81548160ff0219169083151502179055507f7f26b83ff96e1f2b6a682f133852f6798a09c465da95921460cefb384740249860016040516110a7919061316e565b60405180910390a15b50565b7f65d7a28e3265b37a6474929f336521b332c1681b933f6cb9f3376673440d862a6110dd816118e7565b6110e5611fe6565b50565b600060c9600084815260200190815260200160002060000160008373ffffffffffffffffffffffffffffffffffffffff1673ffffffffffffffffffffffffffffffffffffffff16815260200190815260200160002060009054906101000a900460ff16905092915050565b60606037805461116290612dbb565b80601f016020809104026020016040519081016040528092919081815260200182805461118e90612dbb565b80156111db5780601f106111b0576101008083540402835291602001916111db565b820191906000526020600020905b8154815290600101906020018083116111be57829003601f168201915b5050505050905090565b6111ef3382611d14565b50565b6000801b81565b600080611204611411565b9050600061121282866112d8565b905083811015611257576040517f08c379a000000000000000000000000000000000000000000000000000000000815260040161124e906131fb565b60405180910390fd5b6112648286868403611419565b60019250505092915050565b60008061127b611411565b905061128881858561166e565b600191505092915050565b7f9f2df0fed2c77648de5860a4cc508cd0818c85b8b8a1ab4ceeef8d981c8956a681565b6112c0826108f9565b6112c9816118e7565b6112d383836119dc565b505050565b6000603460008473ffffffffffffffffffffffffffffffffffffffff1673ffffffffffffffffffffffffffffffffffffffff16815260200190815260200160002060008373ffffffffffffffffffffffffffffffffffffffff1673ffffffffffffffffffffffffffffffffffffffff16815260200190815260200160002054905092915050565b7f65d7a28e3265b37a6474929f336521b332c1681b933f6cb9f3376673440d862a81565b7f189ab7a9244df0848122154315af71fe140f3db0fe014031783b0946b8c9d2e381565b60007f01ffc9a7000000000000000000000000000000000000000000000000000000007bffffffffffffffffffffffffffffffffffffffffffffffffffffffff1916827bffffffffffffffffffffffffffffffffffffffffffffffffffffffff1916149050919050565b600033905090565b600073ffffffffffffffffffffffffffffffffffffffff168373ffffffffffffffffffffffffffffffffffffffff1603611488576040517f08c379a000000000000000000000000000000000000000000000000000000000815260040161147f9061328d565b60405180910390fd5b600073ffffffffffffffffffffffffffffffffffffffff168273ffffffffffffffffffffffffffffffffffffffff16036114f7576040517f08c379a00000000000000000000000000000000000000000000000000000000081526004016114ee9061331f565b60405180910390fd5b80603460008573ffffffffffffffffffffffffffffffffffffffff1673ffffffffffffffffffffffffffffffffffffffff16815260200190815260200160002060008473ffffffffffffffffffffffffffffffffffffffff1673ffffffffffffffffffffffffffffffffffffffff168152602001908152602001600020819055508173ffffffffffffffffffffffffffffffffffffffff168373ffffffffffffffffffffffffffffffffffffffff167f8c5be1e5ebec7d5bd14f71427d1e84f3dd0314c0f7b2291e5b200ac8c7c3b925836040516115d591906129ef565b60405180910390a3505050565b60006115ee84846112d8565b90507fffffffffffffffffffffffffffffffffffffffffffffffffffffffffffffffff8114611668578181101561165a576040517f08c379a00000000000000000000000000000000000000000000000000000000081526004016116519061338b565b60405180910390fd5b6116678484848403611419565b5b50505050565b600073ffffffffffffffffffffffffffffffffffffffff168373ffffffffffffffffffffffffffffffffffffffff16036116dd576040517f08c379a00000000000000000000000000000000000000000000000000000000081526004016116d49061341d565b60405180910390fd5b600073ffffffffffffffffffffffffffffffffffffffff168273ffffffffffffffffffffffffffffffffffffffff160361174c576040517f08c379a0000000000000000000000000000000000000000000000000000000008152600401611743906134af565b60405180910390fd5b611757838383612049565b6000603360008573ffffffffffffffffffffffffffffffffffffffff1673ffffffffffffffffffffffffffffffffffffffff168152602001908152602001600020549050818110156117de576040517f08c379a00000000000000000000000000000000000000000000000000000000081526004016117d590613541565b60405180910390fd5b818103603360008673ffffffffffffffffffffffffffffffffffffffff1673ffffffffffffffffffffffffffffffffffffffff1681526020019081526020016000208190555081603360008573ffffffffffffffffffffffffffffffffffffffff1673ffffffffffffffffffffffffffffffffffffffff168152602001908152602001600020600082825401925050819055508273ffffffffffffffffffffffffffffffffffffffff168473ffffffffffffffffffffffffffffffffffffffff167fddf252ad1be2c89b69c2b068fc378daa952ba7f163c4a11628f55a4df523b3ef846040516118ce91906129ef565b60405180910390a36118e1848484612061565b50505050565b6118f8816118f3611411565b612066565b50565b61190582826110e8565b6119d857600160c9600084815260200190815260200160002060000160008373ffffffffffffffffffffffffffffffffffffffff1673ffffffffffffffffffffffffffffffffffffffff16815260200190815260200160002060006101000a81548160ff02191690831515021790555061197d611411565b73ffffffffffffffffffffffffffffffffffffffff168173ffffffffffffffffffffffffffffffffffffffff16837f2f8788117e7eff1d82e926ec794901d17c78024a50270940304540a733656f0d60405160405180910390a45b5050565b6119e682826110e8565b15611aba57600060c9600084815260200190815260200160002060000160008373ffffffffffffffffffffffffffffffffffffffff1673ffffffffffffffffffffffffffffffffffffffff16815260200190815260200160002060006101000a81548160ff021916908315150217905550611a5f611411565b73ffffffffffffffffffffffffffffffffffffffff168173ffffffffffffffffffffffffffffffffffffffff16837ff6391f5c32d9c69d2a47ea670b442974b53935d1edc7fd64eb21e047a839171b60405160405180910390a45b5050565b6000611aec7f360894a13ba1a3210667c828492db98dca3e2076cc3735a920a3ca505d382bbc60001b6120eb565b60000160009054906101000a900473ffffffffffffffffffffffffffffffffffffffff16905090565b7f189ab7a9244df0848122154315af71fe140f3db0fe014031783b0946b8c9d2e3611b3f816118e7565b5050565b611b6f7f4910fdfa16fed3260ed0e7147f7cc6da11a60208b5b9406d12a635614ffd914360001b6120f5565b60000160009054906101000a900460ff1615611b9357611b8e836120ff565b611cac565b8273ffffffffffffffffffffffffffffffffffffffff166352d1902d6040518163ffffffff1660e01b8152600401602060405180830381865afa925050508015611bfb57506040513d601f19601f82011682018060405250810190611bf89190613576565b60015b611c3a576040517f08c379a0000000000000000000000000000000000000000000000000000000008152600401611c3190613615565b60405180910390fd5b7f360894a13ba1a3210667c828492db98dca3e2076cc3735a920a3ca505d382bbc60001b8114611c9f576040517f08c379a0000000000000000000000000000000000000000000000000000000008152600401611c96906136a7565b60405180910390fd5b50611cab8383836121b8565b5b505050565b611cb96121e4565b6000606560006101000a81548160ff0219169083151502179055507f5db9ee0a495bf2e6ff9c91a7834c1ba4fdd244a5e8aa4e537bd38aeae4b073aa611cfd611411565b604051611d0a91906136d6565b60405180910390a1565b600073ffffffffffffffffffffffffffffffffffffffff168273ffffffffffffffffffffffffffffffffffffffff1603611d83576040517f08c379a0000000000000000000000000000000000000000000000000000000008152600401611d7a9061373d565b60405180910390fd5b611d8f60008383612049565b8060356000828254611da19190612fd1565b9250508190555080603360008473ffffffffffffffffffffffffffffffffffffffff1673ffffffffffffffffffffffffffffffffffffffff168152602001908152602001600020600082825401925050819055508173ffffffffffffffffffffffffffffffffffffffff16600073ffffffffffffffffffffffffffffffffffffffff167fddf252ad1be2c89b69c2b068fc378daa952ba7f163c4a11628f55a4df523b3ef83604051611e5391906129ef565b60405180910390a3611e6760008383612061565b5050565b6000808273ffffffffffffffffffffffffffffffffffffffff163b119050919050565b600060019054906101000a900460ff16611edd576040517f08c379a0000000000000000000000000000000000000000000000000000000008152600401611ed4906137cf565b60405180910390fd5b611ee7828261222d565b5050565b600060019054906101000a900460ff16611f3a576040517f08c379a0000000000000000000000000000000000000000000000000000000008152600401611f31906137cf565b60405180910390fd5b611f426122a0565b565b600060019054906101000a900460ff16611f93576040517f08c379a0000000000000000000000000000000000000000000000000000000008152600401611f8a906137cf565b60405180910390fd5b565b600060019054906101000a900460ff16611fe4576040517f08c379a0000000000000000000000000000000000000000000000000000000008152600401611fdb906137cf565b60405180910390fd5b565b611fee61230c565b6001606560006101000a81548160ff0219169083151502179055507f62e78cea01bee320cd4e420270b5ea74000d11b0c9f74754ebdbfc544b05a258612032611411565b60405161203f91906136d6565b60405180910390a1565b61205161230c565b61205c838383612356565b505050565b505050565b61207082826110e8565b6120e75761207d8161235b565b61208b8360001c6020612388565b60405160200161209c9291906138c3565b6040516020818303038152906040526040517f08c379a00000000000000000000000000000000000000000000000000000000081526004016120de91906128ea565b60405180910390fd5b5050565b6000819050919050565b6000819050919050565b61210881611e6b565b612147576040517f08c379a000000000000000000000000000000000000000000000000000000000815260040161213e9061396f565b60405180910390fd5b806121747f360894a13ba1a3210667c828492db98dca3e2076cc3735a920a3ca505d382bbc60001b6120eb565b60000160006101000a81548173ffffffffffffffffffffffffffffffffffffffff021916908373ffffffffffffffffffffffffffffffffffffffff16021790555050565b6121c1836125c4565b6000825111806121ce5750805b156121df576121dd8383612613565b505b505050565b6121ec610df1565b61222b576040517f08c379a0000000000000000000000000000000000000000000000000000000008152600401612222906139db565b60405180910390fd5b565b600060019054906101000a900460ff1661227c576040517f08c379a0000000000000000000000000000000000000000000000000000000008152600401612273906137cf565b60405180910390fd5b816036908161228b9190613b9d565b50806037908161229b9190613b9d565b505050565b600060019054906101000a900460ff166122ef576040517f08c379a00000000000000000000000000000000000000000000000000000000081526004016122e6906137cf565b60405180910390fd5b6000606560006101000a81548160ff021916908315150217905550565b612314610df1565b15612354576040517f08c379a000000000000000000000000000000000000000000000000000000000815260040161234b90613cbb565b60405180910390fd5b565b505050565b60606123818273ffffffffffffffffffffffffffffffffffffffff16601460ff16612388565b9050919050565b60606000600283600261239b9190613cdb565b6123a59190612fd1565b67ffffffffffffffff8111156123be576123bd612b98565b5b6040519080825280601f01601f1916602001820160405280156123f05781602001600182028036833780820191505090505b5090507f30000000000000000000000000000000000000000000000000000000000000008160008151811061242857612427613d1d565b5b60200101907effffffffffffffffffffffffffffffffffffffffffffffffffffffffffffff1916908160001a9053507f78000000000000000000000000000000000000000000000000000000000000008160018151811061248c5761248b613d1d565b5b60200101907effffffffffffffffffffffffffffffffffffffffffffffffffffffffffffff1916908160001a905350600060018460026124cc9190613cdb565b6124d69190612fd1565b90505b6001811115612576577f3031323334353637383961626364656600000000000000000000000000000000600f86166010811061251857612517613d1d565b5b1a60f81b82828151811061252f5761252e613d1d565b5b60200101907effffffffffffffffffffffffffffffffffffffffffffffffffffffffffffff1916908160001a905350600485901c94508061256f90613d4c565b90506124d9565b50600084146125ba576040517f08c379a00000000000000000000000000000000000000000000000000000000081526004016125b190613dc1565b60405180910390fd5b8091505092915050565b6125cd816120ff565b8073ffffffffffffffffffffffffffffffffffffffff167fbc7cd75a20ee27fd9adebab32041f755214dbc6bffa90cc0225b39da2e5c2d3b60405160405180910390a250565b60606126388383604051806060016040528060278152602001613eac60279139612640565b905092915050565b60606000808573ffffffffffffffffffffffffffffffffffffffff168560405161266a9190613e28565b600060405180830381855af49150503d80600081146126a5576040519150601f19603f3d011682016040523d82523d6000602084013e6126aa565b606091505b50915091506126bb868383876126c6565b925050509392505050565b60608315612728576000835103612720576126e085611e6b565b61271f576040517f08c379a000000000000000000000000000000000000000000000000000000000815260040161271690613e8b565b60405180910390fd5b5b829050612733565b612732838361273b565b5b949350505050565b60008251111561274e5781518083602001fd5b806040517f08c379a000000000000000000000000000000000000000000000000000000000815260040161278291906128ea565b60405180910390fd5b6000604051905090565b600080fd5b600080fd5b60007fffffffff0000000000000000000000000000000000000000000000000000000082169050919050565b6127d48161279f565b81146127df57600080fd5b50565b6000813590506127f1816127cb565b92915050565b60006020828403121561280d5761280c612795565b5b600061281b848285016127e2565b91505092915050565b60008115159050919050565b61283981612824565b82525050565b60006020820190506128546000830184612830565b92915050565b600081519050919050565b600082825260208201905092915050565b60005b83811015612894578082015181840152602081019050612879565b60008484015250505050565b6000601f19601f8301169050919050565b60006128bc8261285a565b6128c68185612865565b93506128d6818560208601612876565b6128df816128a0565b840191505092915050565b6000602082019050818103600083015261290481846128b1565b905092915050565b600073ffffffffffffffffffffffffffffffffffffffff82169050919050565b60006129378261290c565b9050919050565b6129478161292c565b811461295257600080fd5b50565b6000813590506129648161293e565b92915050565b6000819050919050565b61297d8161296a565b811461298857600080fd5b50565b60008135905061299a81612974565b92915050565b600080604083850312156129b7576129b6612795565b5b60006129c585828601612955565b92505060206129d68582860161298b565b9150509250929050565b6129e98161296a565b82525050565b6000602082019050612a0460008301846129e0565b92915050565b600080600060608486031215612a2357612a22612795565b5b6000612a3186828701612955565b9350506020612a4286828701612955565b9250506040612a538682870161298b565b9150509250925092565b6000819050919050565b612a7081612a5d565b8114612a7b57600080fd5b50565b600081359050612a8d81612a67565b92915050565b600060208284031215612aa957612aa8612795565b5b6000612ab784828501612a7e565b91505092915050565b612ac981612a5d565b82525050565b6000602082019050612ae46000830184612ac0565b92915050565b60008060408385031215612b0157612b00612795565b5b6000612b0f85828601612a7e565b9250506020612b2085828601612955565b9150509250929050565b600060ff82169050919050565b612b4081612b2a565b82525050565b6000602082019050612b5b6000830184612b37565b92915050565b600060208284031215612b7757612b76612795565b5b6000612b8584828501612955565b91505092915050565b600080fd5b600080fd5b7f4e487b7100000000000000000000000000000000000000000000000000000000600052604160045260246000fd5b612bd0826128a0565b810181811067ffffffffffffffff82111715612bef57612bee612b98565b5b80604052505050565b6000612c0261278b565b9050612c0e8282612bc7565b919050565b600067ffffffffffffffff821115612c2e57612c2d612b98565b5b612c37826128a0565b9050602081019050919050565b82818337600083830152505050565b6000612c66612c6184612c13565b612bf8565b905082815260208101848484011115612c8257612c81612b93565b5b612c8d848285612c44565b509392505050565b600082601f830112612caa57612ca9612b8e565b5b8135612cba848260208601612c53565b91505092915050565b60008060408385031215612cda57612cd9612795565b5b6000612ce885828601612955565b925050602083013567ffffffffffffffff811115612d0957612d0861279a565b5b612d1585828601612c95565b9150509250929050565b600060208284031215612d3557612d34612795565b5b6000612d438482850161298b565b91505092915050565b60008060408385031215612d6357612d62612795565b5b6000612d7185828601612955565b9250506020612d8285828601612955565b9150509250929050565b7f4e487b7100000000000000000000000000000000000000000000000000000000600052602260045260246000fd5b60006002820490506001821680612dd357607f821691505b602082108103612de657612de5612d8c565b5b50919050565b7f416363657373436f6e74726f6c3a2063616e206f6e6c792072656e6f756e636560008201527f20726f6c657320666f722073656c660000000000000000000000000000000000602082015250565b6000612e48602f83612865565b9150612e5382612dec565b604082019050919050565b60006020820190508181036000830152612e7781612e3b565b9050919050565b7f46756e6374696f6e206d7573742062652063616c6c6564207468726f7567682060008201527f64656c656761746563616c6c0000000000000000000000000000000000000000602082015250565b6000612eda602c83612865565b9150612ee582612e7e565b604082019050919050565b60006020820190508181036000830152612f0981612ecd565b9050919050565b7f46756e6374696f6e206d7573742062652063616c6c6564207468726f7567682060008201527f6163746976652070726f78790000000000000000000000000000000000000000602082015250565b6000612f6c602c83612865565b9150612f7782612f10565b604082019050919050565b60006020820190508181036000830152612f9b81612f5f565b9050919050565b7f4e487b7100000000000000000000000000000000000000000000000000000000600052601160045260246000fd5b6000612fdc8261296a565b9150612fe78361296a565b9250828201905080821115612fff57612ffe612fa2565b5b92915050565b7f555550535570677261646561626c653a206d757374206e6f742062652063616c60008201527f6c6564207468726f7567682064656c656761746563616c6c0000000000000000602082015250565b6000613061603883612865565b915061306c82613005565b604082019050919050565b6000602082019050818103600083015261309081613054565b9050919050565b7f496e697469616c697a61626c653a20636f6e747261637420697320616c72656160008201527f647920696e697469616c697a6564000000000000000000000000000000000000602082015250565b60006130f3602e83612865565b91506130fe82613097565b604082019050919050565b60006020820190508181036000830152613122816130e6565b9050919050565b6000819050919050565b6000819050919050565b600061315861315361314e84613129565b613133565b612b2a565b9050919050565b6131688161313d565b82525050565b6000602082019050613183600083018461315f565b92915050565b7f45524332303a2064656372656173656420616c6c6f77616e63652062656c6f7760008201527f207a65726f000000000000000000000000000000000000000000000000000000602082015250565b60006131e5602583612865565b91506131f082613189565b604082019050919050565b60006020820190508181036000830152613214816131d8565b9050919050565b7f45524332303a20617070726f76652066726f6d20746865207a65726f2061646460008201527f7265737300000000000000000000000000000000000000000000000000000000602082015250565b6000613277602483612865565b91506132828261321b565b604082019050919050565b600060208201905081810360008301526132a68161326a565b9050919050565b7f45524332303a20617070726f766520746f20746865207a65726f20616464726560008201527f7373000000000000000000000000000000000000000000000000000000000000602082015250565b6000613309602283612865565b9150613314826132ad565b604082019050919050565b60006020820190508181036000830152613338816132fc565b9050919050565b7f45524332303a20696e73756666696369656e7420616c6c6f77616e6365000000600082015250565b6000613375601d83612865565b91506133808261333f565b602082019050919050565b600060208201905081810360008301526133a481613368565b9050919050565b7f45524332303a207472616e736665722066726f6d20746865207a65726f20616460008201527f6472657373000000000000000000000000000000000000000000000000000000602082015250565b6000613407602583612865565b9150613412826133ab565b604082019050919050565b60006020820190508181036000830152613436816133fa565b9050919050565b7f45524332303a207472616e7366657220746f20746865207a65726f206164647260008201527f6573730000000000000000000000000000000000000000000000000000000000602082015250565b6000613499602383612865565b91506134a48261343d565b604082019050919050565b600060208201905081810360008301526134c88161348c565b9050919050565b7f45524332303a207472616e7366657220616d6f756e742065786365656473206260008201527f616c616e63650000000000000000000000000000000000000000000000000000602082015250565b600061352b602683612865565b9150613536826134cf565b604082019050919050565b6000602082019050818103600083015261355a8161351e565b9050919050565b60008151905061357081612a67565b92915050565b60006020828403121561358c5761358b612795565b5b600061359a84828501613561565b91505092915050565b7f45524331393637557067726164653a206e657720696d706c656d656e7461746960008201527f6f6e206973206e6f742055555053000000000000000000000000000000000000602082015250565b60006135ff602e83612865565b915061360a826135a3565b604082019050919050565b6000602082019050818103600083015261362e816135f2565b9050919050565b7f45524331393637557067726164653a20756e737570706f727465642070726f7860008201527f6961626c65555549440000000000000000000000000000000000000000000000602082015250565b6000613691602983612865565b915061369c82613635565b604082019050919050565b600060208201905081810360008301526136c081613684565b9050919050565b6136d08161292c565b82525050565b60006020820190506136eb60008301846136c7565b92915050565b7f45524332303a206d696e7420746f20746865207a65726f206164647265737300600082015250565b6000613727601f83612865565b9150613732826136f1565b602082019050919050565b600060208201905081810360008301526137568161371a565b9050919050565b7f496e697469616c697a61626c653a20636f6e7472616374206973206e6f74206960008201527f6e697469616c697a696e67000000000000000000000000000000000000000000602082015250565b60006137b9602b83612865565b91506137c48261375d565b604082019050919050565b600060208201905081810360008301526137e8816137ac565b9050919050565b600081905092915050565b7f416363657373436f6e74726f6c3a206163636f756e7420000000000000000000600082015250565b60006138306017836137ef565b915061383b826137fa565b601782019050919050565b60006138518261285a565b61385b81856137ef565b935061386b818560208601612876565b80840191505092915050565b7f206973206d697373696e6720726f6c6520000000000000000000000000000000600082015250565b60006138ad6011836137ef565b91506138b882613877565b601182019050919050565b60006138ce82613823565b91506138da8285613846565b91506138e5826138a0565b91506138f18284613846565b91508190509392505050565b7f455243313936373a206e657720696d706c656d656e746174696f6e206973206e60008201527f6f74206120636f6e747261637400000000000000000000000000000000000000602082015250565b6000613959602d83612865565b9150613964826138fd565b604082019050919050565b600060208201905081810360008301526139888161394c565b9050919050565b7f5061757361626c653a206e6f7420706175736564000000000000000000000000600082015250565b60006139c5601483612865565b91506139d08261398f565b602082019050919050565b600060208201905081810360008301526139f4816139b8565b9050919050565b60008190508160005260206000209050919050565b60006020601f8301049050919050565b600082821b905092915050565b600060088302613a5d7fffffffffffffffffffffffffffffffffffffffffffffffffffffffffffffffff82613a20565b613a678683613a20565b95508019841693508086168417925050509392505050565b6000613a9a613a95613a908461296a565b613133565b61296a565b9050919050565b6000819050919050565b613ab483613a7f565b613ac8613ac082613aa1565b848454613a2d565b825550505050565b600090565b613add613ad0565b613ae8818484613aab565b505050565b5b81811015613b0c57613b01600082613ad5565b600181019050613aee565b5050565b601f821115613b5157613b22816139fb565b613b2b84613a10565b81016020851015613b3a578190505b613b4e613b4685613a10565b830182613aed565b50505b505050565b600082821c905092915050565b6000613b7460001984600802613b56565b1980831691505092915050565b6000613b8d8383613b63565b9150826002028217905092915050565b613ba68261285a565b67ffffffffffffffff811115613bbf57613bbe612b98565b5b613bc98254612dbb565b613bd4828285613b10565b600060209050601f831160018114613c075760008415613bf5578287015190505b613bff8582613b81565b865550613c67565b601f198416613c15866139fb565b60005b82811015613c3d57848901518255600182019150602085019450602081019050613c18565b86831015613c5a5784890151613c56601f891682613b63565b8355505b6001600288020188555050505b505050505050565b7f5061757361626c653a2070617573656400000000000000000000000000000000600082015250565b6000613ca5601083612865565b9150613cb082613c6f565b602082019050919050565b60006020820190508181036000830152613cd481613c98565b9050919050565b6000613ce68261296a565b9150613cf18361296a565b9250828202613cff8161296a565b91508282048414831517613d1657613d15612fa2565b5b5092915050565b7f4e487b7100000000000000000000000000000000000000000000000000000000600052603260045260246000fd5b6000613d578261296a565b915060008203613d6a57613d69612fa2565b5b600182039050919050565b7f537472696e67733a20686578206c656e67746820696e73756666696369656e74600082015250565b6000613dab602083612865565b9150613db682613d75565b602082019050919050565b60006020820190508181036000830152613dda81613d9e565b9050919050565b600081519050919050565b600081905092915050565b6000613e0282613de1565b613e0c8185613dec565b9350613e1c818560208601612876565b80840191505092915050565b6000613e348284613df7565b915081905092915050565b7f416464726573733a2063616c6c20746f206e6f6e2d636f6e7472616374000000600082015250565b6000613e75601d83612865565b9150613e8082613e3f565b602082019050919050565b60006020820190508181036000830152613ea481613e68565b905091905056fe416464726573733a206c6f772d6c6576656c2064656c65676174652063616c6c206661696c6564a26469706673582212208ef9eb2cb34b9546680648bb9f96a25a43241f70ed43b8cde2768c252d96c79b64736f6c63430008130033",
  "linkReferences": {},
  "deployedLinkReferences": {}
}