{
  "_format": "hh-sol-artifact-1",
  "contractName": "Abuelo",
  "sourceName": "contracts/class06/HerenciaNoComun.sol",
  "abi": [
    {
      "inputs": [],
      "name": "externalPure",
      "outputs": [
        {
          "internalType": "uint256",
          "name": "",
          "type": "uint256"
        }
      ],
      "stateMutability": "view",
      "type": "function"
    },
    {
      "inputs": [],
      "name": "publicView",
      "outputs": [
        {
          "internalType": "uint256",
          "name": "",
          "type": "uint256"
        }
      ],
      "stateMutability": "view",
      "type": "function"
    },
    {
      "inputs": [],
      "name": "reemplazarPorUnaVarible",
      "outputs": [
        {
          "internalType": "uint256",
          "name": "",
          "type": "uint256"
        }
      ],
      "stateMutability": "view",
      "type": "function"
    }
  ],
  "bytecode": "0x60806040526107e760005534801561001657600080fd5b50610110806100266000396000f3fe6080604052348015600f57600080fd5b5060043610603c5760003560e01c806332de51f2146041578063a31c811e14605b578063f1687e18146075575b600080fd5b6047608f565b6040516052919060c1565b60405180910390f35b60616098565b604051606c919060c1565b60405180910390f35b607b60a1565b6040516086919060c1565b60405180910390f35b60008054905090565b60008054905090565b60008054905090565b6000819050919050565b60bb8160aa565b82525050565b600060208201905060d4600083018460b4565b9291505056fea26469706673582212203c0a873bf6acb17681fdf4f6ec976425b7f3e3387f839539edd90524fcec789264736f6c63430008130033",
  "linkReferences": {},
  "deployedLinkReferences": {}
}