{
  "_format": "hh-sol-artifact-1",
  "contractName": "Padre",
  "sourceName": "contracts/class06/HerenciaNoComun.sol",
  "abi": [
    {
      "inputs": [],
      "name": "externalPure",
      "outputs": [
        {
          "internalType": "uint256",
          "name": "",
          "type": "uint256"
        }
      ],
      "stateMutability": "pure",
      "type": "function"
    },
    {
      "inputs": [],
      "name": "publicView",
      "outputs": [
        {
          "internalType": "uint256",
          "name": "",
          "type": "uint256"
        }
      ],
      "stateMutability": "view",
      "type": "function"
    },
    {
      "inputs": [],
      "name": "reemplazarPorUnaVarible",
      "outputs": [
        {
          "internalType": "uint256",
          "name": "",
          "type": "uint256"
        }
      ],
      "stateMutability": "view",
      "type": "function"
    }
  ],
  "bytecode": "0x60806040526107e7600055620f424060015534801561001d57600080fd5b506101058061002d6000396000f3fe6080604052348015600f57600080fd5b5060043610603c5760003560e01c806332de51f2146041578063a31c811e14605b578063f1687e18146075575b600080fd5b6047608f565b6040516052919060b6565b60405180910390f35b60616094565b604051606c919060b6565b60405180910390f35b607b609a565b6040516086919060b6565b60405180910390f35b600090565b60015481565b600090565b6000819050919050565b60b081609f565b82525050565b600060208201905060c9600083018460a9565b9291505056fea2646970667358221220b42c564a9846061573f70b08303734ea8ec28530e9314116ac39d9c8c5c0e2d464736f6c63430008130033",
  "linkReferences": {},
  "deployedLinkReferences": {}
}