{
  "_format": "hh-sol-artifact-1",
  "contractName": "Empresa10PorCiento",
  "sourceName": "contracts/class06/ContratoAbstracto.sol",
  "abi": [
    {
      "inputs": [],
      "name": "calculoCostoTotal",
      "outputs": [
        {
          "internalType": "uint256",
          "name": "utilidadNeta",
          "type": "uint256"
        }
      ],
      "stateMutability": "nonpayable",
      "type": "function"
    },
    {
      "inputs": [],
      "name": "calculoGastosFijos",
      "outputs": [
        {
          "internalType": "uint256",
          "name": "",
          "type": "uint256"
        }
      ],
      "stateMutability": "nonpayable",
      "type": "function"
    },
    {
      "inputs": [],
      "name": "calculoGastosVariables",
      "outputs": [
        {
          "internalType": "uint256",
          "name": "",
          "type": "uint256"
        }
      ],
      "stateMutability": "nonpayable",
      "type": "function"
    },
    {
      "inputs": [
        {
          "internalType": "uint256",
          "name": "_ingresos",
          "type": "uint256"
        }
      ],
      "name": "calculoImpuestos",
      "outputs": [
        {
          "internalType": "uint256",
          "name": "",
          "type": "uint256"
        }
      ],
      "stateMutability": "view",
      "type": "function"
    },
    {
      "inputs": [],
      "name": "calculoIngresosBrutos",
      "outputs": [
        {
          "internalType": "uint256",
          "name": "",
          "type": "uint256"
        }
      ],
      "stateMutability": "nonpayable",
      "type": "function"
    }
  ],
  "bytecode": "0x6080604052600a60045534801561001557600080fd5b5061036f806100256000396000f3fe608060405234801561001057600080fd5b50600436106100575760003560e01c806314c7b79c1461005c578063804a0d071461007a578063884ecbc214610098578063a45ab945146100b6578063aa07b37e146100d4575b600080fd5b610064610104565b60405161007191906101bb565b60405180910390f35b610082610109565b60405161008f91906101bb565b60405180910390f35b6100a0610175565b6040516100ad91906101bb565b60405180910390f35b6100be61017a565b6040516100cb91906101bb565b60405180910390f35b6100ee60048036038101906100e99190610207565b61017f565b6040516100fb91906101bb565b60405180910390f35b600090565b600061011361017a565b600081905550610121610104565b60018190555061012f610175565b60028190555061014060005461017f565b6003819055506003546002546001546101599190610263565b6000546101669190610263565b6101709190610263565b905090565b600090565b600090565b60006064600454836101919190610297565b61019b9190610308565b9050919050565b6000819050919050565b6101b5816101a2565b82525050565b60006020820190506101d060008301846101ac565b92915050565b600080fd5b6101e4816101a2565b81146101ef57600080fd5b50565b600081359050610201816101db565b92915050565b60006020828403121561021d5761021c6101d6565b5b600061022b848285016101f2565b91505092915050565b7f4e487b7100000000000000000000000000000000000000000000000000000000600052601160045260246000fd5b600061026e826101a2565b9150610279836101a2565b925082820390508181111561029157610290610234565b5b92915050565b60006102a2826101a2565b91506102ad836101a2565b92508282026102bb816101a2565b915082820484148315176102d2576102d1610234565b5b5092915050565b7f4e487b7100000000000000000000000000000000000000000000000000000000600052601260045260246000fd5b6000610313826101a2565b915061031e836101a2565b92508261032e5761032d6102d9565b5b82820490509291505056fea26469706673582212202fad915e094cc0fd3437b14900fcb42812dc4d97e6357f22bdce4a28912d347164736f6c63430008130033",
  "linkReferences": {},
  "deployedLinkReferences": {}
}