{
  "_format": "hh-sol-artifact-1",
  "contractName": "Desafio_2",
  "sourceName": "contracts/desafios/Desafio_2.sol",
  "abi": [
    {
      "inputs": [],
      "name": "admin",
      "outputs": [
        {
          "internalType": "address",
          "name": "",
          "type": "address"
        }
      ],
      "stateMutability": "view",
      "type": "function"
    },
    {
      "inputs": [],
      "name": "tiempoLimite",
      "outputs": [
        {
          "internalType": "uint256",
          "name": "",
          "type": "uint256"
        }
      ],
      "stateMutability": "view",
      "type": "function"
    }
  ],
  "bytecode": "0x60806040527308fb288fcc281969a0bbe6773857f99360f2ca066000806101000a81548173ffffffffffffffffffffffffffffffffffffffff021916908373ffffffffffffffffffffffffffffffffffffffff16021790555062278d004261006791906100b5565b60015534801561007657600080fd5b506100e9565b6000819050919050565b7f4e487b7100000000000000000000000000000000000000000000000000000000600052601160045260246000fd5b60006100c08261007c565b91506100cb8361007c565b92508282019050808211156100e3576100e2610086565b5b92915050565b610167806100f86000396000f3fe608060405234801561001057600080fd5b50600436106100365760003560e01c8063b62de4a21461003b578063f851a44014610059575b600080fd5b610043610077565b60405161005091906100ba565b60405180910390f35b61006161007d565b60405161006e9190610116565b60405180910390f35b60015481565b60008054906101000a900473ffffffffffffffffffffffffffffffffffffffff1681565b6000819050919050565b6100b4816100a1565b82525050565b60006020820190506100cf60008301846100ab565b92915050565b600073ffffffffffffffffffffffffffffffffffffffff82169050919050565b6000610100826100d5565b9050919050565b610110816100f5565b82525050565b600060208201905061012b6000830184610107565b9291505056fea26469706673582212205b3c368198979c1bcf2e632a5b479b121d0c91ed8011b8b76a39327c80269f3564736f6c63430008130033",
  "linkReferences": {},
  "deployedLinkReferences": {}
}