{
  "_format": "hh-sol-artifact-1",
  "contractName": "MiPrimerContrato",
  "sourceName": "contracts/class02/MiPrimerContrato.sol",
  "abi": [
    {
      "inputs": [
        {
          "internalType": "uint256",
          "name": "nuevaEdad",
          "type": "uint256"
        }
      ],
      "name": "actualizarEdad",
      "outputs": [],
      "stateMutability": "nonpayable",
      "type": "function"
    },
    {
      "inputs": [],
      "name": "cambiarEdad",
      "outputs": [],
      "stateMutability": "nonpayable",
      "type": "function"
    },
    {
      "inputs": [],
      "name": "leerEdad",
      "outputs": [
        {
          "internalType": "uint256",
          "name": "",
          "type": "uint256"
        }
      ],
      "stateMutability": "view",
      "type": "function"
    },
    {
      "inputs": [],
      "name": "leerEdadSininicializar",
      "outputs": [
        {
          "internalType": "uint256",
          "name": "",
          "type": "uint256"
        }
      ],
      "stateMutability": "view",
      "type": "function"
    },
    {
      "inputs": [],
      "name": "mes",
      "outputs": [
        {
          "internalType": "uint256",
          "name": "",
          "type": "uint256"
        }
      ],
      "stateMutability": "view",
      "type": "function"
    }
  ],
  "bytecode": "0x608060405260636000556107e7600160006101000a8154816fffffffffffffffffffffffffffffffff02191690836fffffffffffffffffffffffffffffffff1602179055507ffffffffffffffffffffffffffffffffffffffffffffffffffffffffffffffed460025573ca420cc41ccf5499c05ab3c0b771ce780198555e600360006101000a81548173ffffffffffffffffffffffffffffffffffffffff021916908373ffffffffffffffffffffffffffffffffffffffff16021790555060096005553480156100ce57600080fd5b506101d7806100de6000396000f3fe608060405234801561001057600080fd5b50600436106100575760003560e01c806302996ccf1461005c57806306f2cd02146100665780633f66406214610084578063693144d1146100a25780638066bdb8146100be575b600080fd5b6100646100dc565b005b61006e6100ec565b60405161007b9190610128565b60405180910390f35b61008c6100f6565b6040516100999190610128565b60405180910390f35b6100bc60048036038101906100b79190610174565b6100fc565b005b6100c6610106565b6040516100d39190610128565b60405180910390f35b6100e46100ec565b600481905550565b6000600454905090565b60055481565b8060008190555050565b60008054905090565b6000819050919050565b6101228161010f565b82525050565b600060208201905061013d6000830184610119565b92915050565b600080fd5b6101518161010f565b811461015c57600080fd5b50565b60008135905061016e81610148565b92915050565b60006020828403121561018a57610189610143565b5b60006101988482850161015f565b9150509291505056fea2646970667358221220043d8ccf400aa93ecbb7d0262239cfbfac1d20447bbdb86ac0a575c56727e2ab64736f6c63430008130033",
  "linkReferences": {},
  "deployedLinkReferences": {}
}