{
  "_format": "hh-sol-artifact-1",
  "contractName": "NFTSupportAndTransfer",
  "sourceName": "contracts/class11/SendNftSmartContract.sol",
  "abi": [
    {
      "inputs": [
        {
          "internalType": "address",
          "name": "_sc",
          "type": "address"
        },
        {
          "internalType": "address",
          "name": "_to",
          "type": "address"
        },
        {
          "internalType": "uint256",
          "name": "_tokenId",
          "type": "uint256"
        }
      ],
      "name": "executeTransfer",
      "outputs": [],
      "stateMutability": "nonpayable",
      "type": "function"
    },
    {
      "inputs": [
        {
          "internalType": "address",
          "name": "",
          "type": "address"
        },
        {
          "internalType": "address",
          "name": "",
          "type": "address"
        },
        {
          "internalType": "uint256",
          "name": "",
          "type": "uint256"
        },
        {
          "internalType": "bytes",
          "name": "",
          "type": "bytes"
        }
      ],
      "name": "onERC721Received",
      "outputs": [
        {
          "internalType": "bytes4",
          "name": "",
          "type": "bytes4"
        }
      ],
      "stateMutability": "pure",
      "type": "function"
    }
  ],
  "bytecode": "0x608060405234801561001057600080fd5b506103cf806100206000396000f3fe608060405234801561001057600080fd5b50600436106100365760003560e01c8063150b7a021461003b578063e58ef8a81461006b575b600080fd5b61005560048036038101906100509190610213565b610087565b60405161006291906102d6565b60405180910390f35b610085600480360381019061008091906102f1565b61009c565b005b600063150b7a0260e01b905095945050505050565b8273ffffffffffffffffffffffffffffffffffffffff166342842e0e3084846040518463ffffffff1660e01b81526004016100d993929190610362565b600060405180830381600087803b1580156100f357600080fd5b505af1158015610107573d6000803e3d6000fd5b50505050505050565b600080fd5b600080fd5b600073ffffffffffffffffffffffffffffffffffffffff82169050919050565b60006101458261011a565b9050919050565b6101558161013a565b811461016057600080fd5b50565b6000813590506101728161014c565b92915050565b6000819050919050565b61018b81610178565b811461019657600080fd5b50565b6000813590506101a881610182565b92915050565b600080fd5b600080fd5b600080fd5b60008083601f8401126101d3576101d26101ae565b5b8235905067ffffffffffffffff8111156101f0576101ef6101b3565b5b60208301915083600182028301111561020c5761020b6101b8565b5b9250929050565b60008060008060006080868803121561022f5761022e610110565b5b600061023d88828901610163565b955050602061024e88828901610163565b945050604061025f88828901610199565b935050606086013567ffffffffffffffff8111156102805761027f610115565b5b61028c888289016101bd565b92509250509295509295909350565b60007fffffffff0000000000000000000000000000000000000000000000000000000082169050919050565b6102d08161029b565b82525050565b60006020820190506102eb60008301846102c7565b92915050565b60008060006060848603121561030a57610309610110565b5b600061031886828701610163565b935050602061032986828701610163565b925050604061033a86828701610199565b9150509250925092565b61034d8161013a565b82525050565b61035c81610178565b82525050565b60006060820190506103776000830186610344565b6103846020830185610344565b6103916040830184610353565b94935050505056fea2646970667358221220bb895fcbb371633a7ed16f248576e990ecaa35384e7dcc4e5443dd657e33778e64736f6c63430008130033",
  "linkReferences": {},
  "deployedLinkReferences": {}
}