{
  "_format": "hh-sol-artifact-1",
  "contractName": "StructYMapping",
  "sourceName": "contracts/class05/Struct.sol",
  "abi": [
    {
      "inputs": [
        {
          "internalType": "string",
          "name": "_nombre",
          "type": "string"
        },
        {
          "internalType": "string",
          "name": "_curso",
          "type": "string"
        },
        {
          "internalType": "uint256",
          "name": "_edad",
          "type": "uint256"
        },
        {
          "internalType": "string",
          "name": "_ubicacion",
          "type": "string"
        },
        {
          "internalType": "address",
          "name": "_account",
          "type": "address"
        }
      ],
      "name": "guardarInfoProfesor",
      "outputs": [],
      "stateMutability": "nonpayable",
      "type": "function"
    },
    {
      "inputs": [
        {
          "internalType": "address",
          "name": "",
          "type": "address"
        }
      ],
      "name": "profesores",
      "outputs": [
        {
          "internalType": "string",
          "name": "nombre",
          "type": "string"
        },
        {
          "internalType": "string",
          "name": "curso",
          "type": "string"
        },
        {
          "internalType": "uint256",
          "name": "edad",
          "type": "uint256"
        },
        {
          "internalType": "string",
          "name": "ubicacion",
          "type": "string"
        }
      ],
      "stateMutability": "view",
      "type": "function"
    }
  ],
  "bytecode": "0x608060405234801561001057600080fd5b50610a6d806100206000396000f3fe608060405234801561001057600080fd5b50600436106100365760003560e01c80637974265c1461003b578063eab1ad1714610057575b600080fd5b61005560048036038101906100509190610575565b61008a565b005b610071600480360381019061006c9190610644565b6101bf565b60405161008194939291906106ff565b60405180910390f35b60006040518060800160405280878152602001868152602001858152602001848152509050806000808473ffffffffffffffffffffffffffffffffffffffff1673ffffffffffffffffffffffffffffffffffffffff16815260200190815260200160002060008201518160000190816101039190610965565b5060208201518160010190816101199190610965565b506040820151816002015560608201518160030190816101399190610965565b509050506001819080600181540180825580915050600190039060005260206000209060040201600090919091909150600082015181600001908161017e9190610965565b5060208201518160010190816101949190610965565b506040820151816002015560608201518160030190816101b49190610965565b505050505050505050565b60006020528060005260406000206000915090508060000180546101e290610788565b80601f016020809104026020016040519081016040528092919081815260200182805461020e90610788565b801561025b5780601f106102305761010080835404028352916020019161025b565b820191906000526020600020905b81548152906001019060200180831161023e57829003601f168201915b50505050509080600101805461027090610788565b80601f016020809104026020016040519081016040528092919081815260200182805461029c90610788565b80156102e95780601f106102be576101008083540402835291602001916102e9565b820191906000526020600020905b8154815290600101906020018083116102cc57829003601f168201915b50505050509080600201549080600301805461030490610788565b80601f016020809104026020016040519081016040528092919081815260200182805461033090610788565b801561037d5780601f106103525761010080835404028352916020019161037d565b820191906000526020600020905b81548152906001019060200180831161036057829003601f168201915b5050505050905084565b6000604051905090565b600080fd5b600080fd5b600080fd5b600080fd5b6000601f19601f8301169050919050565b7f4e487b7100000000000000000000000000000000000000000000000000000000600052604160045260246000fd5b6103ee826103a5565b810181811067ffffffffffffffff8211171561040d5761040c6103b6565b5b80604052505050565b6000610420610387565b905061042c82826103e5565b919050565b600067ffffffffffffffff82111561044c5761044b6103b6565b5b610455826103a5565b9050602081019050919050565b82818337600083830152505050565b600061048461047f84610431565b610416565b9050828152602081018484840111156104a05761049f6103a0565b5b6104ab848285610462565b509392505050565b600082601f8301126104c8576104c761039b565b5b81356104d8848260208601610471565b91505092915050565b6000819050919050565b6104f4816104e1565b81146104ff57600080fd5b50565b600081359050610511816104eb565b92915050565b600073ffffffffffffffffffffffffffffffffffffffff82169050919050565b600061054282610517565b9050919050565b61055281610537565b811461055d57600080fd5b50565b60008135905061056f81610549565b92915050565b600080600080600060a0868803121561059157610590610391565b5b600086013567ffffffffffffffff8111156105af576105ae610396565b5b6105bb888289016104b3565b955050602086013567ffffffffffffffff8111156105dc576105db610396565b5b6105e8888289016104b3565b94505060406105f988828901610502565b935050606086013567ffffffffffffffff81111561061a57610619610396565b5b610626888289016104b3565b925050608061063788828901610560565b9150509295509295909350565b60006020828403121561065a57610659610391565b5b600061066884828501610560565b91505092915050565b600081519050919050565b600082825260208201905092915050565b60005b838110156106ab578082015181840152602081019050610690565b60008484015250505050565b60006106c282610671565b6106cc818561067c565b93506106dc81856020860161068d565b6106e5816103a5565b840191505092915050565b6106f9816104e1565b82525050565b6000608082019050818103600083015261071981876106b7565b9050818103602083015261072d81866106b7565b905061073c60408301856106f0565b818103606083015261074e81846106b7565b905095945050505050565b7f4e487b7100000000000000000000000000000000000000000000000000000000600052602260045260246000fd5b600060028204905060018216806107a057607f821691505b6020821081036107b3576107b2610759565b5b50919050565b60008190508160005260206000209050919050565b60006020601f8301049050919050565b600082821b905092915050565b60006008830261081b7fffffffffffffffffffffffffffffffffffffffffffffffffffffffffffffffff826107de565b61082586836107de565b95508019841693508086168417925050509392505050565b6000819050919050565b600061086261085d610858846104e1565b61083d565b6104e1565b9050919050565b6000819050919050565b61087c83610847565b61089061088882610869565b8484546107eb565b825550505050565b600090565b6108a5610898565b6108b0818484610873565b505050565b5b818110156108d4576108c960008261089d565b6001810190506108b6565b5050565b601f821115610919576108ea816107b9565b6108f3846107ce565b81016020851015610902578190505b61091661090e856107ce565b8301826108b5565b50505b505050565b600082821c905092915050565b600061093c6000198460080261091e565b1980831691505092915050565b6000610955838361092b565b9150826002028217905092915050565b61096e82610671565b67ffffffffffffffff811115610987576109866103b6565b5b6109918254610788565b61099c8282856108d8565b600060209050601f8311600181146109cf57600084156109bd578287015190505b6109c78582610949565b865550610a2f565b601f1984166109dd866107b9565b60005b82811015610a05578489015182556001820191506020850194506020810190506109e0565b86831015610a225784890151610a1e601f89168261092b565b8355505b6001600288020188555050505b50505050505056fea26469706673582212204544a86f7b78dab9ecdd20c71d8ac45b42800b5d13baf6e5f387c9223ea2625064736f6c63430008130033",
  "linkReferences": {},
  "deployedLinkReferences": {}
}