{
  "_format": "hh-sol-artifact-1",
  "contractName": "Struct",
  "sourceName": "contracts/class05/Struct.sol",
  "abi": [
    {
      "inputs": [],
      "name": "crearBalance",
      "outputs": [],
      "stateMutability": "nonpayable",
      "type": "function"
    },
    {
      "inputs": [],
      "name": "crearBalanceLegible",
      "outputs": [],
      "stateMutability": "nonpayable",
      "type": "function"
    }
  ],
  "bytecode": "0x608060405234801561001057600080fd5b50610147806100206000396000f3fe608060405234801561001057600080fd5b50600436106100365760003560e01c80635b8b7c211461003b578063fbdedf0314610045575b600080fd5b61004361004f565b005b61004d6100b0565b005b60006040518060800160405280607b81526020016103e8815260200160c881526020016040518060400160405280601081526020017f4375656e74612064652041686f72726f00000000000000000000000000000000815250815250905050565b60006040518060800160405280607b81526020016103e8815260200160c881526020016040518060400160405280601081526020017f4375656e74612064652041686f72726f0000000000000000000000000000000081525081525090505056fea26469706673582212200b52cd9ed27e7c294e01a87666088339e35222c9ee44db1626584a5afe05cf5664736f6c63430008130033",
  "linkReferences": {},
  "deployedLinkReferences": {}
}