{
  "_format": "hh-sol-artifact-1",
  "contractName": "StructMappingAnidado",
  "sourceName": "contracts/class05/Struct.sol",
  "abi": [
    {
      "inputs": [
        {
          "internalType": "address",
          "name": "",
          "type": "address"
        }
      ],
      "name": "billeteraAEdad",
      "outputs": [
        {
          "internalType": "uint256",
          "name": "",
          "type": "uint256"
        }
      ],
      "stateMutability": "view",
      "type": "function"
    },
    {
      "inputs": [
        {
          "internalType": "address",
          "name": "_personaAddress",
          "type": "address"
        }
      ],
      "name": "guardarPersona",
      "outputs": [],
      "stateMutability": "nonpayable",
      "type": "function"
    },
    {
      "inputs": [
        {
          "internalType": "address",
          "name": "",
          "type": "address"
        }
      ],
      "name": "listaPersonas",
      "outputs": [
        {
          "components": [
            {
              "internalType": "uint256",
              "name": "number",
              "type": "uint256"
            },
            {
              "internalType": "string",
              "name": "nombre",
              "type": "string"
            },
            {
              "internalType": "string",
              "name": "apellido",
              "type": "string"
            }
          ],
          "internalType": "struct StructMappingAnidado.DNI",
          "name": "dni",
          "type": "tuple"
        },
        {
          "internalType": "uint256",
          "name": "altura",
          "type": "uint256"
        },
        {
          "internalType": "uint256",
          "name": "peso",
          "type": "uint256"
        }
      ],
      "stateMutability": "view",
      "type": "function"
    }
  ],
  "bytecode": "0x608060405234801561001057600080fd5b50610a38806100206000396000f3fe608060405234801561001057600080fd5b50600436106100415760003560e01c8063add7d82114610046578063b1c207f014610062578063ca5dc8bd14610092575b600080fd5b610060600480360381019061005b9190610432565b6100c4565b005b61007c60048036038101906100779190610432565b610255565b6040516100899190610478565b60405180910390f35b6100ac60048036038101906100a79190610432565b61026d565b6040516100bb93929190610589565b60405180910390f35b6000604051806060016040528062bc4ff281526020016040518060400160405280600381526020017f4c6565000000000000000000000000000000000000000000000000000000000081525081526020016040518060400160405280600181526020017f4d00000000000000000000000000000000000000000000000000000000000000815250815250905060008060008473ffffffffffffffffffffffffffffffffffffffff1673ffffffffffffffffffffffffffffffffffffffff168152602001908152602001600020905081816000016000820151816000015560208201518160010190816101b69190610802565b5060408201518160020190816101cc9190610802565b5090505060a68160030181905550605081600401819055506064816005016040516101f69061092b565b90815260200160405180910390208190555060c88160050160405161021a9061098c565b90815260200160405180910390208190555060828160050160405161023e906109ed565b908152602001604051809103902081905550505050565b60016020528060005260406000206000915090505481565b600060205280600052604060002060009150905080600001604051806060016040529081600082015481526020016001820180546102aa90610625565b80601f01602080910402602001604051908101604052809291908181526020018280546102d690610625565b80156103235780601f106102f857610100808354040283529160200191610323565b820191906000526020600020905b81548152906001019060200180831161030657829003601f168201915b5050505050815260200160028201805461033c90610625565b80601f016020809104026020016040519081016040528092919081815260200182805461036890610625565b80156103b55780601f1061038a576101008083540402835291602001916103b5565b820191906000526020600020905b81548152906001019060200180831161039857829003601f168201915b505050505081525050908060030154908060040154905083565b600080fd5b600073ffffffffffffffffffffffffffffffffffffffff82169050919050565b60006103ff826103d4565b9050919050565b61040f816103f4565b811461041a57600080fd5b50565b60008135905061042c81610406565b92915050565b600060208284031215610448576104476103cf565b5b60006104568482850161041d565b91505092915050565b6000819050919050565b6104728161045f565b82525050565b600060208201905061048d6000830184610469565b92915050565b61049c8161045f565b82525050565b600081519050919050565b600082825260208201905092915050565b60005b838110156104dc5780820151818401526020810190506104c1565b60008484015250505050565b6000601f19601f8301169050919050565b6000610504826104a2565b61050e81856104ad565b935061051e8185602086016104be565b610527816104e8565b840191505092915050565b600060608301600083015161054a6000860182610493565b506020830151848203602086015261056282826104f9565b9150506040830151848203604086015261057c82826104f9565b9150508091505092915050565b600060608201905081810360008301526105a38186610532565b90506105b26020830185610469565b6105bf6040830184610469565b949350505050565b7f4e487b7100000000000000000000000000000000000000000000000000000000600052604160045260246000fd5b7f4e487b7100000000000000000000000000000000000000000000000000000000600052602260045260246000fd5b6000600282049050600182168061063d57607f821691505b6020821081036106505761064f6105f6565b5b50919050565b60008190508160005260206000209050919050565b60006020601f8301049050919050565b600082821b905092915050565b6000600883026106b87fffffffffffffffffffffffffffffffffffffffffffffffffffffffffffffffff8261067b565b6106c2868361067b565b95508019841693508086168417925050509392505050565b6000819050919050565b60006106ff6106fa6106f58461045f565b6106da565b61045f565b9050919050565b6000819050919050565b610719836106e4565b61072d61072582610706565b848454610688565b825550505050565b600090565b610742610735565b61074d818484610710565b505050565b5b818110156107715761076660008261073a565b600181019050610753565b5050565b601f8211156107b65761078781610656565b6107908461066b565b8101602085101561079f578190505b6107b36107ab8561066b565b830182610752565b50505b505050565b600082821c905092915050565b60006107d9600019846008026107bb565b1980831691505092915050565b60006107f283836107c8565b9150826002028217905092915050565b61080b826104a2565b67ffffffffffffffff811115610824576108236105c7565b5b61082e8254610625565b610839828285610775565b600060209050601f83116001811461086c576000841561085a578287015190505b61086485826107e6565b8655506108cc565b601f19841661087a86610656565b60005b828110156108a25784890151825560018201915060208501945060208101905061087d565b868310156108bf57848901516108bb601f8916826107c8565b8355505b6001600288020188555050505b505050505050565b600081905092915050565b7f4361736100000000000000000000000000000000000000000000000000000000600082015250565b60006109156004836108d4565b9150610920826108df565b600482019050919050565b600061093682610908565b9150819050919050565b7f436172726f730000000000000000000000000000000000000000000000000000600082015250565b60006109766006836108d4565b915061098182610940565b600682019050919050565b600061099782610969565b9150819050919050565b7f4176696f00000000000000000000000000000000000000000000000000000000600082015250565b60006109d76004836108d4565b91506109e2826109a1565b600482019050919050565b60006109f8826109ca565b915081905091905056fea2646970667358221220065dbb4c3e4d8a774dfa61cce91df6cb6b4d7c64c2c72bd7a5798615f9fc0ea764736f6c63430008130033",
  "linkReferences": {},
  "deployedLinkReferences": {}
}