{
  "_format": "hh-sol-artifact-1",
  "contractName": "Hombre1",
  "sourceName": "contracts/class06/HerenciaConstructores.sol",
  "abi": [
    {
      "inputs": [],
      "name": "getSaludoHumano",
      "outputs": [
        {
          "internalType": "string",
          "name": "",
          "type": "string"
        }
      ],
      "stateMutability": "view",
      "type": "function"
    }
  ],
  "bytecode": "0x608060405234801561001057600080fd5b506040518060400160405280601081526020017f486f6c612c20736f792048756d616e6f00000000000000000000000000000000815250602e816000908161005891906102b7565b50806001819055505050610389565b600081519050919050565b7f4e487b7100000000000000000000000000000000000000000000000000000000600052604160045260246000fd5b7f4e487b7100000000000000000000000000000000000000000000000000000000600052602260045260246000fd5b600060028204905060018216806100e857607f821691505b6020821081036100fb576100fa6100a1565b5b50919050565b60008190508160005260206000209050919050565b60006020601f8301049050919050565b600082821b905092915050565b6000600883026101637fffffffffffffffffffffffffffffffffffffffffffffffffffffffffffffffff82610126565b61016d8683610126565b95508019841693508086168417925050509392505050565b6000819050919050565b6000819050919050565b60006101b46101af6101aa84610185565b61018f565b610185565b9050919050565b6000819050919050565b6101ce83610199565b6101e26101da826101bb565b848454610133565b825550505050565b600090565b6101f76101ea565b6102028184846101c5565b505050565b5b818110156102265761021b6000826101ef565b600181019050610208565b5050565b601f82111561026b5761023c81610101565b61024584610116565b81016020851015610254578190505b61026861026085610116565b830182610207565b50505b505050565b600082821c905092915050565b600061028e60001984600802610270565b1980831691505092915050565b60006102a7838361027d565b9150826002028217905092915050565b6102c082610067565b67ffffffffffffffff8111156102d9576102d8610072565b5b6102e382546100d0565b6102ee82828561022a565b600060209050601f831160018114610321576000841561030f578287015190505b610319858261029b565b865550610381565b601f19841661032f86610101565b60005b8281101561035757848901518255600182019150602085019450602081019050610332565b868310156103745784890151610370601f89168261027d565b8355505b6001600288020188555050505b505050505050565b610228806103986000396000f3fe608060405234801561001057600080fd5b506004361061002b5760003560e01c8063f8aa74e314610030575b600080fd5b61003861004e565b6040516100459190610170565b60405180910390f35b60606000805461005d906101c1565b80601f0160208091040260200160405190810160405280929190818152602001828054610089906101c1565b80156100d65780601f106100ab576101008083540402835291602001916100d6565b820191906000526020600020905b8154815290600101906020018083116100b957829003601f168201915b5050505050905090565b600081519050919050565b600082825260208201905092915050565b60005b8381101561011a5780820151818401526020810190506100ff565b60008484015250505050565b6000601f19601f8301169050919050565b6000610142826100e0565b61014c81856100eb565b935061015c8185602086016100fc565b61016581610126565b840191505092915050565b6000602082019050818103600083015261018a8184610137565b905092915050565b7f4e487b7100000000000000000000000000000000000000000000000000000000600052602260045260246000fd5b600060028204905060018216806101d957607f821691505b6020821081036101ec576101eb610192565b5b5091905056fea26469706673582212200a1164977f75277b422154cec0245973b1946d6f01a6230123f2f0bd69f8162f64736f6c63430008130033",
  "linkReferences": {},
  "deployedLinkReferences": {}
}