{
  "_format": "hh-sol-artifact-1",
  "contractName": "UpgradeableToken2",
  "sourceName": "contracts/class12/UpgradeableToken.sol",
  "abi": [
    {
      "anonymous": false,
      "inputs": [
        {
          "indexed": false,
          "internalType": "address",
          "name": "previousAdmin",
          "type": "address"
        },
        {
          "indexed": false,
          "internalType": "address",
          "name": "newAdmin",
          "type": "address"
        }
      ],
      "name": "AdminChanged",
      "type": "event"
    },
    {
      "anonymous": false,
      "inputs": [
        {
          "indexed": true,
          "internalType": "address",
          "name": "owner",
          "type": "address"
        },
        {
          "indexed": true,
          "internalType": "address",
          "name": "spender",
          "type": "address"
        },
        {
          "indexed": false,
          "internalType": "uint256",
          "name": "value",
          "type": "uint256"
        }
      ],
      "name": "Approval",
      "type": "event"
    },
    {
      "anonymous": false,
      "inputs": [
        {
          "indexed": true,
          "internalType": "address",
          "name": "beacon",
          "type": "address"
        }
      ],
      "name": "BeaconUpgraded",
      "type": "event"
    },
    {
      "anonymous": false,
      "inputs": [
        {
          "indexed": false,
          "internalType": "uint8",
          "name": "version",
          "type": "uint8"
        }
      ],
      "name": "Initialized",
      "type": "event"
    },
    {
      "anonymous": false,
      "inputs": [
        {
          "indexed": true,
          "internalType": "address",
          "name": "previousOwner",
          "type": "address"
        },
        {
          "indexed": true,
          "internalType": "address",
          "name": "newOwner",
          "type": "address"
        }
      ],
      "name": "OwnershipTransferred",
      "type": "event"
    },
    {
      "anonymous": false,
      "inputs": [
        {
          "indexed": true,
          "internalType": "address",
          "name": "from",
          "type": "address"
        },
        {
          "indexed": true,
          "internalType": "address",
          "name": "to",
          "type": "address"
        },
        {
          "indexed": false,
          "internalType": "uint256",
          "name": "value",
          "type": "uint256"
        }
      ],
      "name": "Transfer",
      "type": "event"
    },
    {
      "anonymous": false,
      "inputs": [
        {
          "indexed": true,
          "internalType": "address",
          "name": "implementation",
          "type": "address"
        }
      ],
      "name": "Upgraded",
      "type": "event"
    },
    {
      "inputs": [],
      "name": "actualizarMapipngtriple",
      "outputs": [],
      "stateMutability": "nonpayable",
      "type": "function"
    },
    {
      "inputs": [
        {
          "internalType": "address",
          "name": "owner",
          "type": "address"
        },
        {
          "internalType": "address",
          "name": "spender",
          "type": "address"
        }
      ],
      "name": "allowance",
      "outputs": [
        {
          "internalType": "uint256",
          "name": "",
          "type": "uint256"
        }
      ],
      "stateMutability": "view",
      "type": "function"
    },
    {
      "inputs": [
        {
          "internalType": "address",
          "name": "spender",
          "type": "address"
        },
        {
          "internalType": "uint256",
          "name": "amount",
          "type": "uint256"
        }
      ],
      "name": "approve",
      "outputs": [
        {
          "internalType": "bool",
          "name": "",
          "type": "bool"
        }
      ],
      "stateMutability": "nonpayable",
      "type": "function"
    },
    {
      "inputs": [
        {
          "internalType": "address",
          "name": "account",
          "type": "address"
        }
      ],
      "name": "balanceOf",
      "outputs": [
        {
          "internalType": "uint256",
          "name": "",
          "type": "uint256"
        }
      ],
      "stateMutability": "view",
      "type": "function"
    },
    {
      "inputs": [],
      "name": "decimals",
      "outputs": [
        {
          "internalType": "uint8",
          "name": "",
          "type": "uint8"
        }
      ],
      "stateMutability": "view",
      "type": "function"
    },
    {
      "inputs": [
        {
          "internalType": "address",
          "name": "spender",
          "type": "address"
        },
        {
          "internalType": "uint256",
          "name": "subtractedValue",
          "type": "uint256"
        }
      ],
      "name": "decreaseAllowance",
      "outputs": [
        {
          "internalType": "bool",
          "name": "",
          "type": "bool"
        }
      ],
      "stateMutability": "nonpayable",
      "type": "function"
    },
    {
      "inputs": [
        {
          "internalType": "address",
          "name": "spender",
          "type": "address"
        },
        {
          "internalType": "uint256",
          "name": "addedValue",
          "type": "uint256"
        }
      ],
      "name": "increaseAllowance",
      "outputs": [
        {
          "internalType": "bool",
          "name": "",
          "type": "bool"
        }
      ],
      "stateMutability": "nonpayable",
      "type": "function"
    },
    {
      "inputs": [],
      "name": "initialize",
      "outputs": [],
      "stateMutability": "nonpayable",
      "type": "function"
    },
    {
      "inputs": [
        {
          "internalType": "address",
          "name": "to",
          "type": "address"
        },
        {
          "internalType": "uint256",
          "name": "amount",
          "type": "uint256"
        }
      ],
      "name": "mint",
      "outputs": [],
      "stateMutability": "nonpayable",
      "type": "function"
    },
    {
      "inputs": [],
      "name": "name",
      "outputs": [
        {
          "internalType": "string",
          "name": "",
          "type": "string"
        }
      ],
      "stateMutability": "view",
      "type": "function"
    },
    {
      "inputs": [],
      "name": "owner",
      "outputs": [
        {
          "internalType": "address",
          "name": "",
          "type": "address"
        }
      ],
      "stateMutability": "view",
      "type": "function"
    },
    {
      "inputs": [],
      "name": "proxiableUUID",
      "outputs": [
        {
          "internalType": "bytes32",
          "name": "",
          "type": "bytes32"
        }
      ],
      "stateMutability": "view",
      "type": "function"
    },
    {
      "inputs": [],
      "name": "renounceOwnership",
      "outputs": [],
      "stateMutability": "nonpayable",
      "type": "function"
    },
    {
      "inputs": [],
      "name": "symbol",
      "outputs": [
        {
          "internalType": "string",
          "name": "",
          "type": "string"
        }
      ],
      "stateMutability": "view",
      "type": "function"
    },
    {
      "inputs": [],
      "name": "totalSupply",
      "outputs": [
        {
          "internalType": "uint256",
          "name": "",
          "type": "uint256"
        }
      ],
      "stateMutability": "view",
      "type": "function"
    },
    {
      "inputs": [
        {
          "internalType": "address",
          "name": "to",
          "type": "address"
        },
        {
          "internalType": "uint256",
          "name": "amount",
          "type": "uint256"
        }
      ],
      "name": "transfer",
      "outputs": [
        {
          "internalType": "bool",
          "name": "",
          "type": "bool"
        }
      ],
      "stateMutability": "nonpayable",
      "type": "function"
    },
    {
      "inputs": [
        {
          "internalType": "address",
          "name": "from",
          "type": "address"
        },
        {
          "internalType": "address",
          "name": "to",
          "type": "address"
        },
        {
          "internalType": "uint256",
          "name": "amount",
          "type": "uint256"
        }
      ],
      "name": "transferFrom",
      "outputs": [
        {
          "internalType": "bool",
          "name": "",
          "type": "bool"
        }
      ],
      "stateMutability": "nonpayable",
      "type": "function"
    },
    {
      "inputs": [
        {
          "internalType": "address",
          "name": "newOwner",
          "type": "address"
        }
      ],
      "name": "transferOwnership",
      "outputs": [],
      "stateMutability": "nonpayable",
      "type": "function"
    },
    {
      "inputs": [
        {
          "internalType": "address",
          "name": "newImplementation",
          "type": "address"
        }
      ],
      "name": "upgradeTo",
      "outputs": [],
      "stateMutability": "nonpayable",
      "type": "function"
    },
    {
      "inputs": [
        {
          "internalType": "address",
          "name": "newImplementation",
          "type": "address"
        },
        {
          "internalType": "bytes",
          "name": "data",
          "type": "bytes"
        }
      ],
      "name": "upgradeToAndCall",
      "outputs": [],
      "stateMutability": "payable",
      "type": "function"
    }
  ],
  "bytecode": "0x60a06040523073ffffffffffffffffffffffffffffffffffffffff1660809073ffffffffffffffffffffffffffffffffffffffff1681525034801561004357600080fd5b5060805161314361007b600039600081816105a601528181610634015281816107730152818161080101526108b101526131436000f3fe60806040526004361061011f5760003560e01c806370a08231116100a05780639f4f3027116100645780639f4f3027146103b6578063a457c2d7146103cd578063a9059cbb1461040a578063dd62ed3e14610447578063f2fde38b146104845761011f565b806370a08231146102f5578063715018a6146103325780638129fc1c146103495780638da5cb5b1461036057806395d89b411461038b5761011f565b80633659cfe6116100e75780633659cfe61461021f578063395093511461024857806340c10f19146102855780634f1ef286146102ae57806352d1902d146102ca5761011f565b806306fdde0314610124578063095ea7b31461014f57806318160ddd1461018c57806323b872dd146101b7578063313ce567146101f4575b600080fd5b34801561013057600080fd5b506101396104ad565b6040516101469190611c4a565b60405180910390f35b34801561015b57600080fd5b5061017660048036038101906101719190611d14565b61053f565b6040516101839190611d6f565b60405180910390f35b34801561019857600080fd5b506101a1610562565b6040516101ae9190611d99565b60405180910390f35b3480156101c357600080fd5b506101de60048036038101906101d99190611db4565b61056c565b6040516101eb9190611d6f565b60405180910390f35b34801561020057600080fd5b5061020961059b565b6040516102169190611e23565b60405180910390f35b34801561022b57600080fd5b5061024660048036038101906102419190611e3e565b6105a4565b005b34801561025457600080fd5b5061026f600480360381019061026a9190611d14565b61072c565b60405161027c9190611d6f565b60405180910390f35b34801561029157600080fd5b506102ac60048036038101906102a79190611d14565b610763565b005b6102c860048036038101906102c39190611fa0565b610771565b005b3480156102d657600080fd5b506102df6108ad565b6040516102ec9190612015565b60405180910390f35b34801561030157600080fd5b5061031c60048036038101906103179190611e3e565b610966565b6040516103299190611d99565b60405180910390f35b34801561033e57600080fd5b506103476109af565b005b34801561035557600080fd5b5061035e6109c3565b005b34801561036c57600080fd5b50610375610ba0565b604051610382919061203f565b60405180910390f35b34801561039757600080fd5b506103a0610bca565b6040516103ad9190611c4a565b60405180910390f35b3480156103c257600080fd5b506103cb610c5c565b005b3480156103d957600080fd5b506103f460048036038101906103ef9190611d14565b610c5e565b6040516104019190611d6f565b60405180910390f35b34801561041657600080fd5b50610431600480360381019061042c9190611d14565b610cd5565b60405161043e9190611d6f565b60405180910390f35b34801561045357600080fd5b5061046e6004803603810190610469919061205a565b610cf8565b60405161047b9190611d99565b60405180910390f35b34801561049057600080fd5b506104ab60048036038101906104a69190611e3e565b610d7f565b005b6060603680546104bc906120c9565b80601f01602080910402602001604051908101604052809291908181526020018280546104e8906120c9565b80156105355780601f1061050a57610100808354040283529160200191610535565b820191906000526020600020905b81548152906001019060200180831161051857829003601f168201915b5050505050905090565b60008061054a610e02565b9050610557818585610e0a565b600191505092915050565b6000603554905090565b600080610577610e02565b9050610584858285610fd3565b61058f85858561105f565b60019150509392505050565b60006012905090565b7f000000000000000000000000000000000000000000000000000000000000000073ffffffffffffffffffffffffffffffffffffffff163073ffffffffffffffffffffffffffffffffffffffff1603610632576040517f08c379a00000000000000000000000000000000000000000000000000000000081526004016106299061216c565b60405180910390fd5b7f000000000000000000000000000000000000000000000000000000000000000073ffffffffffffffffffffffffffffffffffffffff166106716112d8565b73ffffffffffffffffffffffffffffffffffffffff16146106c7576040517f08c379a00000000000000000000000000000000000000000000000000000000081526004016106be906121fe565b60405180910390fd5b6106d08161132f565b61072981600067ffffffffffffffff8111156106ef576106ee611e75565b5b6040519080825280601f01601f1916602001820160405280156107215781602001600182028036833780820191505090505b50600061133a565b50565b600080610737610e02565b90506107588185856107498589610cf8565b610753919061224d565b610e0a565b600191505092915050565b61076d82826114a8565b5050565b7f000000000000000000000000000000000000000000000000000000000000000073ffffffffffffffffffffffffffffffffffffffff163073ffffffffffffffffffffffffffffffffffffffff16036107ff576040517f08c379a00000000000000000000000000000000000000000000000000000000081526004016107f69061216c565b60405180910390fd5b7f000000000000000000000000000000000000000000000000000000000000000073ffffffffffffffffffffffffffffffffffffffff1661083e6112d8565b73ffffffffffffffffffffffffffffffffffffffff1614610894576040517f08c379a000000000000000000000000000000000000000000000000000000000815260040161088b906121fe565b60405180910390fd5b61089d8261132f565b6108a98282600161133a565b5050565b60007f000000000000000000000000000000000000000000000000000000000000000073ffffffffffffffffffffffffffffffffffffffff163073ffffffffffffffffffffffffffffffffffffffff161461093d576040517f08c379a0000000000000000000000000000000000000000000000000000000008152600401610934906122f3565b60405180910390fd5b7f360894a13ba1a3210667c828492db98dca3e2076cc3735a920a3ca505d382bbc60001b905090565b6000603360008373ffffffffffffffffffffffffffffffffffffffff1673ffffffffffffffffffffffffffffffffffffffff168152602001908152602001600020549050919050565b6109b76115ff565b6109c1600061167d565b565b60008060019054906101000a900460ff161590508080156109f45750600160008054906101000a900460ff1660ff16105b80610a215750610a0330611743565b158015610a205750600160008054906101000a900460ff1660ff16145b5b610a60576040517f08c379a0000000000000000000000000000000000000000000000000000000008152600401610a5790612385565b60405180910390fd5b60016000806101000a81548160ff021916908360ff1602179055508015610a9d576001600060016101000a81548160ff0219169083151502179055505b610b116040518060400160405280601081526020017f55706772616465626c6520546f6b656e000000000000000000000000000000008152506040518060400160405280600881526020017f5550475244544b4e000000000000000000000000000000000000000000000000815250611766565b610b196117c3565b610b4433610b2561059b565b600a610b3191906124d8565b620f4240610b3f9190612523565b6114a8565b8015610b9d5760008060016101000a81548160ff0219169083151502179055507f7f26b83ff96e1f2b6a682f133852f6798a09c465da95921460cefb38474024986001604051610b9491906125aa565b60405180910390a15b50565b600060c960009054906101000a900473ffffffffffffffffffffffffffffffffffffffff16905090565b606060378054610bd9906120c9565b80601f0160208091040260200160405190810160405280929190818152602001828054610c05906120c9565b8015610c525780601f10610c2757610100808354040283529160200191610c52565b820191906000526020600020905b815481529060010190602001808311610c3557829003601f168201915b5050505050905090565b565b600080610c69610e02565b90506000610c778286610cf8565b905083811015610cbc576040517f08c379a0000000000000000000000000000000000000000000000000000000008152600401610cb390612637565b60405180910390fd5b610cc98286868403610e0a565b60019250505092915050565b600080610ce0610e02565b9050610ced81858561105f565b600191505092915050565b6000603460008473ffffffffffffffffffffffffffffffffffffffff1673ffffffffffffffffffffffffffffffffffffffff16815260200190815260200160002060008373ffffffffffffffffffffffffffffffffffffffff1673ffffffffffffffffffffffffffffffffffffffff16815260200190815260200160002054905092915050565b610d876115ff565b600073ffffffffffffffffffffffffffffffffffffffff168173ffffffffffffffffffffffffffffffffffffffff1603610df6576040517f08c379a0000000000000000000000000000000000000000000000000000000008152600401610ded906126c9565b60405180910390fd5b610dff8161167d565b50565b600033905090565b600073ffffffffffffffffffffffffffffffffffffffff168373ffffffffffffffffffffffffffffffffffffffff1603610e79576040517f08c379a0000000000000000000000000000000000000000000000000000000008152600401610e709061275b565b60405180910390fd5b600073ffffffffffffffffffffffffffffffffffffffff168273ffffffffffffffffffffffffffffffffffffffff1603610ee8576040517f08c379a0000000000000000000000000000000000000000000000000000000008152600401610edf906127ed565b60405180910390fd5b80603460008573ffffffffffffffffffffffffffffffffffffffff1673ffffffffffffffffffffffffffffffffffffffff16815260200190815260200160002060008473ffffffffffffffffffffffffffffffffffffffff1673ffffffffffffffffffffffffffffffffffffffff168152602001908152602001600020819055508173ffffffffffffffffffffffffffffffffffffffff168373ffffffffffffffffffffffffffffffffffffffff167f8c5be1e5ebec7d5bd14f71427d1e84f3dd0314c0f7b2291e5b200ac8c7c3b92583604051610fc69190611d99565b60405180910390a3505050565b6000610fdf8484610cf8565b90507fffffffffffffffffffffffffffffffffffffffffffffffffffffffffffffffff8114611059578181101561104b576040517f08c379a000000000000000000000000000000000000000000000000000000000815260040161104290612859565b60405180910390fd5b6110588484848403610e0a565b5b50505050565b600073ffffffffffffffffffffffffffffffffffffffff168373ffffffffffffffffffffffffffffffffffffffff16036110ce576040517f08c379a00000000000000000000000000000000000000000000000000000000081526004016110c5906128eb565b60405180910390fd5b600073ffffffffffffffffffffffffffffffffffffffff168273ffffffffffffffffffffffffffffffffffffffff160361113d576040517f08c379a00000000000000000000000000000000000000000000000000000000081526004016111349061297d565b60405180910390fd5b61114883838361181c565b6000603360008573ffffffffffffffffffffffffffffffffffffffff1673ffffffffffffffffffffffffffffffffffffffff168152602001908152602001600020549050818110156111cf576040517f08c379a00000000000000000000000000000000000000000000000000000000081526004016111c690612a0f565b60405180910390fd5b818103603360008673ffffffffffffffffffffffffffffffffffffffff1673ffffffffffffffffffffffffffffffffffffffff1681526020019081526020016000208190555081603360008573ffffffffffffffffffffffffffffffffffffffff1673ffffffffffffffffffffffffffffffffffffffff168152602001908152602001600020600082825401925050819055508273ffffffffffffffffffffffffffffffffffffffff168473ffffffffffffffffffffffffffffffffffffffff167fddf252ad1be2c89b69c2b068fc378daa952ba7f163c4a11628f55a4df523b3ef846040516112bf9190611d99565b60405180910390a36112d2848484611821565b50505050565b60006113067f360894a13ba1a3210667c828492db98dca3e2076cc3735a920a3ca505d382bbc60001b611826565b60000160009054906101000a900473ffffffffffffffffffffffffffffffffffffffff16905090565b6113376115ff565b50565b6113667f4910fdfa16fed3260ed0e7147f7cc6da11a60208b5b9406d12a635614ffd914360001b611830565b60000160009054906101000a900460ff161561138a576113858361183a565b6114a3565b8273ffffffffffffffffffffffffffffffffffffffff166352d1902d6040518163ffffffff1660e01b8152600401602060405180830381865afa9250505080156113f257506040513d601f19601f820116820180604052508101906113ef9190612a5b565b60015b611431576040517f08c379a000000000000000000000000000000000000000000000000000000000815260040161142890612afa565b60405180910390fd5b7f360894a13ba1a3210667c828492db98dca3e2076cc3735a920a3ca505d382bbc60001b8114611496576040517f08c379a000000000000000000000000000000000000000000000000000000000815260040161148d90612b8c565b60405180910390fd5b506114a28383836118f3565b5b505050565b600073ffffffffffffffffffffffffffffffffffffffff168273ffffffffffffffffffffffffffffffffffffffff1603611517576040517f08c379a000000000000000000000000000000000000000000000000000000000815260040161150e90612bf8565b60405180910390fd5b6115236000838361181c565b8060356000828254611535919061224d565b9250508190555080603360008473ffffffffffffffffffffffffffffffffffffffff1673ffffffffffffffffffffffffffffffffffffffff168152602001908152602001600020600082825401925050819055508173ffffffffffffffffffffffffffffffffffffffff16600073ffffffffffffffffffffffffffffffffffffffff167fddf252ad1be2c89b69c2b068fc378daa952ba7f163c4a11628f55a4df523b3ef836040516115e79190611d99565b60405180910390a36115fb60008383611821565b5050565b611607610e02565b73ffffffffffffffffffffffffffffffffffffffff16611625610ba0565b73ffffffffffffffffffffffffffffffffffffffff161461167b576040517f08c379a000000000000000000000000000000000000000000000000000000000815260040161167290612c64565b60405180910390fd5b565b600060c960009054906101000a900473ffffffffffffffffffffffffffffffffffffffff1690508160c960006101000a81548173ffffffffffffffffffffffffffffffffffffffff021916908373ffffffffffffffffffffffffffffffffffffffff1602179055508173ffffffffffffffffffffffffffffffffffffffff168173ffffffffffffffffffffffffffffffffffffffff167f8be0079c531659141344cd1fd0a4f28419497f9722a3daafe3b4186f6b6457e060405160405180910390a35050565b6000808273ffffffffffffffffffffffffffffffffffffffff163b119050919050565b600060019054906101000a900460ff166117b5576040517f08c379a00000000000000000000000000000000000000000000000000000000081526004016117ac90612cf6565b60405180910390fd5b6117bf828261191f565b5050565b600060019054906101000a900460ff16611812576040517f08c379a000000000000000000000000000000000000000000000000000000000815260040161180990612cf6565b60405180910390fd5b61181a611992565b565b505050565b505050565b6000819050919050565b6000819050919050565b61184381611743565b611882576040517f08c379a000000000000000000000000000000000000000000000000000000000815260040161187990612d88565b60405180910390fd5b806118af7f360894a13ba1a3210667c828492db98dca3e2076cc3735a920a3ca505d382bbc60001b611826565b60000160006101000a81548173ffffffffffffffffffffffffffffffffffffffff021916908373ffffffffffffffffffffffffffffffffffffffff16021790555050565b6118fc836119f3565b6000825111806119095750805b1561191a576119188383611a42565b505b505050565b600060019054906101000a900460ff1661196e576040517f08c379a000000000000000000000000000000000000000000000000000000000815260040161196590612cf6565b60405180910390fd5b816036908161197d9190612f4a565b50806037908161198d9190612f4a565b505050565b600060019054906101000a900460ff166119e1576040517f08c379a00000000000000000000000000000000000000000000000000000000081526004016119d890612cf6565b60405180910390fd5b6119f16119ec610e02565b61167d565b565b6119fc8161183a565b8073ffffffffffffffffffffffffffffffffffffffff167fbc7cd75a20ee27fd9adebab32041f755214dbc6bffa90cc0225b39da2e5c2d3b60405160405180910390a250565b6060611a6783836040518060600160405280602781526020016130e760279139611a6f565b905092915050565b60606000808573ffffffffffffffffffffffffffffffffffffffff1685604051611a999190613063565b600060405180830381855af49150503d8060008114611ad4576040519150601f19603f3d011682016040523d82523d6000602084013e611ad9565b606091505b5091509150611aea86838387611af5565b925050509392505050565b60608315611b57576000835103611b4f57611b0f85611743565b611b4e576040517f08c379a0000000000000000000000000000000000000000000000000000000008152600401611b45906130c6565b60405180910390fd5b5b829050611b62565b611b618383611b6a565b5b949350505050565b600082511115611b7d5781518083602001fd5b806040517f08c379a0000000000000000000000000000000000000000000000000000000008152600401611bb19190611c4a565b60405180910390fd5b600081519050919050565b600082825260208201905092915050565b60005b83811015611bf4578082015181840152602081019050611bd9565b60008484015250505050565b6000601f19601f8301169050919050565b6000611c1c82611bba565b611c268185611bc5565b9350611c36818560208601611bd6565b611c3f81611c00565b840191505092915050565b60006020820190508181036000830152611c648184611c11565b905092915050565b6000604051905090565b600080fd5b600080fd5b600073ffffffffffffffffffffffffffffffffffffffff82169050919050565b6000611cab82611c80565b9050919050565b611cbb81611ca0565b8114611cc657600080fd5b50565b600081359050611cd881611cb2565b92915050565b6000819050919050565b611cf181611cde565b8114611cfc57600080fd5b50565b600081359050611d0e81611ce8565b92915050565b60008060408385031215611d2b57611d2a611c76565b5b6000611d3985828601611cc9565b9250506020611d4a85828601611cff565b9150509250929050565b60008115159050919050565b611d6981611d54565b82525050565b6000602082019050611d846000830184611d60565b92915050565b611d9381611cde565b82525050565b6000602082019050611dae6000830184611d8a565b92915050565b600080600060608486031215611dcd57611dcc611c76565b5b6000611ddb86828701611cc9565b9350506020611dec86828701611cc9565b9250506040611dfd86828701611cff565b9150509250925092565b600060ff82169050919050565b611e1d81611e07565b82525050565b6000602082019050611e386000830184611e14565b92915050565b600060208284031215611e5457611e53611c76565b5b6000611e6284828501611cc9565b91505092915050565b600080fd5b600080fd5b7f4e487b7100000000000000000000000000000000000000000000000000000000600052604160045260246000fd5b611ead82611c00565b810181811067ffffffffffffffff82111715611ecc57611ecb611e75565b5b80604052505050565b6000611edf611c6c565b9050611eeb8282611ea4565b919050565b600067ffffffffffffffff821115611f0b57611f0a611e75565b5b611f1482611c00565b9050602081019050919050565b82818337600083830152505050565b6000611f43611f3e84611ef0565b611ed5565b905082815260208101848484011115611f5f57611f5e611e70565b5b611f6a848285611f21565b509392505050565b600082601f830112611f8757611f86611e6b565b5b8135611f97848260208601611f30565b91505092915050565b60008060408385031215611fb757611fb6611c76565b5b6000611fc585828601611cc9565b925050602083013567ffffffffffffffff811115611fe657611fe5611c7b565b5b611ff285828601611f72565b9150509250929050565b6000819050919050565b61200f81611ffc565b82525050565b600060208201905061202a6000830184612006565b92915050565b61203981611ca0565b82525050565b60006020820190506120546000830184612030565b92915050565b6000806040838503121561207157612070611c76565b5b600061207f85828601611cc9565b925050602061209085828601611cc9565b9150509250929050565b7f4e487b7100000000000000000000000000000000000000000000000000000000600052602260045260246000fd5b600060028204905060018216806120e157607f821691505b6020821081036120f4576120f361209a565b5b50919050565b7f46756e6374696f6e206d7573742062652063616c6c6564207468726f7567682060008201527f64656c656761746563616c6c0000000000000000000000000000000000000000602082015250565b6000612156602c83611bc5565b9150612161826120fa565b604082019050919050565b6000602082019050818103600083015261218581612149565b9050919050565b7f46756e6374696f6e206d7573742062652063616c6c6564207468726f7567682060008201527f6163746976652070726f78790000000000000000000000000000000000000000602082015250565b60006121e8602c83611bc5565b91506121f38261218c565b604082019050919050565b60006020820190508181036000830152612217816121db565b9050919050565b7f4e487b7100000000000000000000000000000000000000000000000000000000600052601160045260246000fd5b600061225882611cde565b915061226383611cde565b925082820190508082111561227b5761227a61221e565b5b92915050565b7f555550535570677261646561626c653a206d757374206e6f742062652063616c60008201527f6c6564207468726f7567682064656c656761746563616c6c0000000000000000602082015250565b60006122dd603883611bc5565b91506122e882612281565b604082019050919050565b6000602082019050818103600083015261230c816122d0565b9050919050565b7f496e697469616c697a61626c653a20636f6e747261637420697320616c72656160008201527f647920696e697469616c697a6564000000000000000000000000000000000000602082015250565b600061236f602e83611bc5565b915061237a82612313565b604082019050919050565b6000602082019050818103600083015261239e81612362565b9050919050565b60008160011c9050919050565b6000808291508390505b60018511156123fc578086048111156123d8576123d761221e565b5b60018516156123e75780820291505b80810290506123f5856123a5565b94506123bc565b94509492505050565b60008261241557600190506124d1565b8161242357600090506124d1565b8160018114612439576002811461244357612472565b60019150506124d1565b60ff8411156124555761245461221e565b5b8360020a91508482111561246c5761246b61221e565b5b506124d1565b5060208310610133831016604e8410600b84101617156124a75782820a9050838111156124a2576124a161221e565b5b6124d1565b6124b484848460016123b2565b925090508184048111156124cb576124ca61221e565b5b81810290505b9392505050565b60006124e382611cde565b91506124ee83611e07565b925061251b7fffffffffffffffffffffffffffffffffffffffffffffffffffffffffffffffff8484612405565b905092915050565b600061252e82611cde565b915061253983611cde565b925082820261254781611cde565b9150828204841483151761255e5761255d61221e565b5b5092915050565b6000819050919050565b6000819050919050565b600061259461258f61258a84612565565b61256f565b611e07565b9050919050565b6125a481612579565b82525050565b60006020820190506125bf600083018461259b565b92915050565b7f45524332303a2064656372656173656420616c6c6f77616e63652062656c6f7760008201527f207a65726f000000000000000000000000000000000000000000000000000000602082015250565b6000612621602583611bc5565b915061262c826125c5565b604082019050919050565b6000602082019050818103600083015261265081612614565b9050919050565b7f4f776e61626c653a206e6577206f776e657220697320746865207a65726f206160008201527f6464726573730000000000000000000000000000000000000000000000000000602082015250565b60006126b3602683611bc5565b91506126be82612657565b604082019050919050565b600060208201905081810360008301526126e2816126a6565b9050919050565b7f45524332303a20617070726f76652066726f6d20746865207a65726f2061646460008201527f7265737300000000000000000000000000000000000000000000000000000000602082015250565b6000612745602483611bc5565b9150612750826126e9565b604082019050919050565b6000602082019050818103600083015261277481612738565b9050919050565b7f45524332303a20617070726f766520746f20746865207a65726f20616464726560008201527f7373000000000000000000000000000000000000000000000000000000000000602082015250565b60006127d7602283611bc5565b91506127e28261277b565b604082019050919050565b60006020820190508181036000830152612806816127ca565b9050919050565b7f45524332303a20696e73756666696369656e7420616c6c6f77616e6365000000600082015250565b6000612843601d83611bc5565b915061284e8261280d565b602082019050919050565b6000602082019050818103600083015261287281612836565b9050919050565b7f45524332303a207472616e736665722066726f6d20746865207a65726f20616460008201527f6472657373000000000000000000000000000000000000000000000000000000602082015250565b60006128d5602583611bc5565b91506128e082612879565b604082019050919050565b60006020820190508181036000830152612904816128c8565b9050919050565b7f45524332303a207472616e7366657220746f20746865207a65726f206164647260008201527f6573730000000000000000000000000000000000000000000000000000000000602082015250565b6000612967602383611bc5565b91506129728261290b565b604082019050919050565b600060208201905081810360008301526129968161295a565b9050919050565b7f45524332303a207472616e7366657220616d6f756e742065786365656473206260008201527f616c616e63650000000000000000000000000000000000000000000000000000602082015250565b60006129f9602683611bc5565b9150612a048261299d565b604082019050919050565b60006020820190508181036000830152612a28816129ec565b9050919050565b612a3881611ffc565b8114612a4357600080fd5b50565b600081519050612a5581612a2f565b92915050565b600060208284031215612a7157612a70611c76565b5b6000612a7f84828501612a46565b91505092915050565b7f45524331393637557067726164653a206e657720696d706c656d656e7461746960008201527f6f6e206973206e6f742055555053000000000000000000000000000000000000602082015250565b6000612ae4602e83611bc5565b9150612aef82612a88565b604082019050919050565b60006020820190508181036000830152612b1381612ad7565b9050919050565b7f45524331393637557067726164653a20756e737570706f727465642070726f7860008201527f6961626c65555549440000000000000000000000000000000000000000000000602082015250565b6000612b76602983611bc5565b9150612b8182612b1a565b604082019050919050565b60006020820190508181036000830152612ba581612b69565b9050919050565b7f45524332303a206d696e7420746f20746865207a65726f206164647265737300600082015250565b6000612be2601f83611bc5565b9150612bed82612bac565b602082019050919050565b60006020820190508181036000830152612c1181612bd5565b9050919050565b7f4f776e61626c653a2063616c6c6572206973206e6f7420746865206f776e6572600082015250565b6000612c4e602083611bc5565b9150612c5982612c18565b602082019050919050565b60006020820190508181036000830152612c7d81612c41565b9050919050565b7f496e697469616c697a61626c653a20636f6e7472616374206973206e6f74206960008201527f6e697469616c697a696e67000000000000000000000000000000000000000000602082015250565b6000612ce0602b83611bc5565b9150612ceb82612c84565b604082019050919050565b60006020820190508181036000830152612d0f81612cd3565b9050919050565b7f455243313936373a206e657720696d706c656d656e746174696f6e206973206e60008201527f6f74206120636f6e747261637400000000000000000000000000000000000000602082015250565b6000612d72602d83611bc5565b9150612d7d82612d16565b604082019050919050565b60006020820190508181036000830152612da181612d65565b9050919050565b60008190508160005260206000209050919050565b60006020601f8301049050919050565b600082821b905092915050565b600060088302612e0a7fffffffffffffffffffffffffffffffffffffffffffffffffffffffffffffffff82612dcd565b612e148683612dcd565b95508019841693508086168417925050509392505050565b6000612e47612e42612e3d84611cde565b61256f565b611cde565b9050919050565b6000819050919050565b612e6183612e2c565b612e75612e6d82612e4e565b848454612dda565b825550505050565b600090565b612e8a612e7d565b612e95818484612e58565b505050565b5b81811015612eb957612eae600082612e82565b600181019050612e9b565b5050565b601f821115612efe57612ecf81612da8565b612ed884612dbd565b81016020851015612ee7578190505b612efb612ef385612dbd565b830182612e9a565b50505b505050565b600082821c905092915050565b6000612f2160001984600802612f03565b1980831691505092915050565b6000612f3a8383612f10565b9150826002028217905092915050565b612f5382611bba565b67ffffffffffffffff811115612f6c57612f6b611e75565b5b612f7682546120c9565b612f81828285612ebd565b600060209050601f831160018114612fb45760008415612fa2578287015190505b612fac8582612f2e565b865550613014565b601f198416612fc286612da8565b60005b82811015612fea57848901518255600182019150602085019450602081019050612fc5565b868310156130075784890151613003601f891682612f10565b8355505b6001600288020188555050505b505050505050565b600081519050919050565b600081905092915050565b600061303d8261301c565b6130478185613027565b9350613057818560208601611bd6565b80840191505092915050565b600061306f8284613032565b915081905092915050565b7f416464726573733a2063616c6c20746f206e6f6e2d636f6e7472616374000000600082015250565b60006130b0601d83611bc5565b91506130bb8261307a565b602082019050919050565b600060208201905081810360008301526130df816130a3565b905091905056fe416464726573733a206c6f772d6c6576656c2064656c65676174652063616c6c206661696c6564a26469706673582212200bf45acdd41d8d3958f5f20c242cf49b79248368b19eafb074598a312132020e64736f6c63430008130033",
  "linkReferences": {},
  "deployedLinkReferences": {}
}