{
  "_format": "hh-sol-artifact-1",
  "contractName": "Require",
  "sourceName": "contracts/class04/Require.sol",
  "abi": [
    {
      "inputs": [],
      "name": "AddressZero",
      "type": "error"
    },
    {
      "inputs": [
        {
          "internalType": "uint256",
          "name": "notaIncorrecta",
          "type": "uint256"
        }
      ],
      "name": "NotaIncorrecta",
      "type": "error"
    },
    {
      "inputs": [
        {
          "internalType": "address",
          "name": "alumno",
          "type": "address"
        },
        {
          "internalType": "string",
          "name": "materia",
          "type": "string"
        },
        {
          "internalType": "uint256",
          "name": "nota",
          "type": "uint256"
        }
      ],
      "name": "guardarNotaParaAlumno",
      "outputs": [],
      "stateMutability": "nonpayable",
      "type": "function"
    },
    {
      "inputs": [
        {
          "internalType": "address",
          "name": "alumno",
          "type": "address"
        },
        {
          "internalType": "string",
          "name": "materia",
          "type": "string"
        },
        {
          "internalType": "uint256",
          "name": "nota",
          "type": "uint256"
        }
      ],
      "name": "guardarNotaParaAlumnoRevert",
      "outputs": [],
      "stateMutability": "nonpayable",
      "type": "function"
    },
    {
      "inputs": [
        {
          "internalType": "address",
          "name": "alumno",
          "type": "address"
        },
        {
          "internalType": "string",
          "name": "materia",
          "type": "string"
        }
      ],
      "name": "notasPorAlumno",
      "outputs": [
        {
          "internalType": "uint256",
          "name": "nota",
          "type": "uint256"
        }
      ],
      "stateMutability": "view",
      "type": "function"
    }
  ],
  "bytecode": "0x608060405234801561001057600080fd5b50610925806100206000396000f3fe608060405234801561001057600080fd5b50600436106100415760003560e01c80635faf719914610046578063685d286a146100625780637f097dce1461007e575b600080fd5b610060600480360381019061005b91906105ee565b6100ae565b005b61007c600480360381019061007791906105ee565b61025d565b005b6100986004803603810190610093919061065d565b6103c5565b6040516100a591906106c8565b60405180910390f35b60008110806100bd5750601481115b156101295760008110806100d15750601481115b156101285760008110806100e55750601481115b1561012757806040517fe671e2df00000000000000000000000000000000000000000000000000000000815260040161011e91906106c8565b60405180910390fd5b5b5b600073ffffffffffffffffffffffffffffffffffffffff168373ffffffffffffffffffffffffffffffffffffffff160361018f576040517f9fabe1c100000000000000000000000000000000000000000000000000000000815260040160405180910390fd5b806000808573ffffffffffffffffffffffffffffffffffffffff1673ffffffffffffffffffffffffffffffffffffffff168152602001908152602001600020836040516101dc9190610754565b908152602001604051809103902081905550806000808573ffffffffffffffffffffffffffffffffffffffff1673ffffffffffffffffffffffffffffffffffffffff1681526020019081526020016000208360405161023b9190610754565b908152602001604051809103902054146102585761025761076b565b5b505050565b6000811015801561026f575060148111155b6102ae576040517f08c379a00000000000000000000000000000000000000000000000000000000081526004016102a5906107f7565b60405180910390fd5b600073ffffffffffffffffffffffffffffffffffffffff168373ffffffffffffffffffffffffffffffffffffffff160361031d576040517f08c379a000000000000000000000000000000000000000000000000000000000815260040161031490610863565b60405180910390fd5b6000825111610361576040517f08c379a0000000000000000000000000000000000000000000000000000000008152600401610358906108cf565b60405180910390fd5b806000808573ffffffffffffffffffffffffffffffffffffffff1673ffffffffffffffffffffffffffffffffffffffff168152602001908152602001600020836040516103ae9190610754565b908152602001604051809103902081905550505050565b600060205281600052604060002081805160208101820180518482526020830160208501208183528095505050505050600091509150505481565b6000604051905090565b600080fd5b600080fd5b600073ffffffffffffffffffffffffffffffffffffffff82169050919050565b600061043f82610414565b9050919050565b61044f81610434565b811461045a57600080fd5b50565b60008135905061046c81610446565b92915050565b600080fd5b600080fd5b6000601f19601f8301169050919050565b7f4e487b7100000000000000000000000000000000000000000000000000000000600052604160045260246000fd5b6104c58261047c565b810181811067ffffffffffffffff821117156104e4576104e361048d565b5b80604052505050565b60006104f7610400565b905061050382826104bc565b919050565b600067ffffffffffffffff8211156105235761052261048d565b5b61052c8261047c565b9050602081019050919050565b82818337600083830152505050565b600061055b61055684610508565b6104ed565b90508281526020810184848401111561057757610576610477565b5b610582848285610539565b509392505050565b600082601f83011261059f5761059e610472565b5b81356105af848260208601610548565b91505092915050565b6000819050919050565b6105cb816105b8565b81146105d657600080fd5b50565b6000813590506105e8816105c2565b92915050565b6000806000606084860312156106075761060661040a565b5b60006106158682870161045d565b935050602084013567ffffffffffffffff8111156106365761063561040f565b5b6106428682870161058a565b9250506040610653868287016105d9565b9150509250925092565b600080604083850312156106745761067361040a565b5b60006106828582860161045d565b925050602083013567ffffffffffffffff8111156106a3576106a261040f565b5b6106af8582860161058a565b9150509250929050565b6106c2816105b8565b82525050565b60006020820190506106dd60008301846106b9565b92915050565b600081519050919050565b600081905092915050565b60005b838110156107175780820151818401526020810190506106fc565b60008484015250505050565b600061072e826106e3565b61073881856106ee565b93506107488185602086016106f9565b80840191505092915050565b60006107608284610723565b915081905092915050565b7f4e487b7100000000000000000000000000000000000000000000000000000000600052600160045260246000fd5b600082825260208201905092915050565b7f4e6f74612066756572612064652072616e676f00000000000000000000000000600082015250565b60006107e160138361079a565b91506107ec826107ab565b602082019050919050565b60006020820190508181036000830152610810816107d4565b9050919050565b7f41646472657373205a65726f0000000000000000000000000000000000000000600082015250565b600061084d600c8361079a565b915061085882610817565b602082019050919050565b6000602082019050818103600083015261087c81610840565b9050919050565b7f4d61746572696120657374612076616369610000000000000000000000000000600082015250565b60006108b960128361079a565b91506108c482610883565b602082019050919050565b600060208201905081810360008301526108e8816108ac565b905091905056fea2646970667358221220e9ec9418f6310978966be2d4184a31a8e2a0d8f0d6437ae9eeb244774ef0f00364736f6c63430008130033",
  "linkReferences": {},
  "deployedLinkReferences": {}
}