{
  "_format": "hh-sol-artifact-1",
  "contractName": "EliminarKTime",
  "sourceName": "contracts/class08/EliminarKTime.sol",
  "abi": [
    {
      "inputs": [
        {
          "internalType": "uint256",
          "name": "_el",
          "type": "uint256"
        }
      ],
      "name": "eliminarEntero",
      "outputs": [],
      "stateMutability": "nonpayable",
      "type": "function"
    },
    {
      "inputs": [
        {
          "internalType": "uint256",
          "name": "_el",
          "type": "uint256"
        }
      ],
      "name": "guardarEntero",
      "outputs": [],
      "stateMutability": "nonpayable",
      "type": "function"
    },
    {
      "inputs": [],
      "name": "leerArray",
      "outputs": [
        {
          "internalType": "uint256[]",
          "name": "",
          "type": "uint256[]"
        }
      ],
      "stateMutability": "view",
      "type": "function"
    }
  ],
  "bytecode": "0x608060405234801561001057600080fd5b506104e4806100206000396000f3fe608060405234801561001057600080fd5b50600436106100415760003560e01c80635c051aee14610046578063871cfa9314610064578063cfb0980e14610080575b600080fd5b61004e61009c565b60405161005b91906102fc565b60405180910390f35b61007e6004803603810190610079919061034f565b6100f4565b005b61009a6004803603810190610095919061034f565b610152565b005b606060008054806020026020016040519081016040528092919081815260200182805480156100ea57602002820191906000526020600020905b8154815260200190600101908083116100d6575b5050505050905090565b600081908060018154018082558091505060019003906000526020600020016000909190919091505560025460016000838152602001908152602001600020819055506002600081548092919061014a906103ab565b919050555050565b6000600160008381526020019081526020016000205490506001600083815260200190815260200160002060009055600080600160008054905061019691906103f3565b815481106101a7576101a6610427565b5b9060005260206000200154905080600083815481106101c9576101c8610427565b5b906000526020600020018190555060008054806101e9576101e8610456565b5b600190038181906000526020600020016000905590558160016000838152602001908152602001600020819055506002600081548092919061022a90610485565b9190505550505050565b600081519050919050565b600082825260208201905092915050565b6000819050602082019050919050565b6000819050919050565b61027381610260565b82525050565b6000610285838361026a565b60208301905092915050565b6000602082019050919050565b60006102a982610234565b6102b3818561023f565b93506102be83610250565b8060005b838110156102ef5781516102d68882610279565b97506102e183610291565b9250506001810190506102c2565b5085935050505092915050565b60006020820190508181036000830152610316818461029e565b905092915050565b600080fd5b61032c81610260565b811461033757600080fd5b50565b60008135905061034981610323565b92915050565b6000602082840312156103655761036461031e565b5b60006103738482850161033a565b91505092915050565b7f4e487b7100000000000000000000000000000000000000000000000000000000600052601160045260246000fd5b60006103b682610260565b91507fffffffffffffffffffffffffffffffffffffffffffffffffffffffffffffffff82036103e8576103e761037c565b5b600182019050919050565b60006103fe82610260565b915061040983610260565b92508282039050818111156104215761042061037c565b5b92915050565b7f4e487b7100000000000000000000000000000000000000000000000000000000600052603260045260246000fd5b7f4e487b7100000000000000000000000000000000000000000000000000000000600052603160045260246000fd5b600061049082610260565b9150600082036104a3576104a261037c565b5b60018203905091905056fea264697066735822122077c46dd444927cdf653cc161ba81bb38e721db393d8f073757afd0feeb24166164736f6c63430008130033",
  "linkReferences": {},
  "deployedLinkReferences": {}
}