{
  "_format": "hh-sol-artifact-1",
  "contractName": "EliminarLinearTime",
  "sourceName": "contracts/class08/EliminarKTime.sol",
  "abi": [
    {
      "inputs": [],
      "stateMutability": "nonpayable",
      "type": "constructor"
    },
    {
      "inputs": [
        {
          "internalType": "uint256",
          "name": "_el",
          "type": "uint256"
        }
      ],
      "name": "eliminarLinear",
      "outputs": [],
      "stateMutability": "nonpayable",
      "type": "function"
    },
    {
      "inputs": [
        {
          "internalType": "uint256",
          "name": "_el",
          "type": "uint256"
        }
      ],
      "name": "eliminarLinear2",
      "outputs": [],
      "stateMutability": "nonpayable",
      "type": "function"
    },
    {
      "inputs": [],
      "name": "leerArray",
      "outputs": [
        {
          "internalType": "uint256[]",
          "name": "",
          "type": "uint256[]"
        }
      ],
      "stateMutability": "view",
      "type": "function"
    }
  ],
  "bytecode": "0x608060405234801561001057600080fd5b506000600690806001815401808255809150506001900390600052602060002001600090919091909150556000600790806001815401808255809150506001900390600052602060002001600090919091909150556000600990806001815401808255809150506001900390600052602060002001600090919091909150556000600890806001815401808255809150506001900390600052602060002001600090919091909150556000600a908060018154018082558091505060019003906000526020600020016000909190919091505560006005908060018154018082558091505060019003906000526020600020016000909190919091505560006002908060018154018082558091505060019003906000526020600020016000909190919091505560006003908060018154018082558091505060019003906000526020600020016000909190919091505560006001908060018154018082558091505060019003906000526020600020016000909190919091505560006004908060018154018082558091505060019003906000526020600020016000909190919091505561055f806101c46000396000f3fe608060405234801561001057600080fd5b50600436106100415760003560e01c8063475868de146100465780635c051aee146100625780638340a55a14610080575b600080fd5b610060600480360381019061005b91906102df565b61009c565b005b61006a610185565b60405161007791906103ca565b60405180910390f35b61009a600480360381019061009591906102df565b6101dd565b005b60005b6000805490508110156100e55781600082815481106100c1576100c06103ec565b5b906000526020600020015403156100e55780806100dd9061044a565b91505061009f565b60006001826100f49190610492565b90505b6000805490508110156101585760008181548110610118576101176103ec565b5b906000526020600020015460008381548110610137576101366103ec565b5b906000526020600020018190555080806101509061044a565b9150506100f7565b50600080548061016b5761016a6104c6565b5b600190038181906000526020600020016000905590555050565b606060008054806020026020016040519081016040528092919081815260200182805480156101d357602002820191906000526020600020905b8154815260200190600101908083116101bf575b5050505050905090565b60005b600080549050811015610226578160008281548110610202576102016103ec565b5b9060005260206000200154031561022657808061021e9061044a565b9150506101e0565b6000600160008054905061023a91906104f5565b8154811061024b5761024a6103ec565b5b90600052602060002001546000828154811061026a576102696103ec565b5b9060005260206000200181905550600080548061028a576102896104c6565b5b600190038181906000526020600020016000905590555050565b600080fd5b6000819050919050565b6102bc816102a9565b81146102c757600080fd5b50565b6000813590506102d9816102b3565b92915050565b6000602082840312156102f5576102f46102a4565b5b6000610303848285016102ca565b91505092915050565b600081519050919050565b600082825260208201905092915050565b6000819050602082019050919050565b610341816102a9565b82525050565b60006103538383610338565b60208301905092915050565b6000602082019050919050565b60006103778261030c565b6103818185610317565b935061038c83610328565b8060005b838110156103bd5781516103a48882610347565b97506103af8361035f565b925050600181019050610390565b5085935050505092915050565b600060208201905081810360008301526103e4818461036c565b905092915050565b7f4e487b7100000000000000000000000000000000000000000000000000000000600052603260045260246000fd5b7f4e487b7100000000000000000000000000000000000000000000000000000000600052601160045260246000fd5b6000610455826102a9565b91507fffffffffffffffffffffffffffffffffffffffffffffffffffffffffffffffff82036104875761048661041b565b5b600182019050919050565b600061049d826102a9565b91506104a8836102a9565b92508282019050808211156104c0576104bf61041b565b5b92915050565b7f4e487b7100000000000000000000000000000000000000000000000000000000600052603160045260246000fd5b6000610500826102a9565b915061050b836102a9565b92508282039050818111156105235761052261041b565b5b9291505056fea2646970667358221220851010b0812f32cdbd7876b9d32b58977bf07634db866a7c5a50ff381b32cec264736f6c63430008130033",
  "linkReferences": {},
  "deployedLinkReferences": {}
}