{
  "_format": "hh-sol-artifact-1",
  "contractName": "StorageSlots",
  "sourceName": "contracts/class12/StorageSlots.sol",
  "abi": [
    {
      "inputs": [],
      "stateMutability": "nonpayable",
      "type": "constructor"
    },
    {
      "inputs": [],
      "name": "month",
      "outputs": [
        {
          "internalType": "uint256",
          "name": "",
          "type": "uint256"
        }
      ],
      "stateMutability": "view",
      "type": "function"
    },
    {
      "inputs": [
        {
          "internalType": "uint256",
          "name": "_slotInicial",
          "type": "uint256"
        },
        {
          "internalType": "uint256",
          "name": "_indexDeArray",
          "type": "uint256"
        }
      ],
      "name": "obtenerCasilleroParaArray",
      "outputs": [
        {
          "internalType": "uint256",
          "name": "",
          "type": "uint256"
        }
      ],
      "stateMutability": "pure",
      "type": "function"
    },
    {
      "inputs": [
        {
          "internalType": "uint256",
          "name": "_slotInicial",
          "type": "uint256"
        },
        {
          "internalType": "address",
          "name": "_key",
          "type": "address"
        }
      ],
      "name": "obtenerCasilleroParaMapping",
      "outputs": [
        {
          "internalType": "uint256",
          "name": "",
          "type": "uint256"
        }
      ],
      "stateMutability": "pure",
      "type": "function"
    },
    {
      "inputs": [
        {
          "internalType": "uint256",
          "name": "_posCasillero",
          "type": "uint256"
        }
      ],
      "name": "obtenerValorDeCasillero",
      "outputs": [
        {
          "internalType": "uint256",
          "name": "",
          "type": "uint256"
        }
      ],
      "stateMutability": "view",
      "type": "function"
    }
  ],
  "bytecode": "0x60806040526107e760005560018060006101000a81548160ff021916908315150217905550600c6002556040518060a00160405280600181526020016002815260200160038152602001600481526020016005815250600390600561006592919061013c565b5034801561007257600080fd5b506001600460003373ffffffffffffffffffffffffffffffffffffffff1673ffffffffffffffffffffffffffffffffffffffff16815260200190815260200160002060006101000a81548160ff021916908315150217905550600160046000730d6968f6275804a4f6593f939da09f08c49020ba73ffffffffffffffffffffffffffffffffffffffff1673ffffffffffffffffffffffffffffffffffffffff16815260200190815260200160002060006101000a81548160ff0219169083151502179055506101a6565b828054828255906000526020600020908101928215610178579160200282015b8281111561017757825182559160200191906001019061015c565b5b5090506101859190610189565b5090565b5b808211156101a257600081600090555060010161018a565b5090565b6103cb806101b56000396000f3fe608060405234801561001057600080fd5b506004361061004c5760003560e01c80635f1fb0b114610051578063702921f514610081578063946aabe41461009f578063b28ab519146100cf575b600080fd5b61006b600480360381019061006691906101c5565b6100ff565b6040516100789190610201565b60405180910390f35b61008961010f565b6040516100969190610201565b60405180910390f35b6100b960048036038101906100b4919061021c565b610115565b6040516100c69190610201565b60405180910390f35b6100e960048036038101906100e491906102ba565b610154565b6040516100f69190610201565b60405180910390f35b6000808254905080915050919050565b60025481565b600081836040516020016101299190610201565b6040516020818303038152906040528051906020012060001c61014c9190610329565b905092915050565b6000818360405160200161016992919061036c565b6040516020818303038152906040528051906020012060001c905092915050565b600080fd5b6000819050919050565b6101a28161018f565b81146101ad57600080fd5b50565b6000813590506101bf81610199565b92915050565b6000602082840312156101db576101da61018a565b5b60006101e9848285016101b0565b91505092915050565b6101fb8161018f565b82525050565b600060208201905061021660008301846101f2565b92915050565b600080604083850312156102335761023261018a565b5b6000610241858286016101b0565b9250506020610252858286016101b0565b9150509250929050565b600073ffffffffffffffffffffffffffffffffffffffff82169050919050565b60006102878261025c565b9050919050565b6102978161027c565b81146102a257600080fd5b50565b6000813590506102b48161028e565b92915050565b600080604083850312156102d1576102d061018a565b5b60006102df858286016101b0565b92505060206102f0858286016102a5565b9150509250929050565b7f4e487b7100000000000000000000000000000000000000000000000000000000600052601160045260246000fd5b60006103348261018f565b915061033f8361018f565b9250828201905080821115610357576103566102fa565b5b92915050565b6103668161027c565b82525050565b6000604082019050610381600083018561035d565b61038e60208301846101f2565b939250505056fea26469706673582212206184b1f9aad558b22c97c5cfac47e64c7b83d74796e8d62a73d9b74a92be341964736f6c63430008130033",
  "linkReferences": {},
  "deployedLinkReferences": {}
}