{
  "_format": "hh-sol-artifact-1",
  "contractName": "LMTokenUpgradeable",
  "sourceName": "contracts/class12/LMTknUpgradeable.sol",
  "abi": [
    {
      "inputs": [],
      "stateMutability": "nonpayable",
      "type": "constructor"
    },
    {
      "anonymous": false,
      "inputs": [
        {
          "indexed": false,
          "internalType": "address",
          "name": "previousAdmin",
          "type": "address"
        },
        {
          "indexed": false,
          "internalType": "address",
          "name": "newAdmin",
          "type": "address"
        }
      ],
      "name": "AdminChanged",
      "type": "event"
    },
    {
      "anonymous": false,
      "inputs": [
        {
          "indexed": true,
          "internalType": "address",
          "name": "owner",
          "type": "address"
        },
        {
          "indexed": true,
          "internalType": "address",
          "name": "spender",
          "type": "address"
        },
        {
          "indexed": false,
          "internalType": "uint256",
          "name": "value",
          "type": "uint256"
        }
      ],
      "name": "Approval",
      "type": "event"
    },
    {
      "anonymous": false,
      "inputs": [
        {
          "indexed": true,
          "internalType": "address",
          "name": "beacon",
          "type": "address"
        }
      ],
      "name": "BeaconUpgraded",
      "type": "event"
    },
    {
      "anonymous": false,
      "inputs": [
        {
          "indexed": false,
          "internalType": "uint8",
          "name": "version",
          "type": "uint8"
        }
      ],
      "name": "Initialized",
      "type": "event"
    },
    {
      "anonymous": false,
      "inputs": [
        {
          "indexed": false,
          "internalType": "address",
          "name": "account",
          "type": "address"
        }
      ],
      "name": "Paused",
      "type": "event"
    },
    {
      "anonymous": false,
      "inputs": [
        {
          "indexed": true,
          "internalType": "bytes32",
          "name": "role",
          "type": "bytes32"
        },
        {
          "indexed": true,
          "internalType": "bytes32",
          "name": "previousAdminRole",
          "type": "bytes32"
        },
        {
          "indexed": true,
          "internalType": "bytes32",
          "name": "newAdminRole",
          "type": "bytes32"
        }
      ],
      "name": "RoleAdminChanged",
      "type": "event"
    },
    {
      "anonymous": false,
      "inputs": [
        {
          "indexed": true,
          "internalType": "bytes32",
          "name": "role",
          "type": "bytes32"
        },
        {
          "indexed": true,
          "internalType": "address",
          "name": "account",
          "type": "address"
        },
        {
          "indexed": true,
          "internalType": "address",
          "name": "sender",
          "type": "address"
        }
      ],
      "name": "RoleGranted",
      "type": "event"
    },
    {
      "anonymous": false,
      "inputs": [
        {
          "indexed": true,
          "internalType": "bytes32",
          "name": "role",
          "type": "bytes32"
        },
        {
          "indexed": true,
          "internalType": "address",
          "name": "account",
          "type": "address"
        },
        {
          "indexed": true,
          "internalType": "address",
          "name": "sender",
          "type": "address"
        }
      ],
      "name": "RoleRevoked",
      "type": "event"
    },
    {
      "anonymous": false,
      "inputs": [
        {
          "indexed": true,
          "internalType": "address",
          "name": "from",
          "type": "address"
        },
        {
          "indexed": true,
          "internalType": "address",
          "name": "to",
          "type": "address"
        },
        {
          "indexed": false,
          "internalType": "uint256",
          "name": "value",
          "type": "uint256"
        }
      ],
      "name": "Transfer",
      "type": "event"
    },
    {
      "anonymous": false,
      "inputs": [
        {
          "indexed": false,
          "internalType": "address",
          "name": "account",
          "type": "address"
        }
      ],
      "name": "Unpaused",
      "type": "event"
    },
    {
      "anonymous": false,
      "inputs": [
        {
          "indexed": true,
          "internalType": "address",
          "name": "implementation",
          "type": "address"
        }
      ],
      "name": "Upgraded",
      "type": "event"
    },
    {
      "inputs": [],
      "name": "DEFAULT_ADMIN_ROLE",
      "outputs": [
        {
          "internalType": "bytes32",
          "name": "",
          "type": "bytes32"
        }
      ],
      "stateMutability": "view",
      "type": "function"
    },
    {
      "inputs": [],
      "name": "MINTER_ROLE",
      "outputs": [
        {
          "internalType": "bytes32",
          "name": "",
          "type": "bytes32"
        }
      ],
      "stateMutability": "view",
      "type": "function"
    },
    {
      "inputs": [],
      "name": "PAUSER_ROLE",
      "outputs": [
        {
          "internalType": "bytes32",
          "name": "",
          "type": "bytes32"
        }
      ],
      "stateMutability": "view",
      "type": "function"
    },
    {
      "inputs": [],
      "name": "UPGRADER_ROLE",
      "outputs": [
        {
          "internalType": "bytes32",
          "name": "",
          "type": "bytes32"
        }
      ],
      "stateMutability": "view",
      "type": "function"
    },
    {
      "inputs": [
        {
          "internalType": "address",
          "name": "owner",
          "type": "address"
        },
        {
          "internalType": "address",
          "name": "spender",
          "type": "address"
        }
      ],
      "name": "allowance",
      "outputs": [
        {
          "internalType": "uint256",
          "name": "",
          "type": "uint256"
        }
      ],
      "stateMutability": "view",
      "type": "function"
    },
    {
      "inputs": [
        {
          "internalType": "address",
          "name": "spender",
          "type": "address"
        },
        {
          "internalType": "uint256",
          "name": "amount",
          "type": "uint256"
        }
      ],
      "name": "approve",
      "outputs": [
        {
          "internalType": "bool",
          "name": "",
          "type": "bool"
        }
      ],
      "stateMutability": "nonpayable",
      "type": "function"
    },
    {
      "inputs": [
        {
          "internalType": "address",
          "name": "account",
          "type": "address"
        }
      ],
      "name": "balanceOf",
      "outputs": [
        {
          "internalType": "uint256",
          "name": "",
          "type": "uint256"
        }
      ],
      "stateMutability": "view",
      "type": "function"
    },
    {
      "inputs": [],
      "name": "decimals",
      "outputs": [
        {
          "internalType": "uint8",
          "name": "",
          "type": "uint8"
        }
      ],
      "stateMutability": "view",
      "type": "function"
    },
    {
      "inputs": [
        {
          "internalType": "address",
          "name": "spender",
          "type": "address"
        },
        {
          "internalType": "uint256",
          "name": "subtractedValue",
          "type": "uint256"
        }
      ],
      "name": "decreaseAllowance",
      "outputs": [
        {
          "internalType": "bool",
          "name": "",
          "type": "bool"
        }
      ],
      "stateMutability": "nonpayable",
      "type": "function"
    },
    {
      "inputs": [
        {
          "internalType": "bytes32",
          "name": "role",
          "type": "bytes32"
        }
      ],
      "name": "getRoleAdmin",
      "outputs": [
        {
          "internalType": "bytes32",
          "name": "",
          "type": "bytes32"
        }
      ],
      "stateMutability": "view",
      "type": "function"
    },
    {
      "inputs": [
        {
          "internalType": "bytes32",
          "name": "role",
          "type": "bytes32"
        },
        {
          "internalType": "address",
          "name": "account",
          "type": "address"
        }
      ],
      "name": "grantRole",
      "outputs": [],
      "stateMutability": "nonpayable",
      "type": "function"
    },
    {
      "inputs": [
        {
          "internalType": "bytes32",
          "name": "role",
          "type": "bytes32"
        },
        {
          "internalType": "address",
          "name": "account",
          "type": "address"
        }
      ],
      "name": "hasRole",
      "outputs": [
        {
          "internalType": "bool",
          "name": "",
          "type": "bool"
        }
      ],
      "stateMutability": "view",
      "type": "function"
    },
    {
      "inputs": [
        {
          "internalType": "address",
          "name": "spender",
          "type": "address"
        },
        {
          "internalType": "uint256",
          "name": "addedValue",
          "type": "uint256"
        }
      ],
      "name": "increaseAllowance",
      "outputs": [
        {
          "internalType": "bool",
          "name": "",
          "type": "bool"
        }
      ],
      "stateMutability": "nonpayable",
      "type": "function"
    },
    {
      "inputs": [],
      "name": "initialize",
      "outputs": [],
      "stateMutability": "nonpayable",
      "type": "function"
    },
    {
      "inputs": [
        {
          "internalType": "address",
          "name": "to",
          "type": "address"
        },
        {
          "internalType": "uint256",
          "name": "amount",
          "type": "uint256"
        }
      ],
      "name": "mint",
      "outputs": [],
      "stateMutability": "nonpayable",
      "type": "function"
    },
    {
      "inputs": [
        {
          "internalType": "uint256",
          "name": "amount",
          "type": "uint256"
        }
      ],
      "name": "mint",
      "outputs": [],
      "stateMutability": "nonpayable",
      "type": "function"
    },
    {
      "inputs": [],
      "name": "name",
      "outputs": [
        {
          "internalType": "string",
          "name": "",
          "type": "string"
        }
      ],
      "stateMutability": "view",
      "type": "function"
    },
    {
      "inputs": [],
      "name": "pause",
      "outputs": [],
      "stateMutability": "nonpayable",
      "type": "function"
    },
    {
      "inputs": [],
      "name": "paused",
      "outputs": [
        {
          "internalType": "bool",
          "name": "",
          "type": "bool"
        }
      ],
      "stateMutability": "view",
      "type": "function"
    },
    {
      "inputs": [],
      "name": "proxiableUUID",
      "outputs": [
        {
          "internalType": "bytes32",
          "name": "",
          "type": "bytes32"
        }
      ],
      "stateMutability": "view",
      "type": "function"
    },
    {
      "inputs": [
        {
          "internalType": "bytes32",
          "name": "role",
          "type": "bytes32"
        },
        {
          "internalType": "address",
          "name": "account",
          "type": "address"
        }
      ],
      "name": "renounceRole",
      "outputs": [],
      "stateMutability": "nonpayable",
      "type": "function"
    },
    {
      "inputs": [
        {
          "internalType": "bytes32",
          "name": "role",
          "type": "bytes32"
        },
        {
          "internalType": "address",
          "name": "account",
          "type": "address"
        }
      ],
      "name": "revokeRole",
      "outputs": [],
      "stateMutability": "nonpayable",
      "type": "function"
    },
    {
      "inputs": [
        {
          "internalType": "bytes4",
          "name": "interfaceId",
          "type": "bytes4"
        }
      ],
      "name": "supportsInterface",
      "outputs": [
        {
          "internalType": "bool",
          "name": "",
          "type": "bool"
        }
      ],
      "stateMutability": "view",
      "type": "function"
    },
    {
      "inputs": [],
      "name": "symbol",
      "outputs": [
        {
          "internalType": "string",
          "name": "",
          "type": "string"
        }
      ],
      "stateMutability": "view",
      "type": "function"
    },
    {
      "inputs": [],
      "name": "totalSupply",
      "outputs": [
        {
          "internalType": "uint256",
          "name": "",
          "type": "uint256"
        }
      ],
      "stateMutability": "view",
      "type": "function"
    },
    {
      "inputs": [
        {
          "internalType": "address",
          "name": "to",
          "type": "address"
        },
        {
          "internalType": "uint256",
          "name": "amount",
          "type": "uint256"
        }
      ],
      "name": "transfer",
      "outputs": [
        {
          "internalType": "bool",
          "name": "",
          "type": "bool"
        }
      ],
      "stateMutability": "nonpayable",
      "type": "function"
    },
    {
      "inputs": [
        {
          "internalType": "address",
          "name": "from",
          "type": "address"
        },
        {
          "internalType": "address",
          "name": "to",
          "type": "address"
        },
        {
          "internalType": "uint256",
          "name": "amount",
          "type": "uint256"
        }
      ],
      "name": "transferFrom",
      "outputs": [
        {
          "internalType": "bool",
          "name": "",
          "type": "bool"
        }
      ],
      "stateMutability": "nonpayable",
      "type": "function"
    },
    {
      "inputs": [],
      "name": "unpause",
      "outputs": [],
      "stateMutability": "nonpayable",
      "type": "function"
    },
    {
      "inputs": [
        {
          "internalType": "address",
          "name": "newImplementation",
          "type": "address"
        }
      ],
      "name": "upgradeTo",
      "outputs": [],
      "stateMutability": "nonpayable",
      "type": "function"
    },
    {
      "inputs": [
        {
          "internalType": "address",
          "name": "newImplementation",
          "type": "address"
        },
        {
          "internalType": "bytes",
          "name": "data",
          "type": "bytes"
        }
      ],
      "name": "upgradeToAndCall",
      "outputs": [],
      "stateMutability": "payable",
      "type": "function"
    },
    {
      "inputs": [],
      "name": "version",
      "outputs": [
        {
          "internalType": "uint256",
          "name": "",
          "type": "uint256"
        }
      ],
      "stateMutability": "pure",
      "type": "function"
    }
  ],
  "bytecode": "0x60a06040523073ffffffffffffffffffffffffffffffffffffffff1660809073ffffffffffffffffffffffffffffffffffffffff168152503480156200004457600080fd5b50620000556200005b60201b60201c565b62000205565b600060019054906101000a900460ff1615620000ae576040517f08c379a0000000000000000000000000000000000000000000000000000000008152600401620000a590620001a8565b60405180910390fd5b60ff801660008054906101000a900460ff1660ff16146200011f5760ff6000806101000a81548160ff021916908360ff1602179055507f7f26b83ff96e1f2b6a682f133852f6798a09c465da95921460cefb384740249860ff604051620001169190620001e8565b60405180910390a15b565b600082825260208201905092915050565b7f496e697469616c697a61626c653a20636f6e747261637420697320696e69746960008201527f616c697a696e6700000000000000000000000000000000000000000000000000602082015250565b60006200019060278362000121565b91506200019d8262000132565b604082019050919050565b60006020820190508181036000830152620001c38162000181565b9050919050565b600060ff82169050919050565b620001e281620001ca565b82525050565b6000602082019050620001ff6000830184620001d7565b92915050565b608051613ed16200023d600039600081816109a601528181610a3401528181610bd301528181610c610152610d110152613ed16000f3fe6080604052600436106101d85760003560e01c806354fd4d5011610102578063a217fddf11610095578063d547741f11610064578063d547741f146106b3578063dd62ed3e146106dc578063e63ab1e914610719578063f72c0d8b14610744576101d8565b8063a217fddf146105e3578063a457c2d71461060e578063a9059cbb1461064b578063d539139314610688576101d8565b80638456cb59116100d15780638456cb591461053b57806391d148541461055257806395d89b411461058f578063a0712d68146105ba576101d8565b806354fd4d50146104915780635c975abb146104bc57806370a08231146104e75780638129fc1c14610524576101d8565b8063313ce5671161017a5780633f4ba83a116101495780633f4ba83a1461040a57806340c10f19146104215780634f1ef2861461044a57806352d1902d14610466576101d8565b8063313ce5671461035057806336568abe1461037b5780633659cfe6146103a457806339509351146103cd576101d8565b806318160ddd116101b657806318160ddd1461028257806323b872dd146102ad578063248a9ca3146102ea5780632f2ff15d14610327576101d8565b806301ffc9a7146101dd57806306fdde031461021a578063095ea7b314610245575b600080fd5b3480156101e957600080fd5b5061020460048036038101906101ff91906127c0565b61076f565b6040516102119190612808565b60405180910390f35b34801561022657600080fd5b5061022f6107e9565b60405161023c91906128b3565b60405180910390f35b34801561025157600080fd5b5061026c60048036038101906102679190612969565b61087b565b6040516102799190612808565b60405180910390f35b34801561028e57600080fd5b5061029761089e565b6040516102a491906129b8565b60405180910390f35b3480156102b957600080fd5b506102d460048036038101906102cf91906129d3565b6108a8565b6040516102e19190612808565b60405180910390f35b3480156102f657600080fd5b50610311600480360381019061030c9190612a5c565b6108d7565b60405161031e9190612a98565b60405180910390f35b34801561033357600080fd5b5061034e60048036038101906103499190612ab3565b6108f7565b005b34801561035c57600080fd5b50610365610918565b6040516103729190612b0f565b60405180910390f35b34801561038757600080fd5b506103a2600480360381019061039d9190612ab3565b610921565b005b3480156103b057600080fd5b506103cb60048036038101906103c69190612b2a565b6109a4565b005b3480156103d957600080fd5b506103f460048036038101906103ef9190612969565b610b2c565b6040516104019190612808565b60405180910390f35b34801561041657600080fd5b5061041f610b63565b005b34801561042d57600080fd5b5061044860048036038101906104439190612969565b610b98565b005b610464600480360381019061045f9190612c8c565b610bd1565b005b34801561047257600080fd5b5061047b610d0d565b6040516104889190612a98565b60405180910390f35b34801561049d57600080fd5b506104a6610dc6565b6040516104b391906129b8565b60405180910390f35b3480156104c857600080fd5b506104d1610dcf565b6040516104de9190612808565b60405180910390f35b3480156104f357600080fd5b5061050e60048036038101906105099190612b2a565b610de6565b60405161051b91906129b8565b60405180910390f35b34801561053057600080fd5b50610539610e2f565b005b34801561054757600080fd5b5061055061107c565b005b34801561055e57600080fd5b5061057960048036038101906105749190612ab3565b6110b1565b6040516105869190612808565b60405180910390f35b34801561059b57600080fd5b506105a461111c565b6040516105b191906128b3565b60405180910390f35b3480156105c657600080fd5b506105e160048036038101906105dc9190612ce8565b6111ae565b005b3480156105ef57600080fd5b506105f86111bb565b6040516106059190612a98565b60405180910390f35b34801561061a57600080fd5b5061063560048036038101906106309190612969565b6111c2565b6040516106429190612808565b60405180910390f35b34801561065757600080fd5b50610672600480360381019061066d9190612969565b611239565b60405161067f9190612808565b60405180910390f35b34801561069457600080fd5b5061069d61125c565b6040516106aa9190612a98565b60405180910390f35b3480156106bf57600080fd5b506106da60048036038101906106d59190612ab3565b611280565b005b3480156106e857600080fd5b5061070360048036038101906106fe9190612d15565b6112a1565b60405161071091906129b8565b60405180910390f35b34801561072557600080fd5b5061072e611328565b60405161073b9190612a98565b60405180910390f35b34801561075057600080fd5b5061075961134c565b6040516107669190612a98565b60405180910390f35b60007f7965db0b000000000000000000000000000000000000000000000000000000007bffffffffffffffffffffffffffffffffffffffffffffffffffffffff1916827bffffffffffffffffffffffffffffffffffffffffffffffffffffffff191614806107e257506107e182611370565b5b9050919050565b6060603680546107f890612d84565b80601f016020809104026020016040519081016040528092919081815260200182805461082490612d84565b80156108715780601f1061084657610100808354040283529160200191610871565b820191906000526020600020905b81548152906001019060200180831161085457829003601f168201915b5050505050905090565b6000806108866113da565b90506108938185856113e2565b600191505092915050565b6000603554905090565b6000806108b36113da565b90506108c08582856115ab565b6108cb858585611637565b60019150509392505050565b600060c96000838152602001908152602001600020600101549050919050565b610900826108d7565b610909816118b0565b61091383836118c4565b505050565b60006012905090565b6109296113da565b73ffffffffffffffffffffffffffffffffffffffff168173ffffffffffffffffffffffffffffffffffffffff1614610996576040517f08c379a000000000000000000000000000000000000000000000000000000000815260040161098d90612e27565b60405180910390fd5b6109a082826119a5565b5050565b7f000000000000000000000000000000000000000000000000000000000000000073ffffffffffffffffffffffffffffffffffffffff163073ffffffffffffffffffffffffffffffffffffffff1603610a32576040517f08c379a0000000000000000000000000000000000000000000000000000000008152600401610a2990612eb9565b60405180910390fd5b7f000000000000000000000000000000000000000000000000000000000000000073ffffffffffffffffffffffffffffffffffffffff16610a71611a87565b73ffffffffffffffffffffffffffffffffffffffff1614610ac7576040517f08c379a0000000000000000000000000000000000000000000000000000000008152600401610abe90612f4b565b60405180910390fd5b610ad081611ade565b610b2981600067ffffffffffffffff811115610aef57610aee612b61565b5b6040519080825280601f01601f191660200182016040528015610b215781602001600182028036833780820191505090505b506000611b0c565b50565b600080610b376113da565b9050610b58818585610b4985896112a1565b610b539190612f9a565b6113e2565b600191505092915050565b7f65d7a28e3265b37a6474929f336521b332c1681b933f6cb9f3376673440d862a610b8d816118b0565b610b95611c7a565b50565b7f9f2df0fed2c77648de5860a4cc508cd0818c85b8b8a1ab4ceeef8d981c8956a6610bc2816118b0565b610bcc8383611cdd565b505050565b7f000000000000000000000000000000000000000000000000000000000000000073ffffffffffffffffffffffffffffffffffffffff163073ffffffffffffffffffffffffffffffffffffffff1603610c5f576040517f08c379a0000000000000000000000000000000000000000000000000000000008152600401610c5690612eb9565b60405180910390fd5b7f000000000000000000000000000000000000000000000000000000000000000073ffffffffffffffffffffffffffffffffffffffff16610c9e611a87565b73ffffffffffffffffffffffffffffffffffffffff1614610cf4576040517f08c379a0000000000000000000000000000000000000000000000000000000008152600401610ceb90612f4b565b60405180910390fd5b610cfd82611ade565b610d0982826001611b0c565b5050565b60007f000000000000000000000000000000000000000000000000000000000000000073ffffffffffffffffffffffffffffffffffffffff163073ffffffffffffffffffffffffffffffffffffffff1614610d9d576040517f08c379a0000000000000000000000000000000000000000000000000000000008152600401610d9490613040565b60405180910390fd5b7f360894a13ba1a3210667c828492db98dca3e2076cc3735a920a3ca505d382bbc60001b905090565b60006002905090565b6000606560009054906101000a900460ff16905090565b6000603360008373ffffffffffffffffffffffffffffffffffffffff1673ffffffffffffffffffffffffffffffffffffffff168152602001908152602001600020549050919050565b60008060019054906101000a900460ff16159050808015610e605750600160008054906101000a900460ff1660ff16105b80610e8d5750610e6f30611e34565b158015610e8c5750600160008054906101000a900460ff1660ff16145b5b610ecc576040517f08c379a0000000000000000000000000000000000000000000000000000000008152600401610ec3906130d2565b60405180910390fd5b60016000806101000a81548160ff021916908360ff1602179055508015610f09576001600060016101000a81548160ff0219169083151502179055505b610f7d6040518060400160405280601481526020017f4c4d20546f6b656e205570677261646561626c650000000000000000000000008152506040518060400160405280600c81526020017f4c4d544b4e5550475244424c0000000000000000000000000000000000000000815250611e57565b610f85611eb4565b610f8d611f0d565b610f95611f5e565b610fa26000801b336118c4565b610fcc7f65d7a28e3265b37a6474929f336521b332c1681b933f6cb9f3376673440d862a336118c4565b610ff67f9f2df0fed2c77648de5860a4cc508cd0818c85b8b8a1ab4ceeef8d981c8956a6336118c4565b6110207f189ab7a9244df0848122154315af71fe140f3db0fe014031783b0946b8c9d2e3336118c4565b80156110795760008060016101000a81548160ff0219169083151502179055507f7f26b83ff96e1f2b6a682f133852f6798a09c465da95921460cefb384740249860016040516110709190613137565b60405180910390a15b50565b7f65d7a28e3265b37a6474929f336521b332c1681b933f6cb9f3376673440d862a6110a6816118b0565b6110ae611faf565b50565b600060c9600084815260200190815260200160002060000160008373ffffffffffffffffffffffffffffffffffffffff1673ffffffffffffffffffffffffffffffffffffffff16815260200190815260200160002060009054906101000a900460ff16905092915050565b60606037805461112b90612d84565b80601f016020809104026020016040519081016040528092919081815260200182805461115790612d84565b80156111a45780601f10611179576101008083540402835291602001916111a4565b820191906000526020600020905b81548152906001019060200180831161118757829003601f168201915b5050505050905090565b6111b83382611cdd565b50565b6000801b81565b6000806111cd6113da565b905060006111db82866112a1565b905083811015611220576040517f08c379a0000000000000000000000000000000000000000000000000000000008152600401611217906131c4565b60405180910390fd5b61122d82868684036113e2565b60019250505092915050565b6000806112446113da565b9050611251818585611637565b600191505092915050565b7f9f2df0fed2c77648de5860a4cc508cd0818c85b8b8a1ab4ceeef8d981c8956a681565b611289826108d7565b611292816118b0565b61129c83836119a5565b505050565b6000603460008473ffffffffffffffffffffffffffffffffffffffff1673ffffffffffffffffffffffffffffffffffffffff16815260200190815260200160002060008373ffffffffffffffffffffffffffffffffffffffff1673ffffffffffffffffffffffffffffffffffffffff16815260200190815260200160002054905092915050565b7f65d7a28e3265b37a6474929f336521b332c1681b933f6cb9f3376673440d862a81565b7f189ab7a9244df0848122154315af71fe140f3db0fe014031783b0946b8c9d2e381565b60007f01ffc9a7000000000000000000000000000000000000000000000000000000007bffffffffffffffffffffffffffffffffffffffffffffffffffffffff1916827bffffffffffffffffffffffffffffffffffffffffffffffffffffffff1916149050919050565b600033905090565b600073ffffffffffffffffffffffffffffffffffffffff168373ffffffffffffffffffffffffffffffffffffffff1603611451576040517f08c379a000000000000000000000000000000000000000000000000000000000815260040161144890613256565b60405180910390fd5b600073ffffffffffffffffffffffffffffffffffffffff168273ffffffffffffffffffffffffffffffffffffffff16036114c0576040517f08c379a00000000000000000000000000000000000000000000000000000000081526004016114b7906132e8565b60405180910390fd5b80603460008573ffffffffffffffffffffffffffffffffffffffff1673ffffffffffffffffffffffffffffffffffffffff16815260200190815260200160002060008473ffffffffffffffffffffffffffffffffffffffff1673ffffffffffffffffffffffffffffffffffffffff168152602001908152602001600020819055508173ffffffffffffffffffffffffffffffffffffffff168373ffffffffffffffffffffffffffffffffffffffff167f8c5be1e5ebec7d5bd14f71427d1e84f3dd0314c0f7b2291e5b200ac8c7c3b9258360405161159e91906129b8565b60405180910390a3505050565b60006115b784846112a1565b90507fffffffffffffffffffffffffffffffffffffffffffffffffffffffffffffffff81146116315781811015611623576040517f08c379a000000000000000000000000000000000000000000000000000000000815260040161161a90613354565b60405180910390fd5b61163084848484036113e2565b5b50505050565b600073ffffffffffffffffffffffffffffffffffffffff168373ffffffffffffffffffffffffffffffffffffffff16036116a6576040517f08c379a000000000000000000000000000000000000000000000000000000000815260040161169d906133e6565b60405180910390fd5b600073ffffffffffffffffffffffffffffffffffffffff168273ffffffffffffffffffffffffffffffffffffffff1603611715576040517f08c379a000000000000000000000000000000000000000000000000000000000815260040161170c90613478565b60405180910390fd5b611720838383612012565b6000603360008573ffffffffffffffffffffffffffffffffffffffff1673ffffffffffffffffffffffffffffffffffffffff168152602001908152602001600020549050818110156117a7576040517f08c379a000000000000000000000000000000000000000000000000000000000815260040161179e9061350a565b60405180910390fd5b818103603360008673ffffffffffffffffffffffffffffffffffffffff1673ffffffffffffffffffffffffffffffffffffffff1681526020019081526020016000208190555081603360008573ffffffffffffffffffffffffffffffffffffffff1673ffffffffffffffffffffffffffffffffffffffff168152602001908152602001600020600082825401925050819055508273ffffffffffffffffffffffffffffffffffffffff168473ffffffffffffffffffffffffffffffffffffffff167fddf252ad1be2c89b69c2b068fc378daa952ba7f163c4a11628f55a4df523b3ef8460405161189791906129b8565b60405180910390a36118aa84848461202a565b50505050565b6118c1816118bc6113da565b61202f565b50565b6118ce82826110b1565b6119a157600160c9600084815260200190815260200160002060000160008373ffffffffffffffffffffffffffffffffffffffff1673ffffffffffffffffffffffffffffffffffffffff16815260200190815260200160002060006101000a81548160ff0219169083151502179055506119466113da565b73ffffffffffffffffffffffffffffffffffffffff168173ffffffffffffffffffffffffffffffffffffffff16837f2f8788117e7eff1d82e926ec794901d17c78024a50270940304540a733656f0d60405160405180910390a45b5050565b6119af82826110b1565b15611a8357600060c9600084815260200190815260200160002060000160008373ffffffffffffffffffffffffffffffffffffffff1673ffffffffffffffffffffffffffffffffffffffff16815260200190815260200160002060006101000a81548160ff021916908315150217905550611a286113da565b73ffffffffffffffffffffffffffffffffffffffff168173ffffffffffffffffffffffffffffffffffffffff16837ff6391f5c32d9c69d2a47ea670b442974b53935d1edc7fd64eb21e047a839171b60405160405180910390a45b5050565b6000611ab57f360894a13ba1a3210667c828492db98dca3e2076cc3735a920a3ca505d382bbc60001b6120b4565b60000160009054906101000a900473ffffffffffffffffffffffffffffffffffffffff16905090565b7f189ab7a9244df0848122154315af71fe140f3db0fe014031783b0946b8c9d2e3611b08816118b0565b5050565b611b387f4910fdfa16fed3260ed0e7147f7cc6da11a60208b5b9406d12a635614ffd914360001b6120be565b60000160009054906101000a900460ff1615611b5c57611b57836120c8565b611c75565b8273ffffffffffffffffffffffffffffffffffffffff166352d1902d6040518163ffffffff1660e01b8152600401602060405180830381865afa925050508015611bc457506040513d601f19601f82011682018060405250810190611bc1919061353f565b60015b611c03576040517f08c379a0000000000000000000000000000000000000000000000000000000008152600401611bfa906135de565b60405180910390fd5b7f360894a13ba1a3210667c828492db98dca3e2076cc3735a920a3ca505d382bbc60001b8114611c68576040517f08c379a0000000000000000000000000000000000000000000000000000000008152600401611c5f90613670565b60405180910390fd5b50611c74838383612181565b5b505050565b611c826121ad565b6000606560006101000a81548160ff0219169083151502179055507f5db9ee0a495bf2e6ff9c91a7834c1ba4fdd244a5e8aa4e537bd38aeae4b073aa611cc66113da565b604051611cd3919061369f565b60405180910390a1565b600073ffffffffffffffffffffffffffffffffffffffff168273ffffffffffffffffffffffffffffffffffffffff1603611d4c576040517f08c379a0000000000000000000000000000000000000000000000000000000008152600401611d4390613706565b60405180910390fd5b611d5860008383612012565b8060356000828254611d6a9190612f9a565b9250508190555080603360008473ffffffffffffffffffffffffffffffffffffffff1673ffffffffffffffffffffffffffffffffffffffff168152602001908152602001600020600082825401925050819055508173ffffffffffffffffffffffffffffffffffffffff16600073ffffffffffffffffffffffffffffffffffffffff167fddf252ad1be2c89b69c2b068fc378daa952ba7f163c4a11628f55a4df523b3ef83604051611e1c91906129b8565b60405180910390a3611e306000838361202a565b5050565b6000808273ffffffffffffffffffffffffffffffffffffffff163b119050919050565b600060019054906101000a900460ff16611ea6576040517f08c379a0000000000000000000000000000000000000000000000000000000008152600401611e9d90613798565b60405180910390fd5b611eb082826121f6565b5050565b600060019054906101000a900460ff16611f03576040517f08c379a0000000000000000000000000000000000000000000000000000000008152600401611efa90613798565b60405180910390fd5b611f0b612269565b565b600060019054906101000a900460ff16611f5c576040517f08c379a0000000000000000000000000000000000000000000000000000000008152600401611f5390613798565b60405180910390fd5b565b600060019054906101000a900460ff16611fad576040517f08c379a0000000000000000000000000000000000000000000000000000000008152600401611fa490613798565b60405180910390fd5b565b611fb76122d5565b6001606560006101000a81548160ff0219169083151502179055507f62e78cea01bee320cd4e420270b5ea74000d11b0c9f74754ebdbfc544b05a258611ffb6113da565b604051612008919061369f565b60405180910390a1565b61201a6122d5565b61202583838361231f565b505050565b505050565b61203982826110b1565b6120b05761204681612324565b6120548360001c6020612351565b60405160200161206592919061388c565b6040516020818303038152906040526040517f08c379a00000000000000000000000000000000000000000000000000000000081526004016120a791906128b3565b60405180910390fd5b5050565b6000819050919050565b6000819050919050565b6120d181611e34565b612110576040517f08c379a000000000000000000000000000000000000000000000000000000000815260040161210790613938565b60405180910390fd5b8061213d7f360894a13ba1a3210667c828492db98dca3e2076cc3735a920a3ca505d382bbc60001b6120b4565b60000160006101000a81548173ffffffffffffffffffffffffffffffffffffffff021916908373ffffffffffffffffffffffffffffffffffffffff16021790555050565b61218a8361258d565b6000825111806121975750805b156121a8576121a683836125dc565b505b505050565b6121b5610dcf565b6121f4576040517f08c379a00000000000000000000000000000000000000000000000000000000081526004016121eb906139a4565b60405180910390fd5b565b600060019054906101000a900460ff16612245576040517f08c379a000000000000000000000000000000000000000000000000000000000815260040161223c90613798565b60405180910390fd5b81603690816122549190613b66565b5080603790816122649190613b66565b505050565b600060019054906101000a900460ff166122b8576040517f08c379a00000000000000000000000000000000000000000000000000000000081526004016122af90613798565b60405180910390fd5b6000606560006101000a81548160ff021916908315150217905550565b6122dd610dcf565b1561231d576040517f08c379a000000000000000000000000000000000000000000000000000000000815260040161231490613c84565b60405180910390fd5b565b505050565b606061234a8273ffffffffffffffffffffffffffffffffffffffff16601460ff16612351565b9050919050565b6060600060028360026123649190613ca4565b61236e9190612f9a565b67ffffffffffffffff81111561238757612386612b61565b5b6040519080825280601f01601f1916602001820160405280156123b95781602001600182028036833780820191505090505b5090507f3000000000000000000000000000000000000000000000000000000000000000816000815181106123f1576123f0613ce6565b5b60200101907effffffffffffffffffffffffffffffffffffffffffffffffffffffffffffff1916908160001a9053507f78000000000000000000000000000000000000000000000000000000000000008160018151811061245557612454613ce6565b5b60200101907effffffffffffffffffffffffffffffffffffffffffffffffffffffffffffff1916908160001a905350600060018460026124959190613ca4565b61249f9190612f9a565b90505b600181111561253f577f3031323334353637383961626364656600000000000000000000000000000000600f8616601081106124e1576124e0613ce6565b5b1a60f81b8282815181106124f8576124f7613ce6565b5b60200101907effffffffffffffffffffffffffffffffffffffffffffffffffffffffffffff1916908160001a905350600485901c94508061253890613d15565b90506124a2565b5060008414612583576040517f08c379a000000000000000000000000000000000000000000000000000000000815260040161257a90613d8a565b60405180910390fd5b8091505092915050565b612596816120c8565b8073ffffffffffffffffffffffffffffffffffffffff167fbc7cd75a20ee27fd9adebab32041f755214dbc6bffa90cc0225b39da2e5c2d3b60405160405180910390a250565b60606126018383604051806060016040528060278152602001613e7560279139612609565b905092915050565b60606000808573ffffffffffffffffffffffffffffffffffffffff16856040516126339190613df1565b600060405180830381855af49150503d806000811461266e576040519150601f19603f3d011682016040523d82523d6000602084013e612673565b606091505b50915091506126848683838761268f565b925050509392505050565b606083156126f15760008351036126e9576126a985611e34565b6126e8576040517f08c379a00000000000000000000000000000000000000000000000000000000081526004016126df90613e54565b60405180910390fd5b5b8290506126fc565b6126fb8383612704565b5b949350505050565b6000825111156127175781518083602001fd5b806040517f08c379a000000000000000000000000000000000000000000000000000000000815260040161274b91906128b3565b60405180910390fd5b6000604051905090565b600080fd5b600080fd5b60007fffffffff0000000000000000000000000000000000000000000000000000000082169050919050565b61279d81612768565b81146127a857600080fd5b50565b6000813590506127ba81612794565b92915050565b6000602082840312156127d6576127d561275e565b5b60006127e4848285016127ab565b91505092915050565b60008115159050919050565b612802816127ed565b82525050565b600060208201905061281d60008301846127f9565b92915050565b600081519050919050565b600082825260208201905092915050565b60005b8381101561285d578082015181840152602081019050612842565b60008484015250505050565b6000601f19601f8301169050919050565b600061288582612823565b61288f818561282e565b935061289f81856020860161283f565b6128a881612869565b840191505092915050565b600060208201905081810360008301526128cd818461287a565b905092915050565b600073ffffffffffffffffffffffffffffffffffffffff82169050919050565b6000612900826128d5565b9050919050565b612910816128f5565b811461291b57600080fd5b50565b60008135905061292d81612907565b92915050565b6000819050919050565b61294681612933565b811461295157600080fd5b50565b6000813590506129638161293d565b92915050565b600080604083850312156129805761297f61275e565b5b600061298e8582860161291e565b925050602061299f85828601612954565b9150509250929050565b6129b281612933565b82525050565b60006020820190506129cd60008301846129a9565b92915050565b6000806000606084860312156129ec576129eb61275e565b5b60006129fa8682870161291e565b9350506020612a0b8682870161291e565b9250506040612a1c86828701612954565b9150509250925092565b6000819050919050565b612a3981612a26565b8114612a4457600080fd5b50565b600081359050612a5681612a30565b92915050565b600060208284031215612a7257612a7161275e565b5b6000612a8084828501612a47565b91505092915050565b612a9281612a26565b82525050565b6000602082019050612aad6000830184612a89565b92915050565b60008060408385031215612aca57612ac961275e565b5b6000612ad885828601612a47565b9250506020612ae98582860161291e565b9150509250929050565b600060ff82169050919050565b612b0981612af3565b82525050565b6000602082019050612b246000830184612b00565b92915050565b600060208284031215612b4057612b3f61275e565b5b6000612b4e8482850161291e565b91505092915050565b600080fd5b600080fd5b7f4e487b7100000000000000000000000000000000000000000000000000000000600052604160045260246000fd5b612b9982612869565b810181811067ffffffffffffffff82111715612bb857612bb7612b61565b5b80604052505050565b6000612bcb612754565b9050612bd78282612b90565b919050565b600067ffffffffffffffff821115612bf757612bf6612b61565b5b612c0082612869565b9050602081019050919050565b82818337600083830152505050565b6000612c2f612c2a84612bdc565b612bc1565b905082815260208101848484011115612c4b57612c4a612b5c565b5b612c56848285612c0d565b509392505050565b600082601f830112612c7357612c72612b57565b5b8135612c83848260208601612c1c565b91505092915050565b60008060408385031215612ca357612ca261275e565b5b6000612cb18582860161291e565b925050602083013567ffffffffffffffff811115612cd257612cd1612763565b5b612cde85828601612c5e565b9150509250929050565b600060208284031215612cfe57612cfd61275e565b5b6000612d0c84828501612954565b91505092915050565b60008060408385031215612d2c57612d2b61275e565b5b6000612d3a8582860161291e565b9250506020612d4b8582860161291e565b9150509250929050565b7f4e487b7100000000000000000000000000000000000000000000000000000000600052602260045260246000fd5b60006002820490506001821680612d9c57607f821691505b602082108103612daf57612dae612d55565b5b50919050565b7f416363657373436f6e74726f6c3a2063616e206f6e6c792072656e6f756e636560008201527f20726f6c657320666f722073656c660000000000000000000000000000000000602082015250565b6000612e11602f8361282e565b9150612e1c82612db5565b604082019050919050565b60006020820190508181036000830152612e4081612e04565b9050919050565b7f46756e6374696f6e206d7573742062652063616c6c6564207468726f7567682060008201527f64656c656761746563616c6c0000000000000000000000000000000000000000602082015250565b6000612ea3602c8361282e565b9150612eae82612e47565b604082019050919050565b60006020820190508181036000830152612ed281612e96565b9050919050565b7f46756e6374696f6e206d7573742062652063616c6c6564207468726f7567682060008201527f6163746976652070726f78790000000000000000000000000000000000000000602082015250565b6000612f35602c8361282e565b9150612f4082612ed9565b604082019050919050565b60006020820190508181036000830152612f6481612f28565b9050919050565b7f4e487b7100000000000000000000000000000000000000000000000000000000600052601160045260246000fd5b6000612fa582612933565b9150612fb083612933565b9250828201905080821115612fc857612fc7612f6b565b5b92915050565b7f555550535570677261646561626c653a206d757374206e6f742062652063616c60008201527f6c6564207468726f7567682064656c656761746563616c6c0000000000000000602082015250565b600061302a60388361282e565b915061303582612fce565b604082019050919050565b600060208201905081810360008301526130598161301d565b9050919050565b7f496e697469616c697a61626c653a20636f6e747261637420697320616c72656160008201527f647920696e697469616c697a6564000000000000000000000000000000000000602082015250565b60006130bc602e8361282e565b91506130c782613060565b604082019050919050565b600060208201905081810360008301526130eb816130af565b9050919050565b6000819050919050565b6000819050919050565b600061312161311c613117846130f2565b6130fc565b612af3565b9050919050565b61313181613106565b82525050565b600060208201905061314c6000830184613128565b92915050565b7f45524332303a2064656372656173656420616c6c6f77616e63652062656c6f7760008201527f207a65726f000000000000000000000000000000000000000000000000000000602082015250565b60006131ae60258361282e565b91506131b982613152565b604082019050919050565b600060208201905081810360008301526131dd816131a1565b9050919050565b7f45524332303a20617070726f76652066726f6d20746865207a65726f2061646460008201527f7265737300000000000000000000000000000000000000000000000000000000602082015250565b600061324060248361282e565b915061324b826131e4565b604082019050919050565b6000602082019050818103600083015261326f81613233565b9050919050565b7f45524332303a20617070726f766520746f20746865207a65726f20616464726560008201527f7373000000000000000000000000000000000000000000000000000000000000602082015250565b60006132d260228361282e565b91506132dd82613276565b604082019050919050565b60006020820190508181036000830152613301816132c5565b9050919050565b7f45524332303a20696e73756666696369656e7420616c6c6f77616e6365000000600082015250565b600061333e601d8361282e565b915061334982613308565b602082019050919050565b6000602082019050818103600083015261336d81613331565b9050919050565b7f45524332303a207472616e736665722066726f6d20746865207a65726f20616460008201527f6472657373000000000000000000000000000000000000000000000000000000602082015250565b60006133d060258361282e565b91506133db82613374565b604082019050919050565b600060208201905081810360008301526133ff816133c3565b9050919050565b7f45524332303a207472616e7366657220746f20746865207a65726f206164647260008201527f6573730000000000000000000000000000000000000000000000000000000000602082015250565b600061346260238361282e565b915061346d82613406565b604082019050919050565b6000602082019050818103600083015261349181613455565b9050919050565b7f45524332303a207472616e7366657220616d6f756e742065786365656473206260008201527f616c616e63650000000000000000000000000000000000000000000000000000602082015250565b60006134f460268361282e565b91506134ff82613498565b604082019050919050565b60006020820190508181036000830152613523816134e7565b9050919050565b60008151905061353981612a30565b92915050565b6000602082840312156135555761355461275e565b5b60006135638482850161352a565b91505092915050565b7f45524331393637557067726164653a206e657720696d706c656d656e7461746960008201527f6f6e206973206e6f742055555053000000000000000000000000000000000000602082015250565b60006135c8602e8361282e565b91506135d38261356c565b604082019050919050565b600060208201905081810360008301526135f7816135bb565b9050919050565b7f45524331393637557067726164653a20756e737570706f727465642070726f7860008201527f6961626c65555549440000000000000000000000000000000000000000000000602082015250565b600061365a60298361282e565b9150613665826135fe565b604082019050919050565b600060208201905081810360008301526136898161364d565b9050919050565b613699816128f5565b82525050565b60006020820190506136b46000830184613690565b92915050565b7f45524332303a206d696e7420746f20746865207a65726f206164647265737300600082015250565b60006136f0601f8361282e565b91506136fb826136ba565b602082019050919050565b6000602082019050818103600083015261371f816136e3565b9050919050565b7f496e697469616c697a61626c653a20636f6e7472616374206973206e6f74206960008201527f6e697469616c697a696e67000000000000000000000000000000000000000000602082015250565b6000613782602b8361282e565b915061378d82613726565b604082019050919050565b600060208201905081810360008301526137b181613775565b9050919050565b600081905092915050565b7f416363657373436f6e74726f6c3a206163636f756e7420000000000000000000600082015250565b60006137f96017836137b8565b9150613804826137c3565b601782019050919050565b600061381a82612823565b61382481856137b8565b935061383481856020860161283f565b80840191505092915050565b7f206973206d697373696e6720726f6c6520000000000000000000000000000000600082015250565b60006138766011836137b8565b915061388182613840565b601182019050919050565b6000613897826137ec565b91506138a3828561380f565b91506138ae82613869565b91506138ba828461380f565b91508190509392505050565b7f455243313936373a206e657720696d706c656d656e746174696f6e206973206e60008201527f6f74206120636f6e747261637400000000000000000000000000000000000000602082015250565b6000613922602d8361282e565b915061392d826138c6565b604082019050919050565b6000602082019050818103600083015261395181613915565b9050919050565b7f5061757361626c653a206e6f7420706175736564000000000000000000000000600082015250565b600061398e60148361282e565b915061399982613958565b602082019050919050565b600060208201905081810360008301526139bd81613981565b9050919050565b60008190508160005260206000209050919050565b60006020601f8301049050919050565b600082821b905092915050565b600060088302613a267fffffffffffffffffffffffffffffffffffffffffffffffffffffffffffffffff826139e9565b613a3086836139e9565b95508019841693508086168417925050509392505050565b6000613a63613a5e613a5984612933565b6130fc565b612933565b9050919050565b6000819050919050565b613a7d83613a48565b613a91613a8982613a6a565b8484546139f6565b825550505050565b600090565b613aa6613a99565b613ab1818484613a74565b505050565b5b81811015613ad557613aca600082613a9e565b600181019050613ab7565b5050565b601f821115613b1a57613aeb816139c4565b613af4846139d9565b81016020851015613b03578190505b613b17613b0f856139d9565b830182613ab6565b50505b505050565b600082821c905092915050565b6000613b3d60001984600802613b1f565b1980831691505092915050565b6000613b568383613b2c565b9150826002028217905092915050565b613b6f82612823565b67ffffffffffffffff811115613b8857613b87612b61565b5b613b928254612d84565b613b9d828285613ad9565b600060209050601f831160018114613bd05760008415613bbe578287015190505b613bc88582613b4a565b865550613c30565b601f198416613bde866139c4565b60005b82811015613c0657848901518255600182019150602085019450602081019050613be1565b86831015613c235784890151613c1f601f891682613b2c565b8355505b6001600288020188555050505b505050505050565b7f5061757361626c653a2070617573656400000000000000000000000000000000600082015250565b6000613c6e60108361282e565b9150613c7982613c38565b602082019050919050565b60006020820190508181036000830152613c9d81613c61565b9050919050565b6000613caf82612933565b9150613cba83612933565b9250828202613cc881612933565b91508282048414831517613cdf57613cde612f6b565b5b5092915050565b7f4e487b7100000000000000000000000000000000000000000000000000000000600052603260045260246000fd5b6000613d2082612933565b915060008203613d3357613d32612f6b565b5b600182039050919050565b7f537472696e67733a20686578206c656e67746820696e73756666696369656e74600082015250565b6000613d7460208361282e565b9150613d7f82613d3e565b602082019050919050565b60006020820190508181036000830152613da381613d67565b9050919050565b600081519050919050565b600081905092915050565b6000613dcb82613daa565b613dd58185613db5565b9350613de581856020860161283f565b80840191505092915050565b6000613dfd8284613dc0565b915081905092915050565b7f416464726573733a2063616c6c20746f206e6f6e2d636f6e7472616374000000600082015250565b6000613e3e601d8361282e565b9150613e4982613e08565b602082019050919050565b60006020820190508181036000830152613e6d81613e31565b905091905056fe416464726573733a206c6f772d6c6576656c2064656c65676174652063616c6c206661696c6564a2646970667358221220b0bd8fbc32ba3ecb256bb513675fc36b9969ed03c53eac08cebd54dd6234eca164736f6c63430008130033",
  "linkReferences": {},
  "deployedLinkReferences": {}
}