{
  "_format": "hh-sol-artifact-1",
  "contractName": "AttackerLoteria",
  "sourceName": "contracts/desafios/Desafio_8.sol",
  "abi": [
    {
      "inputs": [
        {
          "internalType": "address",
          "name": "_sc",
          "type": "address"
        }
      ],
      "name": "attack",
      "outputs": [],
      "stateMutability": "payable",
      "type": "function"
    }
  ],
  "bytecode": "0x608060405234801561001057600080fd5b5060f68061001f6000396000f3fe608060405260043610601c5760003560e01c8063d018db3e146021575b600080fd5b60376004803603810190603391906098565b6039565b005b50565b600080fd5b600073ffffffffffffffffffffffffffffffffffffffff82169050919050565b6000606a826041565b9050919050565b6078816061565b8114608257600080fd5b50565b6000813590506092816071565b92915050565b60006020828403121560ab5760aa603c565b5b600060b7848285016085565b9150509291505056fea26469706673582212202f6167b3b835db68ea10f504788bf1c9fd3a6a4cb118e79a41a173f8b6f6763664736f6c63430008130033",
  "linkReferences": {},
  "deployedLinkReferences": {}
}