{
  "_format": "hh-sol-artifact-1",
  "contractName": "LoteriaConPassword",
  "sourceName": "contracts/desafios/Desafio_8.sol",
  "abi": [
    {
      "inputs": [],
      "stateMutability": "payable",
      "type": "constructor"
    },
    {
      "inputs": [],
      "name": "FACTOR",
      "outputs": [
        {
          "internalType": "uint256",
          "name": "",
          "type": "uint256"
        }
      ],
      "stateMutability": "view",
      "type": "function"
    },
    {
      "inputs": [
        {
          "internalType": "uint8",
          "name": "password",
          "type": "uint8"
        },
        {
          "internalType": "uint256",
          "name": "_numeroGanador",
          "type": "uint256"
        }
      ],
      "name": "participarEnLoteria",
      "outputs": [],
      "stateMutability": "payable",
      "type": "function"
    }
  ],
  "bytecode": "0x60806040527fe69f030215e07b79de12bf58a03efda53cbd36fcbb80def40605326597d367c16000556105ee806100376000396000f3fe6080604052600436106100295760003560e01c806335815b951461002e578063daabe02014610059575b600080fd5b34801561003a57600080fd5b50610043610075565b60405161005091906101ee565b60405180910390f35b610073600480360381019061006e9190610273565b61007b565b005b60005481565b6105dc34146100bf576040517f08c379a00000000000000000000000000000000000000000000000000000000081526004016100b690610310565b60405180910390fd5b600054826040516020016100d39190610366565b6040516020818303038152906040528051906020012060001c1461012c576040517f08c379a0000000000000000000000000000000000000000000000000000000008152600401610123906103cd565b60405180910390fd5b6000805434324233604051602001610148959493929190610488565b6040516020818303038152906040528051906020012060001c90506000600a826101729190610516565b90508281036101cf573373ffffffffffffffffffffffffffffffffffffffff166108fc6002346101a29190610576565b9081150290604051600060405180830381858888f193505050501580156101cd573d6000803e3d6000fd5b505b50505050565b6000819050919050565b6101e8816101d5565b82525050565b600060208201905061020360008301846101df565b92915050565b600080fd5b600060ff82169050919050565b6102248161020e565b811461022f57600080fd5b50565b6000813590506102418161021b565b92915050565b610250816101d5565b811461025b57600080fd5b50565b60008135905061026d81610247565b92915050565b6000806040838503121561028a57610289610209565b5b600061029885828601610232565b92505060206102a98582860161025e565b9150509250929050565b600082825260208201905092915050565b7f43616e7469646164206170756573746120696e636f7272656374610000000000600082015250565b60006102fa601b836102b3565b9150610305826102c4565b602082019050919050565b60006020820190508181036000830152610329816102ed565b9050919050565b60008160f81b9050919050565b600061034882610330565b9050919050565b61036061035b8261020e565b61033d565b82525050565b6000610372828461034f565b60018201915081905092915050565b7f4e6f20657320656c206861736820636f72726563746f00000000000000000000600082015250565b60006103b76016836102b3565b91506103c282610381565b602082019050919050565b600060208201905081810360008301526103e6816103aa565b9050919050565b6000819050919050565b610408610403826101d5565b6103ed565b82525050565b600073ffffffffffffffffffffffffffffffffffffffff82169050919050565b60006104398261040e565b9050919050565b60008160601b9050919050565b600061045882610440565b9050919050565b600061046a8261044d565b9050919050565b61048261047d8261042e565b61045f565b82525050565b600061049482886103f7565b6020820191506104a482876103f7565b6020820191506104b48286610471565b6014820191506104c482856103f7565b6020820191506104d48284610471565b6014820191508190509695505050505050565b7f4e487b7100000000000000000000000000000000000000000000000000000000600052601260045260246000fd5b6000610521826101d5565b915061052c836101d5565b92508261053c5761053b6104e7565b5b828206905092915050565b7f4e487b7100000000000000000000000000000000000000000000000000000000600052601160045260246000fd5b6000610581826101d5565b915061058c836101d5565b925082820261059a816101d5565b915082820484148315176105b1576105b0610547565b5b509291505056fea264697066735822122092e5bc3969ae41dad307ac90b73aaa92e4c6ac52c1bda7945c2cbfac30fa898864736f6c63430008130033",
  "linkReferences": {},
  "deployedLinkReferences": {}
}