{
  "_format": "hh-sol-artifact-1",
  "contractName": "MiPrimerToken",
  "sourceName": "contracts/desafios/MiPrimerToken.sol",
  "abi": [
    {
      "inputs": [
        {
          "internalType": "string",
          "name": "_name",
          "type": "string"
        },
        {
          "internalType": "string",
          "name": "_symbol",
          "type": "string"
        }
      ],
      "stateMutability": "nonpayable",
      "type": "constructor"
    },
    {
      "anonymous": false,
      "inputs": [
        {
          "indexed": true,
          "internalType": "address",
          "name": "owner",
          "type": "address"
        },
        {
          "indexed": true,
          "internalType": "address",
          "name": "spender",
          "type": "address"
        },
        {
          "indexed": false,
          "internalType": "uint256",
          "name": "value",
          "type": "uint256"
        }
      ],
      "name": "Approval",
      "type": "event"
    },
    {
      "anonymous": false,
      "inputs": [
        {
          "indexed": false,
          "internalType": "address",
          "name": "account",
          "type": "address"
        }
      ],
      "name": "Paused",
      "type": "event"
    },
    {
      "anonymous": false,
      "inputs": [
        {
          "indexed": true,
          "internalType": "bytes32",
          "name": "role",
          "type": "bytes32"
        },
        {
          "indexed": true,
          "internalType": "bytes32",
          "name": "previousAdminRole",
          "type": "bytes32"
        },
        {
          "indexed": true,
          "internalType": "bytes32",
          "name": "newAdminRole",
          "type": "bytes32"
        }
      ],
      "name": "RoleAdminChanged",
      "type": "event"
    },
    {
      "anonymous": false,
      "inputs": [
        {
          "indexed": true,
          "internalType": "bytes32",
          "name": "role",
          "type": "bytes32"
        },
        {
          "indexed": true,
          "internalType": "address",
          "name": "account",
          "type": "address"
        },
        {
          "indexed": true,
          "internalType": "address",
          "name": "sender",
          "type": "address"
        }
      ],
      "name": "RoleGranted",
      "type": "event"
    },
    {
      "anonymous": false,
      "inputs": [
        {
          "indexed": true,
          "internalType": "bytes32",
          "name": "role",
          "type": "bytes32"
        },
        {
          "indexed": true,
          "internalType": "address",
          "name": "account",
          "type": "address"
        },
        {
          "indexed": true,
          "internalType": "address",
          "name": "sender",
          "type": "address"
        }
      ],
      "name": "RoleRevoked",
      "type": "event"
    },
    {
      "anonymous": false,
      "inputs": [
        {
          "indexed": true,
          "internalType": "address",
          "name": "from",
          "type": "address"
        },
        {
          "indexed": true,
          "internalType": "address",
          "name": "to",
          "type": "address"
        },
        {
          "indexed": false,
          "internalType": "uint256",
          "name": "value",
          "type": "uint256"
        }
      ],
      "name": "Transfer",
      "type": "event"
    },
    {
      "anonymous": false,
      "inputs": [
        {
          "indexed": false,
          "internalType": "address",
          "name": "account",
          "type": "address"
        }
      ],
      "name": "Unpaused",
      "type": "event"
    },
    {
      "inputs": [],
      "name": "BURNER_ROLE",
      "outputs": [
        {
          "internalType": "bytes32",
          "name": "",
          "type": "bytes32"
        }
      ],
      "stateMutability": "view",
      "type": "function"
    },
    {
      "inputs": [],
      "name": "DEFAULT_ADMIN_ROLE",
      "outputs": [
        {
          "internalType": "bytes32",
          "name": "",
          "type": "bytes32"
        }
      ],
      "stateMutability": "view",
      "type": "function"
    },
    {
      "inputs": [],
      "name": "MINTER_ROLE",
      "outputs": [
        {
          "internalType": "bytes32",
          "name": "",
          "type": "bytes32"
        }
      ],
      "stateMutability": "view",
      "type": "function"
    },
    {
      "inputs": [],
      "name": "PAUSER_ROLE",
      "outputs": [
        {
          "internalType": "bytes32",
          "name": "",
          "type": "bytes32"
        }
      ],
      "stateMutability": "view",
      "type": "function"
    },
    {
      "inputs": [
        {
          "internalType": "address",
          "name": "owner",
          "type": "address"
        },
        {
          "internalType": "address",
          "name": "spender",
          "type": "address"
        }
      ],
      "name": "allowance",
      "outputs": [
        {
          "internalType": "uint256",
          "name": "",
          "type": "uint256"
        }
      ],
      "stateMutability": "view",
      "type": "function"
    },
    {
      "inputs": [
        {
          "internalType": "address",
          "name": "spender",
          "type": "address"
        },
        {
          "internalType": "uint256",
          "name": "amount",
          "type": "uint256"
        }
      ],
      "name": "approve",
      "outputs": [
        {
          "internalType": "bool",
          "name": "",
          "type": "bool"
        }
      ],
      "stateMutability": "nonpayable",
      "type": "function"
    },
    {
      "inputs": [
        {
          "internalType": "address",
          "name": "account",
          "type": "address"
        }
      ],
      "name": "balanceOf",
      "outputs": [
        {
          "internalType": "uint256",
          "name": "",
          "type": "uint256"
        }
      ],
      "stateMutability": "view",
      "type": "function"
    },
    {
      "inputs": [
        {
          "internalType": "uint256",
          "name": "amount",
          "type": "uint256"
        }
      ],
      "name": "burn",
      "outputs": [],
      "stateMutability": "nonpayable",
      "type": "function"
    },
    {
      "inputs": [
        {
          "internalType": "address",
          "name": "from",
          "type": "address"
        },
        {
          "internalType": "uint256",
          "name": "amount",
          "type": "uint256"
        }
      ],
      "name": "burn",
      "outputs": [],
      "stateMutability": "nonpayable",
      "type": "function"
    },
    {
      "inputs": [
        {
          "internalType": "address",
          "name": "account",
          "type": "address"
        },
        {
          "internalType": "uint256",
          "name": "amount",
          "type": "uint256"
        }
      ],
      "name": "burnFrom",
      "outputs": [],
      "stateMutability": "nonpayable",
      "type": "function"
    },
    {
      "inputs": [],
      "name": "decimals",
      "outputs": [
        {
          "internalType": "uint8",
          "name": "",
          "type": "uint8"
        }
      ],
      "stateMutability": "view",
      "type": "function"
    },
    {
      "inputs": [
        {
          "internalType": "address",
          "name": "spender",
          "type": "address"
        },
        {
          "internalType": "uint256",
          "name": "subtractedValue",
          "type": "uint256"
        }
      ],
      "name": "decreaseAllowance",
      "outputs": [
        {
          "internalType": "bool",
          "name": "",
          "type": "bool"
        }
      ],
      "stateMutability": "nonpayable",
      "type": "function"
    },
    {
      "inputs": [
        {
          "internalType": "bytes32",
          "name": "role",
          "type": "bytes32"
        }
      ],
      "name": "getRoleAdmin",
      "outputs": [
        {
          "internalType": "bytes32",
          "name": "",
          "type": "bytes32"
        }
      ],
      "stateMutability": "view",
      "type": "function"
    },
    {
      "inputs": [
        {
          "internalType": "bytes32",
          "name": "role",
          "type": "bytes32"
        },
        {
          "internalType": "address",
          "name": "account",
          "type": "address"
        }
      ],
      "name": "grantRole",
      "outputs": [],
      "stateMutability": "nonpayable",
      "type": "function"
    },
    {
      "inputs": [
        {
          "internalType": "bytes32",
          "name": "role",
          "type": "bytes32"
        },
        {
          "internalType": "address",
          "name": "account",
          "type": "address"
        }
      ],
      "name": "hasRole",
      "outputs": [
        {
          "internalType": "bool",
          "name": "",
          "type": "bool"
        }
      ],
      "stateMutability": "view",
      "type": "function"
    },
    {
      "inputs": [
        {
          "internalType": "address",
          "name": "spender",
          "type": "address"
        },
        {
          "internalType": "uint256",
          "name": "addedValue",
          "type": "uint256"
        }
      ],
      "name": "increaseAllowance",
      "outputs": [
        {
          "internalType": "bool",
          "name": "",
          "type": "bool"
        }
      ],
      "stateMutability": "nonpayable",
      "type": "function"
    },
    {
      "inputs": [
        {
          "internalType": "address",
          "name": "to",
          "type": "address"
        },
        {
          "internalType": "uint256",
          "name": "amount",
          "type": "uint256"
        }
      ],
      "name": "mint",
      "outputs": [],
      "stateMutability": "nonpayable",
      "type": "function"
    },
    {
      "inputs": [],
      "name": "name",
      "outputs": [
        {
          "internalType": "string",
          "name": "",
          "type": "string"
        }
      ],
      "stateMutability": "view",
      "type": "function"
    },
    {
      "inputs": [],
      "name": "pause",
      "outputs": [],
      "stateMutability": "nonpayable",
      "type": "function"
    },
    {
      "inputs": [],
      "name": "paused",
      "outputs": [
        {
          "internalType": "bool",
          "name": "",
          "type": "bool"
        }
      ],
      "stateMutability": "view",
      "type": "function"
    },
    {
      "inputs": [
        {
          "internalType": "bytes32",
          "name": "role",
          "type": "bytes32"
        },
        {
          "internalType": "address",
          "name": "account",
          "type": "address"
        }
      ],
      "name": "renounceRole",
      "outputs": [],
      "stateMutability": "nonpayable",
      "type": "function"
    },
    {
      "inputs": [
        {
          "internalType": "bytes32",
          "name": "role",
          "type": "bytes32"
        },
        {
          "internalType": "address",
          "name": "account",
          "type": "address"
        }
      ],
      "name": "revokeRole",
      "outputs": [],
      "stateMutability": "nonpayable",
      "type": "function"
    },
    {
      "inputs": [
        {
          "internalType": "bytes4",
          "name": "interfaceId",
          "type": "bytes4"
        }
      ],
      "name": "supportsInterface",
      "outputs": [
        {
          "internalType": "bool",
          "name": "",
          "type": "bool"
        }
      ],
      "stateMutability": "view",
      "type": "function"
    },
    {
      "inputs": [],
      "name": "symbol",
      "outputs": [
        {
          "internalType": "string",
          "name": "",
          "type": "string"
        }
      ],
      "stateMutability": "view",
      "type": "function"
    },
    {
      "inputs": [],
      "name": "totalSupply",
      "outputs": [
        {
          "internalType": "uint256",
          "name": "",
          "type": "uint256"
        }
      ],
      "stateMutability": "view",
      "type": "function"
    },
    {
      "inputs": [
        {
          "internalType": "address",
          "name": "to",
          "type": "address"
        },
        {
          "internalType": "uint256",
          "name": "amount",
          "type": "uint256"
        }
      ],
      "name": "transfer",
      "outputs": [
        {
          "internalType": "bool",
          "name": "",
          "type": "bool"
        }
      ],
      "stateMutability": "nonpayable",
      "type": "function"
    },
    {
      "inputs": [
        {
          "internalType": "address",
          "name": "from",
          "type": "address"
        },
        {
          "internalType": "address",
          "name": "to",
          "type": "address"
        },
        {
          "internalType": "uint256",
          "name": "amount",
          "type": "uint256"
        }
      ],
      "name": "transferFrom",
      "outputs": [
        {
          "internalType": "bool",
          "name": "",
          "type": "bool"
        }
      ],
      "stateMutability": "nonpayable",
      "type": "function"
    },
    {
      "inputs": [],
      "name": "unpause",
      "outputs": [],
      "stateMutability": "nonpayable",
      "type": "function"
    }
  ],
  "bytecode": "0x60806040523480156200001157600080fd5b506040516200371d3803806200371d833981810160405281019062000037919062000677565b818181600390816200004a919062000947565b5080600490816200005c919062000947565b5050506000600560006101000a81548160ff021916908315150217905550620000b8336200008f6200016b60201b60201c565b600a6200009d919062000bbe565b6103e8620000ac919062000c0f565b6200017460201b60201c565b620000cd6000801b33620002e160201b60201c565b620000ff7f65d7a28e3265b37a6474929f336521b332c1681b933f6cb9f3376673440d862a33620002e160201b60201c565b620001317f9f2df0fed2c77648de5860a4cc508cd0818c85b8b8a1ab4ceeef8d981c8956a633620002e160201b60201c565b620001637f3c11d16cbaffd01df69ce1c404f6340ee057498f5f00246190ea54220576a84833620002e160201b60201c565b505062000db8565b60006012905090565b600073ffffffffffffffffffffffffffffffffffffffff168273ffffffffffffffffffffffffffffffffffffffff1603620001e6576040517f08c379a0000000000000000000000000000000000000000000000000000000008152600401620001dd9062000cbb565b60405180910390fd5b620001fa60008383620003d360201b60201c565b80600260008282546200020e919062000cdd565b92505081905550806000808473ffffffffffffffffffffffffffffffffffffffff1673ffffffffffffffffffffffffffffffffffffffff168152602001908152602001600020600082825401925050819055508173ffffffffffffffffffffffffffffffffffffffff16600073ffffffffffffffffffffffffffffffffffffffff167fddf252ad1be2c89b69c2b068fc378daa952ba7f163c4a11628f55a4df523b3ef83604051620002c1919062000d29565b60405180910390a3620002dd60008383620003fb60201b60201c565b5050565b620002f382826200040060201b60201c565b620003cf5760016006600084815260200190815260200160002060000160008373ffffffffffffffffffffffffffffffffffffffff1673ffffffffffffffffffffffffffffffffffffffff16815260200190815260200160002060006101000a81548160ff021916908315150217905550620003746200046b60201b60201c565b73ffffffffffffffffffffffffffffffffffffffff168173ffffffffffffffffffffffffffffffffffffffff16837f2f8788117e7eff1d82e926ec794901d17c78024a50270940304540a733656f0d60405160405180910390a45b5050565b620003e36200047360201b60201c565b620003f6838383620004c860201b60201c565b505050565b505050565b60006006600084815260200190815260200160002060000160008373ffffffffffffffffffffffffffffffffffffffff1673ffffffffffffffffffffffffffffffffffffffff16815260200190815260200160002060009054906101000a900460ff16905092915050565b600033905090565b62000483620004cd60201b60201c565b15620004c6576040517f08c379a0000000000000000000000000000000000000000000000000000000008152600401620004bd9062000d96565b60405180910390fd5b565b505050565b6000600560009054906101000a900460ff16905090565b6000604051905090565b600080fd5b600080fd5b600080fd5b600080fd5b6000601f19601f8301169050919050565b7f4e487b7100000000000000000000000000000000000000000000000000000000600052604160045260246000fd5b6200054d8262000502565b810181811067ffffffffffffffff821117156200056f576200056e62000513565b5b80604052505050565b600062000584620004e4565b905062000592828262000542565b919050565b600067ffffffffffffffff821115620005b557620005b462000513565b5b620005c08262000502565b9050602081019050919050565b60005b83811015620005ed578082015181840152602081019050620005d0565b60008484015250505050565b6000620006106200060a8462000597565b62000578565b9050828152602081018484840111156200062f576200062e620004fd565b5b6200063c848285620005cd565b509392505050565b600082601f8301126200065c576200065b620004f8565b5b81516200066e848260208601620005f9565b91505092915050565b60008060408385031215620006915762000690620004ee565b5b600083015167ffffffffffffffff811115620006b257620006b1620004f3565b5b620006c08582860162000644565b925050602083015167ffffffffffffffff811115620006e457620006e3620004f3565b5b620006f28582860162000644565b9150509250929050565b600081519050919050565b7f4e487b7100000000000000000000000000000000000000000000000000000000600052602260045260246000fd5b600060028204905060018216806200074f57607f821691505b60208210810362000765576200076462000707565b5b50919050565b60008190508160005260206000209050919050565b60006020601f8301049050919050565b600082821b905092915050565b600060088302620007cf7fffffffffffffffffffffffffffffffffffffffffffffffffffffffffffffffff8262000790565b620007db868362000790565b95508019841693508086168417925050509392505050565b6000819050919050565b6000819050919050565b600062000828620008226200081c84620007f3565b620007fd565b620007f3565b9050919050565b6000819050919050565b620008448362000807565b6200085c62000853826200082f565b8484546200079d565b825550505050565b600090565b6200087362000864565b6200088081848462000839565b505050565b5b81811015620008a8576200089c60008262000869565b60018101905062000886565b5050565b601f821115620008f757620008c1816200076b565b620008cc8462000780565b81016020851015620008dc578190505b620008f4620008eb8562000780565b83018262000885565b50505b505050565b600082821c905092915050565b60006200091c60001984600802620008fc565b1980831691505092915050565b600062000937838362000909565b9150826002028217905092915050565b6200095282620006fc565b67ffffffffffffffff8111156200096e576200096d62000513565b5b6200097a825462000736565b62000987828285620008ac565b600060209050601f831160018114620009bf5760008415620009aa578287015190505b620009b6858262000929565b86555062000a26565b601f198416620009cf866200076b565b60005b82811015620009f957848901518255600182019150602085019450602081019050620009d2565b8683101562000a19578489015162000a15601f89168262000909565b8355505b6001600288020188555050505b505050505050565b7f4e487b7100000000000000000000000000000000000000000000000000000000600052601160045260246000fd5b60008160011c9050919050565b6000808291508390505b600185111562000abc5780860481111562000a945762000a9362000a2e565b5b600185161562000aa45780820291505b808102905062000ab48562000a5d565b945062000a74565b94509492505050565b60008262000ad7576001905062000baa565b8162000ae7576000905062000baa565b816001811462000b00576002811462000b0b5762000b41565b600191505062000baa565b60ff84111562000b205762000b1f62000a2e565b5b8360020a91508482111562000b3a5762000b3962000a2e565b5b5062000baa565b5060208310610133831016604e8410600b841016171562000b7b5782820a90508381111562000b755762000b7462000a2e565b5b62000baa565b62000b8a848484600162000a6a565b9250905081840481111562000ba45762000ba362000a2e565b5b81810290505b9392505050565b600060ff82169050919050565b600062000bcb82620007f3565b915062000bd88362000bb1565b925062000c077fffffffffffffffffffffffffffffffffffffffffffffffffffffffffffffffff848462000ac5565b905092915050565b600062000c1c82620007f3565b915062000c2983620007f3565b925082820262000c3981620007f3565b9150828204841483151762000c535762000c5262000a2e565b5b5092915050565b600082825260208201905092915050565b7f45524332303a206d696e7420746f20746865207a65726f206164647265737300600082015250565b600062000ca3601f8362000c5a565b915062000cb08262000c6b565b602082019050919050565b6000602082019050818103600083015262000cd68162000c94565b9050919050565b600062000cea82620007f3565b915062000cf783620007f3565b925082820190508082111562000d125762000d1162000a2e565b5b92915050565b62000d2381620007f3565b82525050565b600060208201905062000d40600083018462000d18565b92915050565b7f5061757361626c653a2070617573656400000000000000000000000000000000600082015250565b600062000d7e60108362000c5a565b915062000d8b8262000d46565b602082019050919050565b6000602082019050818103600083015262000db18162000d6f565b9050919050565b6129558062000dc86000396000f3fe608060405234801561001057600080fd5b50600436106101c45760003560e01c80635c975abb116100f9578063a217fddf11610097578063d539139311610071578063d539139314610507578063d547741f14610525578063dd62ed3e14610541578063e63ab1e914610571576101c4565b8063a217fddf14610489578063a457c2d7146104a7578063a9059cbb146104d7576101c4565b80638456cb59116100d35780638456cb591461041557806391d148541461041f57806395d89b411461044f5780639dc29fac1461046d576101c4565b80635c975abb146103ab57806370a08231146103c957806379cc6790146103f9576101c4565b80632f2ff15d11610166578063395093511161014057806339509351146103395780633f4ba83a1461036957806340c10f191461037357806342966c681461038f576101c4565b80632f2ff15d146102e3578063313ce567146102ff57806336568abe1461031d576101c4565b806318160ddd116101a257806318160ddd1461024757806323b872dd14610265578063248a9ca314610295578063282c51f3146102c5576101c4565b806301ffc9a7146101c957806306fdde03146101f9578063095ea7b314610217575b600080fd5b6101e360048036038101906101de9190611b19565b61058f565b6040516101f09190611b61565b60405180910390f35b610201610609565b60405161020e9190611c0c565b60405180910390f35b610231600480360381019061022c9190611cc2565b61069b565b60405161023e9190611b61565b60405180910390f35b61024f6106be565b60405161025c9190611d11565b60405180910390f35b61027f600480360381019061027a9190611d2c565b6106c8565b60405161028c9190611b61565b60405180910390f35b6102af60048036038101906102aa9190611db5565b6106f7565b6040516102bc9190611df1565b60405180910390f35b6102cd610717565b6040516102da9190611df1565b60405180910390f35b6102fd60048036038101906102f89190611e0c565b61073b565b005b61030761075c565b6040516103149190611e68565b60405180910390f35b61033760048036038101906103329190611e0c565b610765565b005b610353600480360381019061034e9190611cc2565b6107e8565b6040516103609190611b61565b60405180910390f35b61037161081f565b005b61038d60048036038101906103889190611cc2565b610854565b005b6103a960048036038101906103a49190611e83565b61088d565b005b6103b36108a1565b6040516103c09190611b61565b60405180910390f35b6103e360048036038101906103de9190611eb0565b6108b8565b6040516103f09190611d11565b60405180910390f35b610413600480360381019061040e9190611cc2565b610900565b005b61041d610920565b005b61043960048036038101906104349190611e0c565b610955565b6040516104469190611b61565b60405180910390f35b6104576109c0565b6040516104649190611c0c565b60405180910390f35b61048760048036038101906104829190611cc2565b610a52565b005b610491610a8b565b60405161049e9190611df1565b60405180910390f35b6104c160048036038101906104bc9190611cc2565b610a92565b6040516104ce9190611b61565b60405180910390f35b6104f160048036038101906104ec9190611cc2565b610b09565b6040516104fe9190611b61565b60405180910390f35b61050f610b2c565b60405161051c9190611df1565b60405180910390f35b61053f600480360381019061053a9190611e0c565b610b50565b005b61055b60048036038101906105569190611edd565b610b71565b6040516105689190611d11565b60405180910390f35b610579610bf8565b6040516105869190611df1565b60405180910390f35b60007f7965db0b000000000000000000000000000000000000000000000000000000007bffffffffffffffffffffffffffffffffffffffffffffffffffffffff1916827bffffffffffffffffffffffffffffffffffffffffffffffffffffffff19161480610602575061060182610c1c565b5b9050919050565b60606003805461061890611f4c565b80601f016020809104026020016040519081016040528092919081815260200182805461064490611f4c565b80156106915780601f1061066657610100808354040283529160200191610691565b820191906000526020600020905b81548152906001019060200180831161067457829003601f168201915b5050505050905090565b6000806106a6610c86565b90506106b3818585610c8e565b600191505092915050565b6000600254905090565b6000806106d3610c86565b90506106e0858285610e57565b6106eb858585610ee3565b60019150509392505050565b600060066000838152602001908152602001600020600101549050919050565b7f3c11d16cbaffd01df69ce1c404f6340ee057498f5f00246190ea54220576a84881565b610744826106f7565b61074d81611159565b610757838361116d565b505050565b60006012905090565b61076d610c86565b73ffffffffffffffffffffffffffffffffffffffff168173ffffffffffffffffffffffffffffffffffffffff16146107da576040517f08c379a00000000000000000000000000000000000000000000000000000000081526004016107d190611fef565b60405180910390fd5b6107e4828261124e565b5050565b6000806107f3610c86565b90506108148185856108058589610b71565b61080f919061203e565b610c8e565b600191505092915050565b7f65d7a28e3265b37a6474929f336521b332c1681b933f6cb9f3376673440d862a61084981611159565b610851611330565b50565b7f9f2df0fed2c77648de5860a4cc508cd0818c85b8b8a1ab4ceeef8d981c8956a661087e81611159565b6108888383611393565b505050565b61089e610898610c86565b826114e9565b50565b6000600560009054906101000a900460ff16905090565b60008060008373ffffffffffffffffffffffffffffffffffffffff1673ffffffffffffffffffffffffffffffffffffffff168152602001908152602001600020549050919050565b6109128261090c610c86565b83610e57565b61091c82826114e9565b5050565b7f65d7a28e3265b37a6474929f336521b332c1681b933f6cb9f3376673440d862a61094a81611159565b6109526116b6565b50565b60006006600084815260200190815260200160002060000160008373ffffffffffffffffffffffffffffffffffffffff1673ffffffffffffffffffffffffffffffffffffffff16815260200190815260200160002060009054906101000a900460ff16905092915050565b6060600480546109cf90611f4c565b80601f01602080910402602001604051908101604052809291908181526020018280546109fb90611f4c565b8015610a485780601f10610a1d57610100808354040283529160200191610a48565b820191906000526020600020905b815481529060010190602001808311610a2b57829003601f168201915b5050505050905090565b7f3c11d16cbaffd01df69ce1c404f6340ee057498f5f00246190ea54220576a848610a7c81611159565b610a8683836114e9565b505050565b6000801b81565b600080610a9d610c86565b90506000610aab8286610b71565b905083811015610af0576040517f08c379a0000000000000000000000000000000000000000000000000000000008152600401610ae7906120e4565b60405180910390fd5b610afd8286868403610c8e565b60019250505092915050565b600080610b14610c86565b9050610b21818585610ee3565b600191505092915050565b7f9f2df0fed2c77648de5860a4cc508cd0818c85b8b8a1ab4ceeef8d981c8956a681565b610b59826106f7565b610b6281611159565b610b6c838361124e565b505050565b6000600160008473ffffffffffffffffffffffffffffffffffffffff1673ffffffffffffffffffffffffffffffffffffffff16815260200190815260200160002060008373ffffffffffffffffffffffffffffffffffffffff1673ffffffffffffffffffffffffffffffffffffffff16815260200190815260200160002054905092915050565b7f65d7a28e3265b37a6474929f336521b332c1681b933f6cb9f3376673440d862a81565b60007f01ffc9a7000000000000000000000000000000000000000000000000000000007bffffffffffffffffffffffffffffffffffffffffffffffffffffffff1916827bffffffffffffffffffffffffffffffffffffffffffffffffffffffff1916149050919050565b600033905090565b600073ffffffffffffffffffffffffffffffffffffffff168373ffffffffffffffffffffffffffffffffffffffff1603610cfd576040517f08c379a0000000000000000000000000000000000000000000000000000000008152600401610cf490612176565b60405180910390fd5b600073ffffffffffffffffffffffffffffffffffffffff168273ffffffffffffffffffffffffffffffffffffffff1603610d6c576040517f08c379a0000000000000000000000000000000000000000000000000000000008152600401610d6390612208565b60405180910390fd5b80600160008573ffffffffffffffffffffffffffffffffffffffff1673ffffffffffffffffffffffffffffffffffffffff16815260200190815260200160002060008473ffffffffffffffffffffffffffffffffffffffff1673ffffffffffffffffffffffffffffffffffffffff168152602001908152602001600020819055508173ffffffffffffffffffffffffffffffffffffffff168373ffffffffffffffffffffffffffffffffffffffff167f8c5be1e5ebec7d5bd14f71427d1e84f3dd0314c0f7b2291e5b200ac8c7c3b92583604051610e4a9190611d11565b60405180910390a3505050565b6000610e638484610b71565b90507fffffffffffffffffffffffffffffffffffffffffffffffffffffffffffffffff8114610edd5781811015610ecf576040517f08c379a0000000000000000000000000000000000000000000000000000000008152600401610ec690612274565b60405180910390fd5b610edc8484848403610c8e565b5b50505050565b600073ffffffffffffffffffffffffffffffffffffffff168373ffffffffffffffffffffffffffffffffffffffff1603610f52576040517f08c379a0000000000000000000000000000000000000000000000000000000008152600401610f4990612306565b60405180910390fd5b600073ffffffffffffffffffffffffffffffffffffffff168273ffffffffffffffffffffffffffffffffffffffff1603610fc1576040517f08c379a0000000000000000000000000000000000000000000000000000000008152600401610fb890612398565b60405180910390fd5b610fcc838383611719565b60008060008573ffffffffffffffffffffffffffffffffffffffff1673ffffffffffffffffffffffffffffffffffffffff16815260200190815260200160002054905081811015611052576040517f08c379a00000000000000000000000000000000000000000000000000000000081526004016110499061242a565b60405180910390fd5b8181036000808673ffffffffffffffffffffffffffffffffffffffff1673ffffffffffffffffffffffffffffffffffffffff16815260200190815260200160002081905550816000808573ffffffffffffffffffffffffffffffffffffffff1673ffffffffffffffffffffffffffffffffffffffff168152602001908152602001600020600082825401925050819055508273ffffffffffffffffffffffffffffffffffffffff168473ffffffffffffffffffffffffffffffffffffffff167fddf252ad1be2c89b69c2b068fc378daa952ba7f163c4a11628f55a4df523b3ef846040516111409190611d11565b60405180910390a3611153848484611731565b50505050565b61116a81611165610c86565b611736565b50565b6111778282610955565b61124a5760016006600084815260200190815260200160002060000160008373ffffffffffffffffffffffffffffffffffffffff1673ffffffffffffffffffffffffffffffffffffffff16815260200190815260200160002060006101000a81548160ff0219169083151502179055506111ef610c86565b73ffffffffffffffffffffffffffffffffffffffff168173ffffffffffffffffffffffffffffffffffffffff16837f2f8788117e7eff1d82e926ec794901d17c78024a50270940304540a733656f0d60405160405180910390a45b5050565b6112588282610955565b1561132c5760006006600084815260200190815260200160002060000160008373ffffffffffffffffffffffffffffffffffffffff1673ffffffffffffffffffffffffffffffffffffffff16815260200190815260200160002060006101000a81548160ff0219169083151502179055506112d1610c86565b73ffffffffffffffffffffffffffffffffffffffff168173ffffffffffffffffffffffffffffffffffffffff16837ff6391f5c32d9c69d2a47ea670b442974b53935d1edc7fd64eb21e047a839171b60405160405180910390a45b5050565b6113386117bb565b6000600560006101000a81548160ff0219169083151502179055507f5db9ee0a495bf2e6ff9c91a7834c1ba4fdd244a5e8aa4e537bd38aeae4b073aa61137c610c86565b6040516113899190612459565b60405180910390a1565b600073ffffffffffffffffffffffffffffffffffffffff168273ffffffffffffffffffffffffffffffffffffffff1603611402576040517f08c379a00000000000000000000000000000000000000000000000000000000081526004016113f9906124c0565b60405180910390fd5b61140e60008383611719565b8060026000828254611420919061203e565b92505081905550806000808473ffffffffffffffffffffffffffffffffffffffff1673ffffffffffffffffffffffffffffffffffffffff168152602001908152602001600020600082825401925050819055508173ffffffffffffffffffffffffffffffffffffffff16600073ffffffffffffffffffffffffffffffffffffffff167fddf252ad1be2c89b69c2b068fc378daa952ba7f163c4a11628f55a4df523b3ef836040516114d19190611d11565b60405180910390a36114e560008383611731565b5050565b600073ffffffffffffffffffffffffffffffffffffffff168273ffffffffffffffffffffffffffffffffffffffff1603611558576040517f08c379a000000000000000000000000000000000000000000000000000000000815260040161154f90612552565b60405180910390fd5b61156482600083611719565b60008060008473ffffffffffffffffffffffffffffffffffffffff1673ffffffffffffffffffffffffffffffffffffffff168152602001908152602001600020549050818110156115ea576040517f08c379a00000000000000000000000000000000000000000000000000000000081526004016115e1906125e4565b60405180910390fd5b8181036000808573ffffffffffffffffffffffffffffffffffffffff1673ffffffffffffffffffffffffffffffffffffffff1681526020019081526020016000208190555081600260008282540392505081905550600073ffffffffffffffffffffffffffffffffffffffff168373ffffffffffffffffffffffffffffffffffffffff167fddf252ad1be2c89b69c2b068fc378daa952ba7f163c4a11628f55a4df523b3ef8460405161169d9190611d11565b60405180910390a36116b183600084611731565b505050565b6116be611804565b6001600560006101000a81548160ff0219169083151502179055507f62e78cea01bee320cd4e420270b5ea74000d11b0c9f74754ebdbfc544b05a258611702610c86565b60405161170f9190612459565b60405180910390a1565b611721611804565b61172c83838361184e565b505050565b505050565b6117408282610955565b6117b75761174d81611853565b61175b8360001c6020611880565b60405160200161176c9291906126d8565b6040516020818303038152906040526040517f08c379a00000000000000000000000000000000000000000000000000000000081526004016117ae9190611c0c565b60405180910390fd5b5050565b6117c36108a1565b611802576040517f08c379a00000000000000000000000000000000000000000000000000000000081526004016117f99061275e565b60405180910390fd5b565b61180c6108a1565b1561184c576040517f08c379a0000000000000000000000000000000000000000000000000000000008152600401611843906127ca565b60405180910390fd5b565b505050565b60606118798273ffffffffffffffffffffffffffffffffffffffff16601460ff16611880565b9050919050565b60606000600283600261189391906127ea565b61189d919061203e565b67ffffffffffffffff8111156118b6576118b561282c565b5b6040519080825280601f01601f1916602001820160405280156118e85781602001600182028036833780820191505090505b5090507f3000000000000000000000000000000000000000000000000000000000000000816000815181106119205761191f61285b565b5b60200101907effffffffffffffffffffffffffffffffffffffffffffffffffffffffffffff1916908160001a9053507f7800000000000000000000000000000000000000000000000000000000000000816001815181106119845761198361285b565b5b60200101907effffffffffffffffffffffffffffffffffffffffffffffffffffffffffffff1916908160001a905350600060018460026119c491906127ea565b6119ce919061203e565b90505b6001811115611a6e577f3031323334353637383961626364656600000000000000000000000000000000600f861660108110611a1057611a0f61285b565b5b1a60f81b828281518110611a2757611a2661285b565b5b60200101907effffffffffffffffffffffffffffffffffffffffffffffffffffffffffffff1916908160001a905350600485901c945080611a679061288a565b90506119d1565b5060008414611ab2576040517f08c379a0000000000000000000000000000000000000000000000000000000008152600401611aa9906128ff565b60405180910390fd5b8091505092915050565b600080fd5b60007fffffffff0000000000000000000000000000000000000000000000000000000082169050919050565b611af681611ac1565b8114611b0157600080fd5b50565b600081359050611b1381611aed565b92915050565b600060208284031215611b2f57611b2e611abc565b5b6000611b3d84828501611b04565b91505092915050565b60008115159050919050565b611b5b81611b46565b82525050565b6000602082019050611b766000830184611b52565b92915050565b600081519050919050565b600082825260208201905092915050565b60005b83811015611bb6578082015181840152602081019050611b9b565b60008484015250505050565b6000601f19601f8301169050919050565b6000611bde82611b7c565b611be88185611b87565b9350611bf8818560208601611b98565b611c0181611bc2565b840191505092915050565b60006020820190508181036000830152611c268184611bd3565b905092915050565b600073ffffffffffffffffffffffffffffffffffffffff82169050919050565b6000611c5982611c2e565b9050919050565b611c6981611c4e565b8114611c7457600080fd5b50565b600081359050611c8681611c60565b92915050565b6000819050919050565b611c9f81611c8c565b8114611caa57600080fd5b50565b600081359050611cbc81611c96565b92915050565b60008060408385031215611cd957611cd8611abc565b5b6000611ce785828601611c77565b9250506020611cf885828601611cad565b9150509250929050565b611d0b81611c8c565b82525050565b6000602082019050611d266000830184611d02565b92915050565b600080600060608486031215611d4557611d44611abc565b5b6000611d5386828701611c77565b9350506020611d6486828701611c77565b9250506040611d7586828701611cad565b9150509250925092565b6000819050919050565b611d9281611d7f565b8114611d9d57600080fd5b50565b600081359050611daf81611d89565b92915050565b600060208284031215611dcb57611dca611abc565b5b6000611dd984828501611da0565b91505092915050565b611deb81611d7f565b82525050565b6000602082019050611e066000830184611de2565b92915050565b60008060408385031215611e2357611e22611abc565b5b6000611e3185828601611da0565b9250506020611e4285828601611c77565b9150509250929050565b600060ff82169050919050565b611e6281611e4c565b82525050565b6000602082019050611e7d6000830184611e59565b92915050565b600060208284031215611e9957611e98611abc565b5b6000611ea784828501611cad565b91505092915050565b600060208284031215611ec657611ec5611abc565b5b6000611ed484828501611c77565b91505092915050565b60008060408385031215611ef457611ef3611abc565b5b6000611f0285828601611c77565b9250506020611f1385828601611c77565b9150509250929050565b7f4e487b7100000000000000000000000000000000000000000000000000000000600052602260045260246000fd5b60006002820490506001821680611f6457607f821691505b602082108103611f7757611f76611f1d565b5b50919050565b7f416363657373436f6e74726f6c3a2063616e206f6e6c792072656e6f756e636560008201527f20726f6c657320666f722073656c660000000000000000000000000000000000602082015250565b6000611fd9602f83611b87565b9150611fe482611f7d565b604082019050919050565b6000602082019050818103600083015261200881611fcc565b9050919050565b7f4e487b7100000000000000000000000000000000000000000000000000000000600052601160045260246000fd5b600061204982611c8c565b915061205483611c8c565b925082820190508082111561206c5761206b61200f565b5b92915050565b7f45524332303a2064656372656173656420616c6c6f77616e63652062656c6f7760008201527f207a65726f000000000000000000000000000000000000000000000000000000602082015250565b60006120ce602583611b87565b91506120d982612072565b604082019050919050565b600060208201905081810360008301526120fd816120c1565b9050919050565b7f45524332303a20617070726f76652066726f6d20746865207a65726f2061646460008201527f7265737300000000000000000000000000000000000000000000000000000000602082015250565b6000612160602483611b87565b915061216b82612104565b604082019050919050565b6000602082019050818103600083015261218f81612153565b9050919050565b7f45524332303a20617070726f766520746f20746865207a65726f20616464726560008201527f7373000000000000000000000000000000000000000000000000000000000000602082015250565b60006121f2602283611b87565b91506121fd82612196565b604082019050919050565b60006020820190508181036000830152612221816121e5565b9050919050565b7f45524332303a20696e73756666696369656e7420616c6c6f77616e6365000000600082015250565b600061225e601d83611b87565b915061226982612228565b602082019050919050565b6000602082019050818103600083015261228d81612251565b9050919050565b7f45524332303a207472616e736665722066726f6d20746865207a65726f20616460008201527f6472657373000000000000000000000000000000000000000000000000000000602082015250565b60006122f0602583611b87565b91506122fb82612294565b604082019050919050565b6000602082019050818103600083015261231f816122e3565b9050919050565b7f45524332303a207472616e7366657220746f20746865207a65726f206164647260008201527f6573730000000000000000000000000000000000000000000000000000000000602082015250565b6000612382602383611b87565b915061238d82612326565b604082019050919050565b600060208201905081810360008301526123b181612375565b9050919050565b7f45524332303a207472616e7366657220616d6f756e742065786365656473206260008201527f616c616e63650000000000000000000000000000000000000000000000000000602082015250565b6000612414602683611b87565b915061241f826123b8565b604082019050919050565b6000602082019050818103600083015261244381612407565b9050919050565b61245381611c4e565b82525050565b600060208201905061246e600083018461244a565b92915050565b7f45524332303a206d696e7420746f20746865207a65726f206164647265737300600082015250565b60006124aa601f83611b87565b91506124b582612474565b602082019050919050565b600060208201905081810360008301526124d98161249d565b9050919050565b7f45524332303a206275726e2066726f6d20746865207a65726f2061646472657360008201527f7300000000000000000000000000000000000000000000000000000000000000602082015250565b600061253c602183611b87565b9150612547826124e0565b604082019050919050565b6000602082019050818103600083015261256b8161252f565b9050919050565b7f45524332303a206275726e20616d6f756e7420657863656564732062616c616e60008201527f6365000000000000000000000000000000000000000000000000000000000000602082015250565b60006125ce602283611b87565b91506125d982612572565b604082019050919050565b600060208201905081810360008301526125fd816125c1565b9050919050565b600081905092915050565b7f416363657373436f6e74726f6c3a206163636f756e7420000000000000000000600082015250565b6000612645601783612604565b91506126508261260f565b601782019050919050565b600061266682611b7c565b6126708185612604565b9350612680818560208601611b98565b80840191505092915050565b7f206973206d697373696e6720726f6c6520000000000000000000000000000000600082015250565b60006126c2601183612604565b91506126cd8261268c565b601182019050919050565b60006126e382612638565b91506126ef828561265b565b91506126fa826126b5565b9150612706828461265b565b91508190509392505050565b7f5061757361626c653a206e6f7420706175736564000000000000000000000000600082015250565b6000612748601483611b87565b915061275382612712565b602082019050919050565b600060208201905081810360008301526127778161273b565b9050919050565b7f5061757361626c653a2070617573656400000000000000000000000000000000600082015250565b60006127b4601083611b87565b91506127bf8261277e565b602082019050919050565b600060208201905081810360008301526127e3816127a7565b9050919050565b60006127f582611c8c565b915061280083611c8c565b925082820261280e81611c8c565b915082820484148315176128255761282461200f565b5b5092915050565b7f4e487b7100000000000000000000000000000000000000000000000000000000600052604160045260246000fd5b7f4e487b7100000000000000000000000000000000000000000000000000000000600052603260045260246000fd5b600061289582611c8c565b9150600082036128a8576128a761200f565b5b600182039050919050565b7f537472696e67733a20686578206c656e67746820696e73756666696369656e74600082015250565b60006128e9602083611b87565b91506128f4826128b3565b602082019050919050565b60006020820190508181036000830152612918816128dc565b905091905056fea26469706673582212208c8ca06ee39d45ebcb2c3d3b0be2d65f7b4fba6ab3a763a8bc5a235230b7089e64736f6c63430008130033",
  "linkReferences": {},
  "deployedLinkReferences": {}
}