{
  "_format": "hh-sol-artifact-1",
  "contractName": "Pure",
  "sourceName": "contracts/class06/ViewPure.sol",
  "abi": [
    {
      "inputs": [],
      "name": "functionPure",
      "outputs": [
        {
          "internalType": "uint256",
          "name": "",
          "type": "uint256"
        }
      ],
      "stateMutability": "pure",
      "type": "function"
    },
    {
      "inputs": [],
      "name": "functionPure3",
      "outputs": [
        {
          "internalType": "string",
          "name": "",
          "type": "string"
        }
      ],
      "stateMutability": "pure",
      "type": "function"
    },
    {
      "inputs": [],
      "name": "functionPureQueLlamaAOtroPure",
      "outputs": [
        {
          "internalType": "uint256",
          "name": "",
          "type": "uint256"
        }
      ],
      "stateMutability": "pure",
      "type": "function"
    },
    {
      "inputs": [],
      "name": "functionView",
      "outputs": [
        {
          "internalType": "uint256",
          "name": "",
          "type": "uint256"
        }
      ],
      "stateMutability": "view",
      "type": "function"
    }
  ],
  "bytecode": "0x608060405260c860005534801561001557600080fd5b506102c3806100256000396000f3fe608060405234801561001057600080fd5b506004361061004c5760003560e01c80636800635e146100515780638cbad44d1461006f5780639ced2a5b1461008d578063d8477a11146100ab575b600080fd5b6100596100c9565b604051610066919061014f565b60405180910390f35b6100776100d2565b604051610084919061014f565b60405180910390f35b6100956100ed565b6040516100a291906101fa565b60405180910390f35b6100b361012a565b6040516100c0919061014f565b60405180910390f35b60008054905090565b60006100dc61012a565b600b6100e8919061024b565b905090565b60606040518060400160405280600d81526020017f66756e6369746f6e207075726100000000000000000000000000000000000000815250905090565b60006301658ce7905090565b6000819050919050565b61014981610136565b82525050565b60006020820190506101646000830184610140565b92915050565b600081519050919050565b600082825260208201905092915050565b60005b838110156101a4578082015181840152602081019050610189565b60008484015250505050565b6000601f19601f8301169050919050565b60006101cc8261016a565b6101d68185610175565b93506101e6818560208601610186565b6101ef816101b0565b840191505092915050565b6000602082019050818103600083015261021481846101c1565b905092915050565b7f4e487b7100000000000000000000000000000000000000000000000000000000600052601160045260246000fd5b600061025682610136565b915061026183610136565b925082820261026f81610136565b915082820484148315176102865761028561021c565b5b509291505056fea2646970667358221220881bb5b4f685be27601b0900c14b5de483462556d4494af69987adac0df02dc064736f6c63430008130033",
  "linkReferences": {},
  "deployedLinkReferences": {}
}