{
  "_format": "hh-sol-artifact-1",
  "contractName": "EnglishAuctionDec",
  "sourceName": "contracts/class15/EnglishAuction.sol",
  "abi": [
    {
      "anonymous": false,
      "inputs": [
        {
          "indexed": true,
          "internalType": "address",
          "name": "_bidder",
          "type": "address"
        },
        {
          "indexed": false,
          "internalType": "uint256",
          "name": "_bid",
          "type": "uint256"
        }
      ],
      "name": "OfertaPropuesta",
      "type": "event"
    },
    {
      "anonymous": false,
      "inputs": [
        {
          "indexed": true,
          "internalType": "bytes32",
          "name": "_auctionId",
          "type": "bytes32"
        },
        {
          "indexed": true,
          "internalType": "address",
          "name": "_creator",
          "type": "address"
        }
      ],
      "name": "SubastaCreada",
      "type": "event"
    },
    {
      "anonymous": false,
      "inputs": [
        {
          "indexed": true,
          "internalType": "address",
          "name": "_winner",
          "type": "address"
        },
        {
          "indexed": false,
          "internalType": "uint256",
          "name": "_bid",
          "type": "uint256"
        }
      ],
      "name": "SubastaFinalizada",
      "type": "event"
    },
    {
      "inputs": [
        {
          "internalType": "uint256",
          "name": "",
          "type": "uint256"
        }
      ],
      "name": "activeAuctions",
      "outputs": [
        {
          "internalType": "bytes32",
          "name": "",
          "type": "bytes32"
        }
      ],
      "stateMutability": "view",
      "type": "function"
    },
    {
      "inputs": [
        {
          "internalType": "bytes32",
          "name": "idDeSubasta",
          "type": "bytes32"
        }
      ],
      "name": "auctionIndex",
      "outputs": [
        {
          "internalType": "uint256",
          "name": "indiceEnArray",
          "type": "uint256"
        }
      ],
      "stateMutability": "view",
      "type": "function"
    },
    {
      "inputs": [
        {
          "internalType": "bytes32",
          "name": "",
          "type": "bytes32"
        }
      ],
      "name": "auctions",
      "outputs": [
        {
          "internalType": "uint256",
          "name": "startTime",
          "type": "uint256"
        },
        {
          "internalType": "uint256",
          "name": "endTime",
          "type": "uint256"
        },
        {
          "internalType": "address",
          "name": "highestBidder",
          "type": "address"
        },
        {
          "internalType": "uint256",
          "name": "highestBid",
          "type": "uint256"
        }
      ],
      "stateMutability": "view",
      "type": "function"
    },
    {
      "inputs": [
        {
          "internalType": "uint256",
          "name": "_startTime",
          "type": "uint256"
        },
        {
          "internalType": "uint256",
          "name": "_endTime",
          "type": "uint256"
        }
      ],
      "name": "creaSubasta",
      "outputs": [],
      "stateMutability": "payable",
      "type": "function"
    },
    {
      "inputs": [
        {
          "internalType": "bytes32",
          "name": "_auctionId",
          "type": "bytes32"
        }
      ],
      "name": "finalizarSubasta",
      "outputs": [],
      "stateMutability": "nonpayable",
      "type": "function"
    },
    {
      "inputs": [
        {
          "internalType": "uint256",
          "name": "",
          "type": "uint256"
        }
      ],
      "name": "pastAuctions",
      "outputs": [
        {
          "internalType": "bytes32",
          "name": "",
          "type": "bytes32"
        }
      ],
      "stateMutability": "view",
      "type": "function"
    },
    {
      "inputs": [
        {
          "internalType": "bytes32",
          "name": "_auctionId",
          "type": "bytes32"
        }
      ],
      "name": "proponerOferta",
      "outputs": [],
      "stateMutability": "payable",
      "type": "function"
    },
    {
      "inputs": [
        {
          "internalType": "bytes32",
          "name": "_auctionId",
          "type": "bytes32"
        }
      ],
      "name": "recuperarOferta",
      "outputs": [],
      "stateMutability": "nonpayable",
      "type": "function"
    },
    {
      "inputs": [],
      "name": "verSubastasActivas",
      "outputs": [
        {
          "internalType": "bytes32[]",
          "name": "",
          "type": "bytes32[]"
        }
      ],
      "stateMutability": "view",
      "type": "function"
    },
    {
      "inputs": [],
      "name": "verSubastasPasadas",
      "outputs": [
        {
          "internalType": "bytes32[]",
          "name": "",
          "type": "bytes32[]"
        }
      ],
      "stateMutability": "view",
      "type": "function"
    }
  ],
  "bytecode": "0x608060405234801561001057600080fd5b50611475806100206000396000f3fe6080604052600436106100915760003560e01c8063814364ef11610059578063814364ef146101815780638db16d54146101ac578063a729e1a1146101e9578063b169480f14610226578063f2845dab1461025157610091565b80630a093425146100965780631edbc5be146100b2578063236cfff9146100f25780636d8a0fac1461011b578063790d859614610144575b600080fd5b6100b060048036038101906100ab9190610caa565b61026d565b005b3480156100be57600080fd5b506100d960048036038101906100d49190610caa565b61055c565b6040516100e99493929190610d31565b60405180910390f35b3480156100fe57600080fd5b5061011960048036038101906101149190610caa565b6105ac565b005b34801561012757600080fd5b50610142600480360381019061013d9190610caa565b6106f2565b005b34801561015057600080fd5b5061016b60048036038101906101669190610da2565b610963565b6040516101789190610dde565b60405180910390f35b34801561018d57600080fd5b50610196610987565b6040516101a39190610eb7565b60405180910390f35b3480156101b857600080fd5b506101d360048036038101906101ce9190610caa565b6109df565b6040516101e09190610ed9565b60405180910390f35b3480156101f557600080fd5b50610210600480360381019061020b9190610da2565b6109f7565b60405161021d9190610dde565b60405180910390f35b34801561023257600080fd5b5061023b610a1b565b6040516102489190610eb7565b60405180910390f35b61026b60048036038101906102669190610ef4565b610ad8565b005b6000806000838152602001908152602001600020905060008160000154036102ca576040517f08c379a00000000000000000000000000000000000000000000000000000000081526004016102c190610f91565b60405180910390fd5b4281600101541015610311576040517f08c379a000000000000000000000000000000000000000000000000000000000815260040161030890610ffd565b60405180910390fd5b8060030154348260040160003373ffffffffffffffffffffffffffffffffffffffff1673ffffffffffffffffffffffffffffffffffffffff16815260200190815260200160002054610363919061104c565b116103a3576040517f08c379a000000000000000000000000000000000000000000000000000000000815260040161039a906110cc565b60405180910390fd5b61012c4282600101546103b691906110ec565b116103d95761012c8160010160008282546103d1919061104c565b925050819055505b338160020160006101000a81548173ffffffffffffffffffffffffffffffffffffffff021916908373ffffffffffffffffffffffffffffffffffffffff160217905550348160040160003373ffffffffffffffffffffffffffffffffffffffff1673ffffffffffffffffffffffffffffffffffffffff16815260200190815260200160002054610469919061104c565b8160030181905550348160040160003373ffffffffffffffffffffffffffffffffffffffff1673ffffffffffffffffffffffffffffffffffffffff16815260200190815260200160002060008282546104c2919061104c565b925050819055503373ffffffffffffffffffffffffffffffffffffffff167ff5ca851a11962d9db48b067b7916de58d12c2c6b8ef5cdba8be754e2494c96e98260040160003373ffffffffffffffffffffffffffffffffffffffff1673ffffffffffffffffffffffffffffffffffffffff168152602001908152602001600020546040516105509190610ed9565b60405180910390a25050565b60006020528060005260406000206000915090508060000154908060010154908060020160009054906101000a900473ffffffffffffffffffffffffffffffffffffffff16908060030154905084565b6000806000838152602001908152602001600020905042816001015411806105d957506000816000015414155b15610619576040517f08c379a00000000000000000000000000000000000000000000000000000000081526004016106109061116c565b60405180910390fd5b60008160040160003373ffffffffffffffffffffffffffffffffffffffff1673ffffffffffffffffffffffffffffffffffffffff16815260200190815260200160002054905060008260040160003373ffffffffffffffffffffffffffffffffffffffff1673ffffffffffffffffffffffffffffffffffffffff168152602001908152602001600020819055503373ffffffffffffffffffffffffffffffffffffffff166108fc829081150290604051600060405180830381858888f193505050501580156106ec573d6000803e3d6000fd5b50505050565b60008060008381526020019081526020016000209050600081600001540361074f576040517f08c379a000000000000000000000000000000000000000000000000000000000815260040161074690610f91565b60405180910390fd5b4281600101541115610796576040517f08c379a000000000000000000000000000000000000000000000000000000000815260040161078d9061116c565b60405180910390fd5b60018080805490506107a891906110ec565b815481106107b9576107b861118c565b5b906000526020600020015460016002600085815260200190815260200160002054815481106107eb576107ea61118c565b5b90600052602060002001819055506000816000018190555060018160040160008360020160009054906101000a900473ffffffffffffffffffffffffffffffffffffffff1673ffffffffffffffffffffffffffffffffffffffff1673ffffffffffffffffffffffffffffffffffffffff1681526020019081526020016000206000828254610879919061104c565b925050819055506001805480610892576108916111bb565b5b60019003818190600052602060002001600090559055600460008154809291906108bb906111ea565b919050555060038290806001815401808255809150506001900390600052602060002001600090919091909150558060020160009054906101000a900473ffffffffffffffffffffffffffffffffffffffff1673ffffffffffffffffffffffffffffffffffffffff167fa3a65b403bdae88eb037f4ecc1d619f436fc3ef6bcbbee3787757164e82883f282600301546040516109579190610ed9565b60405180910390a25050565b6001818154811061097357600080fd5b906000526020600020016000915090505481565b606060038054806020026020016040519081016040528092919081815260200182805480156109d557602002820191906000526020600020905b8154815260200190600101908083116109c1575b5050505050905090565b60026020528060005260406000206000915090505481565b60038181548110610a0757600080fd5b906000526020600020016000915090505481565b6060600060018054905067ffffffffffffffff811115610a3e57610a3d611213565b5b604051908082528060200260200182016040528015610a6c5781602001602082028036833780820191505090505b50905060005b600180549050811015610ad05760018181548110610a9357610a9261118c565b5b9060005260206000200154828281518110610ab157610ab061118c565b5b6020026020010181815250508080610ac890611242565b915050610a72565b508091505090565b60013414610b1b576040517f08c379a0000000000000000000000000000000000000000000000000000000008152600401610b12906112d6565b60405180910390fd5b818111610b5d576040517f08c379a0000000000000000000000000000000000000000000000000000000008152600401610b5490611368565b60405180910390fd5b6000610b698383610c38565b90506001819080600181540180825580915050600190039060005260206000200160009091909190915055600454600260008381526020019081526020016000208190555060046000815480929190610bc190611242565b9190505550600080600083815260200190815260200160002090508381600001819055508281600101819055503373ffffffffffffffffffffffffffffffffffffffff16827fa1548e82a8ac78e2f94483fa0764a6d4827d866122517949440346e17d819e1960405160405180910390a350505050565b600082823342604051602001610c5194939291906113f1565b60405160208183030381529060405280519060200120905092915050565b600080fd5b6000819050919050565b610c8781610c74565b8114610c9257600080fd5b50565b600081359050610ca481610c7e565b92915050565b600060208284031215610cc057610cbf610c6f565b5b6000610cce84828501610c95565b91505092915050565b6000819050919050565b610cea81610cd7565b82525050565b600073ffffffffffffffffffffffffffffffffffffffff82169050919050565b6000610d1b82610cf0565b9050919050565b610d2b81610d10565b82525050565b6000608082019050610d466000830187610ce1565b610d536020830186610ce1565b610d606040830185610d22565b610d6d6060830184610ce1565b95945050505050565b610d7f81610cd7565b8114610d8a57600080fd5b50565b600081359050610d9c81610d76565b92915050565b600060208284031215610db857610db7610c6f565b5b6000610dc684828501610d8d565b91505092915050565b610dd881610c74565b82525050565b6000602082019050610df36000830184610dcf565b92915050565b600081519050919050565b600082825260208201905092915050565b6000819050602082019050919050565b610e2e81610c74565b82525050565b6000610e408383610e25565b60208301905092915050565b6000602082019050919050565b6000610e6482610df9565b610e6e8185610e04565b9350610e7983610e15565b8060005b83811015610eaa578151610e918882610e34565b9750610e9c83610e4c565b925050600181019050610e7d565b5085935050505092915050565b60006020820190508181036000830152610ed18184610e59565b905092915050565b6000602082019050610eee6000830184610ce1565b92915050565b60008060408385031215610f0b57610f0a610c6f565b5b6000610f1985828601610d8d565b9250506020610f2a85828601610d8d565b9150509250929050565b600082825260208201905092915050565b7f53756261737461206e6f20657869737465000000000000000000000000000000600082015250565b6000610f7b601183610f34565b9150610f8682610f45565b602082019050919050565b60006020820190508181036000830152610faa81610f6e565b9050919050565b7f4675657261206465207469656d706f0000000000000000000000000000000000600082015250565b6000610fe7600f83610f34565b9150610ff282610fb1565b602082019050919050565b6000602082019050818103600083015261101681610fda565b9050919050565b7f4e487b7100000000000000000000000000000000000000000000000000000000600052601160045260246000fd5b600061105782610cd7565b915061106283610cd7565b925082820190508082111561107a5761107961101d565b5b92915050565b7f4f666572746120496e76616c6964610000000000000000000000000000000000600082015250565b60006110b6600f83610f34565b91506110c182611080565b602082019050919050565b600060208201905081810360008301526110e5816110a9565b9050919050565b60006110f782610cd7565b915061110283610cd7565b925082820390508181111561111a5761111961101d565b5b92915050565b7f5375626173746120656e206d6172636861000000000000000000000000000000600082015250565b6000611156601183610f34565b915061116182611120565b602082019050919050565b6000602082019050818103600083015261118581611149565b9050919050565b7f4e487b7100000000000000000000000000000000000000000000000000000000600052603260045260246000fd5b7f4e487b7100000000000000000000000000000000000000000000000000000000600052603160045260246000fd5b60006111f582610cd7565b9150600082036112085761120761101d565b5b600182039050919050565b7f4e487b7100000000000000000000000000000000000000000000000000000000600052604160045260246000fd5b600061124d82610cd7565b91507fffffffffffffffffffffffffffffffffffffffffffffffffffffffffffffffff820361127f5761127e61101d565b5b600182019050919050565b7f5365206465626520656e76696172203120776569000000000000000000000000600082015250565b60006112c0601483610f34565b91506112cb8261128a565b602082019050919050565b600060208201905081810360008301526112ef816112b3565b9050919050565b7f5469656d706f2066696e616c206465626520736572206d61796f72206120696e60008201527f696369616c000000000000000000000000000000000000000000000000000000602082015250565b6000611352602583610f34565b915061135d826112f6565b604082019050919050565b6000602082019050818103600083015261138181611345565b9050919050565b6000819050919050565b6113a361139e82610cd7565b611388565b82525050565b60008160601b9050919050565b60006113c1826113a9565b9050919050565b60006113d3826113b6565b9050919050565b6113eb6113e682610d10565b6113c8565b82525050565b60006113fd8287611392565b60208201915061140d8286611392565b60208201915061141d82856113da565b60148201915061142d8284611392565b6020820191508190509594505050505056fea264697066735822122050aa447f44b08beb19dc34dea8ee9f173b07b5097f218782525d3ad177a8520b64736f6c63430008130033",
  "linkReferences": {},
  "deployedLinkReferences": {}
}