{
  "_format": "hh-sol-artifact-1",
  "contractName": "Asistencia",
  "sourceName": "contracts/class07/EjercicioComunicacionIntercontrato.sol",
  "abi": [
    {
      "inputs": [
        {
          "internalType": "address",
          "name": "estudiante",
          "type": "address"
        }
      ],
      "name": "asistentes",
      "outputs": [
        {
          "internalType": "bool",
          "name": "siAsistio",
          "type": "bool"
        }
      ],
      "stateMutability": "view",
      "type": "function"
    },
    {
      "inputs": [
        {
          "internalType": "address",
          "name": "_estudiante",
          "type": "address"
        }
      ],
      "name": "leerAsistencia",
      "outputs": [
        {
          "internalType": "bool",
          "name": "",
          "type": "bool"
        }
      ],
      "stateMutability": "view",
      "type": "function"
    },
    {
      "inputs": [
        {
          "internalType": "address",
          "name": "_estudiante",
          "type": "address"
        }
      ],
      "name": "marcarAsistencia",
      "outputs": [],
      "stateMutability": "nonpayable",
      "type": "function"
    },
    {
      "inputs": [],
      "name": "otrosMetodos",
      "outputs": [],
      "stateMutability": "nonpayable",
      "type": "function"
    },
    {
      "inputs": [],
      "name": "otrosMetodos2",
      "outputs": [],
      "stateMutability": "nonpayable",
      "type": "function"
    },
    {
      "inputs": [],
      "name": "otrosMetodos3",
      "outputs": [],
      "stateMutability": "nonpayable",
      "type": "function"
    },
    {
      "inputs": [],
      "name": "otrosMetodos4",
      "outputs": [],
      "stateMutability": "nonpayable",
      "type": "function"
    }
  ],
  "bytecode": "0x608060405234801561001057600080fd5b506102f9806100206000396000f3fe608060405234801561001057600080fd5b506004361061007d5760003560e01c80635e0c81371161005b5780635e0c8137146100b2578063912da68a146100bc578063b04a470d146100c6578063bfd98682146100f65761007d565b806333bac4c314610082578063399e341f1461008c57806349766493146100a8575b600080fd5b61008a610126565b005b6100a660048036038101906100a19190610260565b610128565b005b6100b0610182565b005b6100ba610184565b005b6100c4610186565b005b6100e060048036038101906100db9190610260565b610188565b6040516100ed91906102a8565b60405180910390f35b610110600480360381019061010b9190610260565b6101a8565b60405161011d91906102a8565b60405180910390f35b565b60016000808373ffffffffffffffffffffffffffffffffffffffff1673ffffffffffffffffffffffffffffffffffffffff16815260200190815260200160002060006101000a81548160ff02191690831515021790555050565b565b565b565b60006020528060005260406000206000915054906101000a900460ff1681565b60008060008373ffffffffffffffffffffffffffffffffffffffff1673ffffffffffffffffffffffffffffffffffffffff16815260200190815260200160002060009054906101000a900460ff169050919050565b600080fd5b600073ffffffffffffffffffffffffffffffffffffffff82169050919050565b600061022d82610202565b9050919050565b61023d81610222565b811461024857600080fd5b50565b60008135905061025a81610234565b92915050565b600060208284031215610276576102756101fd565b5b60006102848482850161024b565b91505092915050565b60008115159050919050565b6102a28161028d565b82525050565b60006020820190506102bd6000830184610299565b9291505056fea26469706673582212209d5d6322b59738429bd17f0a721fd5527702b48fcd34cd00db889e9c42366a8564736f6c63430008130033",
  "linkReferences": {},
  "deployedLinkReferences": {}
}