{
  "_format": "hh-sol-artifact-1",
  "contractName": "Estudiante",
  "sourceName": "contracts/class07/EjercicioComunicacionIntercontrato.sol",
  "abi": [
    {
      "inputs": [],
      "name": "leer",
      "outputs": [
        {
          "internalType": "bool",
          "name": "",
          "type": "bool"
        }
      ],
      "stateMutability": "view",
      "type": "function"
    },
    {
      "inputs": [],
      "name": "llamarAMetodoQueNoExiste",
      "outputs": [],
      "stateMutability": "nonpayable",
      "type": "function"
    },
    {
      "inputs": [],
      "name": "marcar",
      "outputs": [],
      "stateMutability": "nonpayable",
      "type": "function"
    },
    {
      "inputs": [
        {
          "internalType": "address",
          "name": "contratoAddress",
          "type": "address"
        }
      ],
      "name": "marcar2",
      "outputs": [],
      "stateMutability": "nonpayable",
      "type": "function"
    }
  ],
  "bytecode": "0x60806040527309197b6faf9f5ade46d476a0061f0119fb6813676000806101000a81548173ffffffffffffffffffffffffffffffffffffffff021916908373ffffffffffffffffffffffffffffffffffffffff16021790555034801561006457600080fd5b5061043d806100746000396000f3fe608060405234801561001057600080fd5b506004361061004c5760003560e01c80632ca7a310146100515780632f9626511461006d578063359eb05d14610077578063b38f9adf14610081575b600080fd5b61006b60048036038101906100669190610321565b61009f565b005b61007561010d565b005b61007f61019a565b005b61008961021c565b6040516100969190610369565b60405180910390f35b8073ffffffffffffffffffffffffffffffffffffffff1663399e341f336040518263ffffffff1660e01b81526004016100d89190610393565b600060405180830381600087803b1580156100f257600080fd5b505af1158015610106573d6000803e3d6000fd5b5050505050565b60008054906101000a900473ffffffffffffffffffffffffffffffffffffffff1673ffffffffffffffffffffffffffffffffffffffff1663399e341f336040518263ffffffff1660e01b81526004016101669190610393565b600060405180830381600087803b15801561018057600080fd5b505af1158015610194573d6000803e3d6000fd5b50505050565b60008054906101000a900473ffffffffffffffffffffffffffffffffffffffff1673ffffffffffffffffffffffffffffffffffffffff1663327d20bf6040518163ffffffff1660e01b8152600401600060405180830381600087803b15801561020257600080fd5b505af1158015610216573d6000803e3d6000fd5b50505050565b60008060009054906101000a900473ffffffffffffffffffffffffffffffffffffffff1673ffffffffffffffffffffffffffffffffffffffff1663bfd98682336040518263ffffffff1660e01b81526004016102789190610393565b602060405180830381865afa158015610295573d6000803e3d6000fd5b505050506040513d601f19601f820116820180604052508101906102b991906103da565b905090565b600080fd5b600073ffffffffffffffffffffffffffffffffffffffff82169050919050565b60006102ee826102c3565b9050919050565b6102fe816102e3565b811461030957600080fd5b50565b60008135905061031b816102f5565b92915050565b600060208284031215610337576103366102be565b5b60006103458482850161030c565b91505092915050565b60008115159050919050565b6103638161034e565b82525050565b600060208201905061037e600083018461035a565b92915050565b61038d816102e3565b82525050565b60006020820190506103a86000830184610384565b92915050565b6103b78161034e565b81146103c257600080fd5b50565b6000815190506103d4816103ae565b92915050565b6000602082840312156103f0576103ef6102be565b5b60006103fe848285016103c5565b9150509291505056fea2646970667358221220f7165a1c93b63959e85d21de085ea7886e9d07df8e6b43b01553ae8adccbe0fc64736f6c63430008130033",
  "linkReferences": {},
  "deployedLinkReferences": {}
}