{
  "_format": "hh-sol-artifact-1",
  "contractName": "ArrayTamanoFijo",
  "sourceName": "contracts/class05/ArraysFijo.sol",
  "abi": [
    {
      "inputs": [
        {
          "internalType": "uint256",
          "name": "pos",
          "type": "uint256"
        }
      ],
      "name": "borrarInformacion",
      "outputs": [],
      "stateMutability": "nonpayable",
      "type": "function"
    },
    {
      "inputs": [],
      "name": "guardarInfoEnArray",
      "outputs": [],
      "stateMutability": "nonpayable",
      "type": "function"
    }
  ],
  "bytecode": "0x608060405234801561001057600080fd5b506102a3806100206000396000f3fe608060405234801561001057600080fd5b50600436106100365760003560e01c806303f566991461003b578063258d94ac14610057575b600080fd5b6100556004803603810190610050919061019a565b610061565b005b61005f61007d565b005b60008160058110610075576100746101c7565b5b016000905550565b600080600060058110610093576100926101c7565b5b0181905550600160006001600581106100af576100ae6101c7565b5b0181905550600260006002600581106100cb576100ca6101c7565b5b0181905550600360006003600581106100e7576100e66101c7565b5b018190555060046000600460058110610103576101026101c7565b5b018190555060005b600a81101561015c576001600582600a811061012a576101296101c7565b5b602091828204019190066101000a81548160ff021916908315150217905550808061015490610225565b91505061010b565b50565b600080fd5b6000819050919050565b61017781610164565b811461018257600080fd5b50565b6000813590506101948161016e565b92915050565b6000602082840312156101b0576101af61015f565b5b60006101be84828501610185565b91505092915050565b7f4e487b7100000000000000000000000000000000000000000000000000000000600052603260045260246000fd5b7f4e487b7100000000000000000000000000000000000000000000000000000000600052601160045260246000fd5b600061023082610164565b91507fffffffffffffffffffffffffffffffffffffffffffffffffffffffffffffffff8203610262576102616101f6565b5b60018201905091905056fea2646970667358221220f1ec45c93dfe57b73ed36006a6a5fc6d456bf759e2d37c272038d5c31478c16f64736f6c63430008130033",
  "linkReferences": {},
  "deployedLinkReferences": {}
}