{
  "_format": "hh-sol-artifact-1",
  "contractName": "MiPrgmToken",
  "sourceName": "contracts/laboratorios/PRGMtkn.sol",
  "abi": [
    {
      "inputs": [],
      "stateMutability": "nonpayable",
      "type": "constructor"
    },
    {
      "anonymous": false,
      "inputs": [
        {
          "indexed": true,
          "internalType": "address",
          "name": "owner",
          "type": "address"
        },
        {
          "indexed": true,
          "internalType": "address",
          "name": "spender",
          "type": "address"
        },
        {
          "indexed": false,
          "internalType": "uint256",
          "name": "value",
          "type": "uint256"
        }
      ],
      "name": "Approval",
      "type": "event"
    },
    {
      "anonymous": false,
      "inputs": [
        {
          "indexed": true,
          "internalType": "address",
          "name": "from",
          "type": "address"
        },
        {
          "indexed": true,
          "internalType": "address",
          "name": "to",
          "type": "address"
        },
        {
          "indexed": false,
          "internalType": "uint256",
          "name": "value",
          "type": "uint256"
        }
      ],
      "name": "Transfer",
      "type": "event"
    },
    {
      "inputs": [
        {
          "internalType": "address",
          "name": "owner",
          "type": "address"
        },
        {
          "internalType": "address",
          "name": "spender",
          "type": "address"
        }
      ],
      "name": "allowance",
      "outputs": [
        {
          "internalType": "uint256",
          "name": "",
          "type": "uint256"
        }
      ],
      "stateMutability": "view",
      "type": "function"
    },
    {
      "inputs": [
        {
          "internalType": "address",
          "name": "spender",
          "type": "address"
        },
        {
          "internalType": "uint256",
          "name": "amount",
          "type": "uint256"
        }
      ],
      "name": "approve",
      "outputs": [
        {
          "internalType": "bool",
          "name": "",
          "type": "bool"
        }
      ],
      "stateMutability": "nonpayable",
      "type": "function"
    },
    {
      "inputs": [
        {
          "internalType": "address",
          "name": "account",
          "type": "address"
        }
      ],
      "name": "balanceOf",
      "outputs": [
        {
          "internalType": "uint256",
          "name": "",
          "type": "uint256"
        }
      ],
      "stateMutability": "view",
      "type": "function"
    },
    {
      "inputs": [
        {
          "internalType": "uint256",
          "name": "amount",
          "type": "uint256"
        }
      ],
      "name": "burn",
      "outputs": [],
      "stateMutability": "nonpayable",
      "type": "function"
    },
    {
      "inputs": [
        {
          "internalType": "address",
          "name": "account",
          "type": "address"
        },
        {
          "internalType": "uint256",
          "name": "amount",
          "type": "uint256"
        }
      ],
      "name": "burnFrom",
      "outputs": [],
      "stateMutability": "nonpayable",
      "type": "function"
    },
    {
      "inputs": [
        {
          "internalType": "uint256",
          "name": "cantidadTokens",
          "type": "uint256"
        }
      ],
      "name": "burnTokensExacto",
      "outputs": [],
      "stateMutability": "nonpayable",
      "type": "function"
    },
    {
      "inputs": [
        {
          "internalType": "uint256",
          "name": "cantidadTokens",
          "type": "uint256"
        }
      ],
      "name": "comprarTokensExactoPorUsdc",
      "outputs": [],
      "stateMutability": "nonpayable",
      "type": "function"
    },
    {
      "inputs": [
        {
          "internalType": "uint256",
          "name": "cantidadDeUsdc",
          "type": "uint256"
        }
      ],
      "name": "comprarTokensPorUsdcExacto",
      "outputs": [],
      "stateMutability": "nonpayable",
      "type": "function"
    },
    {
      "inputs": [],
      "name": "decimals",
      "outputs": [
        {
          "internalType": "uint8",
          "name": "",
          "type": "uint8"
        }
      ],
      "stateMutability": "view",
      "type": "function"
    },
    {
      "inputs": [
        {
          "internalType": "address",
          "name": "spender",
          "type": "address"
        },
        {
          "internalType": "uint256",
          "name": "subtractedValue",
          "type": "uint256"
        }
      ],
      "name": "decreaseAllowance",
      "outputs": [
        {
          "internalType": "bool",
          "name": "",
          "type": "bool"
        }
      ],
      "stateMutability": "nonpayable",
      "type": "function"
    },
    {
      "inputs": [],
      "name": "getUsdcContract",
      "outputs": [
        {
          "internalType": "address",
          "name": "",
          "type": "address"
        }
      ],
      "stateMutability": "view",
      "type": "function"
    },
    {
      "inputs": [
        {
          "internalType": "address",
          "name": "spender",
          "type": "address"
        },
        {
          "internalType": "uint256",
          "name": "addedValue",
          "type": "uint256"
        }
      ],
      "name": "increaseAllowance",
      "outputs": [
        {
          "internalType": "bool",
          "name": "",
          "type": "bool"
        }
      ],
      "stateMutability": "nonpayable",
      "type": "function"
    },
    {
      "inputs": [],
      "name": "name",
      "outputs": [
        {
          "internalType": "string",
          "name": "",
          "type": "string"
        }
      ],
      "stateMutability": "view",
      "type": "function"
    },
    {
      "inputs": [],
      "name": "ratio",
      "outputs": [
        {
          "internalType": "uint256",
          "name": "",
          "type": "uint256"
        }
      ],
      "stateMutability": "view",
      "type": "function"
    },
    {
      "inputs": [],
      "name": "symbol",
      "outputs": [
        {
          "internalType": "string",
          "name": "",
          "type": "string"
        }
      ],
      "stateMutability": "view",
      "type": "function"
    },
    {
      "inputs": [],
      "name": "totalSupply",
      "outputs": [
        {
          "internalType": "uint256",
          "name": "",
          "type": "uint256"
        }
      ],
      "stateMutability": "view",
      "type": "function"
    },
    {
      "inputs": [
        {
          "internalType": "address",
          "name": "to",
          "type": "address"
        },
        {
          "internalType": "uint256",
          "name": "amount",
          "type": "uint256"
        }
      ],
      "name": "transfer",
      "outputs": [
        {
          "internalType": "bool",
          "name": "",
          "type": "bool"
        }
      ],
      "stateMutability": "nonpayable",
      "type": "function"
    },
    {
      "inputs": [
        {
          "internalType": "address",
          "name": "from",
          "type": "address"
        },
        {
          "internalType": "address",
          "name": "to",
          "type": "address"
        },
        {
          "internalType": "uint256",
          "name": "amount",
          "type": "uint256"
        }
      ],
      "name": "transferFrom",
      "outputs": [
        {
          "internalType": "bool",
          "name": "",
          "type": "bool"
        }
      ],
      "stateMutability": "nonpayable",
      "type": "function"
    }
  ],
  "bytecode": "0x608060405260326006553480156200001657600080fd5b506040518060400160405280600d81526020017f4d6920546f6b656e205052474d000000000000000000000000000000000000008152506040518060400160405280600881526020017f4d5052474d544b4e00000000000000000000000000000000000000000000000081525081600390816200009491906200037e565b508060049081620000a691906200037e565b50505073f610b6f4c8759ca343ea70fac2b27bc8642da5e5600560006101000a81548173ffffffffffffffffffffffffffffffffffffffff021916908373ffffffffffffffffffffffffffffffffffffffff16021790555062000465565b600081519050919050565b7f4e487b7100000000000000000000000000000000000000000000000000000000600052604160045260246000fd5b7f4e487b7100000000000000000000000000000000000000000000000000000000600052602260045260246000fd5b600060028204905060018216806200018657607f821691505b6020821081036200019c576200019b6200013e565b5b50919050565b60008190508160005260206000209050919050565b60006020601f8301049050919050565b600082821b905092915050565b600060088302620002067fffffffffffffffffffffffffffffffffffffffffffffffffffffffffffffffff82620001c7565b620002128683620001c7565b95508019841693508086168417925050509392505050565b6000819050919050565b6000819050919050565b60006200025f6200025962000253846200022a565b62000234565b6200022a565b9050919050565b6000819050919050565b6200027b836200023e565b620002936200028a8262000266565b848454620001d4565b825550505050565b600090565b620002aa6200029b565b620002b781848462000270565b505050565b5b81811015620002df57620002d3600082620002a0565b600181019050620002bd565b5050565b601f8211156200032e57620002f881620001a2565b6200030384620001b7565b8101602085101562000313578190505b6200032b6200032285620001b7565b830182620002bc565b50505b505050565b600082821c905092915050565b6000620003536000198460080262000333565b1980831691505092915050565b60006200036e838362000340565b9150826002028217905092915050565b620003898262000104565b67ffffffffffffffff811115620003a557620003a46200010f565b5b620003b182546200016d565b620003be828285620002e3565b600060209050601f831160018114620003f65760008415620003e1578287015190505b620003ed858262000360565b8655506200045d565b601f1984166200040686620001a2565b60005b82811015620004305784890151825560018201915060208501945060208101905062000409565b868310156200045057848901516200044c601f89168262000340565b8355505b6001600288020188555050505b505050505050565b6121e780620004756000396000f3fe608060405234801561001057600080fd5b50600436106101165760003560e01c806371ca337d116100a2578063a457c2d711610071578063a457c2d7146102e1578063a9059cbb14610311578063b97110ab14610341578063dd62ed3e1461035f578063f54aecc61461038f57610116565b806371ca337d1461026d57806377ec91891461028b57806379cc6790146102a757806395d89b41146102c357610116565b8063313ce567116100e9578063313ce567146101b757806339509351146101d557806342966c68146102055780634c0e3ad41461022157806370a082311461023d57610116565b806306fdde031461011b578063095ea7b31461013957806318160ddd1461016957806323b872dd14610187575b600080fd5b6101236103ab565b604051610130919061149f565b60405180910390f35b610153600480360381019061014e919061155a565b61043d565b60405161016091906115b5565b60405180910390f35b610171610460565b60405161017e91906115df565b60405180910390f35b6101a1600480360381019061019c91906115fa565b61046a565b6040516101ae91906115b5565b60405180910390f35b6101bf610499565b6040516101cc9190611669565b60405180910390f35b6101ef60048036038101906101ea919061155a565b6104a2565b6040516101fc91906115b5565b60405180910390f35b61021f600480360381019061021a9190611684565b6104d9565b005b61023b60048036038101906102369190611684565b6104ed565b005b610257600480360381019061025291906116b1565b6105c9565b60405161026491906115df565b60405180910390f35b610275610611565b60405161028291906115df565b60405180910390f35b6102a560048036038101906102a09190611684565b610617565b005b6102c160048036038101906102bc919061155a565b61079f565b005b6102cb6107bf565b6040516102d8919061149f565b60405180910390f35b6102fb60048036038101906102f6919061155a565b610851565b60405161030891906115b5565b60405180910390f35b61032b6004803603810190610326919061155a565b6108c8565b60405161033891906115b5565b60405180910390f35b6103496108eb565b60405161035691906116ed565b60405180910390f35b61037960048036038101906103749190611708565b610915565b60405161038691906115df565b60405180910390f35b6103a960048036038101906103a49190611684565b61099c565b005b6060600380546103ba90611777565b80601f01602080910402602001604051908101604052809291908181526020018280546103e690611777565b80156104335780601f1061040857610100808354040283529160200191610433565b820191906000526020600020905b81548152906001019060200180831161041657829003601f168201915b5050505050905090565b600080610448610a78565b9050610455818585610a80565b600191505092915050565b6000600254905090565b600080610475610a78565b9050610482858285610c49565b61048d858585610cd5565b60019150509392505050565b60006012905090565b6000806104ad610a78565b90506104ce8185856104bf8589610915565b6104c991906117d7565b610a80565b600191505092915050565b6104ea6104e4610a78565b82610f4b565b50565b6000600654826104fd919061180b565b9050600560009054906101000a900473ffffffffffffffffffffffffffffffffffffffff1673ffffffffffffffffffffffffffffffffffffffff1663313ce5676040518163ffffffff1660e01b8152600401602060405180830381865afa15801561056c573d6000803e3d6000fd5b505050506040513d601f19601f820116820180604052508101906105909190611879565b610598610499565b6105a291906118a6565b600a6105ae9190611a0e565b816105b9919061180b565b90506105c58282611118565b5050565b60008060008373ffffffffffffffffffffffffffffffffffffffff1673ffffffffffffffffffffffffffffffffffffffff168152602001908152602001600020549050919050565b60065481565b6000600654600a836106299190611a88565b6106339190611a88565b9050600560009054906101000a900473ffffffffffffffffffffffffffffffffffffffff1673ffffffffffffffffffffffffffffffffffffffff1663313ce5676040518163ffffffff1660e01b8152600401602060405180830381865afa1580156106a2573d6000803e3d6000fd5b505050506040513d601f19601f820116820180604052508101906106c69190611879565b6106ce610499565b6106d891906118a6565b600a6106e49190611a0e565b816106ef9190611a88565b90506106fa826104d9565b600560009054906101000a900473ffffffffffffffffffffffffffffffffffffffff1673ffffffffffffffffffffffffffffffffffffffff1663a9059cbb33836040518363ffffffff1660e01b8152600401610757929190611ab9565b6020604051808303816000875af1158015610776573d6000803e3d6000fd5b505050506040513d601f19601f8201168201806040525081019061079a9190611b0e565b505050565b6107b1826107ab610a78565b83610c49565b6107bb8282610f4b565b5050565b6060600480546107ce90611777565b80601f01602080910402602001604051908101604052809291908181526020018280546107fa90611777565b80156108475780601f1061081c57610100808354040283529160200191610847565b820191906000526020600020905b81548152906001019060200180831161082a57829003601f168201915b5050505050905090565b60008061085c610a78565b9050600061086a8286610915565b9050838110156108af576040517f08c379a00000000000000000000000000000000000000000000000000000000081526004016108a690611bad565b60405180910390fd5b6108bc8286868403610a80565b60019250505092915050565b6000806108d3610a78565b90506108e0818585610cd5565b600191505092915050565b6000600560009054906101000a900473ffffffffffffffffffffffffffffffffffffffff16905090565b6000600160008473ffffffffffffffffffffffffffffffffffffffff1673ffffffffffffffffffffffffffffffffffffffff16815260200190815260200160002060008373ffffffffffffffffffffffffffffffffffffffff1673ffffffffffffffffffffffffffffffffffffffff16815260200190815260200160002054905092915050565b6000600654826109ac9190611a88565b9050600560009054906101000a900473ffffffffffffffffffffffffffffffffffffffff1673ffffffffffffffffffffffffffffffffffffffff1663313ce5676040518163ffffffff1660e01b8152600401602060405180830381865afa158015610a1b573d6000803e3d6000fd5b505050506040513d601f19601f82011682018060405250810190610a3f9190611879565b610a47610499565b610a5191906118a6565b600a610a5d9190611a0e565b81610a689190611a88565b9050610a748183611118565b5050565b600033905090565b600073ffffffffffffffffffffffffffffffffffffffff168373ffffffffffffffffffffffffffffffffffffffff1603610aef576040517f08c379a0000000000000000000000000000000000000000000000000000000008152600401610ae690611c3f565b60405180910390fd5b600073ffffffffffffffffffffffffffffffffffffffff168273ffffffffffffffffffffffffffffffffffffffff1603610b5e576040517f08c379a0000000000000000000000000000000000000000000000000000000008152600401610b5590611cd1565b60405180910390fd5b80600160008573ffffffffffffffffffffffffffffffffffffffff1673ffffffffffffffffffffffffffffffffffffffff16815260200190815260200160002060008473ffffffffffffffffffffffffffffffffffffffff1673ffffffffffffffffffffffffffffffffffffffff168152602001908152602001600020819055508173ffffffffffffffffffffffffffffffffffffffff168373ffffffffffffffffffffffffffffffffffffffff167f8c5be1e5ebec7d5bd14f71427d1e84f3dd0314c0f7b2291e5b200ac8c7c3b92583604051610c3c91906115df565b60405180910390a3505050565b6000610c558484610915565b90507fffffffffffffffffffffffffffffffffffffffffffffffffffffffffffffffff8114610ccf5781811015610cc1576040517f08c379a0000000000000000000000000000000000000000000000000000000008152600401610cb890611d3d565b60405180910390fd5b610cce8484848403610a80565b5b50505050565b600073ffffffffffffffffffffffffffffffffffffffff168373ffffffffffffffffffffffffffffffffffffffff1603610d44576040517f08c379a0000000000000000000000000000000000000000000000000000000008152600401610d3b90611dcf565b60405180910390fd5b600073ffffffffffffffffffffffffffffffffffffffff168273ffffffffffffffffffffffffffffffffffffffff1603610db3576040517f08c379a0000000000000000000000000000000000000000000000000000000008152600401610daa90611e61565b60405180910390fd5b610dbe8383836112af565b60008060008573ffffffffffffffffffffffffffffffffffffffff1673ffffffffffffffffffffffffffffffffffffffff16815260200190815260200160002054905081811015610e44576040517f08c379a0000000000000000000000000000000000000000000000000000000008152600401610e3b90611ef3565b60405180910390fd5b8181036000808673ffffffffffffffffffffffffffffffffffffffff1673ffffffffffffffffffffffffffffffffffffffff16815260200190815260200160002081905550816000808573ffffffffffffffffffffffffffffffffffffffff1673ffffffffffffffffffffffffffffffffffffffff168152602001908152602001600020600082825401925050819055508273ffffffffffffffffffffffffffffffffffffffff168473ffffffffffffffffffffffffffffffffffffffff167fddf252ad1be2c89b69c2b068fc378daa952ba7f163c4a11628f55a4df523b3ef84604051610f3291906115df565b60405180910390a3610f458484846112b4565b50505050565b600073ffffffffffffffffffffffffffffffffffffffff168273ffffffffffffffffffffffffffffffffffffffff1603610fba576040517f08c379a0000000000000000000000000000000000000000000000000000000008152600401610fb190611f85565b60405180910390fd5b610fc6826000836112af565b60008060008473ffffffffffffffffffffffffffffffffffffffff1673ffffffffffffffffffffffffffffffffffffffff1681526020019081526020016000205490508181101561104c576040517f08c379a000000000000000000000000000000000000000000000000000000000815260040161104390612017565b60405180910390fd5b8181036000808573ffffffffffffffffffffffffffffffffffffffff1673ffffffffffffffffffffffffffffffffffffffff1681526020019081526020016000208190555081600260008282540392505081905550600073ffffffffffffffffffffffffffffffffffffffff168373ffffffffffffffffffffffffffffffffffffffff167fddf252ad1be2c89b69c2b068fc378daa952ba7f163c4a11628f55a4df523b3ef846040516110ff91906115df565b60405180910390a3611113836000846112b4565b505050565b6000600560009054906101000a900473ffffffffffffffffffffffffffffffffffffffff1673ffffffffffffffffffffffffffffffffffffffff1663dd62ed3e33306040518363ffffffff1660e01b8152600401611177929190612037565b602060405180830381865afa158015611194573d6000803e3d6000fd5b505050506040513d601f19601f820116820180604052508101906111b89190612075565b9050828110156111fd576040517f08c379a00000000000000000000000000000000000000000000000000000000081526004016111f4906120ee565b60405180910390fd5b600560009054906101000a900473ffffffffffffffffffffffffffffffffffffffff1673ffffffffffffffffffffffffffffffffffffffff166323b872dd3330866040518463ffffffff1660e01b815260040161125c9392919061210e565b6020604051808303816000875af115801561127b573d6000803e3d6000fd5b505050506040513d601f19601f8201168201806040525081019061129f9190611b0e565b506112aa33836112b9565b505050565b505050565b505050565b600073ffffffffffffffffffffffffffffffffffffffff168273ffffffffffffffffffffffffffffffffffffffff1603611328576040517f08c379a000000000000000000000000000000000000000000000000000000000815260040161131f90612191565b60405180910390fd5b611334600083836112af565b806002600082825461134691906117d7565b92505081905550806000808473ffffffffffffffffffffffffffffffffffffffff1673ffffffffffffffffffffffffffffffffffffffff168152602001908152602001600020600082825401925050819055508173ffffffffffffffffffffffffffffffffffffffff16600073ffffffffffffffffffffffffffffffffffffffff167fddf252ad1be2c89b69c2b068fc378daa952ba7f163c4a11628f55a4df523b3ef836040516113f791906115df565b60405180910390a361140b600083836112b4565b5050565b600081519050919050565b600082825260208201905092915050565b60005b8381101561144957808201518184015260208101905061142e565b60008484015250505050565b6000601f19601f8301169050919050565b60006114718261140f565b61147b818561141a565b935061148b81856020860161142b565b61149481611455565b840191505092915050565b600060208201905081810360008301526114b98184611466565b905092915050565b600080fd5b600073ffffffffffffffffffffffffffffffffffffffff82169050919050565b60006114f1826114c6565b9050919050565b611501816114e6565b811461150c57600080fd5b50565b60008135905061151e816114f8565b92915050565b6000819050919050565b61153781611524565b811461154257600080fd5b50565b6000813590506115548161152e565b92915050565b60008060408385031215611571576115706114c1565b5b600061157f8582860161150f565b925050602061159085828601611545565b9150509250929050565b60008115159050919050565b6115af8161159a565b82525050565b60006020820190506115ca60008301846115a6565b92915050565b6115d981611524565b82525050565b60006020820190506115f460008301846115d0565b92915050565b600080600060608486031215611613576116126114c1565b5b60006116218682870161150f565b93505060206116328682870161150f565b925050604061164386828701611545565b9150509250925092565b600060ff82169050919050565b6116638161164d565b82525050565b600060208201905061167e600083018461165a565b92915050565b60006020828403121561169a576116996114c1565b5b60006116a884828501611545565b91505092915050565b6000602082840312156116c7576116c66114c1565b5b60006116d58482850161150f565b91505092915050565b6116e7816114e6565b82525050565b600060208201905061170260008301846116de565b92915050565b6000806040838503121561171f5761171e6114c1565b5b600061172d8582860161150f565b925050602061173e8582860161150f565b9150509250929050565b7f4e487b7100000000000000000000000000000000000000000000000000000000600052602260045260246000fd5b6000600282049050600182168061178f57607f821691505b6020821081036117a2576117a1611748565b5b50919050565b7f4e487b7100000000000000000000000000000000000000000000000000000000600052601160045260246000fd5b60006117e282611524565b91506117ed83611524565b9250828201905080821115611805576118046117a8565b5b92915050565b600061181682611524565b915061182183611524565b925082820261182f81611524565b91508282048414831517611846576118456117a8565b5b5092915050565b6118568161164d565b811461186157600080fd5b50565b6000815190506118738161184d565b92915050565b60006020828403121561188f5761188e6114c1565b5b600061189d84828501611864565b91505092915050565b60006118b18261164d565b91506118bc8361164d565b9250828203905060ff8111156118d5576118d46117a8565b5b92915050565b60008160011c9050919050565b6000808291508390505b60018511156119325780860481111561190e5761190d6117a8565b5b600185161561191d5780820291505b808102905061192b856118db565b94506118f2565b94509492505050565b60008261194b5760019050611a07565b816119595760009050611a07565b816001811461196f5760028114611979576119a8565b6001915050611a07565b60ff84111561198b5761198a6117a8565b5b8360020a9150848211156119a2576119a16117a8565b5b50611a07565b5060208310610133831016604e8410600b84101617156119dd5782820a9050838111156119d8576119d76117a8565b5b611a07565b6119ea84848460016118e8565b92509050818404811115611a0157611a006117a8565b5b81810290505b9392505050565b6000611a1982611524565b9150611a248361164d565b9250611a517fffffffffffffffffffffffffffffffffffffffffffffffffffffffffffffffff848461193b565b905092915050565b7f4e487b7100000000000000000000000000000000000000000000000000000000600052601260045260246000fd5b6000611a9382611524565b9150611a9e83611524565b925082611aae57611aad611a59565b5b828204905092915050565b6000604082019050611ace60008301856116de565b611adb60208301846115d0565b9392505050565b611aeb8161159a565b8114611af657600080fd5b50565b600081519050611b0881611ae2565b92915050565b600060208284031215611b2457611b236114c1565b5b6000611b3284828501611af9565b91505092915050565b7f45524332303a2064656372656173656420616c6c6f77616e63652062656c6f7760008201527f207a65726f000000000000000000000000000000000000000000000000000000602082015250565b6000611b9760258361141a565b9150611ba282611b3b565b604082019050919050565b60006020820190508181036000830152611bc681611b8a565b9050919050565b7f45524332303a20617070726f76652066726f6d20746865207a65726f2061646460008201527f7265737300000000000000000000000000000000000000000000000000000000602082015250565b6000611c2960248361141a565b9150611c3482611bcd565b604082019050919050565b60006020820190508181036000830152611c5881611c1c565b9050919050565b7f45524332303a20617070726f766520746f20746865207a65726f20616464726560008201527f7373000000000000000000000000000000000000000000000000000000000000602082015250565b6000611cbb60228361141a565b9150611cc682611c5f565b604082019050919050565b60006020820190508181036000830152611cea81611cae565b9050919050565b7f45524332303a20696e73756666696369656e7420616c6c6f77616e6365000000600082015250565b6000611d27601d8361141a565b9150611d3282611cf1565b602082019050919050565b60006020820190508181036000830152611d5681611d1a565b9050919050565b7f45524332303a207472616e736665722066726f6d20746865207a65726f20616460008201527f6472657373000000000000000000000000000000000000000000000000000000602082015250565b6000611db960258361141a565b9150611dc482611d5d565b604082019050919050565b60006020820190508181036000830152611de881611dac565b9050919050565b7f45524332303a207472616e7366657220746f20746865207a65726f206164647260008201527f6573730000000000000000000000000000000000000000000000000000000000602082015250565b6000611e4b60238361141a565b9150611e5682611def565b604082019050919050565b60006020820190508181036000830152611e7a81611e3e565b9050919050565b7f45524332303a207472616e7366657220616d6f756e742065786365656473206260008201527f616c616e63650000000000000000000000000000000000000000000000000000602082015250565b6000611edd60268361141a565b9150611ee882611e81565b604082019050919050565b60006020820190508181036000830152611f0c81611ed0565b9050919050565b7f45524332303a206275726e2066726f6d20746865207a65726f2061646472657360008201527f7300000000000000000000000000000000000000000000000000000000000000602082015250565b6000611f6f60218361141a565b9150611f7a82611f13565b604082019050919050565b60006020820190508181036000830152611f9e81611f62565b9050919050565b7f45524332303a206275726e20616d6f756e7420657863656564732062616c616e60008201527f6365000000000000000000000000000000000000000000000000000000000000602082015250565b600061200160228361141a565b915061200c82611fa5565b604082019050919050565b6000602082019050818103600083015261203081611ff4565b9050919050565b600060408201905061204c60008301856116de565b61205960208301846116de565b9392505050565b60008151905061206f8161152e565b92915050565b60006020828403121561208b5761208a6114c1565b5b600061209984828501612060565b91505092915050565b7f496e636f72726563746f207065726d69736f2064652055534443000000000000600082015250565b60006120d8601a8361141a565b91506120e3826120a2565b602082019050919050565b60006020820190508181036000830152612107816120cb565b9050919050565b600060608201905061212360008301866116de565b61213060208301856116de565b61213d60408301846115d0565b949350505050565b7f45524332303a206d696e7420746f20746865207a65726f206164647265737300600082015250565b600061217b601f8361141a565b915061218682612145565b602082019050919050565b600060208201905081810360008301526121aa8161216e565b905091905056fea2646970667358221220d207d99a4cd036797e297a8065d4f7a4e83081b1f23bea9c45d51731e2ac6be164736f6c63430008130033",
  "linkReferences": {},
  "deployedLinkReferences": {}
}