{
  "_format": "hh-sol-artifact-1",
  "contractName": "SimpleNft",
  "sourceName": "contracts/class11/SimpleNft.sol",
  "abi": [
    {
      "inputs": [],
      "stateMutability": "nonpayable",
      "type": "constructor"
    },
    {
      "anonymous": false,
      "inputs": [
        {
          "indexed": true,
          "internalType": "address",
          "name": "owner",
          "type": "address"
        },
        {
          "indexed": true,
          "internalType": "address",
          "name": "approved",
          "type": "address"
        },
        {
          "indexed": true,
          "internalType": "uint256",
          "name": "tokenId",
          "type": "uint256"
        }
      ],
      "name": "Approval",
      "type": "event"
    },
    {
      "anonymous": false,
      "inputs": [
        {
          "indexed": true,
          "internalType": "address",
          "name": "owner",
          "type": "address"
        },
        {
          "indexed": true,
          "internalType": "address",
          "name": "operator",
          "type": "address"
        },
        {
          "indexed": false,
          "internalType": "bool",
          "name": "approved",
          "type": "bool"
        }
      ],
      "name": "ApprovalForAll",
      "type": "event"
    },
    {
      "anonymous": false,
      "inputs": [
        {
          "indexed": true,
          "internalType": "address",
          "name": "previousOwner",
          "type": "address"
        },
        {
          "indexed": true,
          "internalType": "address",
          "name": "newOwner",
          "type": "address"
        }
      ],
      "name": "OwnershipTransferred",
      "type": "event"
    },
    {
      "anonymous": false,
      "inputs": [
        {
          "indexed": true,
          "internalType": "address",
          "name": "from",
          "type": "address"
        },
        {
          "indexed": true,
          "internalType": "address",
          "name": "to",
          "type": "address"
        },
        {
          "indexed": true,
          "internalType": "uint256",
          "name": "tokenId",
          "type": "uint256"
        }
      ],
      "name": "Transfer",
      "type": "event"
    },
    {
      "inputs": [
        {
          "internalType": "address",
          "name": "to",
          "type": "address"
        },
        {
          "internalType": "uint256",
          "name": "tokenId",
          "type": "uint256"
        }
      ],
      "name": "approve",
      "outputs": [],
      "stateMutability": "nonpayable",
      "type": "function"
    },
    {
      "inputs": [
        {
          "internalType": "address",
          "name": "owner",
          "type": "address"
        }
      ],
      "name": "balanceOf",
      "outputs": [
        {
          "internalType": "uint256",
          "name": "",
          "type": "uint256"
        }
      ],
      "stateMutability": "view",
      "type": "function"
    },
    {
      "inputs": [
        {
          "internalType": "uint256",
          "name": "tokenId",
          "type": "uint256"
        }
      ],
      "name": "getApproved",
      "outputs": [
        {
          "internalType": "address",
          "name": "",
          "type": "address"
        }
      ],
      "stateMutability": "view",
      "type": "function"
    },
    {
      "inputs": [
        {
          "internalType": "address",
          "name": "owner",
          "type": "address"
        },
        {
          "internalType": "address",
          "name": "operator",
          "type": "address"
        }
      ],
      "name": "isApprovedForAll",
      "outputs": [
        {
          "internalType": "bool",
          "name": "",
          "type": "bool"
        }
      ],
      "stateMutability": "view",
      "type": "function"
    },
    {
      "inputs": [],
      "name": "name",
      "outputs": [
        {
          "internalType": "string",
          "name": "",
          "type": "string"
        }
      ],
      "stateMutability": "view",
      "type": "function"
    },
    {
      "inputs": [],
      "name": "owner",
      "outputs": [
        {
          "internalType": "address",
          "name": "",
          "type": "address"
        }
      ],
      "stateMutability": "view",
      "type": "function"
    },
    {
      "inputs": [
        {
          "internalType": "uint256",
          "name": "tokenId",
          "type": "uint256"
        }
      ],
      "name": "ownerOf",
      "outputs": [
        {
          "internalType": "address",
          "name": "",
          "type": "address"
        }
      ],
      "stateMutability": "view",
      "type": "function"
    },
    {
      "inputs": [],
      "name": "renounceOwnership",
      "outputs": [],
      "stateMutability": "nonpayable",
      "type": "function"
    },
    {
      "inputs": [
        {
          "internalType": "address",
          "name": "to",
          "type": "address"
        }
      ],
      "name": "safeMint",
      "outputs": [],
      "stateMutability": "nonpayable",
      "type": "function"
    },
    {
      "inputs": [
        {
          "internalType": "address",
          "name": "from",
          "type": "address"
        },
        {
          "internalType": "address",
          "name": "to",
          "type": "address"
        },
        {
          "internalType": "uint256",
          "name": "tokenId",
          "type": "uint256"
        }
      ],
      "name": "safeTransferFrom",
      "outputs": [],
      "stateMutability": "nonpayable",
      "type": "function"
    },
    {
      "inputs": [
        {
          "internalType": "address",
          "name": "from",
          "type": "address"
        },
        {
          "internalType": "address",
          "name": "to",
          "type": "address"
        },
        {
          "internalType": "uint256",
          "name": "tokenId",
          "type": "uint256"
        },
        {
          "internalType": "bytes",
          "name": "data",
          "type": "bytes"
        }
      ],
      "name": "safeTransferFrom",
      "outputs": [],
      "stateMutability": "nonpayable",
      "type": "function"
    },
    {
      "inputs": [
        {
          "internalType": "address",
          "name": "operator",
          "type": "address"
        },
        {
          "internalType": "bool",
          "name": "approved",
          "type": "bool"
        }
      ],
      "name": "setApprovalForAll",
      "outputs": [],
      "stateMutability": "nonpayable",
      "type": "function"
    },
    {
      "inputs": [
        {
          "internalType": "bytes4",
          "name": "interfaceId",
          "type": "bytes4"
        }
      ],
      "name": "supportsInterface",
      "outputs": [
        {
          "internalType": "bool",
          "name": "",
          "type": "bool"
        }
      ],
      "stateMutability": "view",
      "type": "function"
    },
    {
      "inputs": [],
      "name": "symbol",
      "outputs": [
        {
          "internalType": "string",
          "name": "",
          "type": "string"
        }
      ],
      "stateMutability": "view",
      "type": "function"
    },
    {
      "inputs": [
        {
          "internalType": "uint256",
          "name": "index",
          "type": "uint256"
        }
      ],
      "name": "tokenByIndex",
      "outputs": [
        {
          "internalType": "uint256",
          "name": "",
          "type": "uint256"
        }
      ],
      "stateMutability": "view",
      "type": "function"
    },
    {
      "inputs": [
        {
          "internalType": "address",
          "name": "owner",
          "type": "address"
        },
        {
          "internalType": "uint256",
          "name": "index",
          "type": "uint256"
        }
      ],
      "name": "tokenOfOwnerByIndex",
      "outputs": [
        {
          "internalType": "uint256",
          "name": "",
          "type": "uint256"
        }
      ],
      "stateMutability": "view",
      "type": "function"
    },
    {
      "inputs": [
        {
          "internalType": "uint256",
          "name": "tokenId",
          "type": "uint256"
        }
      ],
      "name": "tokenURI",
      "outputs": [
        {
          "internalType": "string",
          "name": "",
          "type": "string"
        }
      ],
      "stateMutability": "view",
      "type": "function"
    },
    {
      "inputs": [],
      "name": "totalSupply",
      "outputs": [
        {
          "internalType": "uint256",
          "name": "",
          "type": "uint256"
        }
      ],
      "stateMutability": "view",
      "type": "function"
    },
    {
      "inputs": [
        {
          "internalType": "address",
          "name": "from",
          "type": "address"
        },
        {
          "internalType": "address",
          "name": "to",
          "type": "address"
        },
        {
          "internalType": "uint256",
          "name": "tokenId",
          "type": "uint256"
        }
      ],
      "name": "transferFrom",
      "outputs": [],
      "stateMutability": "nonpayable",
      "type": "function"
    },
    {
      "inputs": [
        {
          "internalType": "address",
          "name": "newOwner",
          "type": "address"
        }
      ],
      "name": "transferOwnership",
      "outputs": [],
      "stateMutability": "nonpayable",
      "type": "function"
    }
  ],
  "bytecode": "0x60806040523480156200001157600080fd5b506040518060400160405280600a81526020017f53696d706c65204e6674000000000000000000000000000000000000000000008152506040518060400160405280600781526020017f534d504c4e46540000000000000000000000000000000000000000000000000081525081600090816200008f919062000412565b508060019081620000a1919062000412565b505050620000c4620000b8620000ca60201b60201c565b620000d260201b60201c565b620004f9565b600033905090565b6000600a60009054906101000a900473ffffffffffffffffffffffffffffffffffffffff16905081600a60006101000a81548173ffffffffffffffffffffffffffffffffffffffff021916908373ffffffffffffffffffffffffffffffffffffffff1602179055508173ffffffffffffffffffffffffffffffffffffffff168173ffffffffffffffffffffffffffffffffffffffff167f8be0079c531659141344cd1fd0a4f28419497f9722a3daafe3b4186f6b6457e060405160405180910390a35050565b600081519050919050565b7f4e487b7100000000000000000000000000000000000000000000000000000000600052604160045260246000fd5b7f4e487b7100000000000000000000000000000000000000000000000000000000600052602260045260246000fd5b600060028204905060018216806200021a57607f821691505b60208210810362000230576200022f620001d2565b5b50919050565b60008190508160005260206000209050919050565b60006020601f8301049050919050565b600082821b905092915050565b6000600883026200029a7fffffffffffffffffffffffffffffffffffffffffffffffffffffffffffffffff826200025b565b620002a686836200025b565b95508019841693508086168417925050509392505050565b6000819050919050565b6000819050919050565b6000620002f3620002ed620002e784620002be565b620002c8565b620002be565b9050919050565b6000819050919050565b6200030f83620002d2565b620003276200031e82620002fa565b84845462000268565b825550505050565b600090565b6200033e6200032f565b6200034b81848462000304565b505050565b5b8181101562000373576200036760008262000334565b60018101905062000351565b5050565b601f821115620003c2576200038c8162000236565b62000397846200024b565b81016020851015620003a7578190505b620003bf620003b6856200024b565b83018262000350565b50505b505050565b600082821c905092915050565b6000620003e760001984600802620003c7565b1980831691505092915050565b6000620004028383620003d4565b9150826002028217905092915050565b6200041d8262000198565b67ffffffffffffffff811115620004395762000438620001a3565b5b62000445825462000201565b6200045282828562000377565b600060209050601f8311600181146200048a576000841562000475578287015190505b620004818582620003f4565b865550620004f1565b601f1984166200049a8662000236565b60005b82811015620004c4578489015182556001820191506020850194506020810190506200049d565b86831015620004e45784890151620004e0601f891682620003d4565b8355505b6001600288020188555050505b505050505050565b6131f980620005096000396000f3fe608060405234801561001057600080fd5b506004361061012c5760003560e01c80636352211e116100ad578063a22cb46511610071578063a22cb46514610343578063b88d4fde1461035f578063c87b56dd1461037b578063e985e9c5146103ab578063f2fde38b146103db5761012c565b80636352211e1461029d57806370a08231146102cd578063715018a6146102fd5780638da5cb5b1461030757806395d89b41146103255761012c565b806323b872dd116100f457806323b872dd146101e95780632f745c591461020557806340d097c31461023557806342842e0e146102515780634f6ccce71461026d5761012c565b806301ffc9a71461013157806306fdde0314610161578063081812fc1461017f578063095ea7b3146101af57806318160ddd146101cb575b600080fd5b61014b6004803603810190610146919061214a565b6103f7565b6040516101589190612192565b60405180910390f35b610169610409565b604051610176919061223d565b60405180910390f35b61019960048036038101906101949190612295565b61049b565b6040516101a69190612303565b60405180910390f35b6101c960048036038101906101c4919061234a565b6104e1565b005b6101d36105f8565b6040516101e09190612399565b60405180910390f35b61020360048036038101906101fe91906123b4565b610605565b005b61021f600480360381019061021a919061234a565b610665565b60405161022c9190612399565b60405180910390f35b61024f600480360381019061024a9190612407565b61070a565b005b61026b600480360381019061026691906123b4565b610738565b005b61028760048036038101906102829190612295565b610758565b6040516102949190612399565b60405180910390f35b6102b760048036038101906102b29190612295565b6107c9565b6040516102c49190612303565b60405180910390f35b6102e760048036038101906102e29190612407565b61084f565b6040516102f49190612399565b60405180910390f35b610305610906565b005b61030f61091a565b60405161031c9190612303565b60405180910390f35b61032d610944565b60405161033a919061223d565b60405180910390f35b61035d60048036038101906103589190612460565b6109d6565b005b610379600480360381019061037491906125d5565b6109ec565b005b61039560048036038101906103909190612295565b610a4e565b6040516103a2919061223d565b60405180910390f35b6103c560048036038101906103c09190612658565b610ab6565b6040516103d29190612192565b60405180910390f35b6103f560048036038101906103f09190612407565b610b4a565b005b600061040282610bcd565b9050919050565b606060008054610418906126c7565b80601f0160208091040260200160405190810160405280929190818152602001828054610444906126c7565b80156104915780601f1061046657610100808354040283529160200191610491565b820191906000526020600020905b81548152906001019060200180831161047457829003601f168201915b5050505050905090565b60006104a682610c47565b6004600083815260200190815260200160002060009054906101000a900473ffffffffffffffffffffffffffffffffffffffff169050919050565b60006104ec826107c9565b90508073ffffffffffffffffffffffffffffffffffffffff168373ffffffffffffffffffffffffffffffffffffffff160361055c576040517f08c379a00000000000000000000000000000000000000000000000000000000081526004016105539061276a565b60405180910390fd5b8073ffffffffffffffffffffffffffffffffffffffff1661057b610c92565b73ffffffffffffffffffffffffffffffffffffffff1614806105aa57506105a9816105a4610c92565b610ab6565b5b6105e9576040517f08c379a00000000000000000000000000000000000000000000000000000000081526004016105e0906127fc565b60405180910390fd5b6105f38383610c9a565b505050565b6000600880549050905090565b610616610610610c92565b82610d53565b610655576040517f08c379a000000000000000000000000000000000000000000000000000000000815260040161064c9061288e565b60405180910390fd5b610660838383610de8565b505050565b60006106708361084f565b82106106b1576040517f08c379a00000000000000000000000000000000000000000000000000000000081526004016106a890612920565b60405180910390fd5b600660008473ffffffffffffffffffffffffffffffffffffffff1673ffffffffffffffffffffffffffffffffffffffff168152602001908152602001600020600083815260200190815260200160002054905092915050565b6107126110e1565b600061071e600b61115f565b905061072a600b61116d565b6107348282611183565b5050565b610753838383604051806020016040528060008152506109ec565b505050565b60006107626105f8565b82106107a3576040517f08c379a000000000000000000000000000000000000000000000000000000000815260040161079a906129b2565b60405180910390fd5b600882815481106107b7576107b66129d2565b5b90600052602060002001549050919050565b6000806107d5836111a1565b9050600073ffffffffffffffffffffffffffffffffffffffff168173ffffffffffffffffffffffffffffffffffffffff1603610846576040517f08c379a000000000000000000000000000000000000000000000000000000000815260040161083d90612a4d565b60405180910390fd5b80915050919050565b60008073ffffffffffffffffffffffffffffffffffffffff168273ffffffffffffffffffffffffffffffffffffffff16036108bf576040517f08c379a00000000000000000000000000000000000000000000000000000000081526004016108b690612adf565b60405180910390fd5b600360008373ffffffffffffffffffffffffffffffffffffffff1673ffffffffffffffffffffffffffffffffffffffff168152602001908152602001600020549050919050565b61090e6110e1565b61091860006111de565b565b6000600a60009054906101000a900473ffffffffffffffffffffffffffffffffffffffff16905090565b606060018054610953906126c7565b80601f016020809104026020016040519081016040528092919081815260200182805461097f906126c7565b80156109cc5780601f106109a1576101008083540402835291602001916109cc565b820191906000526020600020905b8154815290600101906020018083116109af57829003601f168201915b5050505050905090565b6109e86109e1610c92565b83836112a4565b5050565b6109fd6109f7610c92565b83610d53565b610a3c576040517f08c379a0000000000000000000000000000000000000000000000000000000008152600401610a339061288e565b60405180910390fd5b610a4884848484611410565b50505050565b6060610a5982610c47565b6000610a6361146c565b90506000815111610a835760405180602001604052806000815250610aae565b80610a8d8461148c565b604051602001610a9e929190612b3b565b6040516020818303038152906040525b915050919050565b6000600560008473ffffffffffffffffffffffffffffffffffffffff1673ffffffffffffffffffffffffffffffffffffffff16815260200190815260200160002060008373ffffffffffffffffffffffffffffffffffffffff1673ffffffffffffffffffffffffffffffffffffffff16815260200190815260200160002060009054906101000a900460ff16905092915050565b610b526110e1565b600073ffffffffffffffffffffffffffffffffffffffff168173ffffffffffffffffffffffffffffffffffffffff1603610bc1576040517f08c379a0000000000000000000000000000000000000000000000000000000008152600401610bb890612bd1565b60405180910390fd5b610bca816111de565b50565b60007f780e9d63000000000000000000000000000000000000000000000000000000007bffffffffffffffffffffffffffffffffffffffffffffffffffffffff1916827bffffffffffffffffffffffffffffffffffffffffffffffffffffffff19161480610c405750610c3f8261155a565b5b9050919050565b610c508161163c565b610c8f576040517f08c379a0000000000000000000000000000000000000000000000000000000008152600401610c8690612a4d565b60405180910390fd5b50565b600033905090565b816004600083815260200190815260200160002060006101000a81548173ffffffffffffffffffffffffffffffffffffffff021916908373ffffffffffffffffffffffffffffffffffffffff160217905550808273ffffffffffffffffffffffffffffffffffffffff16610d0d836107c9565b73ffffffffffffffffffffffffffffffffffffffff167f8c5be1e5ebec7d5bd14f71427d1e84f3dd0314c0f7b2291e5b200ac8c7c3b92560405160405180910390a45050565b600080610d5f836107c9565b90508073ffffffffffffffffffffffffffffffffffffffff168473ffffffffffffffffffffffffffffffffffffffff161480610da15750610da08185610ab6565b5b80610ddf57508373ffffffffffffffffffffffffffffffffffffffff16610dc78461049b565b73ffffffffffffffffffffffffffffffffffffffff16145b91505092915050565b8273ffffffffffffffffffffffffffffffffffffffff16610e08826107c9565b73ffffffffffffffffffffffffffffffffffffffff1614610e5e576040517f08c379a0000000000000000000000000000000000000000000000000000000008152600401610e5590612c63565b60405180910390fd5b600073ffffffffffffffffffffffffffffffffffffffff168273ffffffffffffffffffffffffffffffffffffffff1603610ecd576040517f08c379a0000000000000000000000000000000000000000000000000000000008152600401610ec490612cf5565b60405180910390fd5b610eda838383600161167d565b8273ffffffffffffffffffffffffffffffffffffffff16610efa826107c9565b73ffffffffffffffffffffffffffffffffffffffff1614610f50576040517f08c379a0000000000000000000000000000000000000000000000000000000008152600401610f4790612c63565b60405180910390fd5b6004600082815260200190815260200160002060006101000a81549073ffffffffffffffffffffffffffffffffffffffff02191690556001600360008573ffffffffffffffffffffffffffffffffffffffff1673ffffffffffffffffffffffffffffffffffffffff168152602001908152602001600020600082825403925050819055506001600360008473ffffffffffffffffffffffffffffffffffffffff1673ffffffffffffffffffffffffffffffffffffffff16815260200190815260200160002060008282540192505081905550816002600083815260200190815260200160002060006101000a81548173ffffffffffffffffffffffffffffffffffffffff021916908373ffffffffffffffffffffffffffffffffffffffff160217905550808273ffffffffffffffffffffffffffffffffffffffff168473ffffffffffffffffffffffffffffffffffffffff167fddf252ad1be2c89b69c2b068fc378daa952ba7f163c4a11628f55a4df523b3ef60405160405180910390a46110dc838383600161168f565b505050565b6110e9610c92565b73ffffffffffffffffffffffffffffffffffffffff1661110761091a565b73ffffffffffffffffffffffffffffffffffffffff161461115d576040517f08c379a000000000000000000000000000000000000000000000000000000000815260040161115490612d61565b60405180910390fd5b565b600081600001549050919050565b6001816000016000828254019250508190555050565b61119d828260405180602001604052806000815250611695565b5050565b60006002600083815260200190815260200160002060009054906101000a900473ffffffffffffffffffffffffffffffffffffffff169050919050565b6000600a60009054906101000a900473ffffffffffffffffffffffffffffffffffffffff16905081600a60006101000a81548173ffffffffffffffffffffffffffffffffffffffff021916908373ffffffffffffffffffffffffffffffffffffffff1602179055508173ffffffffffffffffffffffffffffffffffffffff168173ffffffffffffffffffffffffffffffffffffffff167f8be0079c531659141344cd1fd0a4f28419497f9722a3daafe3b4186f6b6457e060405160405180910390a35050565b8173ffffffffffffffffffffffffffffffffffffffff168373ffffffffffffffffffffffffffffffffffffffff1603611312576040517f08c379a000000000000000000000000000000000000000000000000000000000815260040161130990612dcd565b60405180910390fd5b80600560008573ffffffffffffffffffffffffffffffffffffffff1673ffffffffffffffffffffffffffffffffffffffff16815260200190815260200160002060008473ffffffffffffffffffffffffffffffffffffffff1673ffffffffffffffffffffffffffffffffffffffff16815260200190815260200160002060006101000a81548160ff0219169083151502179055508173ffffffffffffffffffffffffffffffffffffffff168373ffffffffffffffffffffffffffffffffffffffff167f17307eab39ab6107e8899845ad3d59bd9653f200f220920489ca2b5937696c31836040516114039190612192565b60405180910390a3505050565b61141b848484610de8565b611427848484846116f0565b611466576040517f08c379a000000000000000000000000000000000000000000000000000000000815260040161145d90612e5f565b60405180910390fd5b50505050565b606060405180606001604052806036815260200161318e60369139905090565b60606000600161149b84611877565b01905060008167ffffffffffffffff8111156114ba576114b96124aa565b5b6040519080825280601f01601f1916602001820160405280156114ec5781602001600182028036833780820191505090505b509050600082602001820190505b60011561154f578080600190039150507f3031323334353637383961626364656600000000000000000000000000000000600a86061a8153600a858161154357611542612e7f565b5b049450600085036114fa575b819350505050919050565b60007f80ac58cd000000000000000000000000000000000000000000000000000000007bffffffffffffffffffffffffffffffffffffffffffffffffffffffff1916827bffffffffffffffffffffffffffffffffffffffffffffffffffffffff1916148061162557507f5b5e139f000000000000000000000000000000000000000000000000000000007bffffffffffffffffffffffffffffffffffffffffffffffffffffffff1916827bffffffffffffffffffffffffffffffffffffffffffffffffffffffff1916145b806116355750611634826119ca565b5b9050919050565b60008073ffffffffffffffffffffffffffffffffffffffff1661165e836111a1565b73ffffffffffffffffffffffffffffffffffffffff1614159050919050565b61168984848484611a34565b50505050565b50505050565b61169f8383611b92565b6116ac60008484846116f0565b6116eb576040517f08c379a00000000000000000000000000000000000000000000000000000000081526004016116e290612e5f565b60405180910390fd5b505050565b60006117118473ffffffffffffffffffffffffffffffffffffffff16611daf565b1561186a578373ffffffffffffffffffffffffffffffffffffffff1663150b7a0261173a610c92565b8786866040518563ffffffff1660e01b815260040161175c9493929190612f03565b6020604051808303816000875af192505050801561179857506040513d601f19601f820116820180604052508101906117959190612f64565b60015b61181a573d80600081146117c8576040519150601f19603f3d011682016040523d82523d6000602084013e6117cd565b606091505b506000815103611812576040517f08c379a000000000000000000000000000000000000000000000000000000000815260040161180990612e5f565b60405180910390fd5b805181602001fd5b63150b7a0260e01b7bffffffffffffffffffffffffffffffffffffffffffffffffffffffff1916817bffffffffffffffffffffffffffffffffffffffffffffffffffffffff19161491505061186f565b600190505b949350505050565b600080600090507a184f03e93ff9f4daa797ed6e38ed64bf6a1f01000000000000000083106118d5577a184f03e93ff9f4daa797ed6e38ed64bf6a1f01000000000000000083816118cb576118ca612e7f565b5b0492506040810190505b6d04ee2d6d415b85acef81000000008310611912576d04ee2d6d415b85acef8100000000838161190857611907612e7f565b5b0492506020810190505b662386f26fc10000831061194157662386f26fc10000838161193757611936612e7f565b5b0492506010810190505b6305f5e100831061196a576305f5e10083816119605761195f612e7f565b5b0492506008810190505b612710831061198f57612710838161198557611984612e7f565b5b0492506004810190505b606483106119b257606483816119a8576119a7612e7f565b5b0492506002810190505b600a83106119c1576001810190505b80915050919050565b60007f01ffc9a7000000000000000000000000000000000000000000000000000000007bffffffffffffffffffffffffffffffffffffffffffffffffffffffff1916827bffffffffffffffffffffffffffffffffffffffffffffffffffffffff1916149050919050565b611a4084848484611dd2565b6001811115611a84576040517f08c379a0000000000000000000000000000000000000000000000000000000008152600401611a7b90613003565b60405180910390fd5b6000829050600073ffffffffffffffffffffffffffffffffffffffff168573ffffffffffffffffffffffffffffffffffffffff1603611acb57611ac681611dd8565b611b0a565b8373ffffffffffffffffffffffffffffffffffffffff168573ffffffffffffffffffffffffffffffffffffffff1614611b0957611b088582611e21565b5b5b600073ffffffffffffffffffffffffffffffffffffffff168473ffffffffffffffffffffffffffffffffffffffff1603611b4c57611b4781611f8e565b611b8b565b8473ffffffffffffffffffffffffffffffffffffffff168473ffffffffffffffffffffffffffffffffffffffff1614611b8a57611b89848261205f565b5b5b5050505050565b600073ffffffffffffffffffffffffffffffffffffffff168273ffffffffffffffffffffffffffffffffffffffff1603611c01576040517f08c379a0000000000000000000000000000000000000000000000000000000008152600401611bf89061306f565b60405180910390fd5b611c0a8161163c565b15611c4a576040517f08c379a0000000000000000000000000000000000000000000000000000000008152600401611c41906130db565b60405180910390fd5b611c5860008383600161167d565b611c618161163c565b15611ca1576040517f08c379a0000000000000000000000000000000000000000000000000000000008152600401611c98906130db565b60405180910390fd5b6001600360008473ffffffffffffffffffffffffffffffffffffffff1673ffffffffffffffffffffffffffffffffffffffff16815260200190815260200160002060008282540192505081905550816002600083815260200190815260200160002060006101000a81548173ffffffffffffffffffffffffffffffffffffffff021916908373ffffffffffffffffffffffffffffffffffffffff160217905550808273ffffffffffffffffffffffffffffffffffffffff16600073ffffffffffffffffffffffffffffffffffffffff167fddf252ad1be2c89b69c2b068fc378daa952ba7f163c4a11628f55a4df523b3ef60405160405180910390a4611dab60008383600161168f565b5050565b6000808273ffffffffffffffffffffffffffffffffffffffff163b119050919050565b50505050565b6008805490506009600083815260200190815260200160002081905550600881908060018154018082558091505060019003906000526020600020016000909190919091505550565b60006001611e2e8461084f565b611e38919061312a565b9050600060076000848152602001908152602001600020549050818114611f1d576000600660008673ffffffffffffffffffffffffffffffffffffffff1673ffffffffffffffffffffffffffffffffffffffff168152602001908152602001600020600084815260200190815260200160002054905080600660008773ffffffffffffffffffffffffffffffffffffffff1673ffffffffffffffffffffffffffffffffffffffff168152602001908152602001600020600084815260200190815260200160002081905550816007600083815260200190815260200160002081905550505b6007600084815260200190815260200160002060009055600660008573ffffffffffffffffffffffffffffffffffffffff1673ffffffffffffffffffffffffffffffffffffffff16815260200190815260200160002060008381526020019081526020016000206000905550505050565b60006001600880549050611fa2919061312a565b9050600060096000848152602001908152602001600020549050600060088381548110611fd257611fd16129d2565b5b906000526020600020015490508060088381548110611ff457611ff36129d2565b5b9060005260206000200181905550816009600083815260200190815260200160002081905550600960008581526020019081526020016000206000905560088054806120435761204261315e565b5b6001900381819060005260206000200160009055905550505050565b600061206a8361084f565b905081600660008573ffffffffffffffffffffffffffffffffffffffff1673ffffffffffffffffffffffffffffffffffffffff168152602001908152602001600020600083815260200190815260200160002081905550806007600084815260200190815260200160002081905550505050565b6000604051905090565b600080fd5b600080fd5b60007fffffffff0000000000000000000000000000000000000000000000000000000082169050919050565b612127816120f2565b811461213257600080fd5b50565b6000813590506121448161211e565b92915050565b6000602082840312156121605761215f6120e8565b5b600061216e84828501612135565b91505092915050565b60008115159050919050565b61218c81612177565b82525050565b60006020820190506121a76000830184612183565b92915050565b600081519050919050565b600082825260208201905092915050565b60005b838110156121e75780820151818401526020810190506121cc565b60008484015250505050565b6000601f19601f8301169050919050565b600061220f826121ad565b61221981856121b8565b93506122298185602086016121c9565b612232816121f3565b840191505092915050565b600060208201905081810360008301526122578184612204565b905092915050565b6000819050919050565b6122728161225f565b811461227d57600080fd5b50565b60008135905061228f81612269565b92915050565b6000602082840312156122ab576122aa6120e8565b5b60006122b984828501612280565b91505092915050565b600073ffffffffffffffffffffffffffffffffffffffff82169050919050565b60006122ed826122c2565b9050919050565b6122fd816122e2565b82525050565b600060208201905061231860008301846122f4565b92915050565b612327816122e2565b811461233257600080fd5b50565b6000813590506123448161231e565b92915050565b60008060408385031215612361576123606120e8565b5b600061236f85828601612335565b925050602061238085828601612280565b9150509250929050565b6123938161225f565b82525050565b60006020820190506123ae600083018461238a565b92915050565b6000806000606084860312156123cd576123cc6120e8565b5b60006123db86828701612335565b93505060206123ec86828701612335565b92505060406123fd86828701612280565b9150509250925092565b60006020828403121561241d5761241c6120e8565b5b600061242b84828501612335565b91505092915050565b61243d81612177565b811461244857600080fd5b50565b60008135905061245a81612434565b92915050565b60008060408385031215612477576124766120e8565b5b600061248585828601612335565b92505060206124968582860161244b565b9150509250929050565b600080fd5b600080fd5b7f4e487b7100000000000000000000000000000000000000000000000000000000600052604160045260246000fd5b6124e2826121f3565b810181811067ffffffffffffffff82111715612501576125006124aa565b5b80604052505050565b60006125146120de565b905061252082826124d9565b919050565b600067ffffffffffffffff8211156125405761253f6124aa565b5b612549826121f3565b9050602081019050919050565b82818337600083830152505050565b600061257861257384612525565b61250a565b905082815260208101848484011115612594576125936124a5565b5b61259f848285612556565b509392505050565b600082601f8301126125bc576125bb6124a0565b5b81356125cc848260208601612565565b91505092915050565b600080600080608085870312156125ef576125ee6120e8565b5b60006125fd87828801612335565b945050602061260e87828801612335565b935050604061261f87828801612280565b925050606085013567ffffffffffffffff8111156126405761263f6120ed565b5b61264c878288016125a7565b91505092959194509250565b6000806040838503121561266f5761266e6120e8565b5b600061267d85828601612335565b925050602061268e85828601612335565b9150509250929050565b7f4e487b7100000000000000000000000000000000000000000000000000000000600052602260045260246000fd5b600060028204905060018216806126df57607f821691505b6020821081036126f2576126f1612698565b5b50919050565b7f4552433732313a20617070726f76616c20746f2063757272656e74206f776e6560008201527f7200000000000000000000000000000000000000000000000000000000000000602082015250565b60006127546021836121b8565b915061275f826126f8565b604082019050919050565b6000602082019050818103600083015261278381612747565b9050919050565b7f4552433732313a20617070726f76652063616c6c6572206973206e6f7420746f60008201527f6b656e206f776e6572206f7220617070726f76656420666f7220616c6c000000602082015250565b60006127e6603d836121b8565b91506127f18261278a565b604082019050919050565b60006020820190508181036000830152612815816127d9565b9050919050565b7f4552433732313a2063616c6c6572206973206e6f7420746f6b656e206f776e6560008201527f72206f7220617070726f76656400000000000000000000000000000000000000602082015250565b6000612878602d836121b8565b91506128838261281c565b604082019050919050565b600060208201905081810360008301526128a78161286b565b9050919050565b7f455243373231456e756d657261626c653a206f776e657220696e646578206f7560008201527f74206f6620626f756e6473000000000000000000000000000000000000000000602082015250565b600061290a602b836121b8565b9150612915826128ae565b604082019050919050565b60006020820190508181036000830152612939816128fd565b9050919050565b7f455243373231456e756d657261626c653a20676c6f62616c20696e646578206f60008201527f7574206f6620626f756e64730000000000000000000000000000000000000000602082015250565b600061299c602c836121b8565b91506129a782612940565b604082019050919050565b600060208201905081810360008301526129cb8161298f565b9050919050565b7f4e487b7100000000000000000000000000000000000000000000000000000000600052603260045260246000fd5b7f4552433732313a20696e76616c696420746f6b656e2049440000000000000000600082015250565b6000612a376018836121b8565b9150612a4282612a01565b602082019050919050565b60006020820190508181036000830152612a6681612a2a565b9050919050565b7f4552433732313a2061646472657373207a65726f206973206e6f74206120766160008201527f6c6964206f776e65720000000000000000000000000000000000000000000000602082015250565b6000612ac96029836121b8565b9150612ad482612a6d565b604082019050919050565b60006020820190508181036000830152612af881612abc565b9050919050565b600081905092915050565b6000612b15826121ad565b612b1f8185612aff565b9350612b2f8185602086016121c9565b80840191505092915050565b6000612b478285612b0a565b9150612b538284612b0a565b91508190509392505050565b7f4f776e61626c653a206e6577206f776e657220697320746865207a65726f206160008201527f6464726573730000000000000000000000000000000000000000000000000000602082015250565b6000612bbb6026836121b8565b9150612bc682612b5f565b604082019050919050565b60006020820190508181036000830152612bea81612bae565b9050919050565b7f4552433732313a207472616e736665722066726f6d20696e636f72726563742060008201527f6f776e6572000000000000000000000000000000000000000000000000000000602082015250565b6000612c4d6025836121b8565b9150612c5882612bf1565b604082019050919050565b60006020820190508181036000830152612c7c81612c40565b9050919050565b7f4552433732313a207472616e7366657220746f20746865207a65726f2061646460008201527f7265737300000000000000000000000000000000000000000000000000000000602082015250565b6000612cdf6024836121b8565b9150612cea82612c83565b604082019050919050565b60006020820190508181036000830152612d0e81612cd2565b9050919050565b7f4f776e61626c653a2063616c6c6572206973206e6f7420746865206f776e6572600082015250565b6000612d4b6020836121b8565b9150612d5682612d15565b602082019050919050565b60006020820190508181036000830152612d7a81612d3e565b9050919050565b7f4552433732313a20617070726f766520746f2063616c6c657200000000000000600082015250565b6000612db76019836121b8565b9150612dc282612d81565b602082019050919050565b60006020820190508181036000830152612de681612daa565b9050919050565b7f4552433732313a207472616e7366657220746f206e6f6e20455243373231526560008201527f63656976657220696d706c656d656e7465720000000000000000000000000000602082015250565b6000612e496032836121b8565b9150612e5482612ded565b604082019050919050565b60006020820190508181036000830152612e7881612e3c565b9050919050565b7f4e487b7100000000000000000000000000000000000000000000000000000000600052601260045260246000fd5b600081519050919050565b600082825260208201905092915050565b6000612ed582612eae565b612edf8185612eb9565b9350612eef8185602086016121c9565b612ef8816121f3565b840191505092915050565b6000608082019050612f1860008301876122f4565b612f2560208301866122f4565b612f32604083018561238a565b8181036060830152612f448184612eca565b905095945050505050565b600081519050612f5e8161211e565b92915050565b600060208284031215612f7a57612f796120e8565b5b6000612f8884828501612f4f565b91505092915050565b7f455243373231456e756d657261626c653a20636f6e736563757469766520747260008201527f616e7366657273206e6f7420737570706f727465640000000000000000000000602082015250565b6000612fed6035836121b8565b9150612ff882612f91565b604082019050919050565b6000602082019050818103600083015261301c81612fe0565b9050919050565b7f4552433732313a206d696e7420746f20746865207a65726f2061646472657373600082015250565b60006130596020836121b8565b915061306482613023565b602082019050919050565b600060208201905081810360008301526130888161304c565b9050919050565b7f4552433732313a20746f6b656e20616c7265616479206d696e74656400000000600082015250565b60006130c5601c836121b8565b91506130d08261308f565b602082019050919050565b600060208201905081810360008301526130f4816130b8565b9050919050565b7f4e487b7100000000000000000000000000000000000000000000000000000000600052601160045260246000fd5b60006131358261225f565b91506131408361225f565b9250828203905081811115613158576131576130fb565b5b92915050565b7f4e487b7100000000000000000000000000000000000000000000000000000000600052603160045260246000fdfe697066733a2f2f516d61347336757956534361546f75584d384e38416b414c346a63313144353354736e316b5a50733443476436622fa264697066735822122081cce7ed34c927e6f8b3b110b579193c095dade6e6a22e23b54b9997c18d01fb64736f6c63430008130033",
  "linkReferences": {},
  "deployedLinkReferences": {}
}