{
  "_format": "hh-sol-artifact-1",
  "contractName": "HerenciaModifiers",
  "sourceName": "contracts/class06/HerenciaModifiers.sol",
  "abi": [
    {
      "inputs": [],
      "name": "pause",
      "outputs": [],
      "stateMutability": "nonpayable",
      "type": "function"
    },
    {
      "inputs": [],
      "name": "protegerMetodo",
      "outputs": [],
      "stateMutability": "nonpayable",
      "type": "function"
    },
    {
      "inputs": [],
      "name": "protegerMetodo2",
      "outputs": [],
      "stateMutability": "nonpayable",
      "type": "function"
    },
    {
      "inputs": [],
      "name": "unpause",
      "outputs": [],
      "stateMutability": "nonpayable",
      "type": "function"
    }
  ],
  "bytecode": "0x6080604052336000806101000a81548173ffffffffffffffffffffffffffffffffffffffff021916908373ffffffffffffffffffffffffffffffffffffffff16021790555034801561005057600080fd5b506104c1806100606000396000f3fe608060405234801561001057600080fd5b506004361061004c5760003560e01c806333c0229d146100515780633f4ba83a1461005b5780638456cb5914610065578063b72be5ac1461006f575b600080fd5b610059610079565b005b610063610159565b005b61006d6101f1565b005b610077610289565b005b3373ffffffffffffffffffffffffffffffffffffffff1660008054906101000a900473ffffffffffffffffffffffffffffffffffffffff1673ffffffffffffffffffffffffffffffffffffffff1614610107576040517f08c379a00000000000000000000000000000000000000000000000000000000081526004016100fe906103ff565b60405180910390fd5b600060149054906101000a900460ff1615610157576040517f08c379a000000000000000000000000000000000000000000000000000000000815260040161014e9061046b565b60405180910390fd5b565b3373ffffffffffffffffffffffffffffffffffffffff1660008054906101000a900473ffffffffffffffffffffffffffffffffffffffff1673ffffffffffffffffffffffffffffffffffffffff16146101e7576040517f08c379a00000000000000000000000000000000000000000000000000000000081526004016101de906103ff565b60405180910390fd5b6101ef610369565b565b3373ffffffffffffffffffffffffffffffffffffffff1660008054906101000a900473ffffffffffffffffffffffffffffffffffffffff1673ffffffffffffffffffffffffffffffffffffffff161461027f576040517f08c379a0000000000000000000000000000000000000000000000000000000008152600401610276906103ff565b60405180910390fd5b610287610385565b565b3373ffffffffffffffffffffffffffffffffffffffff1660008054906101000a900473ffffffffffffffffffffffffffffffffffffffff1673ffffffffffffffffffffffffffffffffffffffff1614610317576040517f08c379a000000000000000000000000000000000000000000000000000000000815260040161030e906103ff565b60405180910390fd5b600060149054906101000a900460ff1615610367576040517f08c379a000000000000000000000000000000000000000000000000000000000815260040161035e9061046b565b60405180910390fd5b565b60008060146101000a81548160ff021916908315150217905550565b6001600060146101000a81548160ff021916908315150217905550565b600082825260208201905092915050565b7f4e6f206572657320656c206f776e657200000000000000000000000000000000600082015250565b60006103e96010836103a2565b91506103f4826103b3565b602082019050919050565b60006020820190508181036000830152610418816103dc565b9050919050565b7f45737461207061757361646f0000000000000000000000000000000000000000600082015250565b6000610455600c836103a2565b91506104608261041f565b602082019050919050565b6000602082019050818103600083015261048481610448565b905091905056fea264697066735822122023ed1850abda38c3dd3b0e9b186339e63e3324e4cc95f8cb6b3ecbff703581f964736f6c63430008130033",
  "linkReferences": {},
  "deployedLinkReferences": {}
}