{
  "_format": "hh-sol-artifact-1",
  "contractName": "EnumerableLab",
  "sourceName": "contracts/laboratorios/EnumerableLab.sol",
  "abi": [
    {
      "inputs": [],
      "stateMutability": "nonpayable",
      "type": "constructor"
    },
    {
      "anonymous": false,
      "inputs": [
        {
          "indexed": true,
          "internalType": "address",
          "name": "owner",
          "type": "address"
        },
        {
          "indexed": true,
          "internalType": "address",
          "name": "approved",
          "type": "address"
        },
        {
          "indexed": true,
          "internalType": "uint256",
          "name": "tokenId",
          "type": "uint256"
        }
      ],
      "name": "Approval",
      "type": "event"
    },
    {
      "anonymous": false,
      "inputs": [
        {
          "indexed": true,
          "internalType": "address",
          "name": "owner",
          "type": "address"
        },
        {
          "indexed": true,
          "internalType": "address",
          "name": "operator",
          "type": "address"
        },
        {
          "indexed": false,
          "internalType": "bool",
          "name": "approved",
          "type": "bool"
        }
      ],
      "name": "ApprovalForAll",
      "type": "event"
    },
    {
      "anonymous": false,
      "inputs": [
        {
          "indexed": true,
          "internalType": "address",
          "name": "from",
          "type": "address"
        },
        {
          "indexed": true,
          "internalType": "address",
          "name": "to",
          "type": "address"
        },
        {
          "indexed": true,
          "internalType": "uint256",
          "name": "tokenId",
          "type": "uint256"
        }
      ],
      "name": "Transfer",
      "type": "event"
    },
    {
      "inputs": [
        {
          "internalType": "address",
          "name": "to",
          "type": "address"
        },
        {
          "internalType": "uint256",
          "name": "tokenId",
          "type": "uint256"
        }
      ],
      "name": "approve",
      "outputs": [],
      "stateMutability": "nonpayable",
      "type": "function"
    },
    {
      "inputs": [
        {
          "internalType": "address",
          "name": "owner",
          "type": "address"
        }
      ],
      "name": "balanceOf",
      "outputs": [
        {
          "internalType": "uint256",
          "name": "",
          "type": "uint256"
        }
      ],
      "stateMutability": "view",
      "type": "function"
    },
    {
      "inputs": [
        {
          "internalType": "uint256",
          "name": "tokenId",
          "type": "uint256"
        }
      ],
      "name": "getApproved",
      "outputs": [
        {
          "internalType": "address",
          "name": "",
          "type": "address"
        }
      ],
      "stateMutability": "view",
      "type": "function"
    },
    {
      "inputs": [
        {
          "internalType": "address",
          "name": "account",
          "type": "address"
        }
      ],
      "name": "getNftsFromWallet",
      "outputs": [
        {
          "internalType": "uint256[]",
          "name": "result",
          "type": "uint256[]"
        }
      ],
      "stateMutability": "view",
      "type": "function"
    },
    {
      "inputs": [
        {
          "internalType": "address",
          "name": "owner",
          "type": "address"
        },
        {
          "internalType": "address",
          "name": "operator",
          "type": "address"
        }
      ],
      "name": "isApprovedForAll",
      "outputs": [
        {
          "internalType": "bool",
          "name": "",
          "type": "bool"
        }
      ],
      "stateMutability": "view",
      "type": "function"
    },
    {
      "inputs": [],
      "name": "name",
      "outputs": [
        {
          "internalType": "string",
          "name": "",
          "type": "string"
        }
      ],
      "stateMutability": "view",
      "type": "function"
    },
    {
      "inputs": [
        {
          "internalType": "uint256",
          "name": "tokenId",
          "type": "uint256"
        }
      ],
      "name": "ownerOf",
      "outputs": [
        {
          "internalType": "address",
          "name": "",
          "type": "address"
        }
      ],
      "stateMutability": "view",
      "type": "function"
    },
    {
      "inputs": [
        {
          "internalType": "address",
          "name": "to",
          "type": "address"
        },
        {
          "internalType": "uint256",
          "name": "tokenId",
          "type": "uint256"
        }
      ],
      "name": "safeMint",
      "outputs": [],
      "stateMutability": "nonpayable",
      "type": "function"
    },
    {
      "inputs": [
        {
          "internalType": "address",
          "name": "from",
          "type": "address"
        },
        {
          "internalType": "address",
          "name": "to",
          "type": "address"
        },
        {
          "internalType": "uint256",
          "name": "tokenId",
          "type": "uint256"
        }
      ],
      "name": "safeTransferFrom",
      "outputs": [],
      "stateMutability": "nonpayable",
      "type": "function"
    },
    {
      "inputs": [
        {
          "internalType": "address",
          "name": "from",
          "type": "address"
        },
        {
          "internalType": "address",
          "name": "to",
          "type": "address"
        },
        {
          "internalType": "uint256",
          "name": "tokenId",
          "type": "uint256"
        },
        {
          "internalType": "bytes",
          "name": "data",
          "type": "bytes"
        }
      ],
      "name": "safeTransferFrom",
      "outputs": [],
      "stateMutability": "nonpayable",
      "type": "function"
    },
    {
      "inputs": [
        {
          "internalType": "address",
          "name": "operator",
          "type": "address"
        },
        {
          "internalType": "bool",
          "name": "approved",
          "type": "bool"
        }
      ],
      "name": "setApprovalForAll",
      "outputs": [],
      "stateMutability": "nonpayable",
      "type": "function"
    },
    {
      "inputs": [
        {
          "internalType": "bytes4",
          "name": "interfaceId",
          "type": "bytes4"
        }
      ],
      "name": "supportsInterface",
      "outputs": [
        {
          "internalType": "bool",
          "name": "",
          "type": "bool"
        }
      ],
      "stateMutability": "view",
      "type": "function"
    },
    {
      "inputs": [],
      "name": "symbol",
      "outputs": [
        {
          "internalType": "string",
          "name": "",
          "type": "string"
        }
      ],
      "stateMutability": "view",
      "type": "function"
    },
    {
      "inputs": [
        {
          "internalType": "uint256",
          "name": "index",
          "type": "uint256"
        }
      ],
      "name": "tokenByIndex",
      "outputs": [
        {
          "internalType": "uint256",
          "name": "",
          "type": "uint256"
        }
      ],
      "stateMutability": "view",
      "type": "function"
    },
    {
      "inputs": [
        {
          "internalType": "address",
          "name": "owner",
          "type": "address"
        },
        {
          "internalType": "uint256",
          "name": "index",
          "type": "uint256"
        }
      ],
      "name": "tokenOfOwnerByIndex",
      "outputs": [
        {
          "internalType": "uint256",
          "name": "",
          "type": "uint256"
        }
      ],
      "stateMutability": "view",
      "type": "function"
    },
    {
      "inputs": [
        {
          "internalType": "uint256",
          "name": "tokenId",
          "type": "uint256"
        }
      ],
      "name": "tokenURI",
      "outputs": [
        {
          "internalType": "string",
          "name": "",
          "type": "string"
        }
      ],
      "stateMutability": "view",
      "type": "function"
    },
    {
      "inputs": [],
      "name": "totalSupply",
      "outputs": [
        {
          "internalType": "uint256",
          "name": "",
          "type": "uint256"
        }
      ],
      "stateMutability": "view",
      "type": "function"
    },
    {
      "inputs": [
        {
          "internalType": "address",
          "name": "from",
          "type": "address"
        },
        {
          "internalType": "address",
          "name": "to",
          "type": "address"
        },
        {
          "internalType": "uint256",
          "name": "tokenId",
          "type": "uint256"
        }
      ],
      "name": "transferFrom",
      "outputs": [],
      "stateMutability": "nonpayable",
      "type": "function"
    }
  ],
  "bytecode": "0x60806040523480156200001157600080fd5b506040518060400160405280600a81526020017f456e756d657261626c65000000000000000000000000000000000000000000008152506040518060400160405280600681526020017f454e4d52424c000000000000000000000000000000000000000000000000000081525081600090816200008f919062000324565b508060019081620000a1919062000324565b5050506200040b565b600081519050919050565b7f4e487b7100000000000000000000000000000000000000000000000000000000600052604160045260246000fd5b7f4e487b7100000000000000000000000000000000000000000000000000000000600052602260045260246000fd5b600060028204905060018216806200012c57607f821691505b602082108103620001425762000141620000e4565b5b50919050565b60008190508160005260206000209050919050565b60006020601f8301049050919050565b600082821b905092915050565b600060088302620001ac7fffffffffffffffffffffffffffffffffffffffffffffffffffffffffffffffff826200016d565b620001b886836200016d565b95508019841693508086168417925050509392505050565b6000819050919050565b6000819050919050565b600062000205620001ff620001f984620001d0565b620001da565b620001d0565b9050919050565b6000819050919050565b6200022183620001e4565b6200023962000230826200020c565b8484546200017a565b825550505050565b600090565b6200025062000241565b6200025d81848462000216565b505050565b5b8181101562000285576200027960008262000246565b60018101905062000263565b5050565b601f821115620002d4576200029e8162000148565b620002a9846200015d565b81016020851015620002b9578190505b620002d1620002c8856200015d565b83018262000262565b50505b505050565b600082821c905092915050565b6000620002f960001984600802620002d9565b1980831691505092915050565b6000620003148383620002e6565b9150826002028217905092915050565b6200032f82620000aa565b67ffffffffffffffff8111156200034b576200034a620000b5565b5b62000357825462000113565b6200036482828562000289565b600060209050601f8311600181146200039c576000841562000387578287015190505b62000393858262000306565b86555062000403565b601f198416620003ac8662000148565b60005b82811015620003d657848901518255600182019150602085019450602081019050620003af565b86831015620003f65784890151620003f2601f891682620002e6565b8355505b6001600288020188555050505b505050505050565b613053806200041b6000396000f3fe608060405234801561001057600080fd5b50600436106101165760003560e01c80636352211e116100a2578063a22cb46511610071578063a22cb46514610305578063b88d4fde14610321578063c45a9a031461033d578063c87b56dd1461036d578063e985e9c51461039d57610116565b80636352211e1461026b57806370a082311461029b57806395d89b41146102cb578063a1448194146102e957610116565b806318160ddd116100e957806318160ddd146101b557806323b872dd146101d35780632f745c59146101ef57806342842e0e1461021f5780634f6ccce71461023b57610116565b806301ffc9a71461011b57806306fdde031461014b578063081812fc14610169578063095ea7b314610199575b600080fd5b61013560048036038101906101309190611f7a565b6103cd565b6040516101429190611fc2565b60405180910390f35b6101536103df565b604051610160919061206d565b60405180910390f35b610183600480360381019061017e91906120c5565b610471565b6040516101909190612133565b60405180910390f35b6101b360048036038101906101ae919061217a565b6104b7565b005b6101bd6105ce565b6040516101ca91906121c9565b60405180910390f35b6101ed60048036038101906101e891906121e4565b6105db565b005b6102096004803603810190610204919061217a565b61063b565b60405161021691906121c9565b60405180910390f35b610239600480360381019061023491906121e4565b6106e0565b005b610255600480360381019061025091906120c5565b610700565b60405161026291906121c9565b60405180910390f35b610285600480360381019061028091906120c5565b610771565b6040516102929190612133565b60405180910390f35b6102b560048036038101906102b09190612237565b6107f7565b6040516102c291906121c9565b60405180910390f35b6102d36108ae565b6040516102e0919061206d565b60405180910390f35b61030360048036038101906102fe919061217a565b610940565b005b61031f600480360381019061031a9190612290565b61094e565b005b61033b60048036038101906103369190612405565b610964565b005b61035760048036038101906103529190612237565b6109c6565b6040516103649190612546565b60405180910390f35b610387600480360381019061038291906120c5565b610a69565b604051610394919061206d565b60405180910390f35b6103b760048036038101906103b29190612568565b610ad1565b6040516103c49190611fc2565b60405180910390f35b60006103d882610b65565b9050919050565b6060600080546103ee906125d7565b80601f016020809104026020016040519081016040528092919081815260200182805461041a906125d7565b80156104675780601f1061043c57610100808354040283529160200191610467565b820191906000526020600020905b81548152906001019060200180831161044a57829003601f168201915b5050505050905090565b600061047c82610bdf565b6004600083815260200190815260200160002060009054906101000a900473ffffffffffffffffffffffffffffffffffffffff169050919050565b60006104c282610771565b90508073ffffffffffffffffffffffffffffffffffffffff168373ffffffffffffffffffffffffffffffffffffffff1603610532576040517f08c379a00000000000000000000000000000000000000000000000000000000081526004016105299061267a565b60405180910390fd5b8073ffffffffffffffffffffffffffffffffffffffff16610551610c2a565b73ffffffffffffffffffffffffffffffffffffffff161480610580575061057f8161057a610c2a565b610ad1565b5b6105bf576040517f08c379a00000000000000000000000000000000000000000000000000000000081526004016105b69061270c565b60405180910390fd5b6105c98383610c32565b505050565b6000600880549050905090565b6105ec6105e6610c2a565b82610ceb565b61062b576040517f08c379a00000000000000000000000000000000000000000000000000000000081526004016106229061279e565b60405180910390fd5b610636838383610d80565b505050565b6000610646836107f7565b8210610687576040517f08c379a000000000000000000000000000000000000000000000000000000000815260040161067e90612830565b60405180910390fd5b600660008473ffffffffffffffffffffffffffffffffffffffff1673ffffffffffffffffffffffffffffffffffffffff168152602001908152602001600020600083815260200190815260200160002054905092915050565b6106fb83838360405180602001604052806000815250610964565b505050565b600061070a6105ce565b821061074b576040517f08c379a0000000000000000000000000000000000000000000000000000000008152600401610742906128c2565b60405180910390fd5b6008828154811061075f5761075e6128e2565b5b90600052602060002001549050919050565b60008061077d83611079565b9050600073ffffffffffffffffffffffffffffffffffffffff168173ffffffffffffffffffffffffffffffffffffffff16036107ee576040517f08c379a00000000000000000000000000000000000000000000000000000000081526004016107e59061295d565b60405180910390fd5b80915050919050565b60008073ffffffffffffffffffffffffffffffffffffffff168273ffffffffffffffffffffffffffffffffffffffff1603610867576040517f08c379a000000000000000000000000000000000000000000000000000000000815260040161085e906129ef565b60405180910390fd5b600360008373ffffffffffffffffffffffffffffffffffffffff1673ffffffffffffffffffffffffffffffffffffffff168152602001908152602001600020549050919050565b6060600180546108bd906125d7565b80601f01602080910402602001604051908101604052809291908181526020018280546108e9906125d7565b80156109365780601f1061090b57610100808354040283529160200191610936565b820191906000526020600020905b81548152906001019060200180831161091957829003601f168201915b5050505050905090565b61094a82826110b6565b5050565b610960610959610c2a565b83836110d4565b5050565b61097561096f610c2a565b83610ceb565b6109b4576040517f08c379a00000000000000000000000000000000000000000000000000000000081526004016109ab9061279e565b60405180910390fd5b6109c084848484611240565b50505050565b60606109d1826107f7565b67ffffffffffffffff8111156109ea576109e96122da565b5b604051908082528060200260200182016040528015610a185781602001602082028036833780820191505090505b50905060005b8151811015610a6357610a31838261063b565b828281518110610a4457610a436128e2565b5b6020026020010181815250508080610a5b90612a3e565b915050610a1e565b50919050565b6060610a7482610bdf565b6000610a7e61129c565b90506000815111610a9e5760405180602001604052806000815250610ac9565b80610aa8846112bc565b604051602001610ab9929190612ac2565b6040516020818303038152906040525b915050919050565b6000600560008473ffffffffffffffffffffffffffffffffffffffff1673ffffffffffffffffffffffffffffffffffffffff16815260200190815260200160002060008373ffffffffffffffffffffffffffffffffffffffff1673ffffffffffffffffffffffffffffffffffffffff16815260200190815260200160002060009054906101000a900460ff16905092915050565b60007f780e9d63000000000000000000000000000000000000000000000000000000007bffffffffffffffffffffffffffffffffffffffffffffffffffffffff1916827bffffffffffffffffffffffffffffffffffffffffffffffffffffffff19161480610bd85750610bd78261138a565b5b9050919050565b610be88161146c565b610c27576040517f08c379a0000000000000000000000000000000000000000000000000000000008152600401610c1e9061295d565b60405180910390fd5b50565b600033905090565b816004600083815260200190815260200160002060006101000a81548173ffffffffffffffffffffffffffffffffffffffff021916908373ffffffffffffffffffffffffffffffffffffffff160217905550808273ffffffffffffffffffffffffffffffffffffffff16610ca583610771565b73ffffffffffffffffffffffffffffffffffffffff167f8c5be1e5ebec7d5bd14f71427d1e84f3dd0314c0f7b2291e5b200ac8c7c3b92560405160405180910390a45050565b600080610cf783610771565b90508073ffffffffffffffffffffffffffffffffffffffff168473ffffffffffffffffffffffffffffffffffffffff161480610d395750610d388185610ad1565b5b80610d7757508373ffffffffffffffffffffffffffffffffffffffff16610d5f84610471565b73ffffffffffffffffffffffffffffffffffffffff16145b91505092915050565b8273ffffffffffffffffffffffffffffffffffffffff16610da082610771565b73ffffffffffffffffffffffffffffffffffffffff1614610df6576040517f08c379a0000000000000000000000000000000000000000000000000000000008152600401610ded90612b58565b60405180910390fd5b600073ffffffffffffffffffffffffffffffffffffffff168273ffffffffffffffffffffffffffffffffffffffff1603610e65576040517f08c379a0000000000000000000000000000000000000000000000000000000008152600401610e5c90612bea565b60405180910390fd5b610e7283838360016114ad565b8273ffffffffffffffffffffffffffffffffffffffff16610e9282610771565b73ffffffffffffffffffffffffffffffffffffffff1614610ee8576040517f08c379a0000000000000000000000000000000000000000000000000000000008152600401610edf90612b58565b60405180910390fd5b6004600082815260200190815260200160002060006101000a81549073ffffffffffffffffffffffffffffffffffffffff02191690556001600360008573ffffffffffffffffffffffffffffffffffffffff1673ffffffffffffffffffffffffffffffffffffffff168152602001908152602001600020600082825403925050819055506001600360008473ffffffffffffffffffffffffffffffffffffffff1673ffffffffffffffffffffffffffffffffffffffff16815260200190815260200160002060008282540192505081905550816002600083815260200190815260200160002060006101000a81548173ffffffffffffffffffffffffffffffffffffffff021916908373ffffffffffffffffffffffffffffffffffffffff160217905550808273ffffffffffffffffffffffffffffffffffffffff168473ffffffffffffffffffffffffffffffffffffffff167fddf252ad1be2c89b69c2b068fc378daa952ba7f163c4a11628f55a4df523b3ef60405160405180910390a461107483838360016114bf565b505050565b60006002600083815260200190815260200160002060009054906101000a900473ffffffffffffffffffffffffffffffffffffffff169050919050565b6110d08282604051806020016040528060008152506114c5565b5050565b8173ffffffffffffffffffffffffffffffffffffffff168373ffffffffffffffffffffffffffffffffffffffff1603611142576040517f08c379a000000000000000000000000000000000000000000000000000000000815260040161113990612c56565b60405180910390fd5b80600560008573ffffffffffffffffffffffffffffffffffffffff1673ffffffffffffffffffffffffffffffffffffffff16815260200190815260200160002060008473ffffffffffffffffffffffffffffffffffffffff1673ffffffffffffffffffffffffffffffffffffffff16815260200190815260200160002060006101000a81548160ff0219169083151502179055508173ffffffffffffffffffffffffffffffffffffffff168373ffffffffffffffffffffffffffffffffffffffff167f17307eab39ab6107e8899845ad3d59bd9653f200f220920489ca2b5937696c31836040516112339190611fc2565b60405180910390a3505050565b61124b848484610d80565b61125784848484611520565b611296576040517f08c379a000000000000000000000000000000000000000000000000000000000815260040161128d90612ce8565b60405180910390fd5b50505050565b6060604051806060016040528060368152602001612fe860369139905090565b6060600060016112cb846116a7565b01905060008167ffffffffffffffff8111156112ea576112e96122da565b5b6040519080825280601f01601f19166020018201604052801561131c5781602001600182028036833780820191505090505b509050600082602001820190505b60011561137f578080600190039150507f3031323334353637383961626364656600000000000000000000000000000000600a86061a8153600a858161137357611372612d08565b5b0494506000850361132a575b819350505050919050565b60007f80ac58cd000000000000000000000000000000000000000000000000000000007bffffffffffffffffffffffffffffffffffffffffffffffffffffffff1916827bffffffffffffffffffffffffffffffffffffffffffffffffffffffff1916148061145557507f5b5e139f000000000000000000000000000000000000000000000000000000007bffffffffffffffffffffffffffffffffffffffffffffffffffffffff1916827bffffffffffffffffffffffffffffffffffffffffffffffffffffffff1916145b806114655750611464826117fa565b5b9050919050565b60008073ffffffffffffffffffffffffffffffffffffffff1661148e83611079565b73ffffffffffffffffffffffffffffffffffffffff1614159050919050565b6114b984848484611864565b50505050565b50505050565b6114cf83836119c2565b6114dc6000848484611520565b61151b576040517f08c379a000000000000000000000000000000000000000000000000000000000815260040161151290612ce8565b60405180910390fd5b505050565b60006115418473ffffffffffffffffffffffffffffffffffffffff16611bdf565b1561169a578373ffffffffffffffffffffffffffffffffffffffff1663150b7a0261156a610c2a565b8786866040518563ffffffff1660e01b815260040161158c9493929190612d8c565b6020604051808303816000875af19250505080156115c857506040513d601f19601f820116820180604052508101906115c59190612ded565b60015b61164a573d80600081146115f8576040519150601f19603f3d011682016040523d82523d6000602084013e6115fd565b606091505b506000815103611642576040517f08c379a000000000000000000000000000000000000000000000000000000000815260040161163990612ce8565b60405180910390fd5b805181602001fd5b63150b7a0260e01b7bffffffffffffffffffffffffffffffffffffffffffffffffffffffff1916817bffffffffffffffffffffffffffffffffffffffffffffffffffffffff19161491505061169f565b600190505b949350505050565b600080600090507a184f03e93ff9f4daa797ed6e38ed64bf6a1f0100000000000000008310611705577a184f03e93ff9f4daa797ed6e38ed64bf6a1f01000000000000000083816116fb576116fa612d08565b5b0492506040810190505b6d04ee2d6d415b85acef81000000008310611742576d04ee2d6d415b85acef8100000000838161173857611737612d08565b5b0492506020810190505b662386f26fc10000831061177157662386f26fc10000838161176757611766612d08565b5b0492506010810190505b6305f5e100831061179a576305f5e10083816117905761178f612d08565b5b0492506008810190505b61271083106117bf5761271083816117b5576117b4612d08565b5b0492506004810190505b606483106117e257606483816117d8576117d7612d08565b5b0492506002810190505b600a83106117f1576001810190505b80915050919050565b60007f01ffc9a7000000000000000000000000000000000000000000000000000000007bffffffffffffffffffffffffffffffffffffffffffffffffffffffff1916827bffffffffffffffffffffffffffffffffffffffffffffffffffffffff1916149050919050565b61187084848484611c02565b60018111156118b4576040517f08c379a00000000000000000000000000000000000000000000000000000000081526004016118ab90612e8c565b60405180910390fd5b6000829050600073ffffffffffffffffffffffffffffffffffffffff168573ffffffffffffffffffffffffffffffffffffffff16036118fb576118f681611c08565b61193a565b8373ffffffffffffffffffffffffffffffffffffffff168573ffffffffffffffffffffffffffffffffffffffff1614611939576119388582611c51565b5b5b600073ffffffffffffffffffffffffffffffffffffffff168473ffffffffffffffffffffffffffffffffffffffff160361197c5761197781611dbe565b6119bb565b8473ffffffffffffffffffffffffffffffffffffffff168473ffffffffffffffffffffffffffffffffffffffff16146119ba576119b98482611e8f565b5b5b5050505050565b600073ffffffffffffffffffffffffffffffffffffffff168273ffffffffffffffffffffffffffffffffffffffff1603611a31576040517f08c379a0000000000000000000000000000000000000000000000000000000008152600401611a2890612ef8565b60405180910390fd5b611a3a8161146c565b15611a7a576040517f08c379a0000000000000000000000000000000000000000000000000000000008152600401611a7190612f64565b60405180910390fd5b611a886000838360016114ad565b611a918161146c565b15611ad1576040517f08c379a0000000000000000000000000000000000000000000000000000000008152600401611ac890612f64565b60405180910390fd5b6001600360008473ffffffffffffffffffffffffffffffffffffffff1673ffffffffffffffffffffffffffffffffffffffff16815260200190815260200160002060008282540192505081905550816002600083815260200190815260200160002060006101000a81548173ffffffffffffffffffffffffffffffffffffffff021916908373ffffffffffffffffffffffffffffffffffffffff160217905550808273ffffffffffffffffffffffffffffffffffffffff16600073ffffffffffffffffffffffffffffffffffffffff167fddf252ad1be2c89b69c2b068fc378daa952ba7f163c4a11628f55a4df523b3ef60405160405180910390a4611bdb6000838360016114bf565b5050565b6000808273ffffffffffffffffffffffffffffffffffffffff163b119050919050565b50505050565b6008805490506009600083815260200190815260200160002081905550600881908060018154018082558091505060019003906000526020600020016000909190919091505550565b60006001611c5e846107f7565b611c689190612f84565b9050600060076000848152602001908152602001600020549050818114611d4d576000600660008673ffffffffffffffffffffffffffffffffffffffff1673ffffffffffffffffffffffffffffffffffffffff168152602001908152602001600020600084815260200190815260200160002054905080600660008773ffffffffffffffffffffffffffffffffffffffff1673ffffffffffffffffffffffffffffffffffffffff168152602001908152602001600020600084815260200190815260200160002081905550816007600083815260200190815260200160002081905550505b6007600084815260200190815260200160002060009055600660008573ffffffffffffffffffffffffffffffffffffffff1673ffffffffffffffffffffffffffffffffffffffff16815260200190815260200160002060008381526020019081526020016000206000905550505050565b60006001600880549050611dd29190612f84565b9050600060096000848152602001908152602001600020549050600060088381548110611e0257611e016128e2565b5b906000526020600020015490508060088381548110611e2457611e236128e2565b5b906000526020600020018190555081600960008381526020019081526020016000208190555060096000858152602001908152602001600020600090556008805480611e7357611e72612fb8565b5b6001900381819060005260206000200160009055905550505050565b6000611e9a836107f7565b905081600660008573ffffffffffffffffffffffffffffffffffffffff1673ffffffffffffffffffffffffffffffffffffffff168152602001908152602001600020600083815260200190815260200160002081905550806007600084815260200190815260200160002081905550505050565b6000604051905090565b600080fd5b600080fd5b60007fffffffff0000000000000000000000000000000000000000000000000000000082169050919050565b611f5781611f22565b8114611f6257600080fd5b50565b600081359050611f7481611f4e565b92915050565b600060208284031215611f9057611f8f611f18565b5b6000611f9e84828501611f65565b91505092915050565b60008115159050919050565b611fbc81611fa7565b82525050565b6000602082019050611fd76000830184611fb3565b92915050565b600081519050919050565b600082825260208201905092915050565b60005b83811015612017578082015181840152602081019050611ffc565b60008484015250505050565b6000601f19601f8301169050919050565b600061203f82611fdd565b6120498185611fe8565b9350612059818560208601611ff9565b61206281612023565b840191505092915050565b600060208201905081810360008301526120878184612034565b905092915050565b6000819050919050565b6120a28161208f565b81146120ad57600080fd5b50565b6000813590506120bf81612099565b92915050565b6000602082840312156120db576120da611f18565b5b60006120e9848285016120b0565b91505092915050565b600073ffffffffffffffffffffffffffffffffffffffff82169050919050565b600061211d826120f2565b9050919050565b61212d81612112565b82525050565b60006020820190506121486000830184612124565b92915050565b61215781612112565b811461216257600080fd5b50565b6000813590506121748161214e565b92915050565b6000806040838503121561219157612190611f18565b5b600061219f85828601612165565b92505060206121b0858286016120b0565b9150509250929050565b6121c38161208f565b82525050565b60006020820190506121de60008301846121ba565b92915050565b6000806000606084860312156121fd576121fc611f18565b5b600061220b86828701612165565b935050602061221c86828701612165565b925050604061222d868287016120b0565b9150509250925092565b60006020828403121561224d5761224c611f18565b5b600061225b84828501612165565b91505092915050565b61226d81611fa7565b811461227857600080fd5b50565b60008135905061228a81612264565b92915050565b600080604083850312156122a7576122a6611f18565b5b60006122b585828601612165565b92505060206122c68582860161227b565b9150509250929050565b600080fd5b600080fd5b7f4e487b7100000000000000000000000000000000000000000000000000000000600052604160045260246000fd5b61231282612023565b810181811067ffffffffffffffff82111715612331576123306122da565b5b80604052505050565b6000612344611f0e565b90506123508282612309565b919050565b600067ffffffffffffffff8211156123705761236f6122da565b5b61237982612023565b9050602081019050919050565b82818337600083830152505050565b60006123a86123a384612355565b61233a565b9050828152602081018484840111156123c4576123c36122d5565b5b6123cf848285612386565b509392505050565b600082601f8301126123ec576123eb6122d0565b5b81356123fc848260208601612395565b91505092915050565b6000806000806080858703121561241f5761241e611f18565b5b600061242d87828801612165565b945050602061243e87828801612165565b935050604061244f878288016120b0565b925050606085013567ffffffffffffffff8111156124705761246f611f1d565b5b61247c878288016123d7565b91505092959194509250565b600081519050919050565b600082825260208201905092915050565b6000819050602082019050919050565b6124bd8161208f565b82525050565b60006124cf83836124b4565b60208301905092915050565b6000602082019050919050565b60006124f382612488565b6124fd8185612493565b9350612508836124a4565b8060005b8381101561253957815161252088826124c3565b975061252b836124db565b92505060018101905061250c565b5085935050505092915050565b6000602082019050818103600083015261256081846124e8565b905092915050565b6000806040838503121561257f5761257e611f18565b5b600061258d85828601612165565b925050602061259e85828601612165565b9150509250929050565b7f4e487b7100000000000000000000000000000000000000000000000000000000600052602260045260246000fd5b600060028204905060018216806125ef57607f821691505b602082108103612602576126016125a8565b5b50919050565b7f4552433732313a20617070726f76616c20746f2063757272656e74206f776e6560008201527f7200000000000000000000000000000000000000000000000000000000000000602082015250565b6000612664602183611fe8565b915061266f82612608565b604082019050919050565b6000602082019050818103600083015261269381612657565b9050919050565b7f4552433732313a20617070726f76652063616c6c6572206973206e6f7420746f60008201527f6b656e206f776e6572206f7220617070726f76656420666f7220616c6c000000602082015250565b60006126f6603d83611fe8565b91506127018261269a565b604082019050919050565b60006020820190508181036000830152612725816126e9565b9050919050565b7f4552433732313a2063616c6c6572206973206e6f7420746f6b656e206f776e6560008201527f72206f7220617070726f76656400000000000000000000000000000000000000602082015250565b6000612788602d83611fe8565b91506127938261272c565b604082019050919050565b600060208201905081810360008301526127b78161277b565b9050919050565b7f455243373231456e756d657261626c653a206f776e657220696e646578206f7560008201527f74206f6620626f756e6473000000000000000000000000000000000000000000602082015250565b600061281a602b83611fe8565b9150612825826127be565b604082019050919050565b600060208201905081810360008301526128498161280d565b9050919050565b7f455243373231456e756d657261626c653a20676c6f62616c20696e646578206f60008201527f7574206f6620626f756e64730000000000000000000000000000000000000000602082015250565b60006128ac602c83611fe8565b91506128b782612850565b604082019050919050565b600060208201905081810360008301526128db8161289f565b9050919050565b7f4e487b7100000000000000000000000000000000000000000000000000000000600052603260045260246000fd5b7f4552433732313a20696e76616c696420746f6b656e2049440000000000000000600082015250565b6000612947601883611fe8565b915061295282612911565b602082019050919050565b600060208201905081810360008301526129768161293a565b9050919050565b7f4552433732313a2061646472657373207a65726f206973206e6f74206120766160008201527f6c6964206f776e65720000000000000000000000000000000000000000000000602082015250565b60006129d9602983611fe8565b91506129e48261297d565b604082019050919050565b60006020820190508181036000830152612a08816129cc565b9050919050565b7f4e487b7100000000000000000000000000000000000000000000000000000000600052601160045260246000fd5b6000612a498261208f565b91507fffffffffffffffffffffffffffffffffffffffffffffffffffffffffffffffff8203612a7b57612a7a612a0f565b5b600182019050919050565b600081905092915050565b6000612a9c82611fdd565b612aa68185612a86565b9350612ab6818560208601611ff9565b80840191505092915050565b6000612ace8285612a91565b9150612ada8284612a91565b91508190509392505050565b7f4552433732313a207472616e736665722066726f6d20696e636f72726563742060008201527f6f776e6572000000000000000000000000000000000000000000000000000000602082015250565b6000612b42602583611fe8565b9150612b4d82612ae6565b604082019050919050565b60006020820190508181036000830152612b7181612b35565b9050919050565b7f4552433732313a207472616e7366657220746f20746865207a65726f2061646460008201527f7265737300000000000000000000000000000000000000000000000000000000602082015250565b6000612bd4602483611fe8565b9150612bdf82612b78565b604082019050919050565b60006020820190508181036000830152612c0381612bc7565b9050919050565b7f4552433732313a20617070726f766520746f2063616c6c657200000000000000600082015250565b6000612c40601983611fe8565b9150612c4b82612c0a565b602082019050919050565b60006020820190508181036000830152612c6f81612c33565b9050919050565b7f4552433732313a207472616e7366657220746f206e6f6e20455243373231526560008201527f63656976657220696d706c656d656e7465720000000000000000000000000000602082015250565b6000612cd2603283611fe8565b9150612cdd82612c76565b604082019050919050565b60006020820190508181036000830152612d0181612cc5565b9050919050565b7f4e487b7100000000000000000000000000000000000000000000000000000000600052601260045260246000fd5b600081519050919050565b600082825260208201905092915050565b6000612d5e82612d37565b612d688185612d42565b9350612d78818560208601611ff9565b612d8181612023565b840191505092915050565b6000608082019050612da16000830187612124565b612dae6020830186612124565b612dbb60408301856121ba565b8181036060830152612dcd8184612d53565b905095945050505050565b600081519050612de781611f4e565b92915050565b600060208284031215612e0357612e02611f18565b5b6000612e1184828501612dd8565b91505092915050565b7f455243373231456e756d657261626c653a20636f6e736563757469766520747260008201527f616e7366657273206e6f7420737570706f727465640000000000000000000000602082015250565b6000612e76603583611fe8565b9150612e8182612e1a565b604082019050919050565b60006020820190508181036000830152612ea581612e69565b9050919050565b7f4552433732313a206d696e7420746f20746865207a65726f2061646472657373600082015250565b6000612ee2602083611fe8565b9150612eed82612eac565b602082019050919050565b60006020820190508181036000830152612f1181612ed5565b9050919050565b7f4552433732313a20746f6b656e20616c7265616479206d696e74656400000000600082015250565b6000612f4e601c83611fe8565b9150612f5982612f18565b602082019050919050565b60006020820190508181036000830152612f7d81612f41565b9050919050565b6000612f8f8261208f565b9150612f9a8361208f565b9250828203905081811115612fb257612fb1612a0f565b5b92915050565b7f4e487b7100000000000000000000000000000000000000000000000000000000600052603160045260246000fdfe697066733a2f2f516d61347336757956534361546f75584d384e38416b414c346a63313144353354736e316b5a50733443476436622fa26469706673582212208ba6aeef21ccd67375bebd9124501113b8540ad05bf8b4042588f4de4726306364736f6c63430008130033",
  "linkReferences": {},
  "deployedLinkReferences": {}
}