{
  "_format": "hh-sol-artifact-1",
  "contractName": "Hombre",
  "sourceName": "contracts/class06/HerenciaOverride.sol",
  "abi": [
    {
      "inputs": [],
      "name": "saludar",
      "outputs": [
        {
          "internalType": "string",
          "name": "",
          "type": "string"
        }
      ],
      "stateMutability": "pure",
      "type": "function"
    },
    {
      "inputs": [],
      "name": "saludarDeHumano",
      "outputs": [
        {
          "internalType": "string",
          "name": "",
          "type": "string"
        }
      ],
      "stateMutability": "pure",
      "type": "function"
    }
  ],
  "bytecode": "0x608060405234801561001057600080fd5b506101e7806100206000396000f3fe608060405234801561001057600080fd5b50600436106100355760003560e01c80628834b71461003a5780638aa5915214610058575b600080fd5b610042610076565b60405161004f919061018f565b60405180910390f35b610060610085565b60405161006d919061018f565b60405180910390f35b60606100806100c2565b905090565b60606040518060400160405280601081526020017f486f6c612c20736f7920486f6d62726500000000000000000000000000000000815250905090565b60606040518060400160405280601081526020017f486f6c612c20736f792048756d616e6f00000000000000000000000000000000815250905090565b600081519050919050565b600082825260208201905092915050565b60005b8381101561013957808201518184015260208101905061011e565b60008484015250505050565b6000601f19601f8301169050919050565b6000610161826100ff565b61016b818561010a565b935061017b81856020860161011b565b61018481610145565b840191505092915050565b600060208201905081810360008301526101a98184610156565b90509291505056fea2646970667358221220bad419085532fddc96058b8322924e3493bf57a73a68502c559150283a56825864736f6c63430008130033",
  "linkReferences": {},
  "deployedLinkReferences": {}
}