{
  "_format": "hh-sol-artifact-1",
  "contractName": "AirdropOneCrossChain",
  "sourceName": "contracts/class13/AirdropOneCrossChain.sol",
  "abi": [
    {
      "inputs": [],
      "stateMutability": "nonpayable",
      "type": "constructor"
    },
    {
      "anonymous": false,
      "inputs": [
        {
          "indexed": false,
          "internalType": "address",
          "name": "account",
          "type": "address"
        },
        {
          "indexed": false,
          "internalType": "uint256",
          "name": "tokens",
          "type": "uint256"
        }
      ],
      "name": "BurnCrossChain",
      "type": "event"
    },
    {
      "anonymous": false,
      "inputs": [
        {
          "indexed": false,
          "internalType": "address",
          "name": "account",
          "type": "address"
        },
        {
          "indexed": false,
          "internalType": "uint256",
          "name": "tokens",
          "type": "uint256"
        }
      ],
      "name": "MintInAnotherChain",
      "type": "event"
    },
    {
      "anonymous": false,
      "inputs": [
        {
          "indexed": false,
          "internalType": "address",
          "name": "account",
          "type": "address"
        }
      ],
      "name": "Paused",
      "type": "event"
    },
    {
      "anonymous": false,
      "inputs": [
        {
          "indexed": true,
          "internalType": "bytes32",
          "name": "role",
          "type": "bytes32"
        },
        {
          "indexed": true,
          "internalType": "bytes32",
          "name": "previousAdminRole",
          "type": "bytes32"
        },
        {
          "indexed": true,
          "internalType": "bytes32",
          "name": "newAdminRole",
          "type": "bytes32"
        }
      ],
      "name": "RoleAdminChanged",
      "type": "event"
    },
    {
      "anonymous": false,
      "inputs": [
        {
          "indexed": true,
          "internalType": "bytes32",
          "name": "role",
          "type": "bytes32"
        },
        {
          "indexed": true,
          "internalType": "address",
          "name": "account",
          "type": "address"
        },
        {
          "indexed": true,
          "internalType": "address",
          "name": "sender",
          "type": "address"
        }
      ],
      "name": "RoleGranted",
      "type": "event"
    },
    {
      "anonymous": false,
      "inputs": [
        {
          "indexed": true,
          "internalType": "bytes32",
          "name": "role",
          "type": "bytes32"
        },
        {
          "indexed": true,
          "internalType": "address",
          "name": "account",
          "type": "address"
        },
        {
          "indexed": true,
          "internalType": "address",
          "name": "sender",
          "type": "address"
        }
      ],
      "name": "RoleRevoked",
      "type": "event"
    },
    {
      "anonymous": false,
      "inputs": [
        {
          "indexed": false,
          "internalType": "address",
          "name": "account",
          "type": "address"
        }
      ],
      "name": "Unpaused",
      "type": "event"
    },
    {
      "inputs": [],
      "name": "DEFAULT_ADMIN_ROLE",
      "outputs": [
        {
          "internalType": "bytes32",
          "name": "",
          "type": "bytes32"
        }
      ],
      "stateMutability": "view",
      "type": "function"
    },
    {
      "inputs": [],
      "name": "PAUSER_ROLE",
      "outputs": [
        {
          "internalType": "bytes32",
          "name": "",
          "type": "bytes32"
        }
      ],
      "stateMutability": "view",
      "type": "function"
    },
    {
      "inputs": [
        {
          "internalType": "address",
          "name": "_account",
          "type": "address"
        }
      ],
      "name": "darOtroChance",
      "outputs": [],
      "stateMutability": "nonpayable",
      "type": "function"
    },
    {
      "inputs": [
        {
          "internalType": "bytes32",
          "name": "role",
          "type": "bytes32"
        }
      ],
      "name": "getRoleAdmin",
      "outputs": [
        {
          "internalType": "bytes32",
          "name": "",
          "type": "bytes32"
        }
      ],
      "stateMutability": "view",
      "type": "function"
    },
    {
      "inputs": [
        {
          "internalType": "bytes32",
          "name": "role",
          "type": "bytes32"
        },
        {
          "internalType": "address",
          "name": "account",
          "type": "address"
        }
      ],
      "name": "grantRole",
      "outputs": [],
      "stateMutability": "nonpayable",
      "type": "function"
    },
    {
      "inputs": [
        {
          "internalType": "address",
          "name": "",
          "type": "address"
        }
      ],
      "name": "haSolicitado",
      "outputs": [
        {
          "internalType": "bool",
          "name": "",
          "type": "bool"
        }
      ],
      "stateMutability": "view",
      "type": "function"
    },
    {
      "inputs": [
        {
          "internalType": "bytes32",
          "name": "role",
          "type": "bytes32"
        },
        {
          "internalType": "address",
          "name": "account",
          "type": "address"
        }
      ],
      "name": "hasRole",
      "outputs": [
        {
          "internalType": "bool",
          "name": "",
          "type": "bool"
        }
      ],
      "stateMutability": "view",
      "type": "function"
    },
    {
      "inputs": [],
      "name": "participateInAirdrop",
      "outputs": [],
      "stateMutability": "nonpayable",
      "type": "function"
    },
    {
      "inputs": [],
      "name": "pause",
      "outputs": [],
      "stateMutability": "nonpayable",
      "type": "function"
    },
    {
      "inputs": [],
      "name": "paused",
      "outputs": [
        {
          "internalType": "bool",
          "name": "",
          "type": "bool"
        }
      ],
      "stateMutability": "view",
      "type": "function"
    },
    {
      "inputs": [],
      "name": "quemaTokensParticipar",
      "outputs": [
        {
          "internalType": "uint256",
          "name": "",
          "type": "uint256"
        }
      ],
      "stateMutability": "view",
      "type": "function"
    },
    {
      "inputs": [],
      "name": "quemarMisTokensParaParticipar",
      "outputs": [],
      "stateMutability": "nonpayable",
      "type": "function"
    },
    {
      "inputs": [
        {
          "internalType": "bytes32",
          "name": "role",
          "type": "bytes32"
        },
        {
          "internalType": "address",
          "name": "account",
          "type": "address"
        }
      ],
      "name": "renounceRole",
      "outputs": [],
      "stateMutability": "nonpayable",
      "type": "function"
    },
    {
      "inputs": [
        {
          "internalType": "bytes32",
          "name": "role",
          "type": "bytes32"
        },
        {
          "internalType": "address",
          "name": "account",
          "type": "address"
        }
      ],
      "name": "revokeRole",
      "outputs": [],
      "stateMutability": "nonpayable",
      "type": "function"
    },
    {
      "inputs": [
        {
          "internalType": "bytes4",
          "name": "interfaceId",
          "type": "bytes4"
        }
      ],
      "name": "supportsInterface",
      "outputs": [
        {
          "internalType": "bool",
          "name": "",
          "type": "bool"
        }
      ],
      "stateMutability": "view",
      "type": "function"
    },
    {
      "inputs": [],
      "name": "totalAirdropMax",
      "outputs": [
        {
          "internalType": "uint256",
          "name": "",
          "type": "uint256"
        }
      ],
      "stateMutability": "view",
      "type": "function"
    },
    {
      "inputs": [],
      "name": "unpause",
      "outputs": [],
      "stateMutability": "nonpayable",
      "type": "function"
    },
    {
      "inputs": [
        {
          "internalType": "address",
          "name": "",
          "type": "address"
        }
      ],
      "name": "whiteList",
      "outputs": [
        {
          "internalType": "bool",
          "name": "",
          "type": "bool"
        }
      ],
      "stateMutability": "view",
      "type": "function"
    }
  ],
  "bytecode": "0x60806040523480156200001157600080fd5b5060008060006101000a81548160ff021916908315150217905550620000416000801b336200007960201b60201c565b620000737f65d7a28e3265b37a6474929f336521b332c1681b933f6cb9f3376673440d862a336200007960201b60201c565b620001dd565b6200008b82826200016a60201b60201c565b6200016657600180600084815260200190815260200160002060000160008373ffffffffffffffffffffffffffffffffffffffff1673ffffffffffffffffffffffffffffffffffffffff16815260200190815260200160002060006101000a81548160ff0219169083151502179055506200010b620001d560201b60201c565b73ffffffffffffffffffffffffffffffffffffffff168173ffffffffffffffffffffffffffffffffffffffff16837f2f8788117e7eff1d82e926ec794901d17c78024a50270940304540a733656f0d60405160405180910390a45b5050565b60006001600084815260200190815260200160002060000160008373ffffffffffffffffffffffffffffffffffffffff1673ffffffffffffffffffffffffffffffffffffffff16815260200190815260200160002060009054906101000a900460ff16905092915050565b600033905090565b6118b880620001ed6000396000f3fe608060405234801561001057600080fd5b50600436106101165760003560e01c80638456cb59116100a2578063aa423b7f11610071578063aa423b7f146102b9578063abf2569e146102d7578063d547741f146102f5578063e63ab1e914610311578063f7dc62821461032f57610116565b80638456cb59146102575780638693ba371461026157806391d148541461026b578063a217fddf1461029b57610116565b806336568abe116100e957806336568abe146101c7578063372c12b1146101e35780633f4ba83a1461021357806348e934571461021d5780635c975abb1461023957610116565b806301ffc9a71461011b578063086cd2a71461014b578063248a9ca31461017b5780632f2ff15d146101ab575b600080fd5b61013560048036038101906101309190610fb1565b610339565b6040516101429190610ff9565b60405180910390f35b61016560048036038101906101609190611072565b6103b3565b6040516101729190610ff9565b60405180910390f35b610195600480360381019061019091906110d5565b6103d3565b6040516101a29190611111565b60405180910390f35b6101c560048036038101906101c0919061112c565b6103f3565b005b6101e160048036038101906101dc919061112c565b610414565b005b6101fd60048036038101906101f89190611072565b610497565b60405161020a9190610ff9565b60405180910390f35b61021b6104b7565b005b61023760048036038101906102329190611072565b6104ec565b005b610241610555565b60405161024e9190610ff9565b60405180910390f35b61025f61056b565b005b6102696105a0565b005b6102856004803603810190610280919061112c565b6106bb565b6040516102929190610ff9565b60405180910390f35b6102a3610726565b6040516102b09190611111565b60405180910390f35b6102c161072d565b6040516102ce9190611185565b60405180910390f35b6102df610739565b6040516102ec9190611185565b60405180910390f35b61030f600480360381019061030a919061112c565b610747565b005b610319610768565b6040516103269190611111565b60405180910390f35b61033761078c565b005b60007f7965db0b000000000000000000000000000000000000000000000000000000007bffffffffffffffffffffffffffffffffffffffffffffffffffffffff1916827bffffffffffffffffffffffffffffffffffffffffffffffffffffffff191614806103ac57506103ab82610863565b5b9050919050565b60046020528060005260406000206000915054906101000a900460ff1681565b600060016000838152602001908152602001600020600101549050919050565b6103fc826103d3565b610405816108cd565b61040f83836108e1565b505050565b61041c6109c1565b73ffffffffffffffffffffffffffffffffffffffff168173ffffffffffffffffffffffffffffffffffffffff1614610489576040517f08c379a000000000000000000000000000000000000000000000000000000000815260040161048090611223565b60405180910390fd5b61049382826109c9565b5050565b60036020528060005260406000206000915054906101000a900460ff1681565b7f65d7a28e3265b37a6474929f336521b332c1681b933f6cb9f3376673440d862a6104e1816108cd565b6104e9610aab565b50565b6000801b6104f9816108cd565b6000600460008473ffffffffffffffffffffffffffffffffffffffff1673ffffffffffffffffffffffffffffffffffffffff16815260200190815260200160002060006101000a81548160ff0219169083151502179055505050565b60008060009054906101000a900460ff16905090565b7f65d7a28e3265b37a6474929f336521b332c1681b933f6cb9f3376673440d862a610595816108cd565b61059d610b0d565b50565b6105a8610b6f565b60006105b2610bb9565b905069d3c21bcecceda1000000816002546105cd9190611272565b111561060e576040517f08c379a0000000000000000000000000000000000000000000000000000000008152600401610605906112f2565b60405180910390fd5b80600260008282546106209190611272565b925050819055506001600460003373ffffffffffffffffffffffffffffffffffffffff1673ffffffffffffffffffffffffffffffffffffffff16815260200190815260200160002060006101000a81548160ff0219169083151502179055507f5b754a75b454c97d3514471ed8f71d93dd5dfa1c73f90af59c04eb48b808909433826040516106b0929190611321565b60405180910390a150565b60006001600084815260200190815260200160002060000160008373ffffffffffffffffffffffffffffffffffffffff1673ffffffffffffffffffffffffffffffffffffffff16815260200190815260200160002060009054906101000a900460ff16905092915050565b6000801b81565b678ac7230489e8000081565b69d3c21bcecceda100000081565b610750826103d3565b610759816108cd565b61076383836109c9565b505050565b7f65d7a28e3265b37a6474929f336521b332c1681b933f6cb9f3376673440d862a81565b610794610b6f565b600460003373ffffffffffffffffffffffffffffffffffffffff1673ffffffffffffffffffffffffffffffffffffffff16815260200190815260200160002060009054906101000a900460ff16610820576040517f08c379a000000000000000000000000000000000000000000000000000000000815260040161081790611396565b60405180910390fd5b7f092a5cc2f4a5de5d861227d759847ff622a4a5f43bcce14bdbea95bb672a37f833678ac7230489e80000604051610859929190611321565b60405180910390a1565b60007f01ffc9a7000000000000000000000000000000000000000000000000000000007bffffffffffffffffffffffffffffffffffffffffffffffffffffffff1916827bffffffffffffffffffffffffffffffffffffffffffffffffffffffff1916149050919050565b6108de816108d96109c1565b610c1d565b50565b6108eb82826106bb565b6109bd57600180600084815260200190815260200160002060000160008373ffffffffffffffffffffffffffffffffffffffff1673ffffffffffffffffffffffffffffffffffffffff16815260200190815260200160002060006101000a81548160ff0219169083151502179055506109626109c1565b73ffffffffffffffffffffffffffffffffffffffff168173ffffffffffffffffffffffffffffffffffffffff16837f2f8788117e7eff1d82e926ec794901d17c78024a50270940304540a733656f0d60405160405180910390a45b5050565b600033905090565b6109d382826106bb565b15610aa75760006001600084815260200190815260200160002060000160008373ffffffffffffffffffffffffffffffffffffffff1673ffffffffffffffffffffffffffffffffffffffff16815260200190815260200160002060006101000a81548160ff021916908315150217905550610a4c6109c1565b73ffffffffffffffffffffffffffffffffffffffff168173ffffffffffffffffffffffffffffffffffffffff16837ff6391f5c32d9c69d2a47ea670b442974b53935d1edc7fd64eb21e047a839171b60405160405180910390a45b5050565b610ab3610ca2565b60008060006101000a81548160ff0219169083151502179055507f5db9ee0a495bf2e6ff9c91a7834c1ba4fdd244a5e8aa4e537bd38aeae4b073aa610af66109c1565b604051610b0391906113b6565b60405180910390a1565b610b15610b6f565b60016000806101000a81548160ff0219169083151502179055507f62e78cea01bee320cd4e420270b5ea74000d11b0c9f74754ebdbfc544b05a258610b586109c1565b604051610b6591906113b6565b60405180910390a1565b610b77610555565b15610bb7576040517f08c379a0000000000000000000000000000000000000000000000000000000008152600401610bae9061141d565b60405180910390fd5b565b60008060016103e84233604051602001610bd49291906114a6565b6040516020818303038152906040528051906020012060001c610bf79190611501565b610c019190611272565b9050670de0b6b3a764000081610c179190611532565b91505090565b610c2782826106bb565b610c9e57610c3481610ceb565b610c428360001c6020610d18565b604051602001610c5392919061167d565b6040516020818303038152906040526040517f08c379a0000000000000000000000000000000000000000000000000000000008152600401610c959190611701565b60405180910390fd5b5050565b610caa610555565b610ce9576040517f08c379a0000000000000000000000000000000000000000000000000000000008152600401610ce09061176f565b60405180910390fd5b565b6060610d118273ffffffffffffffffffffffffffffffffffffffff16601460ff16610d18565b9050919050565b606060006002836002610d2b9190611532565b610d359190611272565b67ffffffffffffffff811115610d4e57610d4d61178f565b5b6040519080825280601f01601f191660200182016040528015610d805781602001600182028036833780820191505090505b5090507f300000000000000000000000000000000000000000000000000000000000000081600081518110610db857610db76117be565b5b60200101907effffffffffffffffffffffffffffffffffffffffffffffffffffffffffffff1916908160001a9053507f780000000000000000000000000000000000000000000000000000000000000081600181518110610e1c57610e1b6117be565b5b60200101907effffffffffffffffffffffffffffffffffffffffffffffffffffffffffffff1916908160001a90535060006001846002610e5c9190611532565b610e669190611272565b90505b6001811115610f06577f3031323334353637383961626364656600000000000000000000000000000000600f861660108110610ea857610ea76117be565b5b1a60f81b828281518110610ebf57610ebe6117be565b5b60200101907effffffffffffffffffffffffffffffffffffffffffffffffffffffffffffff1916908160001a905350600485901c945080610eff906117ed565b9050610e69565b5060008414610f4a576040517f08c379a0000000000000000000000000000000000000000000000000000000008152600401610f4190611862565b60405180910390fd5b8091505092915050565b600080fd5b60007fffffffff0000000000000000000000000000000000000000000000000000000082169050919050565b610f8e81610f59565b8114610f9957600080fd5b50565b600081359050610fab81610f85565b92915050565b600060208284031215610fc757610fc6610f54565b5b6000610fd584828501610f9c565b91505092915050565b60008115159050919050565b610ff381610fde565b82525050565b600060208201905061100e6000830184610fea565b92915050565b600073ffffffffffffffffffffffffffffffffffffffff82169050919050565b600061103f82611014565b9050919050565b61104f81611034565b811461105a57600080fd5b50565b60008135905061106c81611046565b92915050565b60006020828403121561108857611087610f54565b5b60006110968482850161105d565b91505092915050565b6000819050919050565b6110b28161109f565b81146110bd57600080fd5b50565b6000813590506110cf816110a9565b92915050565b6000602082840312156110eb576110ea610f54565b5b60006110f9848285016110c0565b91505092915050565b61110b8161109f565b82525050565b60006020820190506111266000830184611102565b92915050565b6000806040838503121561114357611142610f54565b5b6000611151858286016110c0565b92505060206111628582860161105d565b9150509250929050565b6000819050919050565b61117f8161116c565b82525050565b600060208201905061119a6000830184611176565b92915050565b600082825260208201905092915050565b7f416363657373436f6e74726f6c3a2063616e206f6e6c792072656e6f756e636560008201527f20726f6c657320666f722073656c660000000000000000000000000000000000602082015250565b600061120d602f836111a0565b9150611218826111b1565b604082019050919050565b6000602082019050818103600083015261123c81611200565b9050919050565b7f4e487b7100000000000000000000000000000000000000000000000000000000600052601160045260246000fd5b600061127d8261116c565b91506112888361116c565b92508282019050808211156112a05761129f611243565b5b92915050565b7f4e6f2068617920746f6b656e7320646973706f6e69626c657300000000000000600082015250565b60006112dc6019836111a0565b91506112e7826112a6565b602082019050919050565b6000602082019050818103600083015261130b816112cf565b9050919050565b61131b81611034565b82525050565b60006040820190506113366000830185611312565b6113436020830184611176565b9392505050565b7f55737465642061756e206e6f20686120706172746963697061646f0000000000600082015250565b6000611380601b836111a0565b915061138b8261134a565b602082019050919050565b600060208201905081810360008301526113af81611373565b9050919050565b60006020820190506113cb6000830184611312565b92915050565b7f5061757361626c653a2070617573656400000000000000000000000000000000600082015250565b60006114076010836111a0565b9150611412826113d1565b602082019050919050565b60006020820190508181036000830152611436816113fa565b9050919050565b6000819050919050565b6114586114538261116c565b61143d565b82525050565b60008160601b9050919050565b60006114768261145e565b9050919050565b60006114888261146b565b9050919050565b6114a061149b82611034565b61147d565b82525050565b60006114b28285611447565b6020820191506114c2828461148f565b6014820191508190509392505050565b7f4e487b7100000000000000000000000000000000000000000000000000000000600052601260045260246000fd5b600061150c8261116c565b91506115178361116c565b925082611527576115266114d2565b5b828206905092915050565b600061153d8261116c565b91506115488361116c565b92508282026115568161116c565b9150828204841483151761156d5761156c611243565b5b5092915050565b600081905092915050565b7f416363657373436f6e74726f6c3a206163636f756e7420000000000000000000600082015250565b60006115b5601783611574565b91506115c08261157f565b601782019050919050565b600081519050919050565b60005b838110156115f45780820151818401526020810190506115d9565b60008484015250505050565b600061160b826115cb565b6116158185611574565b93506116258185602086016115d6565b80840191505092915050565b7f206973206d697373696e6720726f6c6520000000000000000000000000000000600082015250565b6000611667601183611574565b915061167282611631565b601182019050919050565b6000611688826115a8565b91506116948285611600565b915061169f8261165a565b91506116ab8284611600565b91508190509392505050565b6000601f19601f8301169050919050565b60006116d3826115cb565b6116dd81856111a0565b93506116ed8185602086016115d6565b6116f6816116b7565b840191505092915050565b6000602082019050818103600083015261171b81846116c8565b905092915050565b7f5061757361626c653a206e6f7420706175736564000000000000000000000000600082015250565b60006117596014836111a0565b915061176482611723565b602082019050919050565b600060208201905081810360008301526117888161174c565b9050919050565b7f4e487b7100000000000000000000000000000000000000000000000000000000600052604160045260246000fd5b7f4e487b7100000000000000000000000000000000000000000000000000000000600052603260045260246000fd5b60006117f88261116c565b91506000820361180b5761180a611243565b5b600182039050919050565b7f537472696e67733a20686578206c656e67746820696e73756666696369656e74600082015250565b600061184c6020836111a0565b915061185782611816565b602082019050919050565b6000602082019050818103600083015261187b8161183f565b905091905056fea2646970667358221220c8419e2e797845d1e237ad77d5b9f31f9ce511537fcd85279811ddae4dde89c964736f6c63430008130033",
  "linkReferences": {},
  "deployedLinkReferences": {}
}