{
  "_format": "hh-sol-artifact-1",
  "contractName": "Marcos",
  "sourceName": "contracts/class06/HerenciaOverride2.sol",
  "abi": [
    {
      "inputs": [],
      "name": "saludar",
      "outputs": [
        {
          "internalType": "string",
          "name": "",
          "type": "string"
        }
      ],
      "stateMutability": "pure",
      "type": "function"
    },
    {
      "inputs": [],
      "name": "saludoPapaConSuper",
      "outputs": [
        {
          "internalType": "string",
          "name": "",
          "type": "string"
        }
      ],
      "stateMutability": "pure",
      "type": "function"
    }
  ],
  "bytecode": "0x608060405234801561001057600080fd5b506101e8806100206000396000f3fe608060405234801561001057600080fd5b50600436106100365760003560e01c80634a4b7d581461003b5780638aa5915214610059575b600080fd5b610043610077565b6040516100509190610190565b60405180910390f35b610061610086565b60405161006e9190610190565b60405180910390f35b60606100816100c3565b905090565b60606040518060400160405280600f81526020017f686f6c6120736f79204d6172636f730000000000000000000000000000000000815250905090565b60606040518060400160405280601081526020017f486f6c612c20736f792048756d616e6f00000000000000000000000000000000815250905090565b600081519050919050565b600082825260208201905092915050565b60005b8381101561013a57808201518184015260208101905061011f565b60008484015250505050565b6000601f19601f8301169050919050565b600061016282610100565b61016c818561010b565b935061017c81856020860161011c565b61018581610146565b840191505092915050565b600060208201905081810360008301526101aa8184610157565b90509291505056fea264697066735822122032e31558ce451dbcf6f567cf1b2c74ee4f918c20aac5c2822c1ff6388286519b64736f6c63430008130033",
  "linkReferences": {},
  "deployedLinkReferences": {}
}