{
  "_format": "hh-sol-artifact-1",
  "contractName": "TokenDesdeCero",
  "sourceName": "contracts/class08/TokenDesdeCero.sol",
  "abi": [
    {
      "inputs": [
        {
          "internalType": "address",
          "name": "account",
          "type": "address"
        }
      ],
      "name": "balanceOf",
      "outputs": [
        {
          "internalType": "uint256",
          "name": "",
          "type": "uint256"
        }
      ],
      "stateMutability": "view",
      "type": "function"
    },
    {
      "inputs": [],
      "name": "decimals",
      "outputs": [
        {
          "internalType": "uint256",
          "name": "",
          "type": "uint256"
        }
      ],
      "stateMutability": "pure",
      "type": "function"
    },
    {
      "inputs": [
        {
          "internalType": "address",
          "name": "to",
          "type": "address"
        },
        {
          "internalType": "uint256",
          "name": "amount",
          "type": "uint256"
        }
      ],
      "name": "mint",
      "outputs": [],
      "stateMutability": "nonpayable",
      "type": "function"
    },
    {
      "inputs": [],
      "name": "name",
      "outputs": [
        {
          "internalType": "string",
          "name": "",
          "type": "string"
        }
      ],
      "stateMutability": "pure",
      "type": "function"
    },
    {
      "inputs": [],
      "name": "symbol",
      "outputs": [
        {
          "internalType": "string",
          "name": "",
          "type": "string"
        }
      ],
      "stateMutability": "pure",
      "type": "function"
    },
    {
      "inputs": [],
      "name": "totalSuppy",
      "outputs": [
        {
          "internalType": "uint256",
          "name": "",
          "type": "uint256"
        }
      ],
      "stateMutability": "view",
      "type": "function"
    }
  ],
  "bytecode": "0x608060405234801561001057600080fd5b506104ea806100206000396000f3fe608060405234801561001057600080fd5b50600436106100625760003560e01c806306fdde0314610067578063313ce5671461008557806340c10f19146100a357806370a08231146100bf57806395d89b41146100ef578063d524ccbb1461010d575b600080fd5b61006f61012b565b60405161007c91906102ff565b60405180910390f35b61008d610168565b60405161009a919061033a565b60405180910390f35b6100bd60048036038101906100b891906103e4565b610171565b005b6100d960048036038101906100d49190610424565b6101e3565b6040516100e6919061033a565b60405180910390f35b6100f761022c565b60405161010491906102ff565b60405180910390f35b610115610269565b604051610122919061033a565b60405180910390f35b60606040518060400160405280601281526020017f4c6565204d61727265726f7320546f6b656e0000000000000000000000000000815250905090565b60006012905090565b80600160008473ffffffffffffffffffffffffffffffffffffffff1673ffffffffffffffffffffffffffffffffffffffff16815260200190815260200160002060008282546101c09190610480565b92505081905550806000808282546101d89190610480565b925050819055505050565b6000600160008373ffffffffffffffffffffffffffffffffffffffff1673ffffffffffffffffffffffffffffffffffffffff168152602001908152602001600020549050919050565b60606040518060400160405280600781526020017f4c4d5252544b4e00000000000000000000000000000000000000000000000000815250905090565b60005481565b600081519050919050565b600082825260208201905092915050565b60005b838110156102a957808201518184015260208101905061028e565b60008484015250505050565b6000601f19601f8301169050919050565b60006102d18261026f565b6102db818561027a565b93506102eb81856020860161028b565b6102f4816102b5565b840191505092915050565b6000602082019050818103600083015261031981846102c6565b905092915050565b6000819050919050565b61033481610321565b82525050565b600060208201905061034f600083018461032b565b92915050565b600080fd5b600073ffffffffffffffffffffffffffffffffffffffff82169050919050565b60006103858261035a565b9050919050565b6103958161037a565b81146103a057600080fd5b50565b6000813590506103b28161038c565b92915050565b6103c181610321565b81146103cc57600080fd5b50565b6000813590506103de816103b8565b92915050565b600080604083850312156103fb576103fa610355565b5b6000610409858286016103a3565b925050602061041a858286016103cf565b9150509250929050565b60006020828403121561043a57610439610355565b5b6000610448848285016103a3565b91505092915050565b7f4e487b7100000000000000000000000000000000000000000000000000000000600052601160045260246000fd5b600061048b82610321565b915061049683610321565b92508282019050808211156104ae576104ad610451565b5b9291505056fea2646970667358221220fd27d755db375c94d4fdf8d9f0b2cdfa8aaa044d463026778afe02ad1143164564736f6c63430008130033",
  "linkReferences": {},
  "deployedLinkReferences": {}
}