{
  "_format": "hh-sol-artifact-1",
  "contractName": "Constructor",
  "sourceName": "contracts/class05/Constructor.sol",
  "abi": [
    {
      "inputs": [
        {
          "internalType": "uint256",
          "name": "_age",
          "type": "uint256"
        }
      ],
      "stateMutability": "nonpayable",
      "type": "constructor"
    },
    {
      "anonymous": false,
      "inputs": [],
      "name": "Published",
      "type": "event"
    },
    {
      "inputs": [],
      "name": "protegerMetodoPorOwner",
      "outputs": [],
      "stateMutability": "nonpayable",
      "type": "function"
    },
    {
      "inputs": [],
      "name": "sum",
      "outputs": [],
      "stateMutability": "nonpayable",
      "type": "function"
    }
  ],
  "bytecode": "0x608060405234801561001057600080fd5b506040516103213803806103218339818101604052810190610032919061014f565b8060008190555033600160006101000a81548173ffffffffffffffffffffffffffffffffffffffff021916908373ffffffffffffffffffffffffffffffffffffffff1602179055506001600260003373ffffffffffffffffffffffffffffffffffffffff1673ffffffffffffffffffffffffffffffffffffffff16815260200190815260200160002060006101000a81548160ff0219169083151502179055506100e061011260201b60201c565b7fa5c49e57d43a67a13cd3aba09ccf12eaa3019b35cea872059e78db9c4a70f86c60405160405180910390a15061017c565b565b600080fd5b6000819050919050565b61012c81610119565b811461013757600080fd5b50565b60008151905061014981610123565b92915050565b60006020828403121561016557610164610114565b5b60006101738482850161013a565b91505092915050565b6101968061018b6000396000f3fe608060405234801561001057600080fd5b50600436106100365760003560e01c80634f2eab631461003b578063853255cc14610045575b600080fd5b61004361004f565b005b61004d6100e1565b005b600160009054906101000a900473ffffffffffffffffffffffffffffffffffffffff1673ffffffffffffffffffffffffffffffffffffffff163373ffffffffffffffffffffffffffffffffffffffff16146100df576040517f08c379a00000000000000000000000000000000000000000000000000000000081526004016100d690610140565b60405180910390fd5b565b565b600082825260208201905092915050565b7f4e6f20657320656c206f776e6572000000000000000000000000000000000000600082015250565b600061012a600e836100e3565b9150610135826100f4565b602082019050919050565b600060208201905081810360008301526101598161011d565b905091905056fea26469706673582212202c2b21e166665f92951c7266192d9e703ba6bf799df81d2f1aa857e5ce6d9f3964736f6c63430008130033",
  "linkReferences": {},
  "deployedLinkReferences": {}
}