{
  "_format": "hh-sol-artifact-1",
  "contractName": "AirdropTwo",
  "sourceName": "contracts/desafios/Desafio_7.sol",
  "abi": [
    {
      "inputs": [
        {
          "internalType": "address",
          "name": "_tokenAddress",
          "type": "address"
        }
      ],
      "stateMutability": "nonpayable",
      "type": "constructor"
    },
    {
      "anonymous": false,
      "inputs": [
        {
          "indexed": false,
          "internalType": "address",
          "name": "account",
          "type": "address"
        }
      ],
      "name": "Paused",
      "type": "event"
    },
    {
      "anonymous": false,
      "inputs": [
        {
          "indexed": true,
          "internalType": "bytes32",
          "name": "role",
          "type": "bytes32"
        },
        {
          "indexed": true,
          "internalType": "bytes32",
          "name": "previousAdminRole",
          "type": "bytes32"
        },
        {
          "indexed": true,
          "internalType": "bytes32",
          "name": "newAdminRole",
          "type": "bytes32"
        }
      ],
      "name": "RoleAdminChanged",
      "type": "event"
    },
    {
      "anonymous": false,
      "inputs": [
        {
          "indexed": true,
          "internalType": "bytes32",
          "name": "role",
          "type": "bytes32"
        },
        {
          "indexed": true,
          "internalType": "address",
          "name": "account",
          "type": "address"
        },
        {
          "indexed": true,
          "internalType": "address",
          "name": "sender",
          "type": "address"
        }
      ],
      "name": "RoleGranted",
      "type": "event"
    },
    {
      "anonymous": false,
      "inputs": [
        {
          "indexed": true,
          "internalType": "bytes32",
          "name": "role",
          "type": "bytes32"
        },
        {
          "indexed": true,
          "internalType": "address",
          "name": "account",
          "type": "address"
        },
        {
          "indexed": true,
          "internalType": "address",
          "name": "sender",
          "type": "address"
        }
      ],
      "name": "RoleRevoked",
      "type": "event"
    },
    {
      "anonymous": false,
      "inputs": [
        {
          "indexed": false,
          "internalType": "address",
          "name": "account",
          "type": "address"
        }
      ],
      "name": "Unpaused",
      "type": "event"
    },
    {
      "inputs": [],
      "name": "DEFAULT_ADMIN_ROLE",
      "outputs": [
        {
          "internalType": "bytes32",
          "name": "",
          "type": "bytes32"
        }
      ],
      "stateMutability": "view",
      "type": "function"
    },
    {
      "inputs": [
        {
          "internalType": "bytes32",
          "name": "role",
          "type": "bytes32"
        }
      ],
      "name": "getRoleAdmin",
      "outputs": [
        {
          "internalType": "bytes32",
          "name": "",
          "type": "bytes32"
        }
      ],
      "stateMutability": "view",
      "type": "function"
    },
    {
      "inputs": [
        {
          "internalType": "bytes32",
          "name": "role",
          "type": "bytes32"
        },
        {
          "internalType": "address",
          "name": "account",
          "type": "address"
        }
      ],
      "name": "grantRole",
      "outputs": [],
      "stateMutability": "nonpayable",
      "type": "function"
    },
    {
      "inputs": [
        {
          "internalType": "bytes32",
          "name": "role",
          "type": "bytes32"
        },
        {
          "internalType": "address",
          "name": "account",
          "type": "address"
        }
      ],
      "name": "hasRole",
      "outputs": [
        {
          "internalType": "bool",
          "name": "",
          "type": "bool"
        }
      ],
      "stateMutability": "view",
      "type": "function"
    },
    {
      "inputs": [],
      "name": "participateInAirdrop",
      "outputs": [],
      "stateMutability": "nonpayable",
      "type": "function"
    },
    {
      "inputs": [
        {
          "internalType": "address",
          "name": "_elQueRefirio",
          "type": "address"
        }
      ],
      "name": "participateInAirdrop",
      "outputs": [],
      "stateMutability": "nonpayable",
      "type": "function"
    },
    {
      "inputs": [],
      "name": "paused",
      "outputs": [
        {
          "internalType": "bool",
          "name": "",
          "type": "bool"
        }
      ],
      "stateMutability": "view",
      "type": "function"
    },
    {
      "inputs": [
        {
          "internalType": "bytes32",
          "name": "role",
          "type": "bytes32"
        },
        {
          "internalType": "address",
          "name": "account",
          "type": "address"
        }
      ],
      "name": "renounceRole",
      "outputs": [],
      "stateMutability": "nonpayable",
      "type": "function"
    },
    {
      "inputs": [
        {
          "internalType": "bytes32",
          "name": "role",
          "type": "bytes32"
        },
        {
          "internalType": "address",
          "name": "account",
          "type": "address"
        }
      ],
      "name": "revokeRole",
      "outputs": [],
      "stateMutability": "nonpayable",
      "type": "function"
    },
    {
      "inputs": [
        {
          "internalType": "address",
          "name": "_tokenAddress",
          "type": "address"
        }
      ],
      "name": "setTokenAddress",
      "outputs": [],
      "stateMutability": "nonpayable",
      "type": "function"
    },
    {
      "inputs": [
        {
          "internalType": "bytes4",
          "name": "interfaceId",
          "type": "bytes4"
        }
      ],
      "name": "supportsInterface",
      "outputs": [
        {
          "internalType": "bool",
          "name": "",
          "type": "bool"
        }
      ],
      "stateMutability": "view",
      "type": "function"
    },
    {
      "inputs": [],
      "name": "transferTokensFromSmartContract",
      "outputs": [],
      "stateMutability": "nonpayable",
      "type": "function"
    }
  ],
  "bytecode": "0x60806040523480156200001157600080fd5b5060405162001331380380620013318339818101604052810190620000379190620000c2565b60008060006101000a81548160ff02191690831515021790555050620000f4565b600080fd5b600073ffffffffffffffffffffffffffffffffffffffff82169050919050565b60006200008a826200005d565b9050919050565b6200009c816200007d565b8114620000a857600080fd5b50565b600081519050620000bc8162000091565b92915050565b600060208284031215620000db57620000da62000058565b5b6000620000eb84828501620000ab565b91505092915050565b61122d80620001046000396000f3fe608060405234801561001057600080fd5b50600436106100b45760003560e01c8063608a454d11610071578063608a454d1461018b5780638693ba371461019557806391d148541461019f578063a217fddf146101cf578063a4dfc6e0146101ed578063d547741f14610209576100b4565b806301ffc9a7146100b9578063248a9ca3146100e957806326a4e8d2146101195780632f2ff15d1461013557806336568abe146101515780635c975abb1461016d575b600080fd5b6100d360048036038101906100ce9190610b34565b610225565b6040516100e09190610b7c565b60405180910390f35b61010360048036038101906100fe9190610bcd565b61029f565b6040516101109190610c09565b60405180910390f35b610133600480360381019061012e9190610c82565b6102bf565b005b61014f600480360381019061014a9190610caf565b610303565b005b61016b60048036038101906101669190610caf565b610324565b005b6101756103a7565b6040516101829190610b7c565b60405180910390f35b6101936103bd565b005b61019d610509565b005b6101b960048036038101906101b49190610caf565b61050b565b6040516101c69190610b7c565b60405180910390f35b6101d7610576565b6040516101e49190610c09565b60405180910390f35b61020760048036038101906102029190610c82565b61057d565b005b610223600480360381019061021e9190610caf565b610580565b005b60007f7965db0b000000000000000000000000000000000000000000000000000000007bffffffffffffffffffffffffffffffffffffffffffffffffffffffff1916827bffffffffffffffffffffffffffffffffffffffffffffffffffffffff191614806102985750610297826105a1565b5b9050919050565b600060016000838152602001908152602001600020600101549050919050565b80600260006101000a81548173ffffffffffffffffffffffffffffffffffffffff021916908373ffffffffffffffffffffffffffffffffffffffff16021790555050565b61030c8261029f565b6103158161060b565b61031f838361061f565b505050565b61032c6106ff565b73ffffffffffffffffffffffffffffffffffffffff168173ffffffffffffffffffffffffffffffffffffffff1614610399576040517f08c379a000000000000000000000000000000000000000000000000000000000815260040161039090610d72565b60405180910390fd5b6103a38282610707565b5050565b60008060009054906101000a900460ff16905090565b6000801b6103ca8161060b565b600260009054906101000a900473ffffffffffffffffffffffffffffffffffffffff1673ffffffffffffffffffffffffffffffffffffffff1663a9059cbb33600260009054906101000a900473ffffffffffffffffffffffffffffffffffffffff1673ffffffffffffffffffffffffffffffffffffffff166370a08231306040518263ffffffff1660e01b81526004016104649190610da1565b602060405180830381865afa158015610481573d6000803e3d6000fd5b505050506040513d601f19601f820116820180604052508101906104a59190610df2565b6040518363ffffffff1660e01b81526004016104c2929190610e2e565b6020604051808303816000875af11580156104e1573d6000803e3d6000fd5b505050506040513d601f19601f820116820180604052508101906105059190610e83565b5050565b565b60006001600084815260200190815260200160002060000160008373ffffffffffffffffffffffffffffffffffffffff1673ffffffffffffffffffffffffffffffffffffffff16815260200190815260200160002060009054906101000a900460ff16905092915050565b6000801b81565b50565b6105898261029f565b6105928161060b565b61059c8383610707565b505050565b60007f01ffc9a7000000000000000000000000000000000000000000000000000000007bffffffffffffffffffffffffffffffffffffffffffffffffffffffff1916827bffffffffffffffffffffffffffffffffffffffffffffffffffffffff1916149050919050565b61061c816106176106ff565b6107e9565b50565b610629828261050b565b6106fb57600180600084815260200190815260200160002060000160008373ffffffffffffffffffffffffffffffffffffffff1673ffffffffffffffffffffffffffffffffffffffff16815260200190815260200160002060006101000a81548160ff0219169083151502179055506106a06106ff565b73ffffffffffffffffffffffffffffffffffffffff168173ffffffffffffffffffffffffffffffffffffffff16837f2f8788117e7eff1d82e926ec794901d17c78024a50270940304540a733656f0d60405160405180910390a45b5050565b600033905090565b610711828261050b565b156107e55760006001600084815260200190815260200160002060000160008373ffffffffffffffffffffffffffffffffffffffff1673ffffffffffffffffffffffffffffffffffffffff16815260200190815260200160002060006101000a81548160ff02191690831515021790555061078a6106ff565b73ffffffffffffffffffffffffffffffffffffffff168173ffffffffffffffffffffffffffffffffffffffff16837ff6391f5c32d9c69d2a47ea670b442974b53935d1edc7fd64eb21e047a839171b60405160405180910390a45b5050565b6107f3828261050b565b61086a576108008161086e565b61080e8360001c602061089b565b60405160200161081f929190610fb9565b6040516020818303038152906040526040517f08c379a0000000000000000000000000000000000000000000000000000000008152600401610861919061103d565b60405180910390fd5b5050565b60606108948273ffffffffffffffffffffffffffffffffffffffff16601460ff1661089b565b9050919050565b6060600060028360026108ae919061108e565b6108b891906110d0565b67ffffffffffffffff8111156108d1576108d0611104565b5b6040519080825280601f01601f1916602001820160405280156109035781602001600182028036833780820191505090505b5090507f30000000000000000000000000000000000000000000000000000000000000008160008151811061093b5761093a611133565b5b60200101907effffffffffffffffffffffffffffffffffffffffffffffffffffffffffffff1916908160001a9053507f78000000000000000000000000000000000000000000000000000000000000008160018151811061099f5761099e611133565b5b60200101907effffffffffffffffffffffffffffffffffffffffffffffffffffffffffffff1916908160001a905350600060018460026109df919061108e565b6109e991906110d0565b90505b6001811115610a89577f3031323334353637383961626364656600000000000000000000000000000000600f861660108110610a2b57610a2a611133565b5b1a60f81b828281518110610a4257610a41611133565b5b60200101907effffffffffffffffffffffffffffffffffffffffffffffffffffffffffffff1916908160001a905350600485901c945080610a8290611162565b90506109ec565b5060008414610acd576040517f08c379a0000000000000000000000000000000000000000000000000000000008152600401610ac4906111d7565b60405180910390fd5b8091505092915050565b600080fd5b60007fffffffff0000000000000000000000000000000000000000000000000000000082169050919050565b610b1181610adc565b8114610b1c57600080fd5b50565b600081359050610b2e81610b08565b92915050565b600060208284031215610b4a57610b49610ad7565b5b6000610b5884828501610b1f565b91505092915050565b60008115159050919050565b610b7681610b61565b82525050565b6000602082019050610b916000830184610b6d565b92915050565b6000819050919050565b610baa81610b97565b8114610bb557600080fd5b50565b600081359050610bc781610ba1565b92915050565b600060208284031215610be357610be2610ad7565b5b6000610bf184828501610bb8565b91505092915050565b610c0381610b97565b82525050565b6000602082019050610c1e6000830184610bfa565b92915050565b600073ffffffffffffffffffffffffffffffffffffffff82169050919050565b6000610c4f82610c24565b9050919050565b610c5f81610c44565b8114610c6a57600080fd5b50565b600081359050610c7c81610c56565b92915050565b600060208284031215610c9857610c97610ad7565b5b6000610ca684828501610c6d565b91505092915050565b60008060408385031215610cc657610cc5610ad7565b5b6000610cd485828601610bb8565b9250506020610ce585828601610c6d565b9150509250929050565b600082825260208201905092915050565b7f416363657373436f6e74726f6c3a2063616e206f6e6c792072656e6f756e636560008201527f20726f6c657320666f722073656c660000000000000000000000000000000000602082015250565b6000610d5c602f83610cef565b9150610d6782610d00565b604082019050919050565b60006020820190508181036000830152610d8b81610d4f565b9050919050565b610d9b81610c44565b82525050565b6000602082019050610db66000830184610d92565b92915050565b6000819050919050565b610dcf81610dbc565b8114610dda57600080fd5b50565b600081519050610dec81610dc6565b92915050565b600060208284031215610e0857610e07610ad7565b5b6000610e1684828501610ddd565b91505092915050565b610e2881610dbc565b82525050565b6000604082019050610e436000830185610d92565b610e506020830184610e1f565b9392505050565b610e6081610b61565b8114610e6b57600080fd5b50565b600081519050610e7d81610e57565b92915050565b600060208284031215610e9957610e98610ad7565b5b6000610ea784828501610e6e565b91505092915050565b600081905092915050565b7f416363657373436f6e74726f6c3a206163636f756e7420000000000000000000600082015250565b6000610ef1601783610eb0565b9150610efc82610ebb565b601782019050919050565b600081519050919050565b60005b83811015610f30578082015181840152602081019050610f15565b60008484015250505050565b6000610f4782610f07565b610f518185610eb0565b9350610f61818560208601610f12565b80840191505092915050565b7f206973206d697373696e6720726f6c6520000000000000000000000000000000600082015250565b6000610fa3601183610eb0565b9150610fae82610f6d565b601182019050919050565b6000610fc482610ee4565b9150610fd08285610f3c565b9150610fdb82610f96565b9150610fe78284610f3c565b91508190509392505050565b6000601f19601f8301169050919050565b600061100f82610f07565b6110198185610cef565b9350611029818560208601610f12565b61103281610ff3565b840191505092915050565b600060208201905081810360008301526110578184611004565b905092915050565b7f4e487b7100000000000000000000000000000000000000000000000000000000600052601160045260246000fd5b600061109982610dbc565b91506110a483610dbc565b92508282026110b281610dbc565b915082820484148315176110c9576110c861105f565b5b5092915050565b60006110db82610dbc565b91506110e683610dbc565b92508282019050808211156110fe576110fd61105f565b5b92915050565b7f4e487b7100000000000000000000000000000000000000000000000000000000600052604160045260246000fd5b7f4e487b7100000000000000000000000000000000000000000000000000000000600052603260045260246000fd5b600061116d82610dbc565b9150600082036111805761117f61105f565b5b600182039050919050565b7f537472696e67733a20686578206c656e67746820696e73756666696369656e74600082015250565b60006111c1602083610cef565b91506111cc8261118b565b602082019050919050565b600060208201905081810360008301526111f0816111b4565b905091905056fea264697066735822122083b513b19b91fcb3b9f8b628ab676635668eeb84854bc1bdd057686c68c5eb3d64736f6c63430008130033",
  "linkReferences": {},
  "deployedLinkReferences": {}
}