{
  "_format": "hh-sol-artifact-1",
  "contractName": "ContratoConFallback",
  "sourceName": "contracts/class12/Fallback.sol",
  "abi": [
    {
      "stateMutability": "nonpayable",
      "type": "fallback"
    },
    {
      "inputs": [],
      "name": "counter",
      "outputs": [
        {
          "internalType": "uint256",
          "name": "",
          "type": "uint256"
        }
      ],
      "stateMutability": "view",
      "type": "function"
    },
    {
      "inputs": [],
      "name": "input",
      "outputs": [
        {
          "internalType": "bytes",
          "name": "",
          "type": "bytes"
        }
      ],
      "stateMutability": "view",
      "type": "function"
    }
  ],
  "bytecode": "0x608060405234801561001057600080fd5b50610611806100206000396000f3fe608060405234801561001057600080fd5b506004361061003a5760003560e01c806361bc221a14610098578063eaed3f4f146100b65761003b565b5b60003660608282600191826100519291906103b8565b50600080815480929190610064906104b7565b919050555060005460405160200161007c919061050e565b6040516020818303038152906040529050915050805190602001f35b6100a06100d4565b6040516100ad919061050e565b60405180910390f35b6100be6100da565b6040516100cb91906105b9565b60405180910390f35b60005481565b600180546100e7906101d1565b80601f0160208091040260200160405190810160405280929190818152602001828054610113906101d1565b80156101605780601f1061013557610100808354040283529160200191610160565b820191906000526020600020905b81548152906001019060200180831161014357829003601f168201915b505050505081565b600082905092915050565b7f4e487b7100000000000000000000000000000000000000000000000000000000600052604160045260246000fd5b7f4e487b7100000000000000000000000000000000000000000000000000000000600052602260045260246000fd5b600060028204905060018216806101e957607f821691505b6020821081036101fc576101fb6101a2565b5b50919050565b60008190508160005260206000209050919050565b60006020601f8301049050919050565b600082821b905092915050565b6000600883026102647fffffffffffffffffffffffffffffffffffffffffffffffffffffffffffffffff82610227565b61026e8683610227565b95508019841693508086168417925050509392505050565b6000819050919050565b6000819050919050565b60006102b56102b06102ab84610286565b610290565b610286565b9050919050565b6000819050919050565b6102cf8361029a565b6102e36102db826102bc565b848454610234565b825550505050565b600090565b6102f86102eb565b6103038184846102c6565b505050565b5b818110156103275761031c6000826102f0565b600181019050610309565b5050565b601f82111561036c5761033d81610202565b61034684610217565b81016020851015610355578190505b61036961036185610217565b830182610308565b50505b505050565b600082821c905092915050565b600061038f60001984600802610371565b1980831691505092915050565b60006103a8838361037e565b9150826002028217905092915050565b6103c28383610168565b67ffffffffffffffff8111156103db576103da610173565b5b6103e582546101d1565b6103f082828561032b565b6000601f83116001811461041f576000841561040d578287013590505b610417858261039c565b86555061047f565b601f19841661042d86610202565b60005b8281101561045557848901358255600182019150602085019450602081019050610430565b86831015610472578489013561046e601f89168261037e565b8355505b6001600288020188555050505b50505050505050565b7f4e487b7100000000000000000000000000000000000000000000000000000000600052601160045260246000fd5b60006104c282610286565b91507fffffffffffffffffffffffffffffffffffffffffffffffffffffffffffffffff82036104f4576104f3610488565b5b600182019050919050565b61050881610286565b82525050565b600060208201905061052360008301846104ff565b92915050565b600081519050919050565b600082825260208201905092915050565b60005b83811015610563578082015181840152602081019050610548565b60008484015250505050565b6000601f19601f8301169050919050565b600061058b82610529565b6105958185610534565b93506105a5818560208601610545565b6105ae8161056f565b840191505092915050565b600060208201905081810360008301526105d38184610580565b90509291505056fea2646970667358221220c82533f46bb469b3ea7ee22ed99d0ddf6f0d1e4015d575e849aef2a775efee7164736f6c63430008130033",
  "linkReferences": {},
  "deployedLinkReferences": {}
}