{
  "_format": "hh-sol-artifact-1",
  "contractName": "ContratoLlamante",
  "sourceName": "contracts/class12/Fallback.sol",
  "abi": [
    {
      "inputs": [
        {
          "internalType": "address",
          "name": "_sc",
          "type": "address"
        }
      ],
      "name": "llamandoAContratoFallback",
      "outputs": [],
      "stateMutability": "nonpayable",
      "type": "function"
    },
    {
      "inputs": [],
      "name": "respuestaDeFallback",
      "outputs": [
        {
          "internalType": "uint256",
          "name": "",
          "type": "uint256"
        }
      ],
      "stateMutability": "view",
      "type": "function"
    }
  ],
  "bytecode": "0x608060405234801561001057600080fd5b50610370806100206000396000f3fe608060405234801561001057600080fd5b50600436106100365760003560e01c806357c424811461003b578063ac4b143c14610059575b600080fd5b610043610075565b60405161005091906101ae565b60405180910390f35b610073600480360381019061006e919061022c565b61007b565b005b60005481565b6000808273ffffffffffffffffffffffffffffffffffffffff166040516024016040516020818303038152906040527fe2247449000000000000000000000000000000000000000000000000000000007bffffffffffffffffffffffffffffffffffffffffffffffffffffffff19166020820180517bffffffffffffffffffffffffffffffffffffffffffffffffffffffff838183161783525050505060405161012591906102ca565b6000604051808303816000865af19150503d8060008114610162576040519150601f19603f3d011682016040523d82523d6000602084013e610167565b606091505b50915091508161017657600080fd5b8080602001905181019061018a919061030d565b600081905550505050565b6000819050919050565b6101a881610195565b82525050565b60006020820190506101c3600083018461019f565b92915050565b600080fd5b600073ffffffffffffffffffffffffffffffffffffffff82169050919050565b60006101f9826101ce565b9050919050565b610209816101ee565b811461021457600080fd5b50565b60008135905061022681610200565b92915050565b600060208284031215610242576102416101c9565b5b600061025084828501610217565b91505092915050565b600081519050919050565b600081905092915050565b60005b8381101561028d578082015181840152602081019050610272565b60008484015250505050565b60006102a482610259565b6102ae8185610264565b93506102be81856020860161026f565b80840191505092915050565b60006102d68284610299565b915081905092915050565b6102ea81610195565b81146102f557600080fd5b50565b600081519050610307816102e1565b92915050565b600060208284031215610323576103226101c9565b5b6000610331848285016102f8565b9150509291505056fea26469706673582212203f2beda336396e462150b5697d6a605baad686d430506b07f909396b0254577764736f6c63430008130033",
  "linkReferences": {},
  "deployedLinkReferences": {}
}