{
  "_format": "hh-sol-artifact-1",
  "contractName": "MsgSender",
  "sourceName": "contracts/class04/MsgSender.sol",
  "abi": [
    {
      "inputs": [],
      "name": "elQueLlama",
      "outputs": [
        {
          "internalType": "address",
          "name": "",
          "type": "address"
        }
      ],
      "stateMutability": "view",
      "type": "function"
    },
    {
      "inputs": [],
      "name": "setCaller",
      "outputs": [],
      "stateMutability": "nonpayable",
      "type": "function"
    }
  ],
  "bytecode": "0x608060405234801561001057600080fd5b5061015b806100206000396000f3fe608060405234801561001057600080fd5b50600436106100365760003560e01c8063013c5f391461003b5780631197fa0414610045575b600080fd5b610043610063565b005b61004d6100a5565b60405161005a919061010a565b60405180910390f35b336000806101000a81548173ffffffffffffffffffffffffffffffffffffffff021916908373ffffffffffffffffffffffffffffffffffffffff160217905550565b60008054906101000a900473ffffffffffffffffffffffffffffffffffffffff1681565b600073ffffffffffffffffffffffffffffffffffffffff82169050919050565b60006100f4826100c9565b9050919050565b610104816100e9565b82525050565b600060208201905061011f60008301846100fb565b9291505056fea2646970667358221220ef3bc68376116d4e27cb4e97380a4f0519bc52f9df106860733eb377977dcb8064736f6c63430008130033",
  "linkReferences": {},
  "deployedLinkReferences": {}
}