{
  "_format": "hh-sol-artifact-1",
  "contractName": "NumerosPseudoRandom",
  "sourceName": "contracts/class09/NumerosRandom.sol",
  "abi": [
    {
      "inputs": [],
      "name": "encontrarNumeroPseudoRandom",
      "outputs": [
        {
          "internalType": "uint256",
          "name": "",
          "type": "uint256"
        }
      ],
      "stateMutability": "view",
      "type": "function"
    }
  ],
  "bytecode": "0x608060405234801561001057600080fd5b506101c5806100206000396000f3fe608060405234801561001057600080fd5b506004361061002b5760003560e01c806373289aca14610030575b600080fd5b61003861004e565b604051610045919061009c565b60405180910390f35b600033304260405160200161006593929190610152565b6040516020818303038152906040528051906020012060001c905090565b6000819050919050565b61009681610083565b82525050565b60006020820190506100b1600083018461008d565b92915050565b600073ffffffffffffffffffffffffffffffffffffffff82169050919050565b60006100e2826100b7565b9050919050565b60008160601b9050919050565b6000610101826100e9565b9050919050565b6000610113826100f6565b9050919050565b61012b610126826100d7565b610108565b82525050565b6000819050919050565b61014c61014782610083565b610131565b82525050565b600061015e828661011a565b60148201915061016e828561011a565b60148201915061017e828461013b565b60208201915081905094935050505056fea26469706673582212209a7a4d21b29a5d09c3d785ef2c06c845c3e54747ec089267ebc57931ccfe6cf164736f6c63430008130033",
  "linkReferences": {},
  "deployedLinkReferences": {}
}