{
  "_format": "hh-sol-artifact-1",
  "contractName": "Persona",
  "sourceName": "contracts/class07/HerenciaDeInterfaces.sol",
  "abi": [
    {
      "inputs": [],
      "name": "consultarConteo",
      "outputs": [],
      "stateMutability": "view",
      "type": "function"
    },
    {
      "inputs": [],
      "name": "consultarVoto",
      "outputs": [
        {
          "internalType": "uint256",
          "name": "",
          "type": "uint256"
        }
      ],
      "stateMutability": "nonpayable",
      "type": "function"
    },
    {
      "inputs": [
        {
          "internalType": "uint256",
          "name": "candidato",
          "type": "uint256"
        }
      ],
      "name": "votar",
      "outputs": [],
      "stateMutability": "nonpayable",
      "type": "function"
    }
  ],
  "bytecode": "0x608060405234801561001057600080fd5b5061015c806100206000396000f3fe608060405234801561001057600080fd5b50600436106100415760003560e01c806321606831146100465780635864dcaf14610062578063640fe51714610080575b600080fd5b610060600480360381019061005b91906100cf565b61008a565b005b61006a61008d565b604051610077919061010b565b60405180910390f35b610088610092565b005b50565b600090565b565b600080fd5b6000819050919050565b6100ac81610099565b81146100b757600080fd5b50565b6000813590506100c9816100a3565b92915050565b6000602082840312156100e5576100e4610094565b5b60006100f3848285016100ba565b91505092915050565b61010581610099565b82525050565b600060208201905061012060008301846100fc565b9291505056fea2646970667358221220e4c709339cb2d05bcadda1f72ca21713cc8453d9e9dfb98804be50a0c077e7e164736f6c63430008130033",
  "linkReferences": {},
  "deployedLinkReferences": {}
}