{
  "_format": "hh-sol-artifact-1",
  "contractName": "Victim",
  "sourceName": "contracts/class11/ReentrancyAttack.sol",
  "abi": [
    {
      "inputs": [],
      "stateMutability": "payable",
      "type": "constructor"
    },
    {
      "inputs": [
        {
          "internalType": "address",
          "name": "",
          "type": "address"
        }
      ],
      "name": "balances",
      "outputs": [
        {
          "internalType": "uint256",
          "name": "",
          "type": "uint256"
        }
      ],
      "stateMutability": "view",
      "type": "function"
    },
    {
      "inputs": [],
      "name": "deposit",
      "outputs": [],
      "stateMutability": "payable",
      "type": "function"
    },
    {
      "inputs": [],
      "name": "withdraw",
      "outputs": [],
      "stateMutability": "nonpayable",
      "type": "function"
    },
    {
      "inputs": [],
      "name": "withdrawHackeable",
      "outputs": [],
      "stateMutability": "nonpayable",
      "type": "function"
    }
  ],
  "bytecode": "0x60806040526105e9806100136000396000f3fe60806040526004361061003f5760003560e01c806327e235e3146100445780633ccfd60b14610081578063d0e30db014610098578063f1dc4dc1146100a2575b600080fd5b34801561005057600080fd5b5061006b6004803603810190610066919061042c565b6100b9565b6040516100789190610472565b60405180910390f35b34801561008d57600080fd5b506100966100d1565b005b6100a0610264565b005b3480156100ae57600080fd5b506100b76102bb565b005b60006020528060005260406000206000915090505481565b600160009054906101000a900460ff1615610121576040517f08c379a0000000000000000000000000000000000000000000000000000000008152600401610118906104ea565b60405180910390fd5b60018060006101000a81548160ff02191690831515021790555060008060003373ffffffffffffffffffffffffffffffffffffffff1673ffffffffffffffffffffffffffffffffffffffff1681526020019081526020016000205490506000811161018b57600080fd5b60008060003373ffffffffffffffffffffffffffffffffffffffff1673ffffffffffffffffffffffffffffffffffffffff1681526020019081526020016000208190555060003373ffffffffffffffffffffffffffffffffffffffff16826040516101f59061053b565b60006040518083038185875af1925050503d8060008114610232576040519150601f19603f3d011682016040523d82523d6000602084013e610237565b606091505b505090508061024557600080fd5b50506000600160006101000a81548160ff021916908315150217905550565b346000803373ffffffffffffffffffffffffffffffffffffffff1673ffffffffffffffffffffffffffffffffffffffff16815260200190815260200160002060008282546102b2919061057f565b92505081905550565b60008060003373ffffffffffffffffffffffffffffffffffffffff1673ffffffffffffffffffffffffffffffffffffffff1681526020019081526020016000205490506000811161030b57600080fd5b60003373ffffffffffffffffffffffffffffffffffffffff16826040516103319061053b565b60006040518083038185875af1925050503d806000811461036e576040519150601f19603f3d011682016040523d82523d6000602084013e610373565b606091505b505090508061038157600080fd5b60008060003373ffffffffffffffffffffffffffffffffffffffff1673ffffffffffffffffffffffffffffffffffffffff168152602001908152602001600020819055505050565b600080fd5b600073ffffffffffffffffffffffffffffffffffffffff82169050919050565b60006103f9826103ce565b9050919050565b610409816103ee565b811461041457600080fd5b50565b60008135905061042681610400565b92915050565b600060208284031215610442576104416103c9565b5b600061045084828501610417565b91505092915050565b6000819050919050565b61046c81610459565b82525050565b60006020820190506104876000830184610463565b92915050565b600082825260208201905092915050565b7f4e6f207065726d697465207265656e7472617200000000000000000000000000600082015250565b60006104d460138361048d565b91506104df8261049e565b602082019050919050565b60006020820190508181036000830152610503816104c7565b9050919050565b600081905092915050565b50565b600061052560008361050a565b915061053082610515565b600082019050919050565b600061054682610518565b9150819050919050565b7f4e487b7100000000000000000000000000000000000000000000000000000000600052601160045260246000fd5b600061058a82610459565b915061059583610459565b92508282019050808211156105ad576105ac610550565b5b9291505056fea264697066735822122012ad0586de3cc13314600b62e78d3d72f9f0a21f8b50f0ca069c31f25fab262864736f6c63430008130033",
  "linkReferences": {},
  "deployedLinkReferences": {}
}