{
  "_format": "hh-sol-artifact-1",
  "contractName": "Hombre",
  "sourceName": "contracts/class05/HerenciaEjemplos.sol",
  "abi": [
    {
      "inputs": [],
      "name": "bienvenidaDeHumano",
      "outputs": [
        {
          "internalType": "string",
          "name": "",
          "type": "string"
        }
      ],
      "stateMutability": "pure",
      "type": "function"
    },
    {
      "inputs": [],
      "name": "bienvenidaDeHumano2",
      "outputs": [
        {
          "internalType": "string",
          "name": "",
          "type": "string"
        }
      ],
      "stateMutability": "pure",
      "type": "function"
    },
    {
      "inputs": [],
      "name": "saludoHombre",
      "outputs": [
        {
          "internalType": "string",
          "name": "",
          "type": "string"
        }
      ],
      "stateMutability": "pure",
      "type": "function"
    },
    {
      "inputs": [],
      "name": "saludoHumano",
      "outputs": [
        {
          "internalType": "string",
          "name": "",
          "type": "string"
        }
      ],
      "stateMutability": "pure",
      "type": "function"
    }
  ],
  "bytecode": "0x608060405234801561001057600080fd5b50610249806100206000396000f3fe608060405234801561001057600080fd5b506004361061004c5760003560e01c806329f573091461005157806338d70a491461006f578063945773c11461008d578063fb1bc94e146100ab575b600080fd5b6100596100c9565b60405161006691906101f1565b60405180910390f35b610077610106565b60405161008491906101f1565b60405180910390f35b610095610115565b6040516100a291906101f1565b60405180910390f35b6100b3610124565b6040516100c091906101f1565b60405180910390f35b60606040518060400160405280600f81526020017f486f6c6120736f792068756d616e6f0000000000000000000000000000000000815250905090565b60606101106100c9565b905090565b606061011f6100c9565b905090565b60606040518060400160405280600f81526020017f686f6c6120736f7920486f6d6272650000000000000000000000000000000000815250905090565b600081519050919050565b600082825260208201905092915050565b60005b8381101561019b578082015181840152602081019050610180565b60008484015250505050565b6000601f19601f8301169050919050565b60006101c382610161565b6101cd818561016c565b93506101dd81856020860161017d565b6101e6816101a7565b840191505092915050565b6000602082019050818103600083015261020b81846101b8565b90509291505056fea2646970667358221220a2197a8b8cb96464b6114b8d6bd81a9fdc7003ee45675067bacc94339cfe4c6e64736f6c63430008130033",
  "linkReferences": {},
  "deployedLinkReferences": {}
}