{
  "_format": "hh-sol-artifact-1",
  "contractName": "Humano",
  "sourceName": "contracts/class05/HerenciaEjemplos.sol",
  "abi": [
    {
      "inputs": [],
      "name": "saludoHumano",
      "outputs": [
        {
          "internalType": "string",
          "name": "",
          "type": "string"
        }
      ],
      "stateMutability": "pure",
      "type": "function"
    }
  ],
  "bytecode": "0x608060405234801561001057600080fd5b50610173806100206000396000f3fe608060405234801561001057600080fd5b506004361061002b5760003560e01c806329f5730914610030575b600080fd5b61003861004e565b604051610045919061011b565b60405180910390f35b60606040518060400160405280600f81526020017f486f6c6120736f792068756d616e6f0000000000000000000000000000000000815250905090565b600081519050919050565b600082825260208201905092915050565b60005b838110156100c55780820151818401526020810190506100aa565b60008484015250505050565b6000601f19601f8301169050919050565b60006100ed8261008b565b6100f78185610096565b93506101078185602086016100a7565b610110816100d1565b840191505092915050565b6000602082019050818103600083015261013581846100e2565b90509291505056fea2646970667358221220d304c50de6910e764f257163d95671840a502c4d9398f6aa569b1c964e6b9d1264736f6c63430008130033",
  "linkReferences": {},
  "deployedLinkReferences": {}
}