{
  "_format": "hh-sol-artifact-1",
  "contractName": "Marcos",
  "sourceName": "contracts/class05/HerenciaEjemplos.sol",
  "abi": [
    {
      "inputs": [],
      "name": "bienvenidaDeHumano",
      "outputs": [
        {
          "internalType": "string",
          "name": "",
          "type": "string"
        }
      ],
      "stateMutability": "pure",
      "type": "function"
    },
    {
      "inputs": [],
      "name": "bienvenidaDeHumano2",
      "outputs": [
        {
          "internalType": "string",
          "name": "",
          "type": "string"
        }
      ],
      "stateMutability": "pure",
      "type": "function"
    },
    {
      "inputs": [],
      "name": "saludoHombre",
      "outputs": [
        {
          "internalType": "string",
          "name": "",
          "type": "string"
        }
      ],
      "stateMutability": "pure",
      "type": "function"
    },
    {
      "inputs": [],
      "name": "saludoHumano",
      "outputs": [
        {
          "internalType": "string",
          "name": "",
          "type": "string"
        }
      ],
      "stateMutability": "pure",
      "type": "function"
    },
    {
      "inputs": [],
      "name": "saludoMarcos",
      "outputs": [
        {
          "internalType": "string",
          "name": "",
          "type": "string"
        }
      ],
      "stateMutability": "pure",
      "type": "function"
    }
  ],
  "bytecode": "0x608060405234801561001057600080fd5b506102af806100206000396000f3fe608060405234801561001057600080fd5b50600436106100575760003560e01c806329f573091461005c57806338d70a491461007a578063945773c114610098578063d1d0e2c8146100b6578063fb1bc94e146100d4575b600080fd5b6100646100f2565b6040516100719190610257565b60405180910390f35b61008261012f565b60405161008f9190610257565b60405180910390f35b6100a061013e565b6040516100ad9190610257565b60405180910390f35b6100be61014d565b6040516100cb9190610257565b60405180910390f35b6100dc61018a565b6040516100e99190610257565b60405180910390f35b60606040518060400160405280600f81526020017f486f6c6120736f792068756d616e6f0000000000000000000000000000000000815250905090565b60606101396100f2565b905090565b60606101486100f2565b905090565b60606040518060400160405280600f81526020017f686f6c6120736f79204d6172636f730000000000000000000000000000000000815250905090565b60606040518060400160405280600f81526020017f686f6c6120736f7920486f6d6272650000000000000000000000000000000000815250905090565b600081519050919050565b600082825260208201905092915050565b60005b838110156102015780820151818401526020810190506101e6565b60008484015250505050565b6000601f19601f8301169050919050565b6000610229826101c7565b61023381856101d2565b93506102438185602086016101e3565b61024c8161020d565b840191505092915050565b60006020820190508181036000830152610271818461021e565b90509291505056fea264697066735822122006b547358aac9ace31fb5d701d58e62eb16402ea133f106b643513a9d4d0431f64736f6c63430008130033",
  "linkReferences": {},
  "deployedLinkReferences": {}
}