{
  "_format": "hh-sol-artifact-1",
  "contractName": "ArrayStructMapping",
  "sourceName": "contracts/class05/ArrayStruct.sol",
  "abi": [
    {
      "inputs": [
        {
          "internalType": "address",
          "name": "_profesorAddress",
          "type": "address"
        },
        {
          "internalType": "uint256",
          "name": "n",
          "type": "uint256"
        }
      ],
      "name": "guardarProfesorMemory",
      "outputs": [],
      "stateMutability": "nonpayable",
      "type": "function"
    },
    {
      "inputs": [
        {
          "internalType": "address",
          "name": "_profesorAddress",
          "type": "address"
        }
      ],
      "name": "guardarProfesorReferencia",
      "outputs": [],
      "stateMutability": "nonpayable",
      "type": "function"
    },
    {
      "inputs": [
        {
          "internalType": "address",
          "name": "",
          "type": "address"
        }
      ],
      "name": "profesores",
      "outputs": [
        {
          "internalType": "string",
          "name": "nombre",
          "type": "string"
        },
        {
          "internalType": "uint256",
          "name": "edad",
          "type": "uint256"
        }
      ],
      "stateMutability": "view",
      "type": "function"
    }
  ],
  "bytecode": "0x608060405234801561001057600080fd5b50610a45806100206000396000f3fe608060405234801561001057600080fd5b50600436106100415760003560e01c80630a32995a1461004657806319e5961e14610062578063eab1ad171461007e575b600080fd5b610060600480360381019061005b9190610590565b6100af565b005b61007c600480360381019061007791906105f3565b610281565b005b61009860048036038101906100939190610590565b6103a7565b6040516100a69291906106d2565b60405180910390f35b60008060008373ffffffffffffffffffffffffffffffffffffffff1673ffffffffffffffffffffffffffffffffffffffff16815260200190815260200160002090506040518060400160405280600481526020017f4c75697300000000000000000000000000000000000000000000000000000000815250816000019081610137919061093d565b50602181600101819055508060020180600181540180825580915050600190039060005260206000200160006040518060400160405280600781526020017f416c676562726100000000000000000000000000000000000000000000000000815250909190915090816101aa919061093d565b508060020180600181540180825580915050600190039060005260206000200160006040518060400160405280600a81526020017f4d6174656d61746963610000000000000000000000000000000000000000000081525090919091509081610213919061093d565b508060020180600181540180825580915050600190039060005260206000200160006040518060400160405280600581526020017f547269676f0000000000000000000000000000000000000000000000000000008152509091909150908161027c919061093d565b505050565b600060405180606001604052806040518060400160405280600481526020017f4c756973000000000000000000000000000000000000000000000000000000008152508152602001602181526020018367ffffffffffffffff8111156102ea576102e9610702565b5b60405190808252806020026020018201604052801561031d57816020015b60608152602001906001900390816103085790505b508152509050806000808573ffffffffffffffffffffffffffffffffffffffff1673ffffffffffffffffffffffffffffffffffffffff1681526020019081526020016000206000820151816000019081610377919061093d565b5060208201518160010155604082015181600201908051906020019061039e929190610453565b50905050505050565b60006020528060005260406000206000915090508060000180546103ca90610760565b80601f01602080910402602001604051908101604052809291908181526020018280546103f690610760565b80156104435780601f1061041857610100808354040283529160200191610443565b820191906000526020600020905b81548152906001019060200180831161042657829003601f168201915b5050505050908060010154905082565b82805482825590600052602060002090810192821561049b579160200282015b8281111561049a57825182908161048a919061093d565b5091602001919060010190610473565b5b5090506104a891906104ac565b5090565b5b808211156104cc57600081816104c391906104d0565b506001016104ad565b5090565b5080546104dc90610760565b6000825580601f106104ee575061050d565b601f01602090049060005260206000209081019061050c9190610510565b5b50565b5b80821115610529576000816000905550600101610511565b5090565b600080fd5b600073ffffffffffffffffffffffffffffffffffffffff82169050919050565b600061055d82610532565b9050919050565b61056d81610552565b811461057857600080fd5b50565b60008135905061058a81610564565b92915050565b6000602082840312156105a6576105a561052d565b5b60006105b48482850161057b565b91505092915050565b6000819050919050565b6105d0816105bd565b81146105db57600080fd5b50565b6000813590506105ed816105c7565b92915050565b6000806040838503121561060a5761060961052d565b5b60006106188582860161057b565b9250506020610629858286016105de565b9150509250929050565b600081519050919050565b600082825260208201905092915050565b60005b8381101561066d578082015181840152602081019050610652565b60008484015250505050565b6000601f19601f8301169050919050565b600061069582610633565b61069f818561063e565b93506106af81856020860161064f565b6106b881610679565b840191505092915050565b6106cc816105bd565b82525050565b600060408201905081810360008301526106ec818561068a565b90506106fb60208301846106c3565b9392505050565b7f4e487b7100000000000000000000000000000000000000000000000000000000600052604160045260246000fd5b7f4e487b7100000000000000000000000000000000000000000000000000000000600052602260045260246000fd5b6000600282049050600182168061077857607f821691505b60208210810361078b5761078a610731565b5b50919050565b60008190508160005260206000209050919050565b60006020601f8301049050919050565b600082821b905092915050565b6000600883026107f37fffffffffffffffffffffffffffffffffffffffffffffffffffffffffffffffff826107b6565b6107fd86836107b6565b95508019841693508086168417925050509392505050565b6000819050919050565b600061083a610835610830846105bd565b610815565b6105bd565b9050919050565b6000819050919050565b6108548361081f565b61086861086082610841565b8484546107c3565b825550505050565b600090565b61087d610870565b61088881848461084b565b505050565b5b818110156108ac576108a1600082610875565b60018101905061088e565b5050565b601f8211156108f1576108c281610791565b6108cb846107a6565b810160208510156108da578190505b6108ee6108e6856107a6565b83018261088d565b50505b505050565b600082821c905092915050565b6000610914600019846008026108f6565b1980831691505092915050565b600061092d8383610903565b9150826002028217905092915050565b61094682610633565b67ffffffffffffffff81111561095f5761095e610702565b5b6109698254610760565b6109748282856108b0565b600060209050601f8311600181146109a75760008415610995578287015190505b61099f8582610921565b865550610a07565b601f1984166109b586610791565b60005b828110156109dd578489015182556001820191506020850194506020810190506109b8565b868310156109fa57848901516109f6601f891682610903565b8355505b6001600288020188555050505b50505050505056fea2646970667358221220e261559613d7e6191c1e5ac23503aae36aea8b6318365d4925e36bdaa12b05fd64736f6c63430008130033",
  "linkReferences": {},
  "deployedLinkReferences": {}
}