{
  "_format": "hh-sol-artifact-1",
  "contractName": "ArrayStruct",
  "sourceName": "contracts/class05/ArrayStruct.sol",
  "abi": [
    {
      "inputs": [],
      "name": "guardarDniEnArray",
      "outputs": [],
      "stateMutability": "nonpayable",
      "type": "function"
    },
    {
      "inputs": [
        {
          "internalType": "uint256",
          "name": "",
          "type": "uint256"
        }
      ],
      "name": "listaDeVotantes",
      "outputs": [
        {
          "internalType": "uint256",
          "name": "numero",
          "type": "uint256"
        },
        {
          "internalType": "string",
          "name": "nombre",
          "type": "string"
        },
        {
          "internalType": "string",
          "name": "apellido",
          "type": "string"
        }
      ],
      "stateMutability": "view",
      "type": "function"
    }
  ],
  "bytecode": "0x608060405234801561001057600080fd5b50610965806100206000396000f3fe608060405234801561001057600080fd5b50600436106100365760003560e01c80636d5487971461003b578063d48f6ea014610045575b600080fd5b610043610077565b005b61005f600480360381019061005a9190610511565b61038c565b60405161006e939291906105dd565b60405180910390f35b6000604051806060016040528062bc4ff281526020016040518060400160405280600381526020017f4c6565000000000000000000000000000000000000000000000000000000000081525081526020016040518060400160405280600281526020017f4d2e0000000000000000000000000000000000000000000000000000000000008152508152509080600181540180825580915050600190039060005260206000209060030201600090919091909150600082015181600001556020820151816001019081610149919061085d565b50604082015181600201908161015f919061085d565b5050506000604051806060016040528062bc4ff281526020016040518060400160405280600381526020017f4c6565000000000000000000000000000000000000000000000000000000000081525081526020016040518060400160405280600281526020017f4d2e0000000000000000000000000000000000000000000000000000000000008152508152509080600181540180825580915050600190039060005260206000209060030201600090919091909150600082015181600001556020820151816001019081610234919061085d565b50604082015181600201908161024a919061085d565b5050506000604051806060016040528062bc4ff281526020016040518060400160405280600381526020017f4c6565000000000000000000000000000000000000000000000000000000000081525081526020016040518060400160405280600281526020017f4d2e0000000000000000000000000000000000000000000000000000000000008152508152509050632096ad4e8160000181815250506040518060400160405280600881526020017f4d61727265726f7300000000000000000000000000000000000000000000000081525081604001819052506000819080600181540180825580915050600190039060005260206000209060030201600090919091909150600082015181600001556020820151816001019081610370919061085d565b506040820151816002019081610386919061085d565b50505050565b6000818154811061039c57600080fd5b90600052602060002090600302016000915090508060000154908060010180546103c590610680565b80601f01602080910402602001604051908101604052809291908181526020018280546103f190610680565b801561043e5780601f106104135761010080835404028352916020019161043e565b820191906000526020600020905b81548152906001019060200180831161042157829003601f168201915b50505050509080600201805461045390610680565b80601f016020809104026020016040519081016040528092919081815260200182805461047f90610680565b80156104cc5780601f106104a1576101008083540402835291602001916104cc565b820191906000526020600020905b8154815290600101906020018083116104af57829003601f168201915b5050505050905083565b600080fd5b6000819050919050565b6104ee816104db565b81146104f957600080fd5b50565b60008135905061050b816104e5565b92915050565b600060208284031215610527576105266104d6565b5b6000610535848285016104fc565b91505092915050565b610547816104db565b82525050565b600081519050919050565b600082825260208201905092915050565b60005b8381101561058757808201518184015260208101905061056c565b60008484015250505050565b6000601f19601f8301169050919050565b60006105af8261054d565b6105b98185610558565b93506105c9818560208601610569565b6105d281610593565b840191505092915050565b60006060820190506105f2600083018661053e565b818103602083015261060481856105a4565b9050818103604083015261061881846105a4565b9050949350505050565b7f4e487b7100000000000000000000000000000000000000000000000000000000600052604160045260246000fd5b7f4e487b7100000000000000000000000000000000000000000000000000000000600052602260045260246000fd5b6000600282049050600182168061069857607f821691505b6020821081036106ab576106aa610651565b5b50919050565b60008190508160005260206000209050919050565b60006020601f8301049050919050565b600082821b905092915050565b6000600883026107137fffffffffffffffffffffffffffffffffffffffffffffffffffffffffffffffff826106d6565b61071d86836106d6565b95508019841693508086168417925050509392505050565b6000819050919050565b600061075a610755610750846104db565b610735565b6104db565b9050919050565b6000819050919050565b6107748361073f565b61078861078082610761565b8484546106e3565b825550505050565b600090565b61079d610790565b6107a881848461076b565b505050565b5b818110156107cc576107c1600082610795565b6001810190506107ae565b5050565b601f821115610811576107e2816106b1565b6107eb846106c6565b810160208510156107fa578190505b61080e610806856106c6565b8301826107ad565b50505b505050565b600082821c905092915050565b600061083460001984600802610816565b1980831691505092915050565b600061084d8383610823565b9150826002028217905092915050565b6108668261054d565b67ffffffffffffffff81111561087f5761087e610622565b5b6108898254610680565b6108948282856107d0565b600060209050601f8311600181146108c757600084156108b5578287015190505b6108bf8582610841565b865550610927565b601f1984166108d5866106b1565b60005b828110156108fd578489015182556001820191506020850194506020810190506108d8565b8683101561091a5784890151610916601f891682610823565b8355505b6001600288020188555050505b50505050505056fea2646970667358221220958fa8a9816dc08769faa757d606ba3733a353a795c7e125c55f693a63c1005064736f6c63430008130033",
  "linkReferences": {},
  "deployedLinkReferences": {}
}