{
  "_format": "hh-sol-artifact-1",
  "contractName": "Enumerable",
  "sourceName": "contracts/laboratorios/Enumerable.sol",
  "abi": [
    {
      "inputs": [],
      "stateMutability": "nonpayable",
      "type": "constructor"
    },
    {
      "anonymous": false,
      "inputs": [
        {
          "indexed": true,
          "internalType": "address",
          "name": "owner",
          "type": "address"
        },
        {
          "indexed": true,
          "internalType": "address",
          "name": "approved",
          "type": "address"
        },
        {
          "indexed": true,
          "internalType": "uint256",
          "name": "tokenId",
          "type": "uint256"
        }
      ],
      "name": "Approval",
      "type": "event"
    },
    {
      "anonymous": false,
      "inputs": [
        {
          "indexed": true,
          "internalType": "address",
          "name": "owner",
          "type": "address"
        },
        {
          "indexed": true,
          "internalType": "address",
          "name": "operator",
          "type": "address"
        },
        {
          "indexed": false,
          "internalType": "bool",
          "name": "approved",
          "type": "bool"
        }
      ],
      "name": "ApprovalForAll",
      "type": "event"
    },
    {
      "anonymous": false,
      "inputs": [
        {
          "indexed": true,
          "internalType": "address",
          "name": "from",
          "type": "address"
        },
        {
          "indexed": true,
          "internalType": "address",
          "name": "to",
          "type": "address"
        },
        {
          "indexed": true,
          "internalType": "uint256",
          "name": "tokenId",
          "type": "uint256"
        }
      ],
      "name": "Transfer",
      "type": "event"
    },
    {
      "inputs": [
        {
          "internalType": "address",
          "name": "to",
          "type": "address"
        },
        {
          "internalType": "uint256",
          "name": "tokenId",
          "type": "uint256"
        }
      ],
      "name": "approve",
      "outputs": [],
      "stateMutability": "nonpayable",
      "type": "function"
    },
    {
      "inputs": [
        {
          "internalType": "address",
          "name": "owner",
          "type": "address"
        }
      ],
      "name": "balanceOf",
      "outputs": [
        {
          "internalType": "uint256",
          "name": "",
          "type": "uint256"
        }
      ],
      "stateMutability": "view",
      "type": "function"
    },
    {
      "inputs": [
        {
          "internalType": "uint256",
          "name": "tokenId",
          "type": "uint256"
        }
      ],
      "name": "getApproved",
      "outputs": [
        {
          "internalType": "address",
          "name": "",
          "type": "address"
        }
      ],
      "stateMutability": "view",
      "type": "function"
    },
    {
      "inputs": [
        {
          "internalType": "address",
          "name": "owner",
          "type": "address"
        },
        {
          "internalType": "address",
          "name": "operator",
          "type": "address"
        }
      ],
      "name": "isApprovedForAll",
      "outputs": [
        {
          "internalType": "bool",
          "name": "",
          "type": "bool"
        }
      ],
      "stateMutability": "view",
      "type": "function"
    },
    {
      "inputs": [],
      "name": "name",
      "outputs": [
        {
          "internalType": "string",
          "name": "",
          "type": "string"
        }
      ],
      "stateMutability": "view",
      "type": "function"
    },
    {
      "inputs": [
        {
          "internalType": "uint256",
          "name": "tokenId",
          "type": "uint256"
        }
      ],
      "name": "ownerOf",
      "outputs": [
        {
          "internalType": "address",
          "name": "",
          "type": "address"
        }
      ],
      "stateMutability": "view",
      "type": "function"
    },
    {
      "inputs": [
        {
          "internalType": "address",
          "name": "to",
          "type": "address"
        },
        {
          "internalType": "uint256",
          "name": "tokenId",
          "type": "uint256"
        }
      ],
      "name": "safeMint",
      "outputs": [],
      "stateMutability": "nonpayable",
      "type": "function"
    },
    {
      "inputs": [
        {
          "internalType": "address",
          "name": "from",
          "type": "address"
        },
        {
          "internalType": "address",
          "name": "to",
          "type": "address"
        },
        {
          "internalType": "uint256",
          "name": "tokenId",
          "type": "uint256"
        }
      ],
      "name": "safeTransferFrom",
      "outputs": [],
      "stateMutability": "nonpayable",
      "type": "function"
    },
    {
      "inputs": [
        {
          "internalType": "address",
          "name": "from",
          "type": "address"
        },
        {
          "internalType": "address",
          "name": "to",
          "type": "address"
        },
        {
          "internalType": "uint256",
          "name": "tokenId",
          "type": "uint256"
        },
        {
          "internalType": "bytes",
          "name": "data",
          "type": "bytes"
        }
      ],
      "name": "safeTransferFrom",
      "outputs": [],
      "stateMutability": "nonpayable",
      "type": "function"
    },
    {
      "inputs": [
        {
          "internalType": "address",
          "name": "operator",
          "type": "address"
        },
        {
          "internalType": "bool",
          "name": "approved",
          "type": "bool"
        }
      ],
      "name": "setApprovalForAll",
      "outputs": [],
      "stateMutability": "nonpayable",
      "type": "function"
    },
    {
      "inputs": [
        {
          "internalType": "bytes4",
          "name": "interfaceId",
          "type": "bytes4"
        }
      ],
      "name": "supportsInterface",
      "outputs": [
        {
          "internalType": "bool",
          "name": "",
          "type": "bool"
        }
      ],
      "stateMutability": "view",
      "type": "function"
    },
    {
      "inputs": [],
      "name": "symbol",
      "outputs": [
        {
          "internalType": "string",
          "name": "",
          "type": "string"
        }
      ],
      "stateMutability": "view",
      "type": "function"
    },
    {
      "inputs": [
        {
          "internalType": "uint256",
          "name": "index",
          "type": "uint256"
        }
      ],
      "name": "tokenByIndex",
      "outputs": [
        {
          "internalType": "uint256",
          "name": "",
          "type": "uint256"
        }
      ],
      "stateMutability": "view",
      "type": "function"
    },
    {
      "inputs": [
        {
          "internalType": "address",
          "name": "owner",
          "type": "address"
        },
        {
          "internalType": "uint256",
          "name": "index",
          "type": "uint256"
        }
      ],
      "name": "tokenOfOwnerByIndex",
      "outputs": [
        {
          "internalType": "uint256",
          "name": "",
          "type": "uint256"
        }
      ],
      "stateMutability": "view",
      "type": "function"
    },
    {
      "inputs": [
        {
          "internalType": "uint256",
          "name": "tokenId",
          "type": "uint256"
        }
      ],
      "name": "tokenURI",
      "outputs": [
        {
          "internalType": "string",
          "name": "",
          "type": "string"
        }
      ],
      "stateMutability": "view",
      "type": "function"
    },
    {
      "inputs": [],
      "name": "totalSupply",
      "outputs": [
        {
          "internalType": "uint256",
          "name": "",
          "type": "uint256"
        }
      ],
      "stateMutability": "view",
      "type": "function"
    },
    {
      "inputs": [
        {
          "internalType": "address",
          "name": "from",
          "type": "address"
        },
        {
          "internalType": "address",
          "name": "to",
          "type": "address"
        },
        {
          "internalType": "uint256",
          "name": "tokenId",
          "type": "uint256"
        }
      ],
      "name": "transferFrom",
      "outputs": [],
      "stateMutability": "nonpayable",
      "type": "function"
    }
  ],
  "bytecode": "0x60806040523480156200001157600080fd5b506040518060400160405280600a81526020017f456e756d657261626c65000000000000000000000000000000000000000000008152506040518060400160405280600681526020017f454e4d52424c000000000000000000000000000000000000000000000000000081525081600090816200008f919062000324565b508060019081620000a1919062000324565b5050506200040b565b600081519050919050565b7f4e487b7100000000000000000000000000000000000000000000000000000000600052604160045260246000fd5b7f4e487b7100000000000000000000000000000000000000000000000000000000600052602260045260246000fd5b600060028204905060018216806200012c57607f821691505b602082108103620001425762000141620000e4565b5b50919050565b60008190508160005260206000209050919050565b60006020601f8301049050919050565b600082821b905092915050565b600060088302620001ac7fffffffffffffffffffffffffffffffffffffffffffffffffffffffffffffffff826200016d565b620001b886836200016d565b95508019841693508086168417925050509392505050565b6000819050919050565b6000819050919050565b600062000205620001ff620001f984620001d0565b620001da565b620001d0565b9050919050565b6000819050919050565b6200022183620001e4565b6200023962000230826200020c565b8484546200017a565b825550505050565b600090565b6200025062000241565b6200025d81848462000216565b505050565b5b8181101562000285576200027960008262000246565b60018101905062000263565b5050565b601f821115620002d4576200029e8162000148565b620002a9846200015d565b81016020851015620002b9578190505b620002d1620002c8856200015d565b83018262000262565b50505b505050565b600082821c905092915050565b6000620002f960001984600802620002d9565b1980831691505092915050565b6000620003148383620002e6565b9150826002028217905092915050565b6200032f82620000aa565b67ffffffffffffffff8111156200034b576200034a620000b5565b5b62000357825462000113565b6200036482828562000289565b600060209050601f8311600181146200039c576000841562000387578287015190505b62000393858262000306565b86555062000403565b601f198416620003ac8662000148565b60005b82811015620003d657848901518255600182019150602085019450602081019050620003af565b86831015620003f65784890151620003f2601f891682620002e6565b8355505b6001600288020188555050505b505050505050565b612e4d806200041b6000396000f3fe608060405234801561001057600080fd5b506004361061010b5760003560e01c80634f6ccce7116100a2578063a144819411610071578063a1448194146102de578063a22cb465146102fa578063b88d4fde14610316578063c87b56dd14610332578063e985e9c5146103625761010b565b80634f6ccce7146102305780636352211e1461026057806370a082311461029057806395d89b41146102c05761010b565b806318160ddd116100de57806318160ddd146101aa57806323b872dd146101c85780632f745c59146101e457806342842e0e146102145761010b565b806301ffc9a71461011057806306fdde0314610140578063081812fc1461015e578063095ea7b31461018e575b600080fd5b61012a60048036038101906101259190611e9c565b610392565b6040516101379190611ee4565b60405180910390f35b6101486103a4565b6040516101559190611f8f565b60405180910390f35b61017860048036038101906101739190611fe7565b610436565b6040516101859190612055565b60405180910390f35b6101a860048036038101906101a3919061209c565b61047c565b005b6101b2610593565b6040516101bf91906120eb565b60405180910390f35b6101e260048036038101906101dd9190612106565b6105a0565b005b6101fe60048036038101906101f9919061209c565b610600565b60405161020b91906120eb565b60405180910390f35b61022e60048036038101906102299190612106565b6106a5565b005b61024a60048036038101906102459190611fe7565b6106c5565b60405161025791906120eb565b60405180910390f35b61027a60048036038101906102759190611fe7565b610736565b6040516102879190612055565b60405180910390f35b6102aa60048036038101906102a59190612159565b6107bc565b6040516102b791906120eb565b60405180910390f35b6102c8610873565b6040516102d59190611f8f565b60405180910390f35b6102f860048036038101906102f3919061209c565b610905565b005b610314600480360381019061030f91906121b2565b610913565b005b610330600480360381019061032b9190612327565b610929565b005b61034c60048036038101906103479190611fe7565b61098b565b6040516103599190611f8f565b60405180910390f35b61037c600480360381019061037791906123aa565b6109f3565b6040516103899190611ee4565b60405180910390f35b600061039d82610a87565b9050919050565b6060600080546103b390612419565b80601f01602080910402602001604051908101604052809291908181526020018280546103df90612419565b801561042c5780601f106104015761010080835404028352916020019161042c565b820191906000526020600020905b81548152906001019060200180831161040f57829003601f168201915b5050505050905090565b600061044182610b01565b6004600083815260200190815260200160002060009054906101000a900473ffffffffffffffffffffffffffffffffffffffff169050919050565b600061048782610736565b90508073ffffffffffffffffffffffffffffffffffffffff168373ffffffffffffffffffffffffffffffffffffffff16036104f7576040517f08c379a00000000000000000000000000000000000000000000000000000000081526004016104ee906124bc565b60405180910390fd5b8073ffffffffffffffffffffffffffffffffffffffff16610516610b4c565b73ffffffffffffffffffffffffffffffffffffffff16148061054557506105448161053f610b4c565b6109f3565b5b610584576040517f08c379a000000000000000000000000000000000000000000000000000000000815260040161057b9061254e565b60405180910390fd5b61058e8383610b54565b505050565b6000600880549050905090565b6105b16105ab610b4c565b82610c0d565b6105f0576040517f08c379a00000000000000000000000000000000000000000000000000000000081526004016105e7906125e0565b60405180910390fd5b6105fb838383610ca2565b505050565b600061060b836107bc565b821061064c576040517f08c379a000000000000000000000000000000000000000000000000000000000815260040161064390612672565b60405180910390fd5b600660008473ffffffffffffffffffffffffffffffffffffffff1673ffffffffffffffffffffffffffffffffffffffff168152602001908152602001600020600083815260200190815260200160002054905092915050565b6106c083838360405180602001604052806000815250610929565b505050565b60006106cf610593565b8210610710576040517f08c379a000000000000000000000000000000000000000000000000000000000815260040161070790612704565b60405180910390fd5b6008828154811061072457610723612724565b5b90600052602060002001549050919050565b60008061074283610f9b565b9050600073ffffffffffffffffffffffffffffffffffffffff168173ffffffffffffffffffffffffffffffffffffffff16036107b3576040517f08c379a00000000000000000000000000000000000000000000000000000000081526004016107aa9061279f565b60405180910390fd5b80915050919050565b60008073ffffffffffffffffffffffffffffffffffffffff168273ffffffffffffffffffffffffffffffffffffffff160361082c576040517f08c379a000000000000000000000000000000000000000000000000000000000815260040161082390612831565b60405180910390fd5b600360008373ffffffffffffffffffffffffffffffffffffffff1673ffffffffffffffffffffffffffffffffffffffff168152602001908152602001600020549050919050565b60606001805461088290612419565b80601f01602080910402602001604051908101604052809291908181526020018280546108ae90612419565b80156108fb5780601f106108d0576101008083540402835291602001916108fb565b820191906000526020600020905b8154815290600101906020018083116108de57829003601f168201915b5050505050905090565b61090f8282610fd8565b5050565b61092561091e610b4c565b8383610ff6565b5050565b61093a610934610b4c565b83610c0d565b610979576040517f08c379a0000000000000000000000000000000000000000000000000000000008152600401610970906125e0565b60405180910390fd5b61098584848484611162565b50505050565b606061099682610b01565b60006109a06111be565b905060008151116109c057604051806020016040528060008152506109eb565b806109ca846111de565b6040516020016109db92919061288d565b6040516020818303038152906040525b915050919050565b6000600560008473ffffffffffffffffffffffffffffffffffffffff1673ffffffffffffffffffffffffffffffffffffffff16815260200190815260200160002060008373ffffffffffffffffffffffffffffffffffffffff1673ffffffffffffffffffffffffffffffffffffffff16815260200190815260200160002060009054906101000a900460ff16905092915050565b60007f780e9d63000000000000000000000000000000000000000000000000000000007bffffffffffffffffffffffffffffffffffffffffffffffffffffffff1916827bffffffffffffffffffffffffffffffffffffffffffffffffffffffff19161480610afa5750610af9826112ac565b5b9050919050565b610b0a8161138e565b610b49576040517f08c379a0000000000000000000000000000000000000000000000000000000008152600401610b409061279f565b60405180910390fd5b50565b600033905090565b816004600083815260200190815260200160002060006101000a81548173ffffffffffffffffffffffffffffffffffffffff021916908373ffffffffffffffffffffffffffffffffffffffff160217905550808273ffffffffffffffffffffffffffffffffffffffff16610bc783610736565b73ffffffffffffffffffffffffffffffffffffffff167f8c5be1e5ebec7d5bd14f71427d1e84f3dd0314c0f7b2291e5b200ac8c7c3b92560405160405180910390a45050565b600080610c1983610736565b90508073ffffffffffffffffffffffffffffffffffffffff168473ffffffffffffffffffffffffffffffffffffffff161480610c5b5750610c5a81856109f3565b5b80610c9957508373ffffffffffffffffffffffffffffffffffffffff16610c8184610436565b73ffffffffffffffffffffffffffffffffffffffff16145b91505092915050565b8273ffffffffffffffffffffffffffffffffffffffff16610cc282610736565b73ffffffffffffffffffffffffffffffffffffffff1614610d18576040517f08c379a0000000000000000000000000000000000000000000000000000000008152600401610d0f90612923565b60405180910390fd5b600073ffffffffffffffffffffffffffffffffffffffff168273ffffffffffffffffffffffffffffffffffffffff1603610d87576040517f08c379a0000000000000000000000000000000000000000000000000000000008152600401610d7e906129b5565b60405180910390fd5b610d9483838360016113cf565b8273ffffffffffffffffffffffffffffffffffffffff16610db482610736565b73ffffffffffffffffffffffffffffffffffffffff1614610e0a576040517f08c379a0000000000000000000000000000000000000000000000000000000008152600401610e0190612923565b60405180910390fd5b6004600082815260200190815260200160002060006101000a81549073ffffffffffffffffffffffffffffffffffffffff02191690556001600360008573ffffffffffffffffffffffffffffffffffffffff1673ffffffffffffffffffffffffffffffffffffffff168152602001908152602001600020600082825403925050819055506001600360008473ffffffffffffffffffffffffffffffffffffffff1673ffffffffffffffffffffffffffffffffffffffff16815260200190815260200160002060008282540192505081905550816002600083815260200190815260200160002060006101000a81548173ffffffffffffffffffffffffffffffffffffffff021916908373ffffffffffffffffffffffffffffffffffffffff160217905550808273ffffffffffffffffffffffffffffffffffffffff168473ffffffffffffffffffffffffffffffffffffffff167fddf252ad1be2c89b69c2b068fc378daa952ba7f163c4a11628f55a4df523b3ef60405160405180910390a4610f9683838360016113e1565b505050565b60006002600083815260200190815260200160002060009054906101000a900473ffffffffffffffffffffffffffffffffffffffff169050919050565b610ff28282604051806020016040528060008152506113e7565b5050565b8173ffffffffffffffffffffffffffffffffffffffff168373ffffffffffffffffffffffffffffffffffffffff1603611064576040517f08c379a000000000000000000000000000000000000000000000000000000000815260040161105b90612a21565b60405180910390fd5b80600560008573ffffffffffffffffffffffffffffffffffffffff1673ffffffffffffffffffffffffffffffffffffffff16815260200190815260200160002060008473ffffffffffffffffffffffffffffffffffffffff1673ffffffffffffffffffffffffffffffffffffffff16815260200190815260200160002060006101000a81548160ff0219169083151502179055508173ffffffffffffffffffffffffffffffffffffffff168373ffffffffffffffffffffffffffffffffffffffff167f17307eab39ab6107e8899845ad3d59bd9653f200f220920489ca2b5937696c31836040516111559190611ee4565b60405180910390a3505050565b61116d848484610ca2565b61117984848484611442565b6111b8576040517f08c379a00000000000000000000000000000000000000000000000000000000081526004016111af90612ab3565b60405180910390fd5b50505050565b6060604051806060016040528060368152602001612de260369139905090565b6060600060016111ed846115c9565b01905060008167ffffffffffffffff81111561120c5761120b6121fc565b5b6040519080825280601f01601f19166020018201604052801561123e5781602001600182028036833780820191505090505b509050600082602001820190505b6001156112a1578080600190039150507f3031323334353637383961626364656600000000000000000000000000000000600a86061a8153600a858161129557611294612ad3565b5b0494506000850361124c575b819350505050919050565b60007f80ac58cd000000000000000000000000000000000000000000000000000000007bffffffffffffffffffffffffffffffffffffffffffffffffffffffff1916827bffffffffffffffffffffffffffffffffffffffffffffffffffffffff1916148061137757507f5b5e139f000000000000000000000000000000000000000000000000000000007bffffffffffffffffffffffffffffffffffffffffffffffffffffffff1916827bffffffffffffffffffffffffffffffffffffffffffffffffffffffff1916145b8061138757506113868261171c565b5b9050919050565b60008073ffffffffffffffffffffffffffffffffffffffff166113b083610f9b565b73ffffffffffffffffffffffffffffffffffffffff1614159050919050565b6113db84848484611786565b50505050565b50505050565b6113f183836118e4565b6113fe6000848484611442565b61143d576040517f08c379a000000000000000000000000000000000000000000000000000000000815260040161143490612ab3565b60405180910390fd5b505050565b60006114638473ffffffffffffffffffffffffffffffffffffffff16611b01565b156115bc578373ffffffffffffffffffffffffffffffffffffffff1663150b7a0261148c610b4c565b8786866040518563ffffffff1660e01b81526004016114ae9493929190612b57565b6020604051808303816000875af19250505080156114ea57506040513d601f19601f820116820180604052508101906114e79190612bb8565b60015b61156c573d806000811461151a576040519150601f19603f3d011682016040523d82523d6000602084013e61151f565b606091505b506000815103611564576040517f08c379a000000000000000000000000000000000000000000000000000000000815260040161155b90612ab3565b60405180910390fd5b805181602001fd5b63150b7a0260e01b7bffffffffffffffffffffffffffffffffffffffffffffffffffffffff1916817bffffffffffffffffffffffffffffffffffffffffffffffffffffffff1916149150506115c1565b600190505b949350505050565b600080600090507a184f03e93ff9f4daa797ed6e38ed64bf6a1f0100000000000000008310611627577a184f03e93ff9f4daa797ed6e38ed64bf6a1f010000000000000000838161161d5761161c612ad3565b5b0492506040810190505b6d04ee2d6d415b85acef81000000008310611664576d04ee2d6d415b85acef8100000000838161165a57611659612ad3565b5b0492506020810190505b662386f26fc10000831061169357662386f26fc10000838161168957611688612ad3565b5b0492506010810190505b6305f5e10083106116bc576305f5e10083816116b2576116b1612ad3565b5b0492506008810190505b61271083106116e15761271083816116d7576116d6612ad3565b5b0492506004810190505b6064831061170457606483816116fa576116f9612ad3565b5b0492506002810190505b600a8310611713576001810190505b80915050919050565b60007f01ffc9a7000000000000000000000000000000000000000000000000000000007bffffffffffffffffffffffffffffffffffffffffffffffffffffffff1916827bffffffffffffffffffffffffffffffffffffffffffffffffffffffff1916149050919050565b61179284848484611b24565b60018111156117d6576040517f08c379a00000000000000000000000000000000000000000000000000000000081526004016117cd90612c57565b60405180910390fd5b6000829050600073ffffffffffffffffffffffffffffffffffffffff168573ffffffffffffffffffffffffffffffffffffffff160361181d5761181881611b2a565b61185c565b8373ffffffffffffffffffffffffffffffffffffffff168573ffffffffffffffffffffffffffffffffffffffff161461185b5761185a8582611b73565b5b5b600073ffffffffffffffffffffffffffffffffffffffff168473ffffffffffffffffffffffffffffffffffffffff160361189e5761189981611ce0565b6118dd565b8473ffffffffffffffffffffffffffffffffffffffff168473ffffffffffffffffffffffffffffffffffffffff16146118dc576118db8482611db1565b5b5b5050505050565b600073ffffffffffffffffffffffffffffffffffffffff168273ffffffffffffffffffffffffffffffffffffffff1603611953576040517f08c379a000000000000000000000000000000000000000000000000000000000815260040161194a90612cc3565b60405180910390fd5b61195c8161138e565b1561199c576040517f08c379a000000000000000000000000000000000000000000000000000000000815260040161199390612d2f565b60405180910390fd5b6119aa6000838360016113cf565b6119b38161138e565b156119f3576040517f08c379a00000000000000000000000000000000000000000000000000000000081526004016119ea90612d2f565b60405180910390fd5b6001600360008473ffffffffffffffffffffffffffffffffffffffff1673ffffffffffffffffffffffffffffffffffffffff16815260200190815260200160002060008282540192505081905550816002600083815260200190815260200160002060006101000a81548173ffffffffffffffffffffffffffffffffffffffff021916908373ffffffffffffffffffffffffffffffffffffffff160217905550808273ffffffffffffffffffffffffffffffffffffffff16600073ffffffffffffffffffffffffffffffffffffffff167fddf252ad1be2c89b69c2b068fc378daa952ba7f163c4a11628f55a4df523b3ef60405160405180910390a4611afd6000838360016113e1565b5050565b6000808273ffffffffffffffffffffffffffffffffffffffff163b119050919050565b50505050565b6008805490506009600083815260200190815260200160002081905550600881908060018154018082558091505060019003906000526020600020016000909190919091505550565b60006001611b80846107bc565b611b8a9190612d7e565b9050600060076000848152602001908152602001600020549050818114611c6f576000600660008673ffffffffffffffffffffffffffffffffffffffff1673ffffffffffffffffffffffffffffffffffffffff168152602001908152602001600020600084815260200190815260200160002054905080600660008773ffffffffffffffffffffffffffffffffffffffff1673ffffffffffffffffffffffffffffffffffffffff168152602001908152602001600020600084815260200190815260200160002081905550816007600083815260200190815260200160002081905550505b6007600084815260200190815260200160002060009055600660008573ffffffffffffffffffffffffffffffffffffffff1673ffffffffffffffffffffffffffffffffffffffff16815260200190815260200160002060008381526020019081526020016000206000905550505050565b60006001600880549050611cf49190612d7e565b9050600060096000848152602001908152602001600020549050600060088381548110611d2457611d23612724565b5b906000526020600020015490508060088381548110611d4657611d45612724565b5b906000526020600020018190555081600960008381526020019081526020016000208190555060096000858152602001908152602001600020600090556008805480611d9557611d94612db2565b5b6001900381819060005260206000200160009055905550505050565b6000611dbc836107bc565b905081600660008573ffffffffffffffffffffffffffffffffffffffff1673ffffffffffffffffffffffffffffffffffffffff168152602001908152602001600020600083815260200190815260200160002081905550806007600084815260200190815260200160002081905550505050565b6000604051905090565b600080fd5b600080fd5b60007fffffffff0000000000000000000000000000000000000000000000000000000082169050919050565b611e7981611e44565b8114611e8457600080fd5b50565b600081359050611e9681611e70565b92915050565b600060208284031215611eb257611eb1611e3a565b5b6000611ec084828501611e87565b91505092915050565b60008115159050919050565b611ede81611ec9565b82525050565b6000602082019050611ef96000830184611ed5565b92915050565b600081519050919050565b600082825260208201905092915050565b60005b83811015611f39578082015181840152602081019050611f1e565b60008484015250505050565b6000601f19601f8301169050919050565b6000611f6182611eff565b611f6b8185611f0a565b9350611f7b818560208601611f1b565b611f8481611f45565b840191505092915050565b60006020820190508181036000830152611fa98184611f56565b905092915050565b6000819050919050565b611fc481611fb1565b8114611fcf57600080fd5b50565b600081359050611fe181611fbb565b92915050565b600060208284031215611ffd57611ffc611e3a565b5b600061200b84828501611fd2565b91505092915050565b600073ffffffffffffffffffffffffffffffffffffffff82169050919050565b600061203f82612014565b9050919050565b61204f81612034565b82525050565b600060208201905061206a6000830184612046565b92915050565b61207981612034565b811461208457600080fd5b50565b60008135905061209681612070565b92915050565b600080604083850312156120b3576120b2611e3a565b5b60006120c185828601612087565b92505060206120d285828601611fd2565b9150509250929050565b6120e581611fb1565b82525050565b600060208201905061210060008301846120dc565b92915050565b60008060006060848603121561211f5761211e611e3a565b5b600061212d86828701612087565b935050602061213e86828701612087565b925050604061214f86828701611fd2565b9150509250925092565b60006020828403121561216f5761216e611e3a565b5b600061217d84828501612087565b91505092915050565b61218f81611ec9565b811461219a57600080fd5b50565b6000813590506121ac81612186565b92915050565b600080604083850312156121c9576121c8611e3a565b5b60006121d785828601612087565b92505060206121e88582860161219d565b9150509250929050565b600080fd5b600080fd5b7f4e487b7100000000000000000000000000000000000000000000000000000000600052604160045260246000fd5b61223482611f45565b810181811067ffffffffffffffff82111715612253576122526121fc565b5b80604052505050565b6000612266611e30565b9050612272828261222b565b919050565b600067ffffffffffffffff821115612292576122916121fc565b5b61229b82611f45565b9050602081019050919050565b82818337600083830152505050565b60006122ca6122c584612277565b61225c565b9050828152602081018484840111156122e6576122e56121f7565b5b6122f18482856122a8565b509392505050565b600082601f83011261230e5761230d6121f2565b5b813561231e8482602086016122b7565b91505092915050565b6000806000806080858703121561234157612340611e3a565b5b600061234f87828801612087565b945050602061236087828801612087565b935050604061237187828801611fd2565b925050606085013567ffffffffffffffff81111561239257612391611e3f565b5b61239e878288016122f9565b91505092959194509250565b600080604083850312156123c1576123c0611e3a565b5b60006123cf85828601612087565b92505060206123e085828601612087565b9150509250929050565b7f4e487b7100000000000000000000000000000000000000000000000000000000600052602260045260246000fd5b6000600282049050600182168061243157607f821691505b602082108103612444576124436123ea565b5b50919050565b7f4552433732313a20617070726f76616c20746f2063757272656e74206f776e6560008201527f7200000000000000000000000000000000000000000000000000000000000000602082015250565b60006124a6602183611f0a565b91506124b18261244a565b604082019050919050565b600060208201905081810360008301526124d581612499565b9050919050565b7f4552433732313a20617070726f76652063616c6c6572206973206e6f7420746f60008201527f6b656e206f776e6572206f7220617070726f76656420666f7220616c6c000000602082015250565b6000612538603d83611f0a565b9150612543826124dc565b604082019050919050565b600060208201905081810360008301526125678161252b565b9050919050565b7f4552433732313a2063616c6c6572206973206e6f7420746f6b656e206f776e6560008201527f72206f7220617070726f76656400000000000000000000000000000000000000602082015250565b60006125ca602d83611f0a565b91506125d58261256e565b604082019050919050565b600060208201905081810360008301526125f9816125bd565b9050919050565b7f455243373231456e756d657261626c653a206f776e657220696e646578206f7560008201527f74206f6620626f756e6473000000000000000000000000000000000000000000602082015250565b600061265c602b83611f0a565b915061266782612600565b604082019050919050565b6000602082019050818103600083015261268b8161264f565b9050919050565b7f455243373231456e756d657261626c653a20676c6f62616c20696e646578206f60008201527f7574206f6620626f756e64730000000000000000000000000000000000000000602082015250565b60006126ee602c83611f0a565b91506126f982612692565b604082019050919050565b6000602082019050818103600083015261271d816126e1565b9050919050565b7f4e487b7100000000000000000000000000000000000000000000000000000000600052603260045260246000fd5b7f4552433732313a20696e76616c696420746f6b656e2049440000000000000000600082015250565b6000612789601883611f0a565b915061279482612753565b602082019050919050565b600060208201905081810360008301526127b88161277c565b9050919050565b7f4552433732313a2061646472657373207a65726f206973206e6f74206120766160008201527f6c6964206f776e65720000000000000000000000000000000000000000000000602082015250565b600061281b602983611f0a565b9150612826826127bf565b604082019050919050565b6000602082019050818103600083015261284a8161280e565b9050919050565b600081905092915050565b600061286782611eff565b6128718185612851565b9350612881818560208601611f1b565b80840191505092915050565b6000612899828561285c565b91506128a5828461285c565b91508190509392505050565b7f4552433732313a207472616e736665722066726f6d20696e636f72726563742060008201527f6f776e6572000000000000000000000000000000000000000000000000000000602082015250565b600061290d602583611f0a565b9150612918826128b1565b604082019050919050565b6000602082019050818103600083015261293c81612900565b9050919050565b7f4552433732313a207472616e7366657220746f20746865207a65726f2061646460008201527f7265737300000000000000000000000000000000000000000000000000000000602082015250565b600061299f602483611f0a565b91506129aa82612943565b604082019050919050565b600060208201905081810360008301526129ce81612992565b9050919050565b7f4552433732313a20617070726f766520746f2063616c6c657200000000000000600082015250565b6000612a0b601983611f0a565b9150612a16826129d5565b602082019050919050565b60006020820190508181036000830152612a3a816129fe565b9050919050565b7f4552433732313a207472616e7366657220746f206e6f6e20455243373231526560008201527f63656976657220696d706c656d656e7465720000000000000000000000000000602082015250565b6000612a9d603283611f0a565b9150612aa882612a41565b604082019050919050565b60006020820190508181036000830152612acc81612a90565b9050919050565b7f4e487b7100000000000000000000000000000000000000000000000000000000600052601260045260246000fd5b600081519050919050565b600082825260208201905092915050565b6000612b2982612b02565b612b338185612b0d565b9350612b43818560208601611f1b565b612b4c81611f45565b840191505092915050565b6000608082019050612b6c6000830187612046565b612b796020830186612046565b612b8660408301856120dc565b8181036060830152612b988184612b1e565b905095945050505050565b600081519050612bb281611e70565b92915050565b600060208284031215612bce57612bcd611e3a565b5b6000612bdc84828501612ba3565b91505092915050565b7f455243373231456e756d657261626c653a20636f6e736563757469766520747260008201527f616e7366657273206e6f7420737570706f727465640000000000000000000000602082015250565b6000612c41603583611f0a565b9150612c4c82612be5565b604082019050919050565b60006020820190508181036000830152612c7081612c34565b9050919050565b7f4552433732313a206d696e7420746f20746865207a65726f2061646472657373600082015250565b6000612cad602083611f0a565b9150612cb882612c77565b602082019050919050565b60006020820190508181036000830152612cdc81612ca0565b9050919050565b7f4552433732313a20746f6b656e20616c7265616479206d696e74656400000000600082015250565b6000612d19601c83611f0a565b9150612d2482612ce3565b602082019050919050565b60006020820190508181036000830152612d4881612d0c565b9050919050565b7f4e487b7100000000000000000000000000000000000000000000000000000000600052601160045260246000fd5b6000612d8982611fb1565b9150612d9483611fb1565b9250828203905081811115612dac57612dab612d4f565b5b92915050565b7f4e487b7100000000000000000000000000000000000000000000000000000000600052603160045260246000fdfe697066733a2f2f516d61347336757956534361546f75584d384e38416b414c346a63313144353354736e316b5a50733443476436622fa26469706673582212209af4cbe648a4d7499fa32e0995e95f3c7f017d809345820ad54a06ead89a20e664736f6c63430008130033",
  "linkReferences": {},
  "deployedLinkReferences": {}
}