{
  "_format": "hh-sol-artifact-1",
  "contractName": "ArrayTamanoDinamico",
  "sourceName": "contracts/class05/ArraysDinamico.sol",
  "abi": [
    {
      "inputs": [],
      "name": "eliminarInfoDeArrayDinamico",
      "outputs": [],
      "stateMutability": "nonpayable",
      "type": "function"
    },
    {
      "inputs": [],
      "name": "guardarInfoEnArrayDinamico",
      "outputs": [],
      "stateMutability": "nonpayable",
      "type": "function"
    }
  ],
  "bytecode": "0x608060405234801561001057600080fd5b506101b0806100206000396000f3fe608060405234801561001057600080fd5b50600436106100365760003560e01c80632ea733171461003b57806372368b6014610045575b600080fd5b61004361004f565b005b61004d6100d1565b005b6000607b908060018154018082558091505060019003906000526020600020016000909190919091505560006101c8908060018154018082558091505060019003906000526020600020016000909190919091505560006103159080600181540180825580915050600190039060005260206000200160009091909190915055565b60008054806100e3576100e261014b565b5b60019003818190600052602060002001600090559055600080548061010b5761010a61014b565b5b6001900381819060005260206000200160009055905560008054806101335761013261014b565b5b60019003818190600052602060002001600090559055565b7f4e487b7100000000000000000000000000000000000000000000000000000000600052603160045260246000fdfea26469706673582212202bb7c85052065fdd72d9888543ce9aa4166a2ed9fc5f57ec9b026391084253e864736f6c63430008130033",
  "linkReferences": {},
  "deployedLinkReferences": {}
}