{
  "_format": "hh-sol-artifact-1",
  "contractName": "ProtegerConroles",
  "sourceName": "contracts/class07/AccessRoles.sol",
  "abi": [
    {
      "inputs": [],
      "name": "BURNER_ROLE",
      "outputs": [
        {
          "internalType": "bytes32",
          "name": "",
          "type": "bytes32"
        }
      ],
      "stateMutability": "view",
      "type": "function"
    },
    {
      "inputs": [],
      "name": "DEFAULT_ADMIN_ROLE",
      "outputs": [
        {
          "internalType": "bytes32",
          "name": "",
          "type": "bytes32"
        }
      ],
      "stateMutability": "view",
      "type": "function"
    },
    {
      "inputs": [],
      "name": "MINTER_ROLE",
      "outputs": [
        {
          "internalType": "bytes32",
          "name": "",
          "type": "bytes32"
        }
      ],
      "stateMutability": "view",
      "type": "function"
    },
    {
      "inputs": [],
      "name": "NUEVO_ROLE",
      "outputs": [
        {
          "internalType": "bytes32",
          "name": "",
          "type": "bytes32"
        }
      ],
      "stateMutability": "view",
      "type": "function"
    },
    {
      "inputs": [
        {
          "internalType": "address",
          "name": "_account",
          "type": "address"
        },
        {
          "internalType": "bytes32",
          "name": "_role",
          "type": "bytes32"
        }
      ],
      "name": "grantRole",
      "outputs": [],
      "stateMutability": "nonpayable",
      "type": "function"
    },
    {
      "inputs": [],
      "name": "protegerPorRolBurner",
      "outputs": [],
      "stateMutability": "nonpayable",
      "type": "function"
    },
    {
      "inputs": [],
      "name": "protegerPorRolMinter",
      "outputs": [],
      "stateMutability": "nonpayable",
      "type": "function"
    },
    {
      "inputs": [],
      "name": "protegerPorRolNuevoRole",
      "outputs": [],
      "stateMutability": "nonpayable",
      "type": "function"
    },
    {
      "inputs": [
        {
          "internalType": "address",
          "name": "_account",
          "type": "address"
        },
        {
          "internalType": "bytes32",
          "name": "_role",
          "type": "bytes32"
        }
      ],
      "name": "revokeRole",
      "outputs": [],
      "stateMutability": "nonpayable",
      "type": "function"
    },
    {
      "inputs": [
        {
          "internalType": "address",
          "name": "_to",
          "type": "address"
        }
      ],
      "name": "transferAdminRole",
      "outputs": [],
      "stateMutability": "nonpayable",
      "type": "function"
    }
  ],
  "bytecode": "0x60806040526000801b60005560405180606001604052806028815260200162000dff602891396002908162000035919062000351565b507f440bd3497018f4da2f87bf8bb082df6ba9ca7392ba4fdb585af85bedc40623386003553480156200006757600080fd5b5060018060003373ffffffffffffffffffffffffffffffffffffffff1673ffffffffffffffffffffffffffffffffffffffff16815260200190815260200160002060008054815260200190815260200160002060006101000a81548160ff02191690831515021790555062000438565b600081519050919050565b7f4e487b7100000000000000000000000000000000000000000000000000000000600052604160045260246000fd5b7f4e487b7100000000000000000000000000000000000000000000000000000000600052602260045260246000fd5b600060028204905060018216806200015957607f821691505b6020821081036200016f576200016e62000111565b5b50919050565b60008190508160005260206000209050919050565b60006020601f8301049050919050565b600082821b905092915050565b600060088302620001d97fffffffffffffffffffffffffffffffffffffffffffffffffffffffffffffffff826200019a565b620001e586836200019a565b95508019841693508086168417925050509392505050565b6000819050919050565b6000819050919050565b6000620002326200022c6200022684620001fd565b62000207565b620001fd565b9050919050565b6000819050919050565b6200024e8362000211565b620002666200025d8262000239565b848454620001a7565b825550505050565b600090565b6200027d6200026e565b6200028a81848462000243565b505050565b5b81811015620002b257620002a660008262000273565b60018101905062000290565b5050565b601f8211156200030157620002cb8162000175565b620002d6846200018a565b81016020851015620002e6578190505b620002fe620002f5856200018a565b8301826200028f565b50505b505050565b600082821c905092915050565b6000620003266000198460080262000306565b1980831691505092915050565b600062000341838362000313565b9150826002028217905092915050565b6200035c82620000d7565b67ffffffffffffffff811115620003785762000377620000e2565b5b62000384825462000140565b62000391828285620002b6565b600060209050601f831160018114620003c95760008415620003b4578287015190505b620003c0858262000333565b86555062000430565b601f198416620003d98662000175565b60005b828110156200040357848901518255600182019150602085019450602081019050620003dc565b868310156200042357848901516200041f601f89168262000313565b8355505b6001600288020188555050505b505050505050565b6109b780620004486000396000f3fe608060405234801561001057600080fd5b506004361061009e5760003560e01c8063a217fddf11610066578063a217fddf1461010f578063a5abce341461012d578063ab2742dc14610137578063ada8f91914610153578063d53913931461016f5761009e565b806319911f22146100a3578063208dd1ff146100ad578063282c51f3146100c957806343efa873146100e75780636bf364f314610105575b600080fd5b6100ab61018d565b005b6100c760048036038101906100c2919061086d565b61024e565b005b6100d161035c565b6040516100de91906108bc565b60405180910390f35b6100ef610380565b6040516100fc91906108bc565b60405180910390f35b61010d6103a4565b005b610117610465565b60405161012491906108bc565b60405180910390f35b61013561046b565b005b610151600480360381019061014c919061086d565b61052c565b005b61016d600480360381019061016891906108d7565b610639565b005b6101776107b0565b60405161018491906108bc565b60405180910390f35b7f8b71a160186273675b2082f118b92bcd830d68a70909cbe0f6aeb1cbec8550aa600160003373ffffffffffffffffffffffffffffffffffffffff1673ffffffffffffffffffffffffffffffffffffffff168152602001908152602001600020600082815260200190815260200160002060009054906101000a900460ff1661024b576040517f08c379a000000000000000000000000000000000000000000000000000000000815260040161024290610961565b60405180910390fd5b50565b600054600160003373ffffffffffffffffffffffffffffffffffffffff1673ffffffffffffffffffffffffffffffffffffffff168152602001908152602001600020600082815260200190815260200160002060009054906101000a900460ff166102ee576040517f08c379a00000000000000000000000000000000000000000000000000000000081526004016102e590610961565b60405180910390fd5b6000600160008573ffffffffffffffffffffffffffffffffffffffff1673ffffffffffffffffffffffffffffffffffffffff168152602001908152602001600020600084815260200190815260200160002060006101000a81548160ff021916908315150217905550505050565b7f3c11d16cbaffd01df69ce1c404f6340ee057498f5f00246190ea54220576a84881565b7f8b71a160186273675b2082f118b92bcd830d68a70909cbe0f6aeb1cbec8550aa81565b7f9f2df0fed2c77648de5860a4cc508cd0818c85b8b8a1ab4ceeef8d981c8956a6600160003373ffffffffffffffffffffffffffffffffffffffff1673ffffffffffffffffffffffffffffffffffffffff168152602001908152602001600020600082815260200190815260200160002060009054906101000a900460ff16610462576040517f08c379a000000000000000000000000000000000000000000000000000000000815260040161045990610961565b60405180910390fd5b50565b60005481565b7f3c11d16cbaffd01df69ce1c404f6340ee057498f5f00246190ea54220576a848600160003373ffffffffffffffffffffffffffffffffffffffff1673ffffffffffffffffffffffffffffffffffffffff168152602001908152602001600020600082815260200190815260200160002060009054906101000a900460ff16610529576040517f08c379a000000000000000000000000000000000000000000000000000000000815260040161052090610961565b60405180910390fd5b50565b600054600160003373ffffffffffffffffffffffffffffffffffffffff1673ffffffffffffffffffffffffffffffffffffffff168152602001908152602001600020600082815260200190815260200160002060009054906101000a900460ff166105cc576040517f08c379a00000000000000000000000000000000000000000000000000000000081526004016105c390610961565b60405180910390fd5b60018060008573ffffffffffffffffffffffffffffffffffffffff1673ffffffffffffffffffffffffffffffffffffffff168152602001908152602001600020600084815260200190815260200160002060006101000a81548160ff021916908315150217905550505050565b600054600160003373ffffffffffffffffffffffffffffffffffffffff1673ffffffffffffffffffffffffffffffffffffffff168152602001908152602001600020600082815260200190815260200160002060009054906101000a900460ff166106d9576040517f08c379a00000000000000000000000000000000000000000000000000000000081526004016106d090610961565b60405180910390fd5b60018060008473ffffffffffffffffffffffffffffffffffffffff1673ffffffffffffffffffffffffffffffffffffffff16815260200190815260200160002060008054815260200190815260200160002060006101000a81548160ff0219169083151502179055506000600160003373ffffffffffffffffffffffffffffffffffffffff1673ffffffffffffffffffffffffffffffffffffffff16815260200190815260200160002060008054815260200190815260200160002060006101000a81548160ff0219169083151502179055505050565b7f9f2df0fed2c77648de5860a4cc508cd0818c85b8b8a1ab4ceeef8d981c8956a681565b600080fd5b600073ffffffffffffffffffffffffffffffffffffffff82169050919050565b6000610804826107d9565b9050919050565b610814816107f9565b811461081f57600080fd5b50565b6000813590506108318161080b565b92915050565b6000819050919050565b61084a81610837565b811461085557600080fd5b50565b60008135905061086781610841565b92915050565b60008060408385031215610884576108836107d4565b5b600061089285828601610822565b92505060206108a385828601610858565b9150509250929050565b6108b681610837565b82525050565b60006020820190506108d160008301846108ad565b92915050565b6000602082840312156108ed576108ec6107d4565b5b60006108fb84828501610822565b91505092915050565b600082825260208201905092915050565b7f4e6f207469656e65732065736520726f6c650000000000000000000000000000600082015250565b600061094b601283610904565b915061095682610915565b602082019050919050565b6000602082019050818103600083015261097a8161093e565b905091905056fea26469706673582212200bcee88bbcc63bbad127166777dfbf294a61339bf76cc5d5dd56a8c4a69fb31064736f6c6343000813003341444d494e5f524f4c455f4a554c494f5f323032335f4c494d415f534f5554485f414d4552494341",
  "linkReferences": {},
  "deployedLinkReferences": {}
}