{
  "_format": "hh-sol-artifact-1",
  "contractName": "X",
  "sourceName": "contracts/class07/AccessRoles.sol",
  "abi": [
    {
      "inputs": [],
      "name": "protegerMetodo",
      "outputs": [],
      "stateMutability": "nonpayable",
      "type": "function"
    },
    {
      "inputs": [],
      "name": "protegerMetodo2",
      "outputs": [],
      "stateMutability": "nonpayable",
      "type": "function"
    },
    {
      "inputs": [],
      "name": "protegerMetodo3",
      "outputs": [],
      "stateMutability": "nonpayable",
      "type": "function"
    },
    {
      "inputs": [],
      "name": "protegerMetodo4",
      "outputs": [],
      "stateMutability": "nonpayable",
      "type": "function"
    }
  ],
  "bytecode": "0x6080604052336000806101000a81548173ffffffffffffffffffffffffffffffffffffffff021916908373ffffffffffffffffffffffffffffffffffffffff16021790555034801561005057600080fd5b5061036c806100606000396000f3fe608060405234801561001057600080fd5b506004361061004c5760003560e01c806333c0229d146100515780638e832f6f1461005b578063b72be5ac14610065578063c21f9bf11461006f575b600080fd5b610059610079565b005b610063610109565b005b61006d610199565b005b610077610229565b005b60008054906101000a900473ffffffffffffffffffffffffffffffffffffffff1673ffffffffffffffffffffffffffffffffffffffff163373ffffffffffffffffffffffffffffffffffffffff1614610107576040517f08c379a00000000000000000000000000000000000000000000000000000000081526004016100fe90610316565b60405180910390fd5b565b60008054906101000a900473ffffffffffffffffffffffffffffffffffffffff1673ffffffffffffffffffffffffffffffffffffffff163373ffffffffffffffffffffffffffffffffffffffff1614610197576040517f08c379a000000000000000000000000000000000000000000000000000000000815260040161018e90610316565b60405180910390fd5b565b60008054906101000a900473ffffffffffffffffffffffffffffffffffffffff1673ffffffffffffffffffffffffffffffffffffffff163373ffffffffffffffffffffffffffffffffffffffff1614610227576040517f08c379a000000000000000000000000000000000000000000000000000000000815260040161021e90610316565b60405180910390fd5b565b60008054906101000a900473ffffffffffffffffffffffffffffffffffffffff1673ffffffffffffffffffffffffffffffffffffffff163373ffffffffffffffffffffffffffffffffffffffff16146102b7576040517f08c379a00000000000000000000000000000000000000000000000000000000081526004016102ae90610316565b60405180910390fd5b565b600082825260208201905092915050565b7f4e6f206572657320656c204f776e657200000000000000000000000000000000600082015250565b60006103006010836102b9565b915061030b826102ca565b602082019050919050565b6000602082019050818103600083015261032f816102f3565b905091905056fea26469706673582212204390abaaa8198eb5d06d981f9eb5c46d26dc5eead3d62b5ce19636b75d7f415f64736f6c63430008130033",
  "linkReferences": {},
  "deployedLinkReferences": {}
}