{
  "_format": "hh-sol-artifact-1",
  "contractName": "Modifiers",
  "sourceName": "contracts/class04/Modifier.sol",
  "abi": [
    {
      "inputs": [],
      "name": "activarPausa",
      "outputs": [],
      "stateMutability": "nonpayable",
      "type": "function"
    },
    {
      "inputs": [],
      "name": "caller",
      "outputs": [
        {
          "internalType": "address",
          "name": "",
          "type": "address"
        }
      ],
      "stateMutability": "view",
      "type": "function"
    },
    {
      "inputs": [],
      "name": "desactivarPausa",
      "outputs": [],
      "stateMutability": "nonpayable",
      "type": "function"
    },
    {
      "inputs": [],
      "name": "edad",
      "outputs": [
        {
          "internalType": "uint256",
          "name": "",
          "type": "uint256"
        }
      ],
      "stateMutability": "view",
      "type": "function"
    },
    {
      "inputs": [
        {
          "internalType": "address",
          "name": "_account",
          "type": "address"
        }
      ],
      "name": "guardarEnListaBlanca",
      "outputs": [],
      "stateMutability": "nonpayable",
      "type": "function"
    },
    {
      "inputs": [
        {
          "internalType": "address",
          "name": "",
          "type": "address"
        }
      ],
      "name": "listaPermitida",
      "outputs": [
        {
          "internalType": "bool",
          "name": "",
          "type": "bool"
        }
      ],
      "stateMutability": "view",
      "type": "function"
    },
    {
      "inputs": [],
      "name": "progetidoContraElTiempo",
      "outputs": [],
      "stateMutability": "nonpayable",
      "type": "function"
    },
    {
      "inputs": [],
      "name": "protegerMetodoConPausa",
      "outputs": [],
      "stateMutability": "nonpayable",
      "type": "function"
    },
    {
      "inputs": [],
      "name": "protegerMetodoPorListaBlanca",
      "outputs": [],
      "stateMutability": "nonpayable",
      "type": "function"
    },
    {
      "inputs": [
        {
          "internalType": "address",
          "name": "_account",
          "type": "address"
        }
      ],
      "name": "sacarDeListaBlanca",
      "outputs": [],
      "stateMutability": "nonpayable",
      "type": "function"
    },
    {
      "inputs": [
        {
          "internalType": "uint256",
          "name": "_edad",
          "type": "uint256"
        }
      ],
      "name": "setAge",
      "outputs": [],
      "stateMutability": "nonpayable",
      "type": "function"
    },
    {
      "inputs": [
        {
          "internalType": "uint256",
          "name": "_edad",
          "type": "uint256"
        }
      ],
      "name": "setAge2",
      "outputs": [],
      "stateMutability": "nonpayable",
      "type": "function"
    },
    {
      "inputs": [
        {
          "internalType": "uint256",
          "name": "_edad",
          "type": "uint256"
        }
      ],
      "name": "setAgeWithRange",
      "outputs": [],
      "stateMutability": "nonpayable",
      "type": "function"
    }
  ],
  "bytecode": "0x6080604052735b38da6a701c568545dcfcb03fcb875f56beddc46000806101000a81548173ffffffffffffffffffffffffffffffffffffffff021916908373ffffffffffffffffffffffffffffffffffffffff160217905550641caac509dc60025534801561006d57600080fd5b50610be68061007d6000396000f3fe608060405234801561001057600080fd5b50600436106100cf5760003560e01c80637fe5e8f91161008c578063d49459ff11610066578063d49459ff1461019e578063d5dcf127146101a8578063fc9c8d39146101c4578063fca43d10146101e2576100cf565b80637fe5e8f91461016e578063b4e3fce114610178578063cc8df14414610194576100cf565b80631bb9ac40146100d4578063341e9a86146100f25780633e0e03df1461012257806356b21ab61461013e5780635b45648d1461014857806363ce648714610152575b600080fd5b6100dc6101fe565b6040516100e9919061088b565b60405180910390f35b61010c60048036038101906101079190610909565b610204565b6040516101199190610951565b60405180910390f35b61013c60048036038101906101379190610909565b610224565b005b61014661030d565b005b61015061031d565b005b61016c60048036038101906101679190610998565b6103c8565b005b6101766104b1565b005b610192600480360381019061018d9190610909565b61053f565b005b61019c610628565b005b6101a66106d3565b005b6101c260048036038101906101bd9190610998565b610725565b005b6101cc6107bd565b6040516101d991906109d4565b60405180910390f35b6101fc60048036038101906101f79190610998565b6107e1565b005b60015481565b60046020528060005260406000206000915054906101000a900460ff1681565b60008054906101000a900473ffffffffffffffffffffffffffffffffffffffff1673ffffffffffffffffffffffffffffffffffffffff163373ffffffffffffffffffffffffffffffffffffffff16146102b2576040517f08c379a00000000000000000000000000000000000000000000000000000000081526004016102a990610a4c565b60405180910390fd5b6001600460008373ffffffffffffffffffffffffffffffffffffffff1673ffffffffffffffffffffffffffffffffffffffff16815260200190815260200160002060006101000a81548160ff02191690831515021790555050565b600254421061031b57600080fd5b565b60008054906101000a900473ffffffffffffffffffffffffffffffffffffffff1673ffffffffffffffffffffffffffffffffffffffff163373ffffffffffffffffffffffffffffffffffffffff16146103ab576040517f08c379a00000000000000000000000000000000000000000000000000000000081526004016103a290610a4c565b60405180910390fd5b6001600360006101000a81548160ff021916908315150217905550565b60008054906101000a900473ffffffffffffffffffffffffffffffffffffffff1673ffffffffffffffffffffffffffffffffffffffff163373ffffffffffffffffffffffffffffffffffffffff1614610456576040517f08c379a000000000000000000000000000000000000000000000000000000000815260040161044d90610a4c565b60405180910390fd5b806028811180156104675750606481105b6104a6576040517f08c379a000000000000000000000000000000000000000000000000000000000815260040161049d90610ab8565b60405180910390fd5b816001819055505050565b600460003373ffffffffffffffffffffffffffffffffffffffff1673ffffffffffffffffffffffffffffffffffffffff16815260200190815260200160002060009054906101000a900460ff1661053d576040517f08c379a000000000000000000000000000000000000000000000000000000000815260040161053490610b24565b60405180910390fd5b565b60008054906101000a900473ffffffffffffffffffffffffffffffffffffffff1673ffffffffffffffffffffffffffffffffffffffff163373ffffffffffffffffffffffffffffffffffffffff16146105cd576040517f08c379a00000000000000000000000000000000000000000000000000000000081526004016105c490610a4c565b60405180910390fd5b6000600460008373ffffffffffffffffffffffffffffffffffffffff1673ffffffffffffffffffffffffffffffffffffffff16815260200190815260200160002060006101000a81548160ff02191690831515021790555050565b60008054906101000a900473ffffffffffffffffffffffffffffffffffffffff1673ffffffffffffffffffffffffffffffffffffffff163373ffffffffffffffffffffffffffffffffffffffff16146106b6576040517f08c379a00000000000000000000000000000000000000000000000000000000081526004016106ad90610a4c565b60405180910390fd5b6000600360006101000a81548160ff021916908315150217905550565b600360009054906101000a900460ff1615610723576040517f08c379a000000000000000000000000000000000000000000000000000000000815260040161071a90610b90565b60405180910390fd5b565b60008054906101000a900473ffffffffffffffffffffffffffffffffffffffff1673ffffffffffffffffffffffffffffffffffffffff163373ffffffffffffffffffffffffffffffffffffffff16146107b3576040517f08c379a00000000000000000000000000000000000000000000000000000000081526004016107aa90610a4c565b60405180910390fd5b8060018190555050565b60008054906101000a900473ffffffffffffffffffffffffffffffffffffffff1681565b60008054906101000a900473ffffffffffffffffffffffffffffffffffffffff1673ffffffffffffffffffffffffffffffffffffffff163373ffffffffffffffffffffffffffffffffffffffff161461086f576040517f08c379a000000000000000000000000000000000000000000000000000000000815260040161086690610a4c565b60405180910390fd5b50565b6000819050919050565b61088581610872565b82525050565b60006020820190506108a0600083018461087c565b92915050565b600080fd5b600073ffffffffffffffffffffffffffffffffffffffff82169050919050565b60006108d6826108ab565b9050919050565b6108e6816108cb565b81146108f157600080fd5b50565b600081359050610903816108dd565b92915050565b60006020828403121561091f5761091e6108a6565b5b600061092d848285016108f4565b91505092915050565b60008115159050919050565b61094b81610936565b82525050565b60006020820190506109666000830184610942565b92915050565b61097581610872565b811461098057600080fd5b50565b6000813590506109928161096c565b92915050565b6000602082840312156109ae576109ad6108a6565b5b60006109bc84828501610983565b91505092915050565b6109ce816108cb565b82525050565b60006020820190506109e960008301846109c5565b92915050565b600082825260208201905092915050565b7f4e6f2065737461206175746f72697a61646f0000000000000000000000000000600082015250565b6000610a366012836109ef565b9150610a4182610a00565b602082019050919050565b60006020820190508181036000830152610a6581610a29565b9050919050565b7f46756572612064656c2072616e676f0000000000000000000000000000000000600082015250565b6000610aa2600f836109ef565b9150610aad82610a6c565b602082019050919050565b60006020820190508181036000830152610ad181610a95565b9050919050565b7f4e6f206573746173206175746f72697a61646f00000000000000000000000000600082015250565b6000610b0e6013836109ef565b9150610b1982610ad8565b602082019050919050565b60006020820190508181036000830152610b3d81610b01565b9050919050565b7f4d65746f646f207061757361646f000000000000000000000000000000000000600082015250565b6000610b7a600e836109ef565b9150610b8582610b44565b602082019050919050565b60006020820190508181036000830152610ba981610b6d565b905091905056fea26469706673582212209d6e8e21d109e0a10aa9fc2c05aeb7a5a64c3a761d7322c2f1351cdc7f64b32364736f6c63430008130033",
  "linkReferences": {},
  "deployedLinkReferences": {}
}