{
  "_format": "hh-sol-artifact-1",
  "contractName": "ReceiveAndFallback",
  "sourceName": "contracts/class07/EnviaEther.sol",
  "abi": [
    {
      "inputs": [],
      "stateMutability": "nonpayable",
      "type": "constructor"
    },
    {
      "anonymous": false,
      "inputs": [
        {
          "indexed": false,
          "internalType": "uint256",
          "name": "etherAmount",
          "type": "uint256"
        }
      ],
      "name": "Fallback",
      "type": "event"
    },
    {
      "anonymous": false,
      "inputs": [
        {
          "indexed": false,
          "internalType": "uint256",
          "name": "etherAmount",
          "type": "uint256"
        }
      ],
      "name": "Receive",
      "type": "event"
    },
    {
      "stateMutability": "payable",
      "type": "fallback"
    },
    {
      "inputs": [],
      "name": "consumeGas",
      "outputs": [],
      "stateMutability": "nonpayable",
      "type": "function"
    },
    {
      "inputs": [
        {
          "internalType": "address",
          "name": "_account",
          "type": "address"
        }
      ],
      "name": "reciveEther",
      "outputs": [],
      "stateMutability": "payable",
      "type": "function"
    },
    {
      "stateMutability": "payable",
      "type": "receive"
    }
  ],
  "bytecode": "0x608060405234801561001057600080fd5b50610298806100206000396000f3fe60806040526004361061002d5760003560e01c806369f86ec8146100a4578063b96d3a94146100bb5761006b565b3661006b577f49b4c3f4344f33413322c03885f90f29e906bd8eb0cb2c3d815ee1ad2b3c989c346040516100619190610140565b60405180910390a1005b7f64f0a8d94341df43ecb15cf69dd85e667d17b7a3417ead8bfdc300daeba226093460405161009a9190610140565b60405180910390a1005b3480156100b057600080fd5b506100b96100d7565b005b6100d560048036038101906100d091906101be565b610124565b005b60005b606481101561012157600160008083815260200190815260200160002060006101000a81548160ff02191690831515021790555080806101199061021a565b9150506100da565b50565b50565b6000819050919050565b61013a81610127565b82525050565b60006020820190506101556000830184610131565b92915050565b600080fd5b600073ffffffffffffffffffffffffffffffffffffffff82169050919050565b600061018b82610160565b9050919050565b61019b81610180565b81146101a657600080fd5b50565b6000813590506101b881610192565b92915050565b6000602082840312156101d4576101d361015b565b5b60006101e2848285016101a9565b91505092915050565b7f4e487b7100000000000000000000000000000000000000000000000000000000600052601160045260246000fd5b600061022582610127565b91507fffffffffffffffffffffffffffffffffffffffffffffffffffffffffffffffff8203610257576102566101eb565b5b60018201905091905056fea2646970667358221220cbdeeceec667585ed00c34f1fda6d331b6cd1774ff6ca8550da0e4d4b672d9ed64736f6c63430008130033",
  "linkReferences": {},
  "deployedLinkReferences": {}
}