{
  "_format": "hh-sol-artifact-1",
  "contractName": "Sender",
  "sourceName": "contracts/class07/EnviaEther.sol",
  "abi": [
    {
      "inputs": [],
      "stateMutability": "payable",
      "type": "constructor"
    },
    {
      "inputs": [
        {
          "internalType": "address",
          "name": "_scAddress",
          "type": "address"
        },
        {
          "internalType": "uint256",
          "name": "_amount",
          "type": "uint256"
        }
      ],
      "name": "call",
      "outputs": [],
      "stateMutability": "nonpayable",
      "type": "function"
    },
    {
      "inputs": [
        {
          "internalType": "address",
          "name": "_scAddress",
          "type": "address"
        },
        {
          "internalType": "uint256",
          "name": "_amount",
          "type": "uint256"
        }
      ],
      "name": "callUsandoUnMetodoQueExiste",
      "outputs": [],
      "stateMutability": "nonpayable",
      "type": "function"
    },
    {
      "inputs": [
        {
          "internalType": "address",
          "name": "_scAddres",
          "type": "address"
        },
        {
          "internalType": "uint256",
          "name": "_amount",
          "type": "uint256"
        }
      ],
      "name": "send",
      "outputs": [],
      "stateMutability": "nonpayable",
      "type": "function"
    },
    {
      "inputs": [
        {
          "internalType": "address",
          "name": "_scAddres",
          "type": "address"
        },
        {
          "internalType": "uint256",
          "name": "_amount",
          "type": "uint256"
        }
      ],
      "name": "transfer",
      "outputs": [],
      "stateMutability": "nonpayable",
      "type": "function"
    }
  ],
  "bytecode": "0x6080604052610717806100136000396000f3fe608060405234801561001057600080fd5b506004361061004c5760003560e01c80633bd9ef2814610051578063a9059cbb1461006d578063af5471af14610089578063d0679d34146100a5575b600080fd5b61006b600480360381019061006691906104d2565b6100c1565b005b610087600480360381019061008291906104d2565b610178565b005b6100a3600480360381019061009e91906104d2565b6101c3565b005b6100bf60048036038101906100ba91906104d2565b610309565b005b60008273ffffffffffffffffffffffffffffffffffffffff1682624c4b40906040516100ec90610543565b600060405180830381858888f193505050503d806000811461012a576040519150601f19603f3d011682016040523d82523d6000602084013e61012f565b606091505b5050905080610173576040517f08c379a000000000000000000000000000000000000000000000000000000000815260040161016a906105b5565b60405180910390fd5b505050565b8173ffffffffffffffffffffffffffffffffffffffff166108fc829081150290604051600060405180830381858888f193505050501580156101be573d6000803e3d6000fd5b505050565b60008273ffffffffffffffffffffffffffffffffffffffff1682624c4b4090336040516024016101f391906105e4565b6040516020818303038152906040527fb96d3a94000000000000000000000000000000000000000000000000000000007bffffffffffffffffffffffffffffffffffffffffffffffffffffffff19166020820180517bffffffffffffffffffffffffffffffffffffffffffffffffffffffff838183161783525050505060405161027d9190610665565b600060405180830381858888f193505050503d80600081146102bb576040519150601f19603f3d011682016040523d82523d6000602084013e6102c0565b606091505b5050905080610304576040517f08c379a00000000000000000000000000000000000000000000000000000000081526004016102fb906105b5565b60405180910390fd5b505050565b60008273ffffffffffffffffffffffffffffffffffffffff166108fc839081150290604051600060405180830381858888f19350505050905061034b81610350565b505050565b6103e6816040516024016103649190610697565b6040516020818303038152906040527f32458eed000000000000000000000000000000000000000000000000000000007bffffffffffffffffffffffffffffffffffffffffffffffffffffffff19166020820180517bffffffffffffffffffffffffffffffffffffffffffffffffffffffff83818316178352505050506103e9565b50565b610400816103f8610403610424565b63ffffffff16565b50565b60006a636f6e736f6c652e6c6f679050600080835160208501845afa505050565b61042f819050919050565b6104376106b2565b565b600080fd5b600073ffffffffffffffffffffffffffffffffffffffff82169050919050565b60006104698261043e565b9050919050565b6104798161045e565b811461048457600080fd5b50565b60008135905061049681610470565b92915050565b6000819050919050565b6104af8161049c565b81146104ba57600080fd5b50565b6000813590506104cc816104a6565b92915050565b600080604083850312156104e9576104e8610439565b5b60006104f785828601610487565b9250506020610508858286016104bd565b9150509250929050565b600081905092915050565b50565b600061052d600083610512565b91506105388261051d565b600082019050919050565b600061054e82610520565b9150819050919050565b600082825260208201905092915050565b7f46616c6c6f206c61207472616e73666572656e63696100000000000000000000600082015250565b600061059f601683610558565b91506105aa82610569565b602082019050919050565b600060208201905081810360008301526105ce81610592565b9050919050565b6105de8161045e565b82525050565b60006020820190506105f960008301846105d5565b92915050565b600081519050919050565b60005b8381101561062857808201518184015260208101905061060d565b60008484015250505050565b600061063f826105ff565b6106498185610512565b935061065981856020860161060a565b80840191505092915050565b60006106718284610634565b915081905092915050565b60008115159050919050565b6106918161067c565b82525050565b60006020820190506106ac6000830184610688565b92915050565b7f4e487b7100000000000000000000000000000000000000000000000000000000600052605160045260246000fdfea26469706673582212207090b2fee58b128985615df8eed5563290e10bdb7b3d3ce77f3e0993cfd8b31264736f6c63430008130033",
  "linkReferences": {},
  "deployedLinkReferences": {}
}