{
  "_format": "hh-sol-artifact-1",
  "contractName": "ObtenerSelector",
  "sourceName": "contracts/class08/Selector.sol",
  "abi": [
    {
      "inputs": [],
      "name": "getSelector",
      "outputs": [
        {
          "internalType": "bytes4",
          "name": "",
          "type": "bytes4"
        }
      ],
      "stateMutability": "pure",
      "type": "function"
    },
    {
      "inputs": [],
      "name": "getSelectorManual",
      "outputs": [
        {
          "internalType": "bytes4",
          "name": "",
          "type": "bytes4"
        }
      ],
      "stateMutability": "pure",
      "type": "function"
    }
  ],
  "bytecode": "0x608060405234801561001057600080fd5b5061012a806100206000396000f3fe6080604052348015600f57600080fd5b506004361060325760003560e01c8063034899bc14603757806356570724146051575b600080fd5b603d606b565b6040516048919060db565b60405180910390f35b6057607a565b6040516062919060db565b60405180910390f35b6000632160683160e01b905090565b60007f21606831cff9e02a36879121b90daa10ae1ecfcb18b21e80a8c26ab7420b287c905090565b60007fffffffff0000000000000000000000000000000000000000000000000000000082169050919050565b60d58160a2565b82525050565b600060208201905060ee600083018460ce565b9291505056fea264697066735822122036bb487d9f9bc3316238bdba9a11beeedb043b5a48038764c6cf7762d98835a864736f6c63430008130033",
  "linkReferences": {},
  "deployedLinkReferences": {}
}