{
  "_format": "hh-sol-artifact-1",
  "contractName": "LiquidityProvider",
  "sourceName": "contracts/class14/LiquidityProvider.sol",
  "abi": [
    {
      "anonymous": false,
      "inputs": [
        {
          "indexed": false,
          "internalType": "uint256",
          "name": "amountA",
          "type": "uint256"
        },
        {
          "indexed": false,
          "internalType": "uint256",
          "name": "amountB",
          "type": "uint256"
        },
        {
          "indexed": false,
          "internalType": "uint256",
          "name": "amountLpTokens",
          "type": "uint256"
        }
      ],
      "name": "LiquidityAddres",
      "type": "event"
    },
    {
      "inputs": [
        {
          "internalType": "address",
          "name": "_tokenA",
          "type": "address"
        },
        {
          "internalType": "address",
          "name": "_tokenB",
          "type": "address"
        },
        {
          "internalType": "uint256",
          "name": "_amountADesired",
          "type": "uint256"
        },
        {
          "internalType": "uint256",
          "name": "_amountBDesired",
          "type": "uint256"
        },
        {
          "internalType": "uint256",
          "name": "_amountAMin",
          "type": "uint256"
        },
        {
          "internalType": "uint256",
          "name": "_amountBMin",
          "type": "uint256"
        },
        {
          "internalType": "address",
          "name": "_to",
          "type": "address"
        },
        {
          "internalType": "uint256",
          "name": "_deadline",
          "type": "uint256"
        }
      ],
      "name": "addLiquidity",
      "outputs": [],
      "stateMutability": "nonpayable",
      "type": "function"
    },
    {
      "inputs": [
        {
          "internalType": "address",
          "name": "_tokenA",
          "type": "address"
        },
        {
          "internalType": "address",
          "name": "_tokenB",
          "type": "address"
        }
      ],
      "name": "getPair",
      "outputs": [
        {
          "internalType": "address",
          "name": "",
          "type": "address"
        }
      ],
      "stateMutability": "view",
      "type": "function"
    }
  ],
  "bytecode": "0x6080604052737a250d5630b4cf539739df2c5dacb4c659f2488d6000806101000a81548173ffffffffffffffffffffffffffffffffffffffff021916908373ffffffffffffffffffffffffffffffffffffffff16021790555060008054906101000a900473ffffffffffffffffffffffffffffffffffffffff16600160006101000a81548173ffffffffffffffffffffffffffffffffffffffff021916908373ffffffffffffffffffffffffffffffffffffffff160217905550735c69bee701ef814a2b6a3edd4b1652cb9cc5aa6f600260006101000a81548173ffffffffffffffffffffffffffffffffffffffff021916908373ffffffffffffffffffffffffffffffffffffffff160217905550600260009054906101000a900473ffffffffffffffffffffffffffffffffffffffff16600360006101000a81548173ffffffffffffffffffffffffffffffffffffffff021916908373ffffffffffffffffffffffffffffffffffffffff1602179055507301185f9a96e58c70fa152718f2c0d559353373e9600460006101000a81548173ffffffffffffffffffffffffffffffffffffffff021916908373ffffffffffffffffffffffffffffffffffffffff16021790555073ffe493809d95c9982c8758ad294197bf5253edc6600560006101000a81548173ffffffffffffffffffffffffffffffffffffffff021916908373ffffffffffffffffffffffffffffffffffffffff16021790555034801561022757600080fd5b506107ca806102376000396000f3fe608060405234801561001057600080fd5b50600436106100365760003560e01c8063e6a439051461003b578063e8e337001461006b575b600080fd5b61005560048036038101906100509190610419565b610087565b6040516100629190610468565b60405180910390f35b610085600480360381019061008091906104b9565b61012f565b005b6000600360009054906101000a900473ffffffffffffffffffffffffffffffffffffffff1673ffffffffffffffffffffffffffffffffffffffff1663e6a4390584846040518363ffffffff1660e01b81526004016100e692919061056f565b602060405180830381865afa158015610103573d6000803e3d6000fd5b505050506040513d601f19601f8201168201806040525081019061012791906105ad565b905092915050565b600460009054906101000a900473ffffffffffffffffffffffffffffffffffffffff1673ffffffffffffffffffffffffffffffffffffffff1663095ea7b360008054906101000a900473ffffffffffffffffffffffffffffffffffffffff16886040518363ffffffff1660e01b81526004016101ac9291906105e9565b6020604051808303816000875af11580156101cb573d6000803e3d6000fd5b505050506040513d601f19601f820116820180604052508101906101ef919061064a565b50600560009054906101000a900473ffffffffffffffffffffffffffffffffffffffff1673ffffffffffffffffffffffffffffffffffffffff1663095ea7b360008054906101000a900473ffffffffffffffffffffffffffffffffffffffff16876040518363ffffffff1660e01b815260040161026d9291906105e9565b6020604051808303816000875af115801561028c573d6000803e3d6000fd5b505050506040513d601f19601f820116820180604052508101906102b0919061064a565b506000806000600160009054906101000a900473ffffffffffffffffffffffffffffffffffffffff1673ffffffffffffffffffffffffffffffffffffffff1663e8e337008c8c8c8c8c8c8c8c6040518963ffffffff1660e01b815260040161031f989796959493929190610677565b6060604051808303816000875af115801561033e573d6000803e3d6000fd5b505050506040513d601f19601f82011682018060405250810190610362919061070a565b8093508194508295505050507f40ed0ce19ab25e1f8905106b399226fc0c572bf4ba96b59e173dfba688796c8d8383836040516103a19392919061075d565b60405180910390a15050505050505050505050565b600080fd5b600073ffffffffffffffffffffffffffffffffffffffff82169050919050565b60006103e6826103bb565b9050919050565b6103f6816103db565b811461040157600080fd5b50565b600081359050610413816103ed565b92915050565b600080604083850312156104305761042f6103b6565b5b600061043e85828601610404565b925050602061044f85828601610404565b9150509250929050565b610462816103db565b82525050565b600060208201905061047d6000830184610459565b92915050565b6000819050919050565b61049681610483565b81146104a157600080fd5b50565b6000813590506104b38161048d565b92915050565b600080600080600080600080610100898b0312156104da576104d96103b6565b5b60006104e88b828c01610404565b98505060206104f98b828c01610404565b975050604061050a8b828c016104a4565b965050606061051b8b828c016104a4565b955050608061052c8b828c016104a4565b94505060a061053d8b828c016104a4565b93505060c061054e8b828c01610404565b92505060e061055f8b828c016104a4565b9150509295985092959890939650565b60006040820190506105846000830185610459565b6105916020830184610459565b9392505050565b6000815190506105a7816103ed565b92915050565b6000602082840312156105c3576105c26103b6565b5b60006105d184828501610598565b91505092915050565b6105e381610483565b82525050565b60006040820190506105fe6000830185610459565b61060b60208301846105da565b9392505050565b60008115159050919050565b61062781610612565b811461063257600080fd5b50565b6000815190506106448161061e565b92915050565b6000602082840312156106605761065f6103b6565b5b600061066e84828501610635565b91505092915050565b60006101008201905061068d600083018b610459565b61069a602083018a610459565b6106a760408301896105da565b6106b460608301886105da565b6106c160808301876105da565b6106ce60a08301866105da565b6106db60c0830185610459565b6106e860e08301846105da565b9998505050505050505050565b6000815190506107048161048d565b92915050565b600080600060608486031215610723576107226103b6565b5b6000610731868287016106f5565b9350506020610742868287016106f5565b9250506040610753868287016106f5565b9150509250925092565b600060608201905061077260008301866105da565b61077f60208301856105da565b61078c60408301846105da565b94935050505056fea26469706673582212201891593ae67b6a378f110ea6fbc606da548b17d4a035834114b3cacf00aba04664736f6c63430008130033",
  "linkReferences": {},
  "deployedLinkReferences": {}
}