{
  "_format": "hh-sol-artifact-1",
  "contractName": "Eleccion",
  "sourceName": "contracts/class07/Interface.sol",
  "abi": [
    {
      "inputs": [],
      "name": "consultarConteo",
      "outputs": [],
      "stateMutability": "view",
      "type": "function"
    },
    {
      "inputs": [
        {
          "internalType": "uint256",
          "name": "candidato",
          "type": "uint256"
        }
      ],
      "name": "votar",
      "outputs": [],
      "stateMutability": "nonpayable",
      "type": "function"
    },
    {
      "inputs": [
        {
          "internalType": "uint256",
          "name": "candidato",
          "type": "uint256"
        }
      ],
      "name": "votos",
      "outputs": [
        {
          "internalType": "uint256",
          "name": "voto",
          "type": "uint256"
        }
      ],
      "stateMutability": "view",
      "type": "function"
    }
  ],
  "bytecode": "0x608060405234801561001057600080fd5b50610220806100206000396000f3fe608060405234801561001057600080fd5b50600436106100415760003560e01c80632160683114610046578063640fe51714610062578063b2731f0e1461006c575b600080fd5b610060600480360381019061005b919061011c565b61009c565b005b61006a6100c7565b005b6100866004803603810190610081919061011c565b6100c9565b6040516100939190610158565b60405180910390f35b60008082815260200190815260200160002060008154809291906100bf906101a2565b919050555050565b565b60006020528060005260406000206000915090505481565b600080fd5b6000819050919050565b6100f9816100e6565b811461010457600080fd5b50565b600081359050610116816100f0565b92915050565b600060208284031215610132576101316100e1565b5b600061014084828501610107565b91505092915050565b610152816100e6565b82525050565b600060208201905061016d6000830184610149565b92915050565b7f4e487b7100000000000000000000000000000000000000000000000000000000600052601160045260246000fd5b60006101ad826100e6565b91507fffffffffffffffffffffffffffffffffffffffffffffffffffffffffffffffff82036101df576101de610173565b5b60018201905091905056fea26469706673582212209697a8e9703cce7c769a070e97cd02929a9fbd29e49de42e8710f2c49313fcdf64736f6c63430008130033",
  "linkReferences": {},
  "deployedLinkReferences": {}
}