{
  "_format": "hh-sol-artifact-1",
  "contractName": "Votante",
  "sourceName": "contracts/class07/Interface.sol",
  "abi": [
    {
      "inputs": [],
      "name": "consultarConteoGeneral",
      "outputs": [],
      "stateMutability": "nonpayable",
      "type": "function"
    },
    {
      "inputs": [],
      "name": "votarComoVotante",
      "outputs": [],
      "stateMutability": "nonpayable",
      "type": "function"
    }
  ],
  "bytecode": "0x608060405273df9d0c45d97f134151a386e0aa23b09ca903c13f6000806101000a81548173ffffffffffffffffffffffffffffffffffffffff021916908373ffffffffffffffffffffffffffffffffffffffff16021790555034801561006457600080fd5b5061017f806100746000396000f3fe608060405234801561001057600080fd5b50600436106100365760003560e01c80631e0178681461003b578063ca8d0ec614610045575b600080fd5b61004361004f565b005b61004d610051565b005b565b60008054906101000a900473ffffffffffffffffffffffffffffffffffffffff1673ffffffffffffffffffffffffffffffffffffffff16632160683160646040518263ffffffff1660e01b81526004016100ab919061012e565b600060405180830381600087803b1580156100c557600080fd5b505af11580156100d9573d6000803e3d6000fd5b50505050565b6000819050919050565b6000819050919050565b6000819050919050565b600061011861011361010e846100df565b6100f3565b6100e9565b9050919050565b610128816100fd565b82525050565b6000602082019050610143600083018461011f565b9291505056fea26469706673582212209702aae8a745143426f3972485f47f297e4ca6aaa77b8f6c4714e8e0e547983d64736f6c63430008130033",
  "linkReferences": {},
  "deployedLinkReferences": {}
}