{
  "_format": "hh-sol-artifact-1",
  "contractName": "Attacker",
  "sourceName": "contracts/desafios/Desafio_5.sol",
  "abi": [
    {
      "inputs": [
        {
          "internalType": "address",
          "name": "_tokenTrucoAddress",
          "type": "address"
        }
      ],
      "stateMutability": "nonpayable",
      "type": "constructor"
    },
    {
      "inputs": [],
      "name": "ejecutarAtaque",
      "outputs": [],
      "stateMutability": "nonpayable",
      "type": "function"
    },
    {
      "inputs": [],
      "name": "tokenTruco",
      "outputs": [
        {
          "internalType": "contract ITokenTruco",
          "name": "",
          "type": "address"
        }
      ],
      "stateMutability": "view",
      "type": "function"
    }
  ],
  "bytecode": "0x608060405234801561001057600080fd5b50604051610270380380610270833981810160405281019061003291906100db565b806000806101000a81548173ffffffffffffffffffffffffffffffffffffffff021916908373ffffffffffffffffffffffffffffffffffffffff16021790555050610108565b600080fd5b600073ffffffffffffffffffffffffffffffffffffffff82169050919050565b60006100a88261007d565b9050919050565b6100b88161009d565b81146100c357600080fd5b50565b6000815190506100d5816100af565b92915050565b6000602082840312156100f1576100f0610078565b5b60006100ff848285016100c6565b91505092915050565b610159806101176000396000f3fe608060405234801561001057600080fd5b50600436106100365760003560e01c80631ed751161461003b5780638aa3e3ca14610059575b600080fd5b610043610063565b6040516100509190610108565b60405180910390f35b610061610087565b005b60008054906101000a900473ffffffffffffffffffffffffffffffffffffffff1681565b565b600073ffffffffffffffffffffffffffffffffffffffff82169050919050565b6000819050919050565b60006100ce6100c96100c484610089565b6100a9565b610089565b9050919050565b60006100e0826100b3565b9050919050565b60006100f2826100d5565b9050919050565b610102816100e7565b82525050565b600060208201905061011d60008301846100f9565b9291505056fea26469706673582212205c32475d411f0b9f624acf361a7eb41f1de3676daac163633f9349421e142df864736f6c63430008130033",
  "linkReferences": {},
  "deployedLinkReferences": {}
}