{
  "_format": "hh-sol-artifact-1",
  "contractName": "NumeroRandom",
  "sourceName": "contracts/desafios/Desafio_5.sol",
  "abi": [
    {
      "inputs": [],
      "name": "montoAleatorio",
      "outputs": [
        {
          "internalType": "uint256",
          "name": "",
          "type": "uint256"
        }
      ],
      "stateMutability": "view",
      "type": "function"
    }
  ],
  "bytecode": "0x608060405234801561001057600080fd5b5061028f806100206000396000f3fe608060405234801561001057600080fd5b506004361061002b5760003560e01c80635286928114610030575b600080fd5b61003861004e565b60405161004591906100b4565b60405180910390f35b60006001620f4240423360405160200161006992919061016a565b6040516020818303038152906040528051906020012060001c61008c91906101c5565b6100969190610225565b905090565b6000819050919050565b6100ae8161009b565b82525050565b60006020820190506100c960008301846100a5565b92915050565b6000819050919050565b6100ea6100e58261009b565b6100cf565b82525050565b600073ffffffffffffffffffffffffffffffffffffffff82169050919050565b600061011b826100f0565b9050919050565b60008160601b9050919050565b600061013a82610122565b9050919050565b600061014c8261012f565b9050919050565b61016461015f82610110565b610141565b82525050565b600061017682856100d9565b6020820191506101868284610153565b6014820191508190509392505050565b7f4e487b7100000000000000000000000000000000000000000000000000000000600052601260045260246000fd5b60006101d08261009b565b91506101db8361009b565b9250826101eb576101ea610196565b5b828206905092915050565b7f4e487b7100000000000000000000000000000000000000000000000000000000600052601160045260246000fd5b60006102308261009b565b915061023b8361009b565b9250828201905080821115610253576102526101f6565b5b9291505056fea264697066735822122071c87faa55a3bce6a0cb793ee890a6283840e94db840654a3f120b2a276c7d1664736f6c63430008130033",
  "linkReferences": {},
  "deployedLinkReferences": {}
}