{
  "_format": "hh-sol-artifact-1",
  "contractName": "TokenTruco",
  "sourceName": "contracts/desafios/Desafio_5.sol",
  "abi": [
    {
      "inputs": [],
      "stateMutability": "nonpayable",
      "type": "constructor"
    },
    {
      "inputs": [],
      "name": "addToWhitelist",
      "outputs": [],
      "stateMutability": "nonpayable",
      "type": "function"
    },
    {
      "inputs": [
        {
          "internalType": "address",
          "name": "",
          "type": "address"
        }
      ],
      "name": "balances",
      "outputs": [
        {
          "internalType": "uint256",
          "name": "",
          "type": "uint256"
        }
      ],
      "stateMutability": "view",
      "type": "function"
    },
    {
      "inputs": [
        {
          "internalType": "address",
          "name": "_from",
          "type": "address"
        },
        {
          "internalType": "uint256",
          "name": "_amount",
          "type": "uint256"
        }
      ],
      "name": "burn",
      "outputs": [],
      "stateMutability": "nonpayable",
      "type": "function"
    },
    {
      "inputs": [],
      "name": "montoAleatorio",
      "outputs": [
        {
          "internalType": "uint256",
          "name": "",
          "type": "uint256"
        }
      ],
      "stateMutability": "view",
      "type": "function"
    },
    {
      "inputs": [],
      "name": "owner",
      "outputs": [
        {
          "internalType": "address",
          "name": "",
          "type": "address"
        }
      ],
      "stateMutability": "view",
      "type": "function"
    },
    {
      "inputs": [
        {
          "internalType": "address",
          "name": "_from",
          "type": "address"
        },
        {
          "internalType": "address",
          "name": "_to",
          "type": "address"
        },
        {
          "internalType": "uint256",
          "name": "_amount",
          "type": "uint256"
        }
      ],
      "name": "transferFrom",
      "outputs": [],
      "stateMutability": "nonpayable",
      "type": "function"
    },
    {
      "inputs": [
        {
          "internalType": "address",
          "name": "",
          "type": "address"
        }
      ],
      "name": "whitelist",
      "outputs": [
        {
          "internalType": "bool",
          "name": "",
          "type": "bool"
        }
      ],
      "stateMutability": "view",
      "type": "function"
    }
  ],
  "bytecode": "0x608060405234801561001057600080fd5b5033600160006101000a81548173ffffffffffffffffffffffffffffffffffffffff021916908373ffffffffffffffffffffffffffffffffffffffff160217905550620f4240600260003373ffffffffffffffffffffffffffffffffffffffff1673ffffffffffffffffffffffffffffffffffffffff1681526020019081526020016000208190555061077c806100a86000396000f3fe608060405234801561001057600080fd5b506004361061007d5760003560e01c8063598963661161005b57806359896366146100ec5780638da5cb5b146100f65780639b19251a146101145780639dc29fac146101445761007d565b806323b872dd1461008257806327e235e31461009e57806352869281146100ce575b600080fd5b61009c60048036038101906100979190610470565b610160565b005b6100b860048036038101906100b391906104c3565b610211565b6040516100c591906104ff565b60405180910390f35b6100d6610229565b6040516100e391906104ff565b60405180910390f35b6100f4610276565b005b6100fe610281565b60405161010b9190610529565b60405180910390f35b61012e600480360381019061012991906104c3565b6102a7565b60405161013b919061055f565b60405180910390f35b61015e6004803603810190610159919061057a565b6102c7565b005b80600260008573ffffffffffffffffffffffffffffffffffffffff1673ffffffffffffffffffffffffffffffffffffffff16815260200190815260200160002060008282546101af91906105e9565b9250508190555080600260008473ffffffffffffffffffffffffffffffffffffffff1673ffffffffffffffffffffffffffffffffffffffff1681526020019081526020016000206000828254610205919061061d565b92505081905550505050565b60026020528060005260406000206000915090505481565b60006001620f424042336040516020016102449291906106ba565b6040516020818303038152906040528051906020012060001c6102679190610715565b610271919061061d565b905090565b61027f3361037d565b565b600160009054906101000a900473ffffffffffffffffffffffffffffffffffffffff1681565b60006020528060005260406000206000915054906101000a900460ff1681565b600115156000803373ffffffffffffffffffffffffffffffffffffffff1673ffffffffffffffffffffffffffffffffffffffff16815260200190815260200160002060009054906101000a900460ff1615151461032357600080fd5b80600260008473ffffffffffffffffffffffffffffffffffffffff1673ffffffffffffffffffffffffffffffffffffffff168152602001908152602001600020600082825461037291906105e9565b925050819055505050565b60016000808373ffffffffffffffffffffffffffffffffffffffff1673ffffffffffffffffffffffffffffffffffffffff16815260200190815260200160002060006101000a81548160ff02191690831515021790555050565b600080fd5b600073ffffffffffffffffffffffffffffffffffffffff82169050919050565b6000610407826103dc565b9050919050565b610417816103fc565b811461042257600080fd5b50565b6000813590506104348161040e565b92915050565b6000819050919050565b61044d8161043a565b811461045857600080fd5b50565b60008135905061046a81610444565b92915050565b600080600060608486031215610489576104886103d7565b5b600061049786828701610425565b93505060206104a886828701610425565b92505060406104b98682870161045b565b9150509250925092565b6000602082840312156104d9576104d86103d7565b5b60006104e784828501610425565b91505092915050565b6104f98161043a565b82525050565b600060208201905061051460008301846104f0565b92915050565b610523816103fc565b82525050565b600060208201905061053e600083018461051a565b92915050565b60008115159050919050565b61055981610544565b82525050565b60006020820190506105746000830184610550565b92915050565b60008060408385031215610591576105906103d7565b5b600061059f85828601610425565b92505060206105b08582860161045b565b9150509250929050565b7f4e487b7100000000000000000000000000000000000000000000000000000000600052601160045260246000fd5b60006105f48261043a565b91506105ff8361043a565b9250828203905081811115610617576106166105ba565b5b92915050565b60006106288261043a565b91506106338361043a565b925082820190508082111561064b5761064a6105ba565b5b92915050565b6000819050919050565b61066c6106678261043a565b610651565b82525050565b60008160601b9050919050565b600061068a82610672565b9050919050565b600061069c8261067f565b9050919050565b6106b46106af826103fc565b610691565b82525050565b60006106c6828561065b565b6020820191506106d682846106a3565b6014820191508190509392505050565b7f4e487b7100000000000000000000000000000000000000000000000000000000600052601260045260246000fd5b60006107208261043a565b915061072b8361043a565b92508261073b5761073a6106e6565b5b82820690509291505056fea2646970667358221220378e5c334871e9f6f195611879df062723a0798169c3f147bb354896c0f43ff964736f6c63430008130033",
  "linkReferences": {},
  "deployedLinkReferences": {}
}