{
  "_format": "hh-sol-artifact-1",
  "contractName": "Whitelist",
  "sourceName": "contracts/desafios/Desafio_5.sol",
  "abi": [
    {
      "inputs": [
        {
          "internalType": "address",
          "name": "",
          "type": "address"
        }
      ],
      "name": "whitelist",
      "outputs": [
        {
          "internalType": "bool",
          "name": "",
          "type": "bool"
        }
      ],
      "stateMutability": "view",
      "type": "function"
    }
  ],
  "bytecode": "0x608060405234801561001057600080fd5b5061017c806100206000396000f3fe608060405234801561001057600080fd5b506004361061002b5760003560e01c80639b19251a14610030575b600080fd5b61004a600480360381019061004591906100e3565b610060565b604051610057919061012b565b60405180910390f35b60006020528060005260406000206000915054906101000a900460ff1681565b600080fd5b600073ffffffffffffffffffffffffffffffffffffffff82169050919050565b60006100b082610085565b9050919050565b6100c0816100a5565b81146100cb57600080fd5b50565b6000813590506100dd816100b7565b92915050565b6000602082840312156100f9576100f8610080565b5b6000610107848285016100ce565b91505092915050565b60008115159050919050565b61012581610110565b82525050565b6000602082019050610140600083018461011c565b9291505056fea26469706673582212208c5c109ee911edcce65e2c6f6ee057f38ef16dd6d3bcc0ac3ecaf4da9e1eb06464736f6c63430008130033",
  "linkReferences": {},
  "deployedLinkReferences": {}
}