{
  "_format": "hh-sol-artifact-1",
  "contractName": "ReceiveAndFallBackExercise",
  "sourceName": "contracts/class08/EjercicioEther.sol",
  "abi": [
    {
      "anonymous": false,
      "inputs": [],
      "name": "Fallback",
      "type": "event"
    },
    {
      "anonymous": false,
      "inputs": [],
      "name": "MetodoExiste",
      "type": "event"
    },
    {
      "anonymous": false,
      "inputs": [],
      "name": "Receive",
      "type": "event"
    },
    {
      "stateMutability": "payable",
      "type": "fallback"
    },
    {
      "inputs": [],
      "name": "metodoConPayable",
      "outputs": [],
      "stateMutability": "payable",
      "type": "function"
    },
    {
      "inputs": [
        {
          "internalType": "address",
          "name": "",
          "type": "address"
        }
      ],
      "name": "metodoQueRecibeEther",
      "outputs": [],
      "stateMutability": "payable",
      "type": "function"
    },
    {
      "stateMutability": "payable",
      "type": "receive"
    }
  ],
  "bytecode": "0x608060405234801561001057600080fd5b506102a4806100206000396000f3fe60806040526004361061002d5760003560e01c8063124675f81461008e578063550b16be1461009857610060565b36610060577f9f1b3bad61172afd7ac57ee5c5873e1c8fad6c4b8e0fe408853ffbd909aaa83060405160405180910390a1005b7f52b4643cca14f009d3eef2bb2517ebc5918c9152c5038af8258985bdd6ca258060405160405180910390a1005b6100966100b4565b005b6100b260048036038101906100ad91906101d4565b610142565b005b600034031561014057670de0b6b3a764000034031561013f57670de0b6b3a764000034111561013e576000670de0b6b3a7640000346100f3919061023a565b90503373ffffffffffffffffffffffffffffffffffffffff166108fc829081150290604051600060405180830381858888f1935050505015801561013b573d6000803e3d6000fd5b50505b5b5b565b7f4503d9ecbf041a047732986ebd0dc4625859e8f1a2d3d96a9b756da5f7b80e2760405160405180910390a150565b600080fd5b600073ffffffffffffffffffffffffffffffffffffffff82169050919050565b60006101a182610176565b9050919050565b6101b181610196565b81146101bc57600080fd5b50565b6000813590506101ce816101a8565b92915050565b6000602082840312156101ea576101e9610171565b5b60006101f8848285016101bf565b91505092915050565b6000819050919050565b7f4e487b7100000000000000000000000000000000000000000000000000000000600052601160045260246000fd5b600061024582610201565b915061025083610201565b92508282039050818111156102685761026761020b565b5b9291505056fea2646970667358221220157bd7910fd3228e455a51aac2831bdf572e561277fe403a718565b9c449f9c364736f6c63430008130033",
  "linkReferences": {},
  "deployedLinkReferences": {}
}