{
  "_format": "hh-sol-artifact-1",
  "contractName": "SenderExercise",
  "sourceName": "contracts/class08/EjercicioEther.sol",
  "abi": [
    {
      "inputs": [],
      "stateMutability": "payable",
      "type": "constructor"
    },
    {
      "inputs": [],
      "name": "disaparandoFallback",
      "outputs": [],
      "stateMutability": "nonpayable",
      "type": "function"
    },
    {
      "inputs": [],
      "name": "disparandoOtroMetodo",
      "outputs": [],
      "stateMutability": "nonpayable",
      "type": "function"
    },
    {
      "inputs": [],
      "name": "disparandoReceive",
      "outputs": [],
      "stateMutability": "nonpayable",
      "type": "function"
    },
    {
      "inputs": [],
      "name": "retornarAbi",
      "outputs": [
        {
          "internalType": "bytes",
          "name": "",
          "type": "bytes"
        }
      ],
      "stateMutability": "view",
      "type": "function"
    }
  ],
  "bytecode": "0x608060405273f8e81d47203a594245e36c48e151709f0c19fbe86000806101000a81548173ffffffffffffffffffffffffffffffffffffffff021916908373ffffffffffffffffffffffffffffffffffffffff16021790555061067e806100676000396000f3fe608060405234801561001057600080fd5b506004361061004c5760003560e01c80631d3de7111461005157806375b8ec2b1461006f57806376e91f251461007957806383b923ec14610083575b600080fd5b61005961008d565b604051610066919061048a565b60405180910390f35b610077610122565b005b610081610253565b005b61008b610389565b005b6060336040516024016100a091906104ed565b6040516020818303038152906040527f550b16be000000000000000000000000000000000000000000000000000000007bffffffffffffffffffffffffffffffffffffffffffffffffffffffff19166020820180517bffffffffffffffffffffffffffffffffffffffffffffffffffffffff8381831617835250505050905090565b60008060009054906101000a900473ffffffffffffffffffffffffffffffffffffffff1673ffffffffffffffffffffffffffffffffffffffff16670de0b6b3a76400003360405160240161017691906104ed565b6040516020818303038152906040527f550b16be000000000000000000000000000000000000000000000000000000007bffffffffffffffffffffffffffffffffffffffffffffffffffffffff19166020820180517bffffffffffffffffffffffffffffffffffffffffffffffffffffffff83818316178352505050506040516102009190610544565b60006040518083038185875af1925050503d806000811461023d576040519150601f19603f3d011682016040523d82523d6000602084013e610242565b606091505b505090508061025057600080fd5b50565b60008060009054906101000a900473ffffffffffffffffffffffffffffffffffffffff1673ffffffffffffffffffffffffffffffffffffffff16670de0b6b3a7640000336201e0f36040516024016102ac92919061060c565b6040516020818303038152906040527f9056456e000000000000000000000000000000000000000000000000000000007bffffffffffffffffffffffffffffffffffffffffffffffffffffffff19166020820180517bffffffffffffffffffffffffffffffffffffffffffffffffffffffff83818316178352505050506040516103369190610544565b60006040518083038185875af1925050503d8060008114610373576040519150601f19603f3d011682016040523d82523d6000602084013e610378565b606091505b505090508061038657600080fd5b50565b60008054906101000a900473ffffffffffffffffffffffffffffffffffffffff1673ffffffffffffffffffffffffffffffffffffffff166108fc670de0b6b3a76400009081150290604051600060405180830381858888f193505050501580156103f7573d6000803e3d6000fd5b50565b600081519050919050565b600082825260208201905092915050565b60005b83811015610434578082015181840152602081019050610419565b60008484015250505050565b6000601f19601f8301169050919050565b600061045c826103fa565b6104668185610405565b9350610476818560208601610416565b61047f81610440565b840191505092915050565b600060208201905081810360008301526104a48184610451565b905092915050565b600073ffffffffffffffffffffffffffffffffffffffff82169050919050565b60006104d7826104ac565b9050919050565b6104e7816104cc565b82525050565b600060208201905061050260008301846104de565b92915050565b600081905092915050565b600061051e826103fa565b6105288185610508565b9350610538818560208601610416565b80840191505092915050565b60006105508284610513565b915081905092915050565b6000819050919050565b600062ffffff82169050919050565b6000819050919050565b600061059961059461058f8461055b565b610574565b610565565b9050919050565b6105a98161057e565b82525050565b600082825260208201905092915050565b7f48656c6c6f000000000000000000000000000000000000000000000000000000600082015250565b60006105f66005836105af565b9150610601826105c0565b602082019050919050565b600060608201905061062160008301856104de565b61062e60208301846105a0565b818103604083015261063f816105e9565b9050939250505056fea26469706673582212206a8f26167165dd2e7ff3be0200bc435fbbfb4dc112044a396095a24cc4b5c1ad64736f6c63430008130033",
  "linkReferences": {},
  "deployedLinkReferences": {}
}