{
  "_format": "hh-sol-artifact-1",
  "contractName": "ArrayLiterals",
  "sourceName": "contracts/class05/ArrayLiteral.sol",
  "abi": [
    {
      "inputs": [
        {
          "internalType": "uint256",
          "name": "",
          "type": "uint256"
        }
      ],
      "name": "arrayDinamico",
      "outputs": [
        {
          "internalType": "uint256",
          "name": "",
          "type": "uint256"
        }
      ],
      "stateMutability": "view",
      "type": "function"
    },
    {
      "inputs": [
        {
          "internalType": "uint256",
          "name": "",
          "type": "uint256"
        }
      ],
      "name": "arrayFijo",
      "outputs": [
        {
          "internalType": "uint256",
          "name": "",
          "type": "uint256"
        }
      ],
      "stateMutability": "view",
      "type": "function"
    },
    {
      "inputs": [
        {
          "internalType": "uint256",
          "name": "",
          "type": "uint256"
        }
      ],
      "name": "arrayNumerosNegativos",
      "outputs": [
        {
          "internalType": "int8",
          "name": "",
          "type": "int8"
        }
      ],
      "stateMutability": "view",
      "type": "function"
    },
    {
      "inputs": [],
      "name": "crearArrayLiteralEnMemory",
      "outputs": [],
      "stateMutability": "pure",
      "type": "function"
    }
  ],
  "bytecode": "0x60806040526040518060a00160405280600160ff168152602001600260ff168152602001600360ff168152602001600460ff168152602001600560ff16815250600090600561004f9291906100fe565b506040518060a00160405280600160ff168152602001600260ff168152602001600360ff168152602001600460ff168152602001600560ff16815250600190600561009b929190610150565b506040518060400160405280600160000b60000b81526020017fffffffffffffffffffffffffffffffffffffffffffffffffffffffffffffffff60000b81525060069060026100eb929190610195565b503480156100f857600080fd5b5061024f565b82805482825590600052602060002090810192821561013f579160200282015b8281111561013e578251829060ff1690559160200191906001019061011e565b5b50905061014c9190610232565b5090565b8260058101928215610184579160200282015b82811115610183578251829060ff16905591602001919060010190610163565b5b5090506101919190610232565b5090565b826002601f016020900481019282156102215791602002820160005b838211156101f257835183826101000a81548160ff021916908360000b60ff16021790555092602001926001016020816000010492830192600103026101b1565b801561021f5782816101000a81549060ff02191690556001016020816000010492830192600103026101f2565b505b50905061022e9190610232565b5090565b5b8082111561024b576000816000905550600101610233565b5090565b6102818061025e6000396000f3fe608060405234801561001057600080fd5b506004361061004c5760003560e01c8063369d0dcc146100515780636bf7728014610081578063bdbb7d611461008b578063ef3aaeec146100bb575b600080fd5b61006b600480360381019061006691906101bd565b6100eb565b60405161007891906101f9565b60405180910390f35b610089610106565b005b6100a560048036038101906100a091906101bd565b610134565b6040516100b29190610230565b60405180910390f35b6100d560048036038101906100d091906101bd565b61015e565b6040516100e291906101f9565b60405180910390f35b600181600581106100fb57600080fd5b016000915090505481565b600060405180608001604052806001815260200160028152602001600381526020016206c81c815250905050565b6006816002811061014457600080fd5b60209182820401919006915054906101000a900460000b81565b6000818154811061016e57600080fd5b906000526020600020016000915090505481565b600080fd5b6000819050919050565b61019a81610187565b81146101a557600080fd5b50565b6000813590506101b781610191565b92915050565b6000602082840312156101d3576101d2610182565b5b60006101e1848285016101a8565b91505092915050565b6101f381610187565b82525050565b600060208201905061020e60008301846101ea565b92915050565b60008160000b9050919050565b61022a81610214565b82525050565b60006020820190506102456000830184610221565b9291505056fea26469706673582212206fddb94e83dfc343dfe22a61e871a6fa849a56839b325a4e270e437deace99d664736f6c63430008130033",
  "linkReferences": {},
  "deployedLinkReferences": {}
}