{
  "_format": "hh-sol-artifact-1",
  "contractName": "Eventos",
  "sourceName": "contracts/class04/Eventos.sol",
  "abi": [
    {
      "anonymous": true,
      "inputs": [
        {
          "indexed": true,
          "internalType": "address",
          "name": "_alumno",
          "type": "address"
        },
        {
          "indexed": true,
          "internalType": "string",
          "name": "_materia",
          "type": "string"
        },
        {
          "indexed": true,
          "internalType": "uint256",
          "name": "_nota",
          "type": "uint256"
        }
      ],
      "name": "GuardarNotaFueraDeAbi",
      "type": "event"
    },
    {
      "anonymous": false,
      "inputs": [],
      "name": "NotaGuardada",
      "type": "event"
    },
    {
      "anonymous": false,
      "inputs": [
        {
          "indexed": false,
          "internalType": "address",
          "name": "_alumno",
          "type": "address"
        },
        {
          "indexed": false,
          "internalType": "string",
          "name": "_materia",
          "type": "string"
        },
        {
          "indexed": false,
          "internalType": "uint256",
          "name": "_nota",
          "type": "uint256"
        }
      ],
      "name": "NotaGuardada",
      "type": "event"
    },
    {
      "anonymous": false,
      "inputs": [
        {
          "indexed": true,
          "internalType": "address",
          "name": "_alumno",
          "type": "address"
        },
        {
          "indexed": true,
          "internalType": "string",
          "name": "_materia",
          "type": "string"
        },
        {
          "indexed": true,
          "internalType": "uint256",
          "name": "_nota",
          "type": "uint256"
        },
        {
          "indexed": false,
          "internalType": "uint256",
          "name": "_nota2",
          "type": "uint256"
        }
      ],
      "name": "NotaGuardadaIndexados",
      "type": "event"
    },
    {
      "inputs": [
        {
          "internalType": "address",
          "name": "alumno",
          "type": "address"
        },
        {
          "internalType": "string",
          "name": "materia",
          "type": "string"
        },
        {
          "internalType": "uint256",
          "name": "nota",
          "type": "uint256"
        }
      ],
      "name": "guardarNotaParaAlumno",
      "outputs": [],
      "stateMutability": "nonpayable",
      "type": "function"
    },
    {
      "inputs": [
        {
          "internalType": "address",
          "name": "alumno",
          "type": "address"
        },
        {
          "internalType": "string",
          "name": "materia",
          "type": "string"
        }
      ],
      "name": "notasPorAlumno",
      "outputs": [
        {
          "internalType": "uint256",
          "name": "nota",
          "type": "uint256"
        }
      ],
      "stateMutability": "view",
      "type": "function"
    }
  ],
  "bytecode": "0x608060405234801561001057600080fd5b5061080d806100206000396000f3fe608060405234801561001057600080fd5b50600436106100365760003560e01c8063685d286a1461003b5780637f097dce14610057575b600080fd5b6100556004803603810190610050919061047f565b610087565b005b610071600480360381019061006c91906104ee565b610256565b60405161007e9190610559565b60405180910390f35b60008110158015610099575060148111155b6100d8576040517f08c379a00000000000000000000000000000000000000000000000000000000081526004016100cf906105d1565b60405180910390fd5b600073ffffffffffffffffffffffffffffffffffffffff168373ffffffffffffffffffffffffffffffffffffffff1603610147576040517f08c379a000000000000000000000000000000000000000000000000000000000815260040161013e9061063d565b60405180910390fd5b600082511161018b576040517f08c379a0000000000000000000000000000000000000000000000000000000008152600401610182906106a9565b60405180910390fd5b806000808573ffffffffffffffffffffffffffffffffffffffff1673ffffffffffffffffffffffffffffffffffffffff168152602001908152602001600020836040516101d8919061073a565b9081526020016040518091039020819055507ffa413bbfadc6d5661df96ceefb3d560e56033879ce3f7f15c30cf07d1fd15df860405160405180910390a17fc33db0d8235ac7b601598d0d61733f6f4877fbe7beb6cb29c56c063e8423341083838360405161024993929190610799565b60405180910390a1505050565b600060205281600052604060002081805160208101820180518482526020830160208501208183528095505050505050600091509150505481565b6000604051905090565b600080fd5b600080fd5b600073ffffffffffffffffffffffffffffffffffffffff82169050919050565b60006102d0826102a5565b9050919050565b6102e0816102c5565b81146102eb57600080fd5b50565b6000813590506102fd816102d7565b92915050565b600080fd5b600080fd5b6000601f19601f8301169050919050565b7f4e487b7100000000000000000000000000000000000000000000000000000000600052604160045260246000fd5b6103568261030d565b810181811067ffffffffffffffff821117156103755761037461031e565b5b80604052505050565b6000610388610291565b9050610394828261034d565b919050565b600067ffffffffffffffff8211156103b4576103b361031e565b5b6103bd8261030d565b9050602081019050919050565b82818337600083830152505050565b60006103ec6103e784610399565b61037e565b90508281526020810184848401111561040857610407610308565b5b6104138482856103ca565b509392505050565b600082601f8301126104305761042f610303565b5b81356104408482602086016103d9565b91505092915050565b6000819050919050565b61045c81610449565b811461046757600080fd5b50565b60008135905061047981610453565b92915050565b6000806000606084860312156104985761049761029b565b5b60006104a6868287016102ee565b935050602084013567ffffffffffffffff8111156104c7576104c66102a0565b5b6104d38682870161041b565b92505060406104e48682870161046a565b9150509250925092565b600080604083850312156105055761050461029b565b5b6000610513858286016102ee565b925050602083013567ffffffffffffffff811115610534576105336102a0565b5b6105408582860161041b565b9150509250929050565b61055381610449565b82525050565b600060208201905061056e600083018461054a565b92915050565b600082825260208201905092915050565b7f4e6f74612066756572612064652072616e676f00000000000000000000000000600082015250565b60006105bb601383610574565b91506105c682610585565b602082019050919050565b600060208201905081810360008301526105ea816105ae565b9050919050565b7f41646472657373205a65726f0000000000000000000000000000000000000000600082015250565b6000610627600c83610574565b9150610632826105f1565b602082019050919050565b600060208201905081810360008301526106568161061a565b9050919050565b7f4d61746572696120657374612076616369610000000000000000000000000000600082015250565b6000610693601283610574565b915061069e8261065d565b602082019050919050565b600060208201905081810360008301526106c281610686565b9050919050565b600081519050919050565b600081905092915050565b60005b838110156106fd5780820151818401526020810190506106e2565b60008484015250505050565b6000610714826106c9565b61071e81856106d4565b935061072e8185602086016106df565b80840191505092915050565b60006107468284610709565b915081905092915050565b61075a816102c5565b82525050565b600061076b826106c9565b6107758185610574565b93506107858185602086016106df565b61078e8161030d565b840191505092915050565b60006060820190506107ae6000830186610751565b81810360208301526107c08185610760565b90506107cf604083018461054a565b94935050505056fea2646970667358221220f09b199dfaf5f73fc71a6579aa00e38bfaa8844472d4a1a4dece583ba6fcaf6664736f6c63430008130033",
  "linkReferences": {},
  "deployedLinkReferences": {}
}