{
  "_format": "hh-sol-artifact-1",
  "contractName": "MerkleTree",
  "sourceName": "contracts/class13/MerkleTree.sol",
  "abi": [
    {
      "inputs": [],
      "stateMutability": "nonpayable",
      "type": "constructor"
    },
    {
      "anonymous": false,
      "inputs": [
        {
          "indexed": true,
          "internalType": "address",
          "name": "owner",
          "type": "address"
        },
        {
          "indexed": true,
          "internalType": "address",
          "name": "approved",
          "type": "address"
        },
        {
          "indexed": true,
          "internalType": "uint256",
          "name": "tokenId",
          "type": "uint256"
        }
      ],
      "name": "Approval",
      "type": "event"
    },
    {
      "anonymous": false,
      "inputs": [
        {
          "indexed": true,
          "internalType": "address",
          "name": "owner",
          "type": "address"
        },
        {
          "indexed": true,
          "internalType": "address",
          "name": "operator",
          "type": "address"
        },
        {
          "indexed": false,
          "internalType": "bool",
          "name": "approved",
          "type": "bool"
        }
      ],
      "name": "ApprovalForAll",
      "type": "event"
    },
    {
      "anonymous": false,
      "inputs": [
        {
          "indexed": true,
          "internalType": "address",
          "name": "from",
          "type": "address"
        },
        {
          "indexed": true,
          "internalType": "address",
          "name": "to",
          "type": "address"
        },
        {
          "indexed": true,
          "internalType": "uint256",
          "name": "tokenId",
          "type": "uint256"
        }
      ],
      "name": "Transfer",
      "type": "event"
    },
    {
      "inputs": [
        {
          "internalType": "address",
          "name": "to",
          "type": "address"
        },
        {
          "internalType": "uint256",
          "name": "tokenId",
          "type": "uint256"
        }
      ],
      "name": "_hashearInfo",
      "outputs": [
        {
          "internalType": "bytes32",
          "name": "",
          "type": "bytes32"
        }
      ],
      "stateMutability": "pure",
      "type": "function"
    },
    {
      "inputs": [
        {
          "internalType": "bytes32",
          "name": "_root",
          "type": "bytes32"
        }
      ],
      "name": "actualizarRaiz",
      "outputs": [],
      "stateMutability": "nonpayable",
      "type": "function"
    },
    {
      "inputs": [
        {
          "internalType": "address",
          "name": "to",
          "type": "address"
        },
        {
          "internalType": "uint256",
          "name": "tokenId",
          "type": "uint256"
        }
      ],
      "name": "approve",
      "outputs": [],
      "stateMutability": "nonpayable",
      "type": "function"
    },
    {
      "inputs": [
        {
          "internalType": "address",
          "name": "owner",
          "type": "address"
        }
      ],
      "name": "balanceOf",
      "outputs": [
        {
          "internalType": "uint256",
          "name": "",
          "type": "uint256"
        }
      ],
      "stateMutability": "view",
      "type": "function"
    },
    {
      "inputs": [
        {
          "internalType": "uint256",
          "name": "tokenId",
          "type": "uint256"
        }
      ],
      "name": "getApproved",
      "outputs": [
        {
          "internalType": "address",
          "name": "",
          "type": "address"
        }
      ],
      "stateMutability": "view",
      "type": "function"
    },
    {
      "inputs": [
        {
          "internalType": "address",
          "name": "owner",
          "type": "address"
        },
        {
          "internalType": "address",
          "name": "operator",
          "type": "address"
        }
      ],
      "name": "isApprovedForAll",
      "outputs": [
        {
          "internalType": "bool",
          "name": "",
          "type": "bool"
        }
      ],
      "stateMutability": "view",
      "type": "function"
    },
    {
      "inputs": [],
      "name": "name",
      "outputs": [
        {
          "internalType": "string",
          "name": "",
          "type": "string"
        }
      ],
      "stateMutability": "view",
      "type": "function"
    },
    {
      "inputs": [
        {
          "internalType": "uint256",
          "name": "tokenId",
          "type": "uint256"
        }
      ],
      "name": "ownerOf",
      "outputs": [
        {
          "internalType": "address",
          "name": "",
          "type": "address"
        }
      ],
      "stateMutability": "view",
      "type": "function"
    },
    {
      "inputs": [],
      "name": "root",
      "outputs": [
        {
          "internalType": "bytes32",
          "name": "",
          "type": "bytes32"
        }
      ],
      "stateMutability": "view",
      "type": "function"
    },
    {
      "inputs": [
        {
          "internalType": "address",
          "name": "to",
          "type": "address"
        },
        {
          "internalType": "uint256",
          "name": "tokenId",
          "type": "uint256"
        },
        {
          "internalType": "bytes32[]",
          "name": "proofs",
          "type": "bytes32[]"
        }
      ],
      "name": "safeMint",
      "outputs": [],
      "stateMutability": "nonpayable",
      "type": "function"
    },
    {
      "inputs": [
        {
          "internalType": "address",
          "name": "from",
          "type": "address"
        },
        {
          "internalType": "address",
          "name": "to",
          "type": "address"
        },
        {
          "internalType": "uint256",
          "name": "tokenId",
          "type": "uint256"
        }
      ],
      "name": "safeTransferFrom",
      "outputs": [],
      "stateMutability": "nonpayable",
      "type": "function"
    },
    {
      "inputs": [
        {
          "internalType": "address",
          "name": "from",
          "type": "address"
        },
        {
          "internalType": "address",
          "name": "to",
          "type": "address"
        },
        {
          "internalType": "uint256",
          "name": "tokenId",
          "type": "uint256"
        },
        {
          "internalType": "bytes",
          "name": "data",
          "type": "bytes"
        }
      ],
      "name": "safeTransferFrom",
      "outputs": [],
      "stateMutability": "nonpayable",
      "type": "function"
    },
    {
      "inputs": [
        {
          "internalType": "address",
          "name": "operator",
          "type": "address"
        },
        {
          "internalType": "bool",
          "name": "approved",
          "type": "bool"
        }
      ],
      "name": "setApprovalForAll",
      "outputs": [],
      "stateMutability": "nonpayable",
      "type": "function"
    },
    {
      "inputs": [
        {
          "internalType": "bytes4",
          "name": "interfaceId",
          "type": "bytes4"
        }
      ],
      "name": "supportsInterface",
      "outputs": [
        {
          "internalType": "bool",
          "name": "",
          "type": "bool"
        }
      ],
      "stateMutability": "view",
      "type": "function"
    },
    {
      "inputs": [],
      "name": "symbol",
      "outputs": [
        {
          "internalType": "string",
          "name": "",
          "type": "string"
        }
      ],
      "stateMutability": "view",
      "type": "function"
    },
    {
      "inputs": [
        {
          "internalType": "uint256",
          "name": "tokenId",
          "type": "uint256"
        }
      ],
      "name": "tokenURI",
      "outputs": [
        {
          "internalType": "string",
          "name": "",
          "type": "string"
        }
      ],
      "stateMutability": "view",
      "type": "function"
    },
    {
      "inputs": [
        {
          "internalType": "address",
          "name": "from",
          "type": "address"
        },
        {
          "internalType": "address",
          "name": "to",
          "type": "address"
        },
        {
          "internalType": "uint256",
          "name": "tokenId",
          "type": "uint256"
        }
      ],
      "name": "transferFrom",
      "outputs": [],
      "stateMutability": "nonpayable",
      "type": "function"
    },
    {
      "inputs": [
        {
          "internalType": "bytes32",
          "name": "leaf",
          "type": "bytes32"
        },
        {
          "internalType": "bytes32[]",
          "name": "proofs",
          "type": "bytes32[]"
        }
      ],
      "name": "verify",
      "outputs": [
        {
          "internalType": "bool",
          "name": "",
          "type": "bool"
        }
      ],
      "stateMutability": "view",
      "type": "function"
    },
    {
      "inputs": [
        {
          "internalType": "bytes32",
          "name": "leaf",
          "type": "bytes32"
        },
        {
          "internalType": "bytes32[]",
          "name": "proofs",
          "type": "bytes32[]"
        }
      ],
      "name": "verifyMerkleProof",
      "outputs": [
        {
          "internalType": "bool",
          "name": "",
          "type": "bool"
        }
      ],
      "stateMutability": "view",
      "type": "function"
    }
  ],
  "bytecode": "0x60806040523480156200001157600080fd5b506040518060400160405280601381526020017f4d65726b6c6520547265652041697264726f70000000000000000000000000008152506040518060400160405280600381526020017f4d5441000000000000000000000000000000000000000000000000000000000081525081600090816200008f919062000324565b508060019081620000a1919062000324565b5050506200040b565b600081519050919050565b7f4e487b7100000000000000000000000000000000000000000000000000000000600052604160045260246000fd5b7f4e487b7100000000000000000000000000000000000000000000000000000000600052602260045260246000fd5b600060028204905060018216806200012c57607f821691505b602082108103620001425762000141620000e4565b5b50919050565b60008190508160005260206000209050919050565b60006020601f8301049050919050565b600082821b905092915050565b600060088302620001ac7fffffffffffffffffffffffffffffffffffffffffffffffffffffffffffffffff826200016d565b620001b886836200016d565b95508019841693508086168417925050509392505050565b6000819050919050565b6000819050919050565b600062000205620001ff620001f984620001d0565b620001da565b620001d0565b9050919050565b6000819050919050565b6200022183620001e4565b6200023962000230826200020c565b8484546200017a565b825550505050565b600090565b6200025062000241565b6200025d81848462000216565b505050565b5b8181101562000285576200027960008262000246565b60018101905062000263565b5050565b601f821115620002d4576200029e8162000148565b620002a9846200015d565b81016020851015620002b9578190505b620002d1620002c8856200015d565b83018262000262565b50505b505050565b600082821c905092915050565b6000620002f960001984600802620002d9565b1980831691505092915050565b6000620003148383620002e6565b9150826002028217905092915050565b6200032f82620000aa565b67ffffffffffffffff8111156200034b576200034a620000b5565b5b62000357825462000113565b6200036482828562000289565b600060209050601f8311600181146200039c576000841562000387578287015190505b62000393858262000306565b86555062000403565b601f198416620003ac8662000148565b60005b82811015620003d657848901518255600182019150602085019450602081019050620003af565b86831015620003f65784890151620003f2601f891682620002e6565b8355505b6001600288020188555050505b505050505050565b612bfc806200041b6000396000f3fe608060405234801561001057600080fd5b50600436106101215760003560e01c80636df4d241116100ad578063c87b56dd11610071578063c87b56dd14610316578063e8e0509914610346578063e985e9c514610376578063ebf0c717146103a6578063f27cb4ca146103c457610121565b80636df4d2411461026057806370a082311461029057806395d89b41146102c0578063a22cb465146102de578063b88d4fde146102fa57610121565b8063133d41b0116100f4578063133d41b0146101c057806323b872dd146101dc5780632dfd972a146101f857806342842e0e146102145780636352211e1461023057610121565b806301ffc9a71461012657806306fdde0314610156578063081812fc14610174578063095ea7b3146101a4575b600080fd5b610140600480360381019061013b9190611ae4565b6103f4565b60405161014d9190611b2c565b60405180910390f35b61015e6104d6565b60405161016b9190611bd7565b60405180910390f35b61018e60048036038101906101899190611c2f565b610568565b60405161019b9190611c9d565b60405180910390f35b6101be60048036038101906101b99190611ce4565b6105ae565b005b6101da60048036038101906101d59190611d5a565b6106c5565b005b6101f660048036038101906101f19190611d87565b6106cf565b005b610212600480360381019061020d9190611f22565b61072f565b005b61022e60048036038101906102299190611d87565b610790565b005b61024a60048036038101906102459190611c2f565b6107b0565b6040516102579190611c9d565b60405180910390f35b61027a60048036038101906102759190611f91565b610836565b6040516102879190611b2c565b60405180910390f35b6102aa60048036038101906102a59190611fed565b61084d565b6040516102b79190612029565b60405180910390f35b6102c8610904565b6040516102d59190611bd7565b60405180910390f35b6102f860048036038101906102f39190612070565b610996565b005b610314600480360381019061030f9190612165565b6109ac565b005b610330600480360381019061032b9190611c2f565b610a0e565b60405161033d9190611bd7565b60405180910390f35b610360600480360381019061035b9190611f91565b610a76565b60405161036d9190611b2c565b60405180910390f35b610390600480360381019061038b91906121e8565b610b2e565b60405161039d9190611b2c565b60405180910390f35b6103ae610bc2565b6040516103bb9190612237565b60405180910390f35b6103de60048036038101906103d99190611ce4565b610bc8565b6040516103eb9190612237565b60405180910390f35b60007f80ac58cd000000000000000000000000000000000000000000000000000000007bffffffffffffffffffffffffffffffffffffffffffffffffffffffff1916827bffffffffffffffffffffffffffffffffffffffffffffffffffffffff191614806104bf57507f5b5e139f000000000000000000000000000000000000000000000000000000007bffffffffffffffffffffffffffffffffffffffffffffffffffffffff1916827bffffffffffffffffffffffffffffffffffffffffffffffffffffffff1916145b806104cf57506104ce82610bfb565b5b9050919050565b6060600080546104e590612281565b80601f016020809104026020016040519081016040528092919081815260200182805461051190612281565b801561055e5780601f106105335761010080835404028352916020019161055e565b820191906000526020600020905b81548152906001019060200180831161054157829003601f168201915b5050505050905090565b600061057382610c65565b6004600083815260200190815260200160002060009054906101000a900473ffffffffffffffffffffffffffffffffffffffff169050919050565b60006105b9826107b0565b90508073ffffffffffffffffffffffffffffffffffffffff168373ffffffffffffffffffffffffffffffffffffffff1603610629576040517f08c379a000000000000000000000000000000000000000000000000000000000815260040161062090612324565b60405180910390fd5b8073ffffffffffffffffffffffffffffffffffffffff16610648610cb0565b73ffffffffffffffffffffffffffffffffffffffff161480610677575061067681610671610cb0565b610b2e565b5b6106b6576040517f08c379a00000000000000000000000000000000000000000000000000000000081526004016106ad906123b6565b60405180910390fd5b6106c08383610cb8565b505050565b8060068190555050565b6106e06106da610cb0565b82610d71565b61071f576040517f08c379a000000000000000000000000000000000000000000000000000000000815260040161071690612448565b60405180910390fd5b61072a838383610e06565b505050565b61074261073c8484610bc8565b82610836565b610781576040517f08c379a0000000000000000000000000000000000000000000000000000000008152600401610778906124b4565b60405180910390fd5b61078b83836110ff565b505050565b6107ab838383604051806020016040528060008152506109ac565b505050565b6000806107bc8361111d565b9050600073ffffffffffffffffffffffffffffffffffffffff168173ffffffffffffffffffffffffffffffffffffffff160361082d576040517f08c379a000000000000000000000000000000000000000000000000000000000815260040161082490612520565b60405180910390fd5b80915050919050565b6000610845826006548561115a565b905092915050565b60008073ffffffffffffffffffffffffffffffffffffffff168273ffffffffffffffffffffffffffffffffffffffff16036108bd576040517f08c379a00000000000000000000000000000000000000000000000000000000081526004016108b4906125b2565b60405180910390fd5b600360008373ffffffffffffffffffffffffffffffffffffffff1673ffffffffffffffffffffffffffffffffffffffff168152602001908152602001600020549050919050565b60606001805461091390612281565b80601f016020809104026020016040519081016040528092919081815260200182805461093f90612281565b801561098c5780601f106109615761010080835404028352916020019161098c565b820191906000526020600020905b81548152906001019060200180831161096f57829003601f168201915b5050505050905090565b6109a86109a1610cb0565b8383611171565b5050565b6109bd6109b7610cb0565b83610d71565b6109fc576040517f08c379a00000000000000000000000000000000000000000000000000000000081526004016109f390612448565b60405180910390fd5b610a08848484846112dd565b50505050565b6060610a1982610c65565b6000610a23611339565b90506000815111610a435760405180602001604052806000815250610a6e565b80610a4d84611350565b604051602001610a5e92919061260e565b6040516020818303038152906040525b915050919050565b60008083905060005b8351811015610b1f576000848281518110610a9d57610a9c612632565b5b6020026020010151905080831015610adf578281604051602001610ac2929190612682565b604051602081830303815290604052805190602001209250610b0b565b8083604051602001610af2929190612682565b6040516020818303038152906040528051906020012092505b508080610b17906126dd565b915050610a7f565b50600654811491505092915050565b6000600560008473ffffffffffffffffffffffffffffffffffffffff1673ffffffffffffffffffffffffffffffffffffffff16815260200190815260200160002060008373ffffffffffffffffffffffffffffffffffffffff1673ffffffffffffffffffffffffffffffffffffffff16815260200190815260200160002060009054906101000a900460ff16905092915050565b60065481565b60008183604051602001610bdd92919061278e565b60405160208183030381529060405280519060200120905092915050565b60007f01ffc9a7000000000000000000000000000000000000000000000000000000007bffffffffffffffffffffffffffffffffffffffffffffffffffffffff1916827bffffffffffffffffffffffffffffffffffffffffffffffffffffffff1916149050919050565b610c6e8161141e565b610cad576040517f08c379a0000000000000000000000000000000000000000000000000000000008152600401610ca490612520565b60405180910390fd5b50565b600033905090565b816004600083815260200190815260200160002060006101000a81548173ffffffffffffffffffffffffffffffffffffffff021916908373ffffffffffffffffffffffffffffffffffffffff160217905550808273ffffffffffffffffffffffffffffffffffffffff16610d2b836107b0565b73ffffffffffffffffffffffffffffffffffffffff167f8c5be1e5ebec7d5bd14f71427d1e84f3dd0314c0f7b2291e5b200ac8c7c3b92560405160405180910390a45050565b600080610d7d836107b0565b90508073ffffffffffffffffffffffffffffffffffffffff168473ffffffffffffffffffffffffffffffffffffffff161480610dbf5750610dbe8185610b2e565b5b80610dfd57508373ffffffffffffffffffffffffffffffffffffffff16610de584610568565b73ffffffffffffffffffffffffffffffffffffffff16145b91505092915050565b8273ffffffffffffffffffffffffffffffffffffffff16610e26826107b0565b73ffffffffffffffffffffffffffffffffffffffff1614610e7c576040517f08c379a0000000000000000000000000000000000000000000000000000000008152600401610e739061282c565b60405180910390fd5b600073ffffffffffffffffffffffffffffffffffffffff168273ffffffffffffffffffffffffffffffffffffffff1603610eeb576040517f08c379a0000000000000000000000000000000000000000000000000000000008152600401610ee2906128be565b60405180910390fd5b610ef8838383600161145f565b8273ffffffffffffffffffffffffffffffffffffffff16610f18826107b0565b73ffffffffffffffffffffffffffffffffffffffff1614610f6e576040517f08c379a0000000000000000000000000000000000000000000000000000000008152600401610f659061282c565b60405180910390fd5b6004600082815260200190815260200160002060006101000a81549073ffffffffffffffffffffffffffffffffffffffff02191690556001600360008573ffffffffffffffffffffffffffffffffffffffff1673ffffffffffffffffffffffffffffffffffffffff168152602001908152602001600020600082825403925050819055506001600360008473ffffffffffffffffffffffffffffffffffffffff1673ffffffffffffffffffffffffffffffffffffffff16815260200190815260200160002060008282540192505081905550816002600083815260200190815260200160002060006101000a81548173ffffffffffffffffffffffffffffffffffffffff021916908373ffffffffffffffffffffffffffffffffffffffff160217905550808273ffffffffffffffffffffffffffffffffffffffff168473ffffffffffffffffffffffffffffffffffffffff167fddf252ad1be2c89b69c2b068fc378daa952ba7f163c4a11628f55a4df523b3ef60405160405180910390a46110fa8383836001611465565b505050565b61111982826040518060200160405280600081525061146b565b5050565b60006002600083815260200190815260200160002060009054906101000a900473ffffffffffffffffffffffffffffffffffffffff169050919050565b60008261116785846114c6565b1490509392505050565b8173ffffffffffffffffffffffffffffffffffffffff168373ffffffffffffffffffffffffffffffffffffffff16036111df576040517f08c379a00000000000000000000000000000000000000000000000000000000081526004016111d69061292a565b60405180910390fd5b80600560008573ffffffffffffffffffffffffffffffffffffffff1673ffffffffffffffffffffffffffffffffffffffff16815260200190815260200160002060008473ffffffffffffffffffffffffffffffffffffffff1673ffffffffffffffffffffffffffffffffffffffff16815260200190815260200160002060006101000a81548160ff0219169083151502179055508173ffffffffffffffffffffffffffffffffffffffff168373ffffffffffffffffffffffffffffffffffffffff167f17307eab39ab6107e8899845ad3d59bd9653f200f220920489ca2b5937696c31836040516112d09190611b2c565b60405180910390a3505050565b6112e8848484610e06565b6112f48484848461151c565b611333576040517f08c379a000000000000000000000000000000000000000000000000000000000815260040161132a906129bc565b60405180910390fd5b50505050565b606060405180602001604052806000815250905090565b60606000600161135f846116a3565b01905060008167ffffffffffffffff81111561137e5761137d611ddf565b5b6040519080825280601f01601f1916602001820160405280156113b05781602001600182028036833780820191505090505b509050600082602001820190505b600115611413578080600190039150507f3031323334353637383961626364656600000000000000000000000000000000600a86061a8153600a8581611407576114066129dc565b5b049450600085036113be575b819350505050919050565b60008073ffffffffffffffffffffffffffffffffffffffff166114408361111d565b73ffffffffffffffffffffffffffffffffffffffff1614159050919050565b50505050565b50505050565b61147583836117f6565b611482600084848461151c565b6114c1576040517f08c379a00000000000000000000000000000000000000000000000000000000081526004016114b8906129bc565b60405180910390fd5b505050565b60008082905060005b8451811015611511576114fc828683815181106114ef576114ee612632565b5b6020026020010151611a13565b91508080611509906126dd565b9150506114cf565b508091505092915050565b600061153d8473ffffffffffffffffffffffffffffffffffffffff16611a3e565b15611696578373ffffffffffffffffffffffffffffffffffffffff1663150b7a02611566610cb0565b8786866040518563ffffffff1660e01b81526004016115889493929190612a60565b6020604051808303816000875af19250505080156115c457506040513d601f19601f820116820180604052508101906115c19190612ac1565b60015b611646573d80600081146115f4576040519150601f19603f3d011682016040523d82523d6000602084013e6115f9565b606091505b50600081510361163e576040517f08c379a0000000000000000000000000000000000000000000000000000000008152600401611635906129bc565b60405180910390fd5b805181602001fd5b63150b7a0260e01b7bffffffffffffffffffffffffffffffffffffffffffffffffffffffff1916817bffffffffffffffffffffffffffffffffffffffffffffffffffffffff19161491505061169b565b600190505b949350505050565b600080600090507a184f03e93ff9f4daa797ed6e38ed64bf6a1f0100000000000000008310611701577a184f03e93ff9f4daa797ed6e38ed64bf6a1f01000000000000000083816116f7576116f66129dc565b5b0492506040810190505b6d04ee2d6d415b85acef8100000000831061173e576d04ee2d6d415b85acef81000000008381611734576117336129dc565b5b0492506020810190505b662386f26fc10000831061176d57662386f26fc100008381611763576117626129dc565b5b0492506010810190505b6305f5e1008310611796576305f5e100838161178c5761178b6129dc565b5b0492506008810190505b61271083106117bb5761271083816117b1576117b06129dc565b5b0492506004810190505b606483106117de57606483816117d4576117d36129dc565b5b0492506002810190505b600a83106117ed576001810190505b80915050919050565b600073ffffffffffffffffffffffffffffffffffffffff168273ffffffffffffffffffffffffffffffffffffffff1603611865576040517f08c379a000000000000000000000000000000000000000000000000000000000815260040161185c90612b3a565b60405180910390fd5b61186e8161141e565b156118ae576040517f08c379a00000000000000000000000000000000000000000000000000000000081526004016118a590612ba6565b60405180910390fd5b6118bc60008383600161145f565b6118c58161141e565b15611905576040517f08c379a00000000000000000000000000000000000000000000000000000000081526004016118fc90612ba6565b60405180910390fd5b6001600360008473ffffffffffffffffffffffffffffffffffffffff1673ffffffffffffffffffffffffffffffffffffffff16815260200190815260200160002060008282540192505081905550816002600083815260200190815260200160002060006101000a81548173ffffffffffffffffffffffffffffffffffffffff021916908373ffffffffffffffffffffffffffffffffffffffff160217905550808273ffffffffffffffffffffffffffffffffffffffff16600073ffffffffffffffffffffffffffffffffffffffff167fddf252ad1be2c89b69c2b068fc378daa952ba7f163c4a11628f55a4df523b3ef60405160405180910390a4611a0f600083836001611465565b5050565b6000818310611a2b57611a268284611a61565b611a36565b611a358383611a61565b5b905092915050565b6000808273ffffffffffffffffffffffffffffffffffffffff163b119050919050565b600082600052816020526040600020905092915050565b6000604051905090565b600080fd5b600080fd5b60007fffffffff0000000000000000000000000000000000000000000000000000000082169050919050565b611ac181611a8c565b8114611acc57600080fd5b50565b600081359050611ade81611ab8565b92915050565b600060208284031215611afa57611af9611a82565b5b6000611b0884828501611acf565b91505092915050565b60008115159050919050565b611b2681611b11565b82525050565b6000602082019050611b416000830184611b1d565b92915050565b600081519050919050565b600082825260208201905092915050565b60005b83811015611b81578082015181840152602081019050611b66565b60008484015250505050565b6000601f19601f8301169050919050565b6000611ba982611b47565b611bb38185611b52565b9350611bc3818560208601611b63565b611bcc81611b8d565b840191505092915050565b60006020820190508181036000830152611bf18184611b9e565b905092915050565b6000819050919050565b611c0c81611bf9565b8114611c1757600080fd5b50565b600081359050611c2981611c03565b92915050565b600060208284031215611c4557611c44611a82565b5b6000611c5384828501611c1a565b91505092915050565b600073ffffffffffffffffffffffffffffffffffffffff82169050919050565b6000611c8782611c5c565b9050919050565b611c9781611c7c565b82525050565b6000602082019050611cb26000830184611c8e565b92915050565b611cc181611c7c565b8114611ccc57600080fd5b50565b600081359050611cde81611cb8565b92915050565b60008060408385031215611cfb57611cfa611a82565b5b6000611d0985828601611ccf565b9250506020611d1a85828601611c1a565b9150509250929050565b6000819050919050565b611d3781611d24565b8114611d4257600080fd5b50565b600081359050611d5481611d2e565b92915050565b600060208284031215611d7057611d6f611a82565b5b6000611d7e84828501611d45565b91505092915050565b600080600060608486031215611da057611d9f611a82565b5b6000611dae86828701611ccf565b9350506020611dbf86828701611ccf565b9250506040611dd086828701611c1a565b9150509250925092565b600080fd5b7f4e487b7100000000000000000000000000000000000000000000000000000000600052604160045260246000fd5b611e1782611b8d565b810181811067ffffffffffffffff82111715611e3657611e35611ddf565b5b80604052505050565b6000611e49611a78565b9050611e558282611e0e565b919050565b600067ffffffffffffffff821115611e7557611e74611ddf565b5b602082029050602081019050919050565b600080fd5b6000611e9e611e9984611e5a565b611e3f565b90508083825260208201905060208402830185811115611ec157611ec0611e86565b5b835b81811015611eea5780611ed68882611d45565b845260208401935050602081019050611ec3565b5050509392505050565b600082601f830112611f0957611f08611dda565b5b8135611f19848260208601611e8b565b91505092915050565b600080600060608486031215611f3b57611f3a611a82565b5b6000611f4986828701611ccf565b9350506020611f5a86828701611c1a565b925050604084013567ffffffffffffffff811115611f7b57611f7a611a87565b5b611f8786828701611ef4565b9150509250925092565b60008060408385031215611fa857611fa7611a82565b5b6000611fb685828601611d45565b925050602083013567ffffffffffffffff811115611fd757611fd6611a87565b5b611fe385828601611ef4565b9150509250929050565b60006020828403121561200357612002611a82565b5b600061201184828501611ccf565b91505092915050565b61202381611bf9565b82525050565b600060208201905061203e600083018461201a565b92915050565b61204d81611b11565b811461205857600080fd5b50565b60008135905061206a81612044565b92915050565b6000806040838503121561208757612086611a82565b5b600061209585828601611ccf565b92505060206120a68582860161205b565b9150509250929050565b600080fd5b600067ffffffffffffffff8211156120d0576120cf611ddf565b5b6120d982611b8d565b9050602081019050919050565b82818337600083830152505050565b6000612108612103846120b5565b611e3f565b905082815260208101848484011115612124576121236120b0565b5b61212f8482856120e6565b509392505050565b600082601f83011261214c5761214b611dda565b5b813561215c8482602086016120f5565b91505092915050565b6000806000806080858703121561217f5761217e611a82565b5b600061218d87828801611ccf565b945050602061219e87828801611ccf565b93505060406121af87828801611c1a565b925050606085013567ffffffffffffffff8111156121d0576121cf611a87565b5b6121dc87828801612137565b91505092959194509250565b600080604083850312156121ff576121fe611a82565b5b600061220d85828601611ccf565b925050602061221e85828601611ccf565b9150509250929050565b61223181611d24565b82525050565b600060208201905061224c6000830184612228565b92915050565b7f4e487b7100000000000000000000000000000000000000000000000000000000600052602260045260246000fd5b6000600282049050600182168061229957607f821691505b6020821081036122ac576122ab612252565b5b50919050565b7f4552433732313a20617070726f76616c20746f2063757272656e74206f776e6560008201527f7200000000000000000000000000000000000000000000000000000000000000602082015250565b600061230e602183611b52565b9150612319826122b2565b604082019050919050565b6000602082019050818103600083015261233d81612301565b9050919050565b7f4552433732313a20617070726f76652063616c6c6572206973206e6f7420746f60008201527f6b656e206f776e6572206f7220617070726f76656420666f7220616c6c000000602082015250565b60006123a0603d83611b52565b91506123ab82612344565b604082019050919050565b600060208201905081810360008301526123cf81612393565b9050919050565b7f4552433732313a2063616c6c6572206973206e6f7420746f6b656e206f776e6560008201527f72206f7220617070726f76656400000000000000000000000000000000000000602082015250565b6000612432602d83611b52565b915061243d826123d6565b604082019050919050565b6000602082019050818103600083015261246181612425565b9050919050565b7f4e6f2065726573207061727465206465206c61206c6973746100000000000000600082015250565b600061249e601983611b52565b91506124a982612468565b602082019050919050565b600060208201905081810360008301526124cd81612491565b9050919050565b7f4552433732313a20696e76616c696420746f6b656e2049440000000000000000600082015250565b600061250a601883611b52565b9150612515826124d4565b602082019050919050565b60006020820190508181036000830152612539816124fd565b9050919050565b7f4552433732313a2061646472657373207a65726f206973206e6f74206120766160008201527f6c6964206f776e65720000000000000000000000000000000000000000000000602082015250565b600061259c602983611b52565b91506125a782612540565b604082019050919050565b600060208201905081810360008301526125cb8161258f565b9050919050565b600081905092915050565b60006125e882611b47565b6125f281856125d2565b9350612602818560208601611b63565b80840191505092915050565b600061261a82856125dd565b915061262682846125dd565b91508190509392505050565b7f4e487b7100000000000000000000000000000000000000000000000000000000600052603260045260246000fd5b6000819050919050565b61267c61267782611d24565b612661565b82525050565b600061268e828561266b565b60208201915061269e828461266b565b6020820191508190509392505050565b7f4e487b7100000000000000000000000000000000000000000000000000000000600052601160045260246000fd5b60006126e882611bf9565b91507fffffffffffffffffffffffffffffffffffffffffffffffffffffffffffffffff820361271a576127196126ae565b5b600182019050919050565b6000819050919050565b61274061273b82611bf9565b612725565b82525050565b60008160601b9050919050565b600061275e82612746565b9050919050565b600061277082612753565b9050919050565b61278861278382611c7c565b612765565b82525050565b600061279a828561272f565b6020820191506127aa8284612777565b6014820191508190509392505050565b7f4552433732313a207472616e736665722066726f6d20696e636f72726563742060008201527f6f776e6572000000000000000000000000000000000000000000000000000000602082015250565b6000612816602583611b52565b9150612821826127ba565b604082019050919050565b6000602082019050818103600083015261284581612809565b9050919050565b7f4552433732313a207472616e7366657220746f20746865207a65726f2061646460008201527f7265737300000000000000000000000000000000000000000000000000000000602082015250565b60006128a8602483611b52565b91506128b38261284c565b604082019050919050565b600060208201905081810360008301526128d78161289b565b9050919050565b7f4552433732313a20617070726f766520746f2063616c6c657200000000000000600082015250565b6000612914601983611b52565b915061291f826128de565b602082019050919050565b6000602082019050818103600083015261294381612907565b9050919050565b7f4552433732313a207472616e7366657220746f206e6f6e20455243373231526560008201527f63656976657220696d706c656d656e7465720000000000000000000000000000602082015250565b60006129a6603283611b52565b91506129b18261294a565b604082019050919050565b600060208201905081810360008301526129d581612999565b9050919050565b7f4e487b7100000000000000000000000000000000000000000000000000000000600052601260045260246000fd5b600081519050919050565b600082825260208201905092915050565b6000612a3282612a0b565b612a3c8185612a16565b9350612a4c818560208601611b63565b612a5581611b8d565b840191505092915050565b6000608082019050612a756000830187611c8e565b612a826020830186611c8e565b612a8f604083018561201a565b8181036060830152612aa18184612a27565b905095945050505050565b600081519050612abb81611ab8565b92915050565b600060208284031215612ad757612ad6611a82565b5b6000612ae584828501612aac565b91505092915050565b7f4552433732313a206d696e7420746f20746865207a65726f2061646472657373600082015250565b6000612b24602083611b52565b9150612b2f82612aee565b602082019050919050565b60006020820190508181036000830152612b5381612b17565b9050919050565b7f4552433732313a20746f6b656e20616c7265616479206d696e74656400000000600082015250565b6000612b90601c83611b52565b9150612b9b82612b5a565b602082019050919050565b60006020820190508181036000830152612bbf81612b83565b905091905056fea26469706673582212203cbbab396d5090a7c47b8a2c074a5f12ec51feb074e42313e72e921d3cbfeb9364736f6c63430008130033",
  "linkReferences": {},
  "deployedLinkReferences": {}
}