{
  "_format": "hh-sol-artifact-1",
  "contractName": "AirdropOne",
  "sourceName": "contracts/desafios/Desafio_6.sol",
  "abi": [
    {
      "inputs": [
        {
          "internalType": "address",
          "name": "_tokenAddress",
          "type": "address"
        }
      ],
      "stateMutability": "nonpayable",
      "type": "constructor"
    },
    {
      "anonymous": false,
      "inputs": [
        {
          "indexed": false,
          "internalType": "address",
          "name": "account",
          "type": "address"
        }
      ],
      "name": "Paused",
      "type": "event"
    },
    {
      "anonymous": false,
      "inputs": [
        {
          "indexed": true,
          "internalType": "bytes32",
          "name": "role",
          "type": "bytes32"
        },
        {
          "indexed": true,
          "internalType": "bytes32",
          "name": "previousAdminRole",
          "type": "bytes32"
        },
        {
          "indexed": true,
          "internalType": "bytes32",
          "name": "newAdminRole",
          "type": "bytes32"
        }
      ],
      "name": "RoleAdminChanged",
      "type": "event"
    },
    {
      "anonymous": false,
      "inputs": [
        {
          "indexed": true,
          "internalType": "bytes32",
          "name": "role",
          "type": "bytes32"
        },
        {
          "indexed": true,
          "internalType": "address",
          "name": "account",
          "type": "address"
        },
        {
          "indexed": true,
          "internalType": "address",
          "name": "sender",
          "type": "address"
        }
      ],
      "name": "RoleGranted",
      "type": "event"
    },
    {
      "anonymous": false,
      "inputs": [
        {
          "indexed": true,
          "internalType": "bytes32",
          "name": "role",
          "type": "bytes32"
        },
        {
          "indexed": true,
          "internalType": "address",
          "name": "account",
          "type": "address"
        },
        {
          "indexed": true,
          "internalType": "address",
          "name": "sender",
          "type": "address"
        }
      ],
      "name": "RoleRevoked",
      "type": "event"
    },
    {
      "anonymous": false,
      "inputs": [
        {
          "indexed": false,
          "internalType": "address",
          "name": "account",
          "type": "address"
        }
      ],
      "name": "Unpaused",
      "type": "event"
    },
    {
      "inputs": [],
      "name": "DEFAULT_ADMIN_ROLE",
      "outputs": [
        {
          "internalType": "bytes32",
          "name": "",
          "type": "bytes32"
        }
      ],
      "stateMutability": "view",
      "type": "function"
    },
    {
      "inputs": [],
      "name": "PAUSER_ROLE",
      "outputs": [
        {
          "internalType": "bytes32",
          "name": "",
          "type": "bytes32"
        }
      ],
      "stateMutability": "view",
      "type": "function"
    },
    {
      "inputs": [
        {
          "internalType": "address",
          "name": "_account",
          "type": "address"
        }
      ],
      "name": "addToWhiteList",
      "outputs": [],
      "stateMutability": "nonpayable",
      "type": "function"
    },
    {
      "inputs": [
        {
          "internalType": "bytes32",
          "name": "role",
          "type": "bytes32"
        }
      ],
      "name": "getRoleAdmin",
      "outputs": [
        {
          "internalType": "bytes32",
          "name": "",
          "type": "bytes32"
        }
      ],
      "stateMutability": "view",
      "type": "function"
    },
    {
      "inputs": [
        {
          "internalType": "bytes32",
          "name": "role",
          "type": "bytes32"
        },
        {
          "internalType": "address",
          "name": "account",
          "type": "address"
        }
      ],
      "name": "grantRole",
      "outputs": [],
      "stateMutability": "nonpayable",
      "type": "function"
    },
    {
      "inputs": [
        {
          "internalType": "address",
          "name": "",
          "type": "address"
        }
      ],
      "name": "haSolicitado",
      "outputs": [
        {
          "internalType": "bool",
          "name": "",
          "type": "bool"
        }
      ],
      "stateMutability": "view",
      "type": "function"
    },
    {
      "inputs": [
        {
          "internalType": "bytes32",
          "name": "role",
          "type": "bytes32"
        },
        {
          "internalType": "address",
          "name": "account",
          "type": "address"
        }
      ],
      "name": "hasRole",
      "outputs": [
        {
          "internalType": "bool",
          "name": "",
          "type": "bool"
        }
      ],
      "stateMutability": "view",
      "type": "function"
    },
    {
      "inputs": [],
      "name": "miPrimerTokenAdd",
      "outputs": [
        {
          "internalType": "address",
          "name": "",
          "type": "address"
        }
      ],
      "stateMutability": "view",
      "type": "function"
    },
    {
      "inputs": [],
      "name": "participateInAirdrop",
      "outputs": [],
      "stateMutability": "nonpayable",
      "type": "function"
    },
    {
      "inputs": [],
      "name": "pause",
      "outputs": [],
      "stateMutability": "nonpayable",
      "type": "function"
    },
    {
      "inputs": [],
      "name": "paused",
      "outputs": [
        {
          "internalType": "bool",
          "name": "",
          "type": "bool"
        }
      ],
      "stateMutability": "view",
      "type": "function"
    },
    {
      "inputs": [],
      "name": "quemaTokensParticipar",
      "outputs": [
        {
          "internalType": "uint256",
          "name": "",
          "type": "uint256"
        }
      ],
      "stateMutability": "view",
      "type": "function"
    },
    {
      "inputs": [],
      "name": "quemarMisTokensParaParticipar",
      "outputs": [],
      "stateMutability": "nonpayable",
      "type": "function"
    },
    {
      "inputs": [
        {
          "internalType": "address",
          "name": "_account",
          "type": "address"
        }
      ],
      "name": "removeFromWhitelist",
      "outputs": [],
      "stateMutability": "nonpayable",
      "type": "function"
    },
    {
      "inputs": [
        {
          "internalType": "bytes32",
          "name": "role",
          "type": "bytes32"
        },
        {
          "internalType": "address",
          "name": "account",
          "type": "address"
        }
      ],
      "name": "renounceRole",
      "outputs": [],
      "stateMutability": "nonpayable",
      "type": "function"
    },
    {
      "inputs": [
        {
          "internalType": "bytes32",
          "name": "role",
          "type": "bytes32"
        },
        {
          "internalType": "address",
          "name": "account",
          "type": "address"
        }
      ],
      "name": "revokeRole",
      "outputs": [],
      "stateMutability": "nonpayable",
      "type": "function"
    },
    {
      "inputs": [
        {
          "internalType": "address",
          "name": "_tokenAddress",
          "type": "address"
        }
      ],
      "name": "setTokenAddress",
      "outputs": [],
      "stateMutability": "nonpayable",
      "type": "function"
    },
    {
      "inputs": [
        {
          "internalType": "bytes4",
          "name": "interfaceId",
          "type": "bytes4"
        }
      ],
      "name": "supportsInterface",
      "outputs": [
        {
          "internalType": "bool",
          "name": "",
          "type": "bool"
        }
      ],
      "stateMutability": "view",
      "type": "function"
    },
    {
      "inputs": [],
      "name": "totalAirdropMax",
      "outputs": [
        {
          "internalType": "uint256",
          "name": "",
          "type": "uint256"
        }
      ],
      "stateMutability": "view",
      "type": "function"
    },
    {
      "inputs": [],
      "name": "unpause",
      "outputs": [],
      "stateMutability": "nonpayable",
      "type": "function"
    },
    {
      "inputs": [
        {
          "internalType": "address",
          "name": "",
          "type": "address"
        }
      ],
      "name": "whiteList",
      "outputs": [
        {
          "internalType": "bool",
          "name": "",
          "type": "bool"
        }
      ],
      "stateMutability": "view",
      "type": "function"
    }
  ],
  "bytecode": "0x60806040523480156200001157600080fd5b5060405162001a2038038062001a208339818101604052810190620000379190620002ae565b60008060006101000a81548160ff02191690831515021790555080600360006101000a81548173ffffffffffffffffffffffffffffffffffffffff021916908373ffffffffffffffffffffffffffffffffffffffff160217905550620000a76000801b33620000e060201b60201c565b620000d97f65d7a28e3265b37a6474929f336521b332c1681b933f6cb9f3376673440d862a33620000e060201b60201c565b50620002e0565b620000f28282620001d160201b60201c565b620001cd57600180600084815260200190815260200160002060000160008373ffffffffffffffffffffffffffffffffffffffff1673ffffffffffffffffffffffffffffffffffffffff16815260200190815260200160002060006101000a81548160ff021916908315150217905550620001726200023c60201b60201c565b73ffffffffffffffffffffffffffffffffffffffff168173ffffffffffffffffffffffffffffffffffffffff16837f2f8788117e7eff1d82e926ec794901d17c78024a50270940304540a733656f0d60405160405180910390a45b5050565b60006001600084815260200190815260200160002060000160008373ffffffffffffffffffffffffffffffffffffffff1673ffffffffffffffffffffffffffffffffffffffff16815260200190815260200160002060009054906101000a900460ff16905092915050565b600033905090565b600080fd5b600073ffffffffffffffffffffffffffffffffffffffff82169050919050565b6000620002768262000249565b9050919050565b620002888162000269565b81146200029457600080fd5b50565b600081519050620002a8816200027d565b92915050565b600060208284031215620002c757620002c662000244565b5b6000620002d78482850162000297565b91505092915050565b61173080620002f06000396000f3fe608060405234801561001057600080fd5b50600436106101375760003560e01c80635c975abb116100b8578063a217fddf1161007c578063a217fddf14610312578063aa423b7f14610330578063abf2569e1461034e578063d547741f1461036c578063e63ab1e914610388578063f7dc6282146103a657610137565b80635c975abb146102945780638456cb59146102b25780638693ba37146102bc5780638ab1d681146102c657806391d14854146102e257610137565b8063349d4fad116100ff578063349d4fad1461020457806336568abe14610222578063372c12b11461023e5780633f4ba83a1461026e57806347ee03941461027857610137565b806301ffc9a71461013c578063086cd2a71461016c578063248a9ca31461019c57806326a4e8d2146101cc5780632f2ff15d146101e8575b600080fd5b61015660048036038101906101519190610f2a565b6103b0565b6040516101639190610f72565b60405180910390f35b61018660048036038101906101819190610feb565b61042a565b6040516101939190610f72565b60405180910390f35b6101b660048036038101906101b1919061104e565b61044a565b6040516101c3919061108a565b60405180910390f35b6101e660048036038101906101e19190610feb565b61046a565b005b61020260048036038101906101fd91906110a5565b6104ae565b005b61020c6104cf565b60405161021991906110f4565b60405180910390f35b61023c600480360381019061023791906110a5565b6104f5565b005b61025860048036038101906102539190610feb565b610578565b6040516102659190610f72565b60405180910390f35b610276610598565b005b610292600480360381019061028d9190610feb565b6105cd565b005b61029c610636565b6040516102a99190610f72565b60405180910390f35b6102ba61064c565b005b6102c4610681565b005b6102e060048036038101906102db9190610feb565b610698565b005b6102fc60048036038101906102f791906110a5565b610701565b6040516103099190610f72565b60405180910390f35b61031a61076c565b604051610327919061108a565b60405180910390f35b610338610773565b6040516103459190611128565b60405180910390f35b61035661077f565b6040516103639190611128565b60405180910390f35b610386600480360381019061038191906110a5565b61078d565b005b6103906107ae565b60405161039d919061108a565b60405180910390f35b6103ae6107d2565b005b60007f7965db0b000000000000000000000000000000000000000000000000000000007bffffffffffffffffffffffffffffffffffffffffffffffffffffffff1916827bffffffffffffffffffffffffffffffffffffffffffffffffffffffff191614806104235750610422826107dc565b5b9050919050565b60056020528060005260406000206000915054906101000a900460ff1681565b600060016000838152602001908152602001600020600101549050919050565b80600360006101000a81548173ffffffffffffffffffffffffffffffffffffffff021916908373ffffffffffffffffffffffffffffffffffffffff16021790555050565b6104b78261044a565b6104c081610846565b6104ca838361085a565b505050565b600360009054906101000a900473ffffffffffffffffffffffffffffffffffffffff1681565b6104fd61093a565b73ffffffffffffffffffffffffffffffffffffffff168173ffffffffffffffffffffffffffffffffffffffff161461056a576040517f08c379a0000000000000000000000000000000000000000000000000000000008152600401610561906111c6565b60405180910390fd5b6105748282610942565b5050565b60046020528060005260406000206000915054906101000a900460ff1681565b7f65d7a28e3265b37a6474929f336521b332c1681b933f6cb9f3376673440d862a6105c281610846565b6105ca610a24565b50565b6000801b6105da81610846565b6001600460008473ffffffffffffffffffffffffffffffffffffffff1673ffffffffffffffffffffffffffffffffffffffff16815260200190815260200160002060006101000a81548160ff0219169083151502179055505050565b60008060009054906101000a900460ff16905090565b7f65d7a28e3265b37a6474929f336521b332c1681b933f6cb9f3376673440d862a61067681610846565b61067e610a86565b50565b610689610ae8565b6000610693610b32565b905050565b6000801b6106a581610846565b6000600460008473ffffffffffffffffffffffffffffffffffffffff1673ffffffffffffffffffffffffffffffffffffffff16815260200190815260200160002060006101000a81548160ff0219169083151502179055505050565b60006001600084815260200190815260200160002060000160008373ffffffffffffffffffffffffffffffffffffffff1673ffffffffffffffffffffffffffffffffffffffff16815260200190815260200160002060009054906101000a900460ff16905092915050565b6000801b81565b678ac7230489e8000081565b69d3c21bcecceda100000081565b6107968261044a565b61079f81610846565b6107a98383610942565b505050565b7f65d7a28e3265b37a6474929f336521b332c1681b933f6cb9f3376673440d862a81565b6107da610ae8565b565b60007f01ffc9a7000000000000000000000000000000000000000000000000000000007bffffffffffffffffffffffffffffffffffffffffffffffffffffffff1916827bffffffffffffffffffffffffffffffffffffffffffffffffffffffff1916149050919050565b6108578161085261093a565b610b96565b50565b6108648282610701565b61093657600180600084815260200190815260200160002060000160008373ffffffffffffffffffffffffffffffffffffffff1673ffffffffffffffffffffffffffffffffffffffff16815260200190815260200160002060006101000a81548160ff0219169083151502179055506108db61093a565b73ffffffffffffffffffffffffffffffffffffffff168173ffffffffffffffffffffffffffffffffffffffff16837f2f8788117e7eff1d82e926ec794901d17c78024a50270940304540a733656f0d60405160405180910390a45b5050565b600033905090565b61094c8282610701565b15610a205760006001600084815260200190815260200160002060000160008373ffffffffffffffffffffffffffffffffffffffff1673ffffffffffffffffffffffffffffffffffffffff16815260200190815260200160002060006101000a81548160ff0219169083151502179055506109c561093a565b73ffffffffffffffffffffffffffffffffffffffff168173ffffffffffffffffffffffffffffffffffffffff16837ff6391f5c32d9c69d2a47ea670b442974b53935d1edc7fd64eb21e047a839171b60405160405180910390a45b5050565b610a2c610c1b565b60008060006101000a81548160ff0219169083151502179055507f5db9ee0a495bf2e6ff9c91a7834c1ba4fdd244a5e8aa4e537bd38aeae4b073aa610a6f61093a565b604051610a7c91906110f4565b60405180910390a1565b610a8e610ae8565b60016000806101000a81548160ff0219169083151502179055507f62e78cea01bee320cd4e420270b5ea74000d11b0c9f74754ebdbfc544b05a258610ad161093a565b604051610ade91906110f4565b60405180910390a1565b610af0610636565b15610b30576040517f08c379a0000000000000000000000000000000000000000000000000000000008152600401610b2790611232565b60405180910390fd5b565b60008060016103e84233604051602001610b4d9291906112bb565b6040516020818303038152906040528051906020012060001c610b709190611316565b610b7a9190611376565b9050670de0b6b3a764000081610b9091906113aa565b91505090565b610ba08282610701565b610c1757610bad81610c64565b610bbb8360001c6020610c91565b604051602001610bcc9291906114f5565b6040516020818303038152906040526040517f08c379a0000000000000000000000000000000000000000000000000000000008152600401610c0e9190611579565b60405180910390fd5b5050565b610c23610636565b610c62576040517f08c379a0000000000000000000000000000000000000000000000000000000008152600401610c59906115e7565b60405180910390fd5b565b6060610c8a8273ffffffffffffffffffffffffffffffffffffffff16601460ff16610c91565b9050919050565b606060006002836002610ca491906113aa565b610cae9190611376565b67ffffffffffffffff811115610cc757610cc6611607565b5b6040519080825280601f01601f191660200182016040528015610cf95781602001600182028036833780820191505090505b5090507f300000000000000000000000000000000000000000000000000000000000000081600081518110610d3157610d30611636565b5b60200101907effffffffffffffffffffffffffffffffffffffffffffffffffffffffffffff1916908160001a9053507f780000000000000000000000000000000000000000000000000000000000000081600181518110610d9557610d94611636565b5b60200101907effffffffffffffffffffffffffffffffffffffffffffffffffffffffffffff1916908160001a90535060006001846002610dd591906113aa565b610ddf9190611376565b90505b6001811115610e7f577f3031323334353637383961626364656600000000000000000000000000000000600f861660108110610e2157610e20611636565b5b1a60f81b828281518110610e3857610e37611636565b5b60200101907effffffffffffffffffffffffffffffffffffffffffffffffffffffffffffff1916908160001a905350600485901c945080610e7890611665565b9050610de2565b5060008414610ec3576040517f08c379a0000000000000000000000000000000000000000000000000000000008152600401610eba906116da565b60405180910390fd5b8091505092915050565b600080fd5b60007fffffffff0000000000000000000000000000000000000000000000000000000082169050919050565b610f0781610ed2565b8114610f1257600080fd5b50565b600081359050610f2481610efe565b92915050565b600060208284031215610f4057610f3f610ecd565b5b6000610f4e84828501610f15565b91505092915050565b60008115159050919050565b610f6c81610f57565b82525050565b6000602082019050610f876000830184610f63565b92915050565b600073ffffffffffffffffffffffffffffffffffffffff82169050919050565b6000610fb882610f8d565b9050919050565b610fc881610fad565b8114610fd357600080fd5b50565b600081359050610fe581610fbf565b92915050565b60006020828403121561100157611000610ecd565b5b600061100f84828501610fd6565b91505092915050565b6000819050919050565b61102b81611018565b811461103657600080fd5b50565b60008135905061104881611022565b92915050565b60006020828403121561106457611063610ecd565b5b600061107284828501611039565b91505092915050565b61108481611018565b82525050565b600060208201905061109f600083018461107b565b92915050565b600080604083850312156110bc576110bb610ecd565b5b60006110ca85828601611039565b92505060206110db85828601610fd6565b9150509250929050565b6110ee81610fad565b82525050565b600060208201905061110960008301846110e5565b92915050565b6000819050919050565b6111228161110f565b82525050565b600060208201905061113d6000830184611119565b92915050565b600082825260208201905092915050565b7f416363657373436f6e74726f6c3a2063616e206f6e6c792072656e6f756e636560008201527f20726f6c657320666f722073656c660000000000000000000000000000000000602082015250565b60006111b0602f83611143565b91506111bb82611154565b604082019050919050565b600060208201905081810360008301526111df816111a3565b9050919050565b7f5061757361626c653a2070617573656400000000000000000000000000000000600082015250565b600061121c601083611143565b9150611227826111e6565b602082019050919050565b6000602082019050818103600083015261124b8161120f565b9050919050565b6000819050919050565b61126d6112688261110f565b611252565b82525050565b60008160601b9050919050565b600061128b82611273565b9050919050565b600061129d82611280565b9050919050565b6112b56112b082610fad565b611292565b82525050565b60006112c7828561125c565b6020820191506112d782846112a4565b6014820191508190509392505050565b7f4e487b7100000000000000000000000000000000000000000000000000000000600052601260045260246000fd5b60006113218261110f565b915061132c8361110f565b92508261133c5761133b6112e7565b5b828206905092915050565b7f4e487b7100000000000000000000000000000000000000000000000000000000600052601160045260246000fd5b60006113818261110f565b915061138c8361110f565b92508282019050808211156113a4576113a3611347565b5b92915050565b60006113b58261110f565b91506113c08361110f565b92508282026113ce8161110f565b915082820484148315176113e5576113e4611347565b5b5092915050565b600081905092915050565b7f416363657373436f6e74726f6c3a206163636f756e7420000000000000000000600082015250565b600061142d6017836113ec565b9150611438826113f7565b601782019050919050565b600081519050919050565b60005b8381101561146c578082015181840152602081019050611451565b60008484015250505050565b600061148382611443565b61148d81856113ec565b935061149d81856020860161144e565b80840191505092915050565b7f206973206d697373696e6720726f6c6520000000000000000000000000000000600082015250565b60006114df6011836113ec565b91506114ea826114a9565b601182019050919050565b600061150082611420565b915061150c8285611478565b9150611517826114d2565b91506115238284611478565b91508190509392505050565b6000601f19601f8301169050919050565b600061154b82611443565b6115558185611143565b935061156581856020860161144e565b61156e8161152f565b840191505092915050565b600060208201905081810360008301526115938184611540565b905092915050565b7f5061757361626c653a206e6f7420706175736564000000000000000000000000600082015250565b60006115d1601483611143565b91506115dc8261159b565b602082019050919050565b60006020820190508181036000830152611600816115c4565b9050919050565b7f4e487b7100000000000000000000000000000000000000000000000000000000600052604160045260246000fd5b7f4e487b7100000000000000000000000000000000000000000000000000000000600052603260045260246000fd5b60006116708261110f565b91506000820361168357611682611347565b5b600182039050919050565b7f537472696e67733a20686578206c656e67746820696e73756666696369656e74600082015250565b60006116c4602083611143565b91506116cf8261168e565b602082019050919050565b600060208201905081810360008301526116f3816116b7565b905091905056fea26469706673582212201036a87e2d98ab2a6a1f5a0d90f81af509d4f2651761fa0feb39e5ea1d73815164736f6c63430008130033",
  "linkReferences": {},
  "deployedLinkReferences": {}
}