{
  "_format": "hh-sol-artifact-1",
  "contractName": "TestingOne",
  "sourceName": "contracts/class11/TestingOne.sol",
  "abi": [
    {
      "inputs": [
        {
          "internalType": "uint256",
          "name": "_year",
          "type": "uint256"
        },
        {
          "internalType": "uint256",
          "name": "_month",
          "type": "uint256"
        }
      ],
      "stateMutability": "payable",
      "type": "constructor"
    },
    {
      "inputs": [],
      "name": "WrongInput",
      "type": "error"
    },
    {
      "inputs": [
        {
          "internalType": "uint256",
          "name": "wrongInput",
          "type": "uint256"
        }
      ],
      "name": "WrongInputWithArgs",
      "type": "error"
    },
    {
      "anonymous": false,
      "inputs": [
        {
          "indexed": true,
          "internalType": "address",
          "name": "owner",
          "type": "address"
        },
        {
          "indexed": true,
          "internalType": "address",
          "name": "spender",
          "type": "address"
        },
        {
          "indexed": false,
          "internalType": "uint256",
          "name": "value",
          "type": "uint256"
        }
      ],
      "name": "Approval",
      "type": "event"
    },
    {
      "anonymous": false,
      "inputs": [
        {
          "indexed": false,
          "internalType": "address",
          "name": "account",
          "type": "address"
        }
      ],
      "name": "Caller",
      "type": "event"
    },
    {
      "anonymous": false,
      "inputs": [
        {
          "indexed": false,
          "internalType": "address",
          "name": "account",
          "type": "address"
        },
        {
          "indexed": false,
          "internalType": "uint256",
          "name": "year",
          "type": "uint256"
        },
        {
          "indexed": false,
          "internalType": "uint256",
          "name": "month",
          "type": "uint256"
        }
      ],
      "name": "CallerAndState",
      "type": "event"
    },
    {
      "anonymous": false,
      "inputs": [
        {
          "indexed": true,
          "internalType": "address",
          "name": "from",
          "type": "address"
        },
        {
          "indexed": true,
          "internalType": "address",
          "name": "to",
          "type": "address"
        },
        {
          "indexed": false,
          "internalType": "uint256",
          "name": "value",
          "type": "uint256"
        }
      ],
      "name": "Transfer",
      "type": "event"
    },
    {
      "inputs": [
        {
          "internalType": "address",
          "name": "owner",
          "type": "address"
        },
        {
          "internalType": "address",
          "name": "spender",
          "type": "address"
        }
      ],
      "name": "allowance",
      "outputs": [
        {
          "internalType": "uint256",
          "name": "",
          "type": "uint256"
        }
      ],
      "stateMutability": "view",
      "type": "function"
    },
    {
      "inputs": [
        {
          "internalType": "address",
          "name": "spender",
          "type": "address"
        },
        {
          "internalType": "uint256",
          "name": "amount",
          "type": "uint256"
        }
      ],
      "name": "approve",
      "outputs": [
        {
          "internalType": "bool",
          "name": "",
          "type": "bool"
        }
      ],
      "stateMutability": "nonpayable",
      "type": "function"
    },
    {
      "inputs": [
        {
          "internalType": "address",
          "name": "account",
          "type": "address"
        }
      ],
      "name": "balanceOf",
      "outputs": [
        {
          "internalType": "uint256",
          "name": "",
          "type": "uint256"
        }
      ],
      "stateMutability": "view",
      "type": "function"
    },
    {
      "inputs": [],
      "name": "caller",
      "outputs": [
        {
          "internalType": "address",
          "name": "",
          "type": "address"
        }
      ],
      "stateMutability": "view",
      "type": "function"
    },
    {
      "inputs": [],
      "name": "decimals",
      "outputs": [
        {
          "internalType": "uint8",
          "name": "",
          "type": "uint8"
        }
      ],
      "stateMutability": "view",
      "type": "function"
    },
    {
      "inputs": [
        {
          "internalType": "address",
          "name": "spender",
          "type": "address"
        },
        {
          "internalType": "uint256",
          "name": "subtractedValue",
          "type": "uint256"
        }
      ],
      "name": "decreaseAllowance",
      "outputs": [
        {
          "internalType": "bool",
          "name": "",
          "type": "bool"
        }
      ],
      "stateMutability": "nonpayable",
      "type": "function"
    },
    {
      "inputs": [],
      "name": "enviarEther",
      "outputs": [],
      "stateMutability": "payable",
      "type": "function"
    },
    {
      "inputs": [],
      "name": "fireEvents",
      "outputs": [],
      "stateMutability": "nonpayable",
      "type": "function"
    },
    {
      "inputs": [
        {
          "internalType": "address",
          "name": "spender",
          "type": "address"
        },
        {
          "internalType": "uint256",
          "name": "addedValue",
          "type": "uint256"
        }
      ],
      "name": "increaseAllowance",
      "outputs": [
        {
          "internalType": "bool",
          "name": "",
          "type": "bool"
        }
      ],
      "stateMutability": "nonpayable",
      "type": "function"
    },
    {
      "inputs": [
        {
          "internalType": "address",
          "name": "to",
          "type": "address"
        },
        {
          "internalType": "uint256",
          "name": "amount",
          "type": "uint256"
        }
      ],
      "name": "mint",
      "outputs": [],
      "stateMutability": "nonpayable",
      "type": "function"
    },
    {
      "inputs": [],
      "name": "month",
      "outputs": [
        {
          "internalType": "uint256",
          "name": "",
          "type": "uint256"
        }
      ],
      "stateMutability": "view",
      "type": "function"
    },
    {
      "inputs": [],
      "name": "name",
      "outputs": [
        {
          "internalType": "string",
          "name": "",
          "type": "string"
        }
      ],
      "stateMutability": "view",
      "type": "function"
    },
    {
      "inputs": [
        {
          "internalType": "uint256",
          "name": "_etherAmount",
          "type": "uint256"
        }
      ],
      "name": "reclamarEther",
      "outputs": [],
      "stateMutability": "nonpayable",
      "type": "function"
    },
    {
      "inputs": [
        {
          "internalType": "uint256",
          "name": "_year",
          "type": "uint256"
        },
        {
          "internalType": "uint256",
          "name": "_month",
          "type": "uint256"
        }
      ],
      "name": "setYearAndMonth",
      "outputs": [],
      "stateMutability": "nonpayable",
      "type": "function"
    },
    {
      "inputs": [],
      "name": "symbol",
      "outputs": [
        {
          "internalType": "string",
          "name": "",
          "type": "string"
        }
      ],
      "stateMutability": "view",
      "type": "function"
    },
    {
      "inputs": [],
      "name": "totalSupply",
      "outputs": [
        {
          "internalType": "uint256",
          "name": "",
          "type": "uint256"
        }
      ],
      "stateMutability": "view",
      "type": "function"
    },
    {
      "inputs": [
        {
          "internalType": "address",
          "name": "to",
          "type": "address"
        },
        {
          "internalType": "uint256",
          "name": "amount",
          "type": "uint256"
        }
      ],
      "name": "transfer",
      "outputs": [
        {
          "internalType": "bool",
          "name": "",
          "type": "bool"
        }
      ],
      "stateMutability": "nonpayable",
      "type": "function"
    },
    {
      "inputs": [
        {
          "internalType": "address",
          "name": "from",
          "type": "address"
        },
        {
          "internalType": "address",
          "name": "to",
          "type": "address"
        },
        {
          "internalType": "uint256",
          "name": "amount",
          "type": "uint256"
        }
      ],
      "name": "transferFrom",
      "outputs": [
        {
          "internalType": "bool",
          "name": "",
          "type": "bool"
        }
      ],
      "stateMutability": "nonpayable",
      "type": "function"
    },
    {
      "inputs": [
        {
          "internalType": "uint256",
          "name": "_input",
          "type": "uint256"
        }
      ],
      "name": "validarInput",
      "outputs": [],
      "stateMutability": "nonpayable",
      "type": "function"
    },
    {
      "inputs": [
        {
          "internalType": "uint256",
          "name": "_input",
          "type": "uint256"
        }
      ],
      "name": "validarInput2",
      "outputs": [],
      "stateMutability": "nonpayable",
      "type": "function"
    },
    {
      "inputs": [
        {
          "internalType": "uint256",
          "name": "_input",
          "type": "uint256"
        }
      ],
      "name": "validarInput3",
      "outputs": [],
      "stateMutability": "nonpayable",
      "type": "function"
    },
    {
      "inputs": [],
      "name": "year",
      "outputs": [
        {
          "internalType": "uint256",
          "name": "",
          "type": "uint256"
        }
      ],
      "stateMutability": "view",
      "type": "function"
    }
  ],
  "bytecode": "0x608060405260405162001eda38038062001eda833981810160405281019062000029919062000111565b6040518060400160405280600b81526020017f54657374696e67204f6e650000000000000000000000000000000000000000008152506040518060400160405280600781526020017f5453544e4f4e45000000000000000000000000000000000000000000000000008152508160039081620000a69190620003c8565b508060049081620000b89190620003c8565b50505081600581905550806006819055505050620004af565b600080fd5b6000819050919050565b620000eb81620000d6565b8114620000f757600080fd5b50565b6000815190506200010b81620000e0565b92915050565b600080604083850312156200012b576200012a620000d1565b5b60006200013b85828601620000fa565b92505060206200014e85828601620000fa565b9150509250929050565b600081519050919050565b7f4e487b7100000000000000000000000000000000000000000000000000000000600052604160045260246000fd5b7f4e487b7100000000000000000000000000000000000000000000000000000000600052602260045260246000fd5b60006002820490506001821680620001da57607f821691505b602082108103620001f057620001ef62000192565b5b50919050565b60008190508160005260206000209050919050565b60006020601f8301049050919050565b600082821b905092915050565b6000600883026200025a7fffffffffffffffffffffffffffffffffffffffffffffffffffffffffffffffff826200021b565b6200026686836200021b565b95508019841693508086168417925050509392505050565b6000819050919050565b6000620002a9620002a36200029d84620000d6565b6200027e565b620000d6565b9050919050565b6000819050919050565b620002c58362000288565b620002dd620002d482620002b0565b84845462000228565b825550505050565b600090565b620002f4620002e5565b62000301818484620002ba565b505050565b5b8181101562000329576200031d600082620002ea565b60018101905062000307565b5050565b601f82111562000378576200034281620001f6565b6200034d846200020b565b810160208510156200035d578190505b620003756200036c856200020b565b83018262000306565b50505b505050565b600082821c905092915050565b60006200039d600019846008026200037d565b1980831691505092915050565b6000620003b883836200038a565b9150826002028217905092915050565b620003d38262000158565b67ffffffffffffffff811115620003ef57620003ee62000163565b5b620003fb8254620001c1565b620004088282856200032d565b600060209050601f8311600181146200044057600084156200042b578287015190505b620004378582620003aa565b865550620004a7565b601f1984166200045086620001f6565b60005b828110156200047a5784890151825560018201915060208501945060208101905062000453565b868310156200049a578489015162000496601f8916826200038a565b8355505b6001600288020188555050505b505050505050565b611a1b80620004bf6000396000f3fe6080604052600436106101355760003560e01c806370a08231116100ab578063a9059cbb1161006f578063a9059cbb14610407578063c82b7b2014610444578063dd62ed3e1461046d578063e6c9d324146104aa578063f3269716146104d3578063fc9c8d39146104fe57610135565b806370a082311461031057806374024b251461034d5780637e901ba51461037657806395d89b411461039f578063a457c2d7146103ca57610135565b8063313ce567116100fd578063313ce56714610214578063395093511461023f57806340c10f191461027c5780634f621b35146102a557806362398715146102bc578063702921f5146102e557610135565b806306fdde031461013a578063095ea7b3146101655780631519f5c8146101a257806318160ddd146101ac57806323b872dd146101d7575b600080fd5b34801561014657600080fd5b5061014f610529565b60405161015c9190611152565b60405180910390f35b34801561017157600080fd5b5061018c6004803603810190610187919061120d565b6105bb565b6040516101999190611268565b60405180910390f35b6101aa6105de565b005b3480156101b857600080fd5b506101c16105e0565b6040516101ce9190611292565b60405180910390f35b3480156101e357600080fd5b506101fe60048036038101906101f991906112ad565b6105ea565b60405161020b9190611268565b60405180910390f35b34801561022057600080fd5b50610229610619565b604051610236919061131c565b60405180910390f35b34801561024b57600080fd5b506102666004803603810190610261919061120d565b610622565b6040516102739190611268565b60405180910390f35b34801561028857600080fd5b506102a3600480360381019061029e919061120d565b610659565b005b3480156102b157600080fd5b506102ba610667565b005b3480156102c857600080fd5b506102e360048036038101906102de9190611337565b6106df565b005b3480156102f157600080fd5b506102fa610729565b6040516103079190611292565b60405180910390f35b34801561031c57600080fd5b5061033760048036038101906103329190611364565b61072f565b6040516103449190611292565b60405180910390f35b34801561035957600080fd5b50610374600480360381019061036f9190611337565b610777565b005b34801561038257600080fd5b5061039d60048036038101906103989190611337565b6107bd565b005b3480156103ab57600080fd5b506103b461080c565b6040516103c19190611152565b60405180910390f35b3480156103d657600080fd5b506103f160048036038101906103ec919061120d565b61089e565b6040516103fe9190611268565b60405180910390f35b34801561041357600080fd5b5061042e6004803603810190610429919061120d565b610915565b60405161043b9190611268565b60405180910390f35b34801561045057600080fd5b5061046b60048036038101906104669190611337565b610938565b005b34801561047957600080fd5b50610494600480360381019061048f9190611391565b610989565b6040516104a19190611292565b60405180910390f35b3480156104b657600080fd5b506104d160048036038101906104cc91906113d1565b610a10565b005b3480156104df57600080fd5b506104e8610a63565b6040516104f59190611292565b60405180910390f35b34801561050a57600080fd5b50610513610a69565b6040516105209190611420565b60405180910390f35b6060600380546105389061146a565b80601f01602080910402602001604051908101604052809291908181526020018280546105649061146a565b80156105b15780601f10610586576101008083540402835291602001916105b1565b820191906000526020600020905b81548152906001019060200180831161059457829003601f168201915b5050505050905090565b6000806105c6610a8f565b90506105d3818585610a97565b600191505092915050565b565b6000600254905090565b6000806105f5610a8f565b9050610602858285610c60565b61060d858585610cec565b60019150509392505050565b60006012905090565b60008061062d610a8f565b905061064e81858561063f8589610989565b61064991906114ca565b610a97565b600191505092915050565b6106638282610f62565b5050565b7f20f727e2e534ee85bce2bd7f2517088456c3f2040194b18a6c3da3fee1a02adf336040516106969190611420565b60405180910390a17f932780aaaf49648e9af21ab67353e69ff329ca1d36c9220e0c8bfebe6be159b3336005546006546040516106d5939291906114fe565b60405180910390a1565b3373ffffffffffffffffffffffffffffffffffffffff166108fc829081150290604051600060405180830381858888f19350505050158015610725573d6000803e3d6000fd5b5050565b60065481565b60008060008373ffffffffffffffffffffffffffffffffffffffff1673ffffffffffffffffffffffffffffffffffffffff168152602001908152602001600020549050919050565b6103e88110156107b3576040517ff50b9e3d00000000000000000000000000000000000000000000000000000000815260040160405180910390fd5b8060088190555050565b6103e8811015610802576040517f08c379a00000000000000000000000000000000000000000000000000000000081526004016107f990611581565b60405180910390fd5b8060088190555050565b60606004805461081b9061146a565b80601f01602080910402602001604051908101604052809291908181526020018280546108479061146a565b80156108945780601f1061086957610100808354040283529160200191610894565b820191906000526020600020905b81548152906001019060200180831161087757829003601f168201915b5050505050905090565b6000806108a9610a8f565b905060006108b78286610989565b9050838110156108fc576040517f08c379a00000000000000000000000000000000000000000000000000000000081526004016108f390611613565b60405180910390fd5b6109098286868403610a97565b60019250505092915050565b600080610920610a8f565b905061092d818585610cec565b600191505092915050565b6103e881101561097f57806040517f9834ac550000000000000000000000000000000000000000000000000000000081526004016109769190611292565b60405180910390fd5b8060088190555050565b6000600160008473ffffffffffffffffffffffffffffffffffffffff1673ffffffffffffffffffffffffffffffffffffffff16815260200190815260200160002060008373ffffffffffffffffffffffffffffffffffffffff1673ffffffffffffffffffffffffffffffffffffffff16815260200190815260200160002054905092915050565b816005819055508060068190555033600760006101000a81548173ffffffffffffffffffffffffffffffffffffffff021916908373ffffffffffffffffffffffffffffffffffffffff1602179055505050565b60055481565b600760009054906101000a900473ffffffffffffffffffffffffffffffffffffffff1681565b600033905090565b600073ffffffffffffffffffffffffffffffffffffffff168373ffffffffffffffffffffffffffffffffffffffff1603610b06576040517f08c379a0000000000000000000000000000000000000000000000000000000008152600401610afd906116a5565b60405180910390fd5b600073ffffffffffffffffffffffffffffffffffffffff168273ffffffffffffffffffffffffffffffffffffffff1603610b75576040517f08c379a0000000000000000000000000000000000000000000000000000000008152600401610b6c90611737565b60405180910390fd5b80600160008573ffffffffffffffffffffffffffffffffffffffff1673ffffffffffffffffffffffffffffffffffffffff16815260200190815260200160002060008473ffffffffffffffffffffffffffffffffffffffff1673ffffffffffffffffffffffffffffffffffffffff168152602001908152602001600020819055508173ffffffffffffffffffffffffffffffffffffffff168373ffffffffffffffffffffffffffffffffffffffff167f8c5be1e5ebec7d5bd14f71427d1e84f3dd0314c0f7b2291e5b200ac8c7c3b92583604051610c539190611292565b60405180910390a3505050565b6000610c6c8484610989565b90507fffffffffffffffffffffffffffffffffffffffffffffffffffffffffffffffff8114610ce65781811015610cd8576040517f08c379a0000000000000000000000000000000000000000000000000000000008152600401610ccf906117a3565b60405180910390fd5b610ce58484848403610a97565b5b50505050565b600073ffffffffffffffffffffffffffffffffffffffff168373ffffffffffffffffffffffffffffffffffffffff1603610d5b576040517f08c379a0000000000000000000000000000000000000000000000000000000008152600401610d5290611835565b60405180910390fd5b600073ffffffffffffffffffffffffffffffffffffffff168273ffffffffffffffffffffffffffffffffffffffff1603610dca576040517f08c379a0000000000000000000000000000000000000000000000000000000008152600401610dc1906118c7565b60405180910390fd5b610dd58383836110b8565b60008060008573ffffffffffffffffffffffffffffffffffffffff1673ffffffffffffffffffffffffffffffffffffffff16815260200190815260200160002054905081811015610e5b576040517f08c379a0000000000000000000000000000000000000000000000000000000008152600401610e5290611959565b60405180910390fd5b8181036000808673ffffffffffffffffffffffffffffffffffffffff1673ffffffffffffffffffffffffffffffffffffffff16815260200190815260200160002081905550816000808573ffffffffffffffffffffffffffffffffffffffff1673ffffffffffffffffffffffffffffffffffffffff168152602001908152602001600020600082825401925050819055508273ffffffffffffffffffffffffffffffffffffffff168473ffffffffffffffffffffffffffffffffffffffff167fddf252ad1be2c89b69c2b068fc378daa952ba7f163c4a11628f55a4df523b3ef84604051610f499190611292565b60405180910390a3610f5c8484846110bd565b50505050565b600073ffffffffffffffffffffffffffffffffffffffff168273ffffffffffffffffffffffffffffffffffffffff1603610fd1576040517f08c379a0000000000000000000000000000000000000000000000000000000008152600401610fc8906119c5565b60405180910390fd5b610fdd600083836110b8565b8060026000828254610fef91906114ca565b92505081905550806000808473ffffffffffffffffffffffffffffffffffffffff1673ffffffffffffffffffffffffffffffffffffffff168152602001908152602001600020600082825401925050819055508173ffffffffffffffffffffffffffffffffffffffff16600073ffffffffffffffffffffffffffffffffffffffff167fddf252ad1be2c89b69c2b068fc378daa952ba7f163c4a11628f55a4df523b3ef836040516110a09190611292565b60405180910390a36110b4600083836110bd565b5050565b505050565b505050565b600081519050919050565b600082825260208201905092915050565b60005b838110156110fc5780820151818401526020810190506110e1565b60008484015250505050565b6000601f19601f8301169050919050565b6000611124826110c2565b61112e81856110cd565b935061113e8185602086016110de565b61114781611108565b840191505092915050565b6000602082019050818103600083015261116c8184611119565b905092915050565b600080fd5b600073ffffffffffffffffffffffffffffffffffffffff82169050919050565b60006111a482611179565b9050919050565b6111b481611199565b81146111bf57600080fd5b50565b6000813590506111d1816111ab565b92915050565b6000819050919050565b6111ea816111d7565b81146111f557600080fd5b50565b600081359050611207816111e1565b92915050565b6000806040838503121561122457611223611174565b5b6000611232858286016111c2565b9250506020611243858286016111f8565b9150509250929050565b60008115159050919050565b6112628161124d565b82525050565b600060208201905061127d6000830184611259565b92915050565b61128c816111d7565b82525050565b60006020820190506112a76000830184611283565b92915050565b6000806000606084860312156112c6576112c5611174565b5b60006112d4868287016111c2565b93505060206112e5868287016111c2565b92505060406112f6868287016111f8565b9150509250925092565b600060ff82169050919050565b61131681611300565b82525050565b6000602082019050611331600083018461130d565b92915050565b60006020828403121561134d5761134c611174565b5b600061135b848285016111f8565b91505092915050565b60006020828403121561137a57611379611174565b5b6000611388848285016111c2565b91505092915050565b600080604083850312156113a8576113a7611174565b5b60006113b6858286016111c2565b92505060206113c7858286016111c2565b9150509250929050565b600080604083850312156113e8576113e7611174565b5b60006113f6858286016111f8565b9250506020611407858286016111f8565b9150509250929050565b61141a81611199565b82525050565b60006020820190506114356000830184611411565b92915050565b7f4e487b7100000000000000000000000000000000000000000000000000000000600052602260045260246000fd5b6000600282049050600182168061148257607f821691505b6020821081036114955761149461143b565b5b50919050565b7f4e487b7100000000000000000000000000000000000000000000000000000000600052601160045260246000fd5b60006114d5826111d7565b91506114e0836111d7565b92508282019050808211156114f8576114f761149b565b5b92915050565b60006060820190506115136000830186611411565b6115206020830185611283565b61152d6040830184611283565b949350505050565b7f496e70757420496e636f72726563746f00000000000000000000000000000000600082015250565b600061156b6010836110cd565b915061157682611535565b602082019050919050565b6000602082019050818103600083015261159a8161155e565b9050919050565b7f45524332303a2064656372656173656420616c6c6f77616e63652062656c6f7760008201527f207a65726f000000000000000000000000000000000000000000000000000000602082015250565b60006115fd6025836110cd565b9150611608826115a1565b604082019050919050565b6000602082019050818103600083015261162c816115f0565b9050919050565b7f45524332303a20617070726f76652066726f6d20746865207a65726f2061646460008201527f7265737300000000000000000000000000000000000000000000000000000000602082015250565b600061168f6024836110cd565b915061169a82611633565b604082019050919050565b600060208201905081810360008301526116be81611682565b9050919050565b7f45524332303a20617070726f766520746f20746865207a65726f20616464726560008201527f7373000000000000000000000000000000000000000000000000000000000000602082015250565b60006117216022836110cd565b915061172c826116c5565b604082019050919050565b6000602082019050818103600083015261175081611714565b9050919050565b7f45524332303a20696e73756666696369656e7420616c6c6f77616e6365000000600082015250565b600061178d601d836110cd565b915061179882611757565b602082019050919050565b600060208201905081810360008301526117bc81611780565b9050919050565b7f45524332303a207472616e736665722066726f6d20746865207a65726f20616460008201527f6472657373000000000000000000000000000000000000000000000000000000602082015250565b600061181f6025836110cd565b915061182a826117c3565b604082019050919050565b6000602082019050818103600083015261184e81611812565b9050919050565b7f45524332303a207472616e7366657220746f20746865207a65726f206164647260008201527f6573730000000000000000000000000000000000000000000000000000000000602082015250565b60006118b16023836110cd565b91506118bc82611855565b604082019050919050565b600060208201905081810360008301526118e0816118a4565b9050919050565b7f45524332303a207472616e7366657220616d6f756e742065786365656473206260008201527f616c616e63650000000000000000000000000000000000000000000000000000602082015250565b60006119436026836110cd565b915061194e826118e7565b604082019050919050565b6000602082019050818103600083015261197281611936565b9050919050565b7f45524332303a206d696e7420746f20746865207a65726f206164647265737300600082015250565b60006119af601f836110cd565b91506119ba82611979565b602082019050919050565b600060208201905081810360008301526119de816119a2565b905091905056fea2646970667358221220ac122da7b24724f7c198179fbcb911cf152c5e8074763a82e020969a754c34a764736f6c63430008130033",
  "linkReferences": {},
  "deployedLinkReferences": {}
}